:020000040000fa
:080000000002040000000000f2
:020000040000fa
:04000800e60300000b
:020000040000fa
:04000c00e603000007
:020000040000fa
:04001000e603000003
:020000040000fa
:04001400e6030000ff
:020000040000fa
:04001800e6030000fb
:020000040000fa
:04001c00e6030000f7
:020000040000fa
:04002000e6030000f3
:020000040000fa
:04002400e6030000ef
:020000040000fa
:04002800e6030000eb
:020000040000fa
:04002c00e6030000e7
:020000040000fa
:04003000e6030000e3
:020000040000fa
:040034000a030000bb
:020000040000fa
:04003800e6030000db
:020000040000fa
:04003c00e6030000d7
:020000040000fa
:04004000e6030000d3
:020000040000fa
:04004400e6030000cf
:020000040000fa
:0400480002030000af
:020000040000fa
:04004c00e6030000c7
:020000040000fa
:04005000e6030000c3
:020000040000fa
:04005400a203000003
:020000040000fa
:040058007803000029
:020000040000fa
:04005c005403000049
:020000040000fa
:04006000e6030000b3
:020000040000fa
:04006400e6030000af
:020000040000fa
:04006800e6030000ab
:020000040000fa
:04006c00e6030000a7
:020000040000fa
:04007000e6030000a3
:020000040000fa
:04007400e60300009f
:020000040000fa
:04007800e60300009b
:020000040000fa
:04007c00e603000097
:020000040000fa
:04008000e603000093
:020000040000fa
:04008400e60300008f
:020000040000fa
:04008800e60300008b
:020000040000fa
:04008c00e603000087
:020000040000fa
:04009000e603000083
:020000040000fa
:040094002a0300003b
:020000040000fa
:04009800e60300007b
:020000040000fa
:04009c00e603000077
:020000040000fa
:0400a000e603000073
:020000040000fa
:0400a400e60300006f
:020000040000fa
:0400a800e60300006b
:020000040000fa
:0400ac00e603000067
:020000040000fa
:0400b000e603000063
:020000040000fa
:0400b400e60300005f
:020000040000fa
:0400b800e60300005b
:020000040000fa
:0400bc00e603000057
:020000040000fa
:0400c000e603000053
:020000040000fa
:0400c400e60300004f
:020000040000fa
:0400c800e60300004b
:020000040000fa
:0400cc00e603000047
:020000040000fa
:0400d000e603000043
:020000040000fa
:0400d400e60300003f
:020000040000fa
:0400d800e60300003b
:020000040000fa
:0400dc00e603000037
:020000040000fa
:0400e000e603000033
:020000040000fa
:0400e400e60300002f
:020000040000fa
:0400e800e60300002b
:020000040000fa
:0400ec00e603000027
:020000040000fa
:0400f000e603000023
:020000040000fa
:0400f400e60300001f
:020000040000fa
:0400f800e60300001b
:020000040000fa
:0400fc00e603000017
:020000040000fa
:04010000e603000012
:020000040000fa
:04010400e60300000e
:020000040000fa
:04010800e60300000a
:020000040000fa
:04010c00e603000006
:020000040000fa
:04011000e603000002
:020000040000fa
:04011400e6030000fe
:020000040000fa
:04011800e6030000fa
:020000040000fa
:04011c00e6030000f6
:020000040000fa
:04012000e6030000f2
:020000040000fa
:04012400e6030000ee
:020000040000fa
:04012800e6030000ea
:020000040000fa
:04012c00e6030000e6
:020000040000fa
:04013000e6030000e2
:020000040000fa
:04013400e6030000de
:020000040000fa
:04013800e6030000da
:020000040000fa
:04013c00e6030000d6
:020000040000fa
:04014000e6030000d2
:020000040000fa
:04014400e6030000ce
:020000040000fa
:04014800e6030000ca
:020000040000fa
:04014c00e6030000c6
:020000040000fa
:04015000e6030000c2
:020000040000fa
:04015400e6030000be
:020000040000fa
:04015800e6030000ba
:020000040000fa
:04015c00e6030000b6
:020000040000fa
:04016000e6030000b2
:020000040000fa
:04016400e6030000ae
:020000040000fa
:04016800e6030000aa
:020000040000fa
:04016c00e6030000a6
:020000040000fa
:04017000e6030000a2
:020000040000fa
:04017400e60300009e
:020000040000fa
:04017800e60300009a
:020000040000fa
:04017c00e603000096
:020000040000fa
:04018000e603000092
:020000040000fa
:04018400e60300008e
:020000040000fa
:04018800e60300008a
:020000040000fa
:04018c00e603000086
:020000040000fa
:04019000e603000082
:020000040000fa
:04019400e60300007e
:020000040000fa
:04019800e60300007a
:020000040000fa
:04019c00e603000076
:020000040000fa
:0401a000e603000072
:020000040000fa
:0401a400e60300006e
:020000040000fa
:0401a800e60300006a
:020000040000fa
:0401ac00e603000066
:020000040000fa
:0401b000e603000062
:020000040000fa
:0401b400e60300005e
:020000040000fa
:0401b800e60300005a
:020000040000fa
:0401bc00e603000056
:020000040000fa
:0401c000e603000052
:020000040000fa
:0401c400e60300004e
:020000040000fa
:0401c800e60300004a
:020000040000fa
:0401cc00e603000046
:020000040000fa
:0401d000e603000042
:020000040000fa
:0401d400e60300003e
:020000040000fa
:0401d800e60300003a
:020000040000fa
:0401dc00e603000036
:020000040000fa
:0401e000e603000032
:020000040000fa
:0401e400e60300002e
:020000040000fa
:0401e800e60300002a
:020000040000fa
:0401ec00e603000026
:020000040000fa
:0401f000e603000022
:020000040000fa
:0401f400e60300001e
:020000040000fa
:0401f800e60300001a
:020000040000fa
:0401fc00e603000016
:020000040000fa
:04020000e603000011
:020000040000fa
:04020400e60300000d
:020000040000fa
:04020800e603000009
:020000040000fa
:04020c00e603000005
:020000040000fa
:04021000e603000001
:020000040000fa
:04021400e6030000fd
:020000040000fa
:04021800e6030000f9
:020000040000fa
:04021c00e6030000f5
:020000040000fa
:04022000e6030000f1
:020000040000fa
:04022400e6030000ed
:020000040000fa
:04022800e6030000e9
:020000040000fa
:04022c00e6030000e5
:020000040000fa
:04023000e6030000e1
:020000040000fa
:04023400e6030000dd
:020000040000fa
:04023800e6030000d9
:020000040000fa
:04023c00e6030000d5
:020000040000fa
:04024000e6030000d1
:020000040000fa
:04024400e6030000cd
:020000040000fa
:04024800e6030000c9
:020000040000fa
:04024c00e6030000c5
:020000040000fa
:04025000e6030000c1
:020000040000fa
:04025400e6030000bd
:020000040000fa
:04025800e6030000b9
:020000040000fa
:04025c00e6030000b5
:020000040000fa
:04026000e6030000b1
:020000040000fa
:04026400e6030000ad
:020000040000fa
:04026800e6030000a9
:020000040000fa
:04026c00e6030000a5
:020000040000fa
:04027000e6030000a1
:020000040000fa
:04027400e60300009d
:020000040000fa
:04027800e603000099
:020000040000fa
:04027c00e603000095
:020000040000fa
:04028000e603000091
:020000040000fa
:100400004f1e21000eff27000e0188000000000093
:10041000000020000000e000020032000001200087
:100420002002880014000700ea0007000000e00036
:1004300003003a00a0c7210001002000020037009d
:100440000000200001002000810f70000100320038
:100450000f000700000020000000e0000200320052
:100460000000020000000000be07020000000000c3
:100470000040da000000fe00800020000000e000e4
:1004800002003200002020009001880000000600d9
:10049000a1028800800478000000eb001f003700f4
:1004a000e284440054a0b4009905ba00e2844400f8
:1004b00054a0b4009906ba00e284440054a0b400e9
:1004c0000006eb00476fde00fd07b200ae018800ba
:1004d000636ce10003003a000ad801000000eb0061
:1004e0000e003700606ce10008003a00004deb00a0
:1004f0000a05e800020039003420ec000af0a000f0
:100500008b05e900f9ff3e00040037006168e10057
:10051000010032000086eb000b00070019c7ba008b
:100520000e04e0001905ba0003003a000a00e000da
:10053000dbff3a0000000600fe07b200ae028800b2
:100540008a047800f5ff37000cd0a300e20f4d00bd
:100550001c00390089027800354dba000a05e80010
:10056000020039003420ec000af0a0008b05e900fd
:100570000f003200254dba000a05e80002003900dc
:100580003420ec000af0a0008b05e90008003200de
:100590000c00e0000600320015cdba000a05e800a4
:1005a000020039003420ec000af0a0008b05e900bd
:1005b0008984e80054a0b4000b00e000e2ff3a0098
:1005c000000006009902ba00055d78008b05e9007d
:1005d000f7ff3200c82ade00055d78008b05e900d0
:1005e000f3ff32000c00e000f1ff320019ddba0029
:1005f000eeff3700fc1404000000000004150400a6
:10060000000000000000fa000108a9000080fa00c4
:10061000004006003600f800809fbe00829fbe00aa
:10062000849fbe00869fbe000000fa000068a900fb
:100630005a0a0700260c07000080fa004f03be008c
:100640004f02be004f01be004f00be003600f90051
:10065000004006003600f800809fbe00829fbe006a
:10066000849fbe00869fbe000000fa000368a900b8
:10067000008180001181800061004000e08048001e
:1006800000818800118188001d0307000080fa00a6
:100690004f03be004f02be004f01be004f00be0020
:1006a0003600f90000400600801f78000000fa00c4
:1006b00001a8a90000188000d08e880010188000c2
:1006c000e08e880020188000f08e880030188000ae
:1006d000008f880040188000108f880010c0b30081
:1006e00033f0b7000080fa004f00780000400600a9
:1006f0003600f800809fbe00829fbe00849fbe002f
:10070000869fbe000000fa000188a9004181800098
:1007100030818000808f5000020032008d0b070076
:10072000010037002a70ef000080fa004f03be007e
:100730004f02be004f01be004f00be003600f90060
:10074000004006003600f800809fbe00829fbe0079
:10075000849fbe00869fbe000000fa000168a900c9
:1007600010118000640060000000e0000100320011
:100770002242a90010118000620060000000e00029
:10078000060032002222a900050037003011800047
:1007900000407800de0b0700010037000000000079
:1007a00010118000610060000000e000f7ff3a00d7
:1007b0000080fa004f03be004f02be004f01be0092
:1007c0004f00be003600f900004006000040da008d
:1007d0000000fe000000050003f0a200889fbe009c
:1007e0008a9fbe008c1f78002a0107003101330068
:1007f0006450e1004f0032006420e10052003200fa
:1008000003826c0007003b000905d0000306d000fe
:10081000820f54000c065d00020039000200320015
:1008200089017800030678008582550004003d00a8
:100830000003fd008103fd008502ea008b85420074
:10084000840f720002003b0060001000e08018007e
:100850006011b8000005eb007a28e1000a003900b9
:1008600006007800c75ddd00f707b20087807500dd
:100870002d003700828171000a0178006105600057
:100880008180d1000080d3008502e900f9ff3b00a0
:10089000060440008784480002003b006004140006
:1008a000e0841c000988a300070032008a817100df
:1008b00082817100610164008904d1000884d30041
:1008c0008b05e800170037000978a30013003a00f1
:1008d0000b00e000130034008b05e900080444001d
:1008e00089844c000a4474000978a3000d003a0082
:1008f0000b00e000070034008b05e9000804440009
:1009000089844c0001003a000b0020000978a30004
:10091000f7ff32000001eb00020037008281710016
:100920000a017800a00007000cf0a70001f0a00069
:10093000e90037006420e10002003a00838f6c0078
:10094000e90033000801be000200be00e2003700eb
:10095000889fbe008a9fbe008c1f7800cd000700d4
:10096000d400330003866c006450e1002e00320096
:100970006420e100330032006150e1002f003200ba
:100980006120e1003100320085855500eb07b000a1
:100990000900200008042000050037000804440076
:1009a00089844c000a0031000603430087834b0012
:1009b0000001530081815b00f8ff33000203be0099
:1009c0000800a0000804440089844c00f6ff3900a8
:1009d000c639dd00830173000100320013002000de
:1009e0008904d1000884d3000998a30005003200cf
:1009f0000800a7000300a0008904d1000884d300e8
:100a00008b05e8008904d1000884d3000001eb00c5
:100a10000281d2006400070001f0a1000cf0a700e1
:100a200001f0a000ac0037006420e100ae0032000d
:100a30000801be000200be00f7ff37006120e100a0
:100a4000a90032006000b800f3ff3700000020006a
:100a500001f82700f0ff3700839f68000100e000e5
:100a600002003d0060001000e08018000300e0007c
:100a700002003d0060011100e0811900d100070073
:100a80004f00e00002003b0060001000e080180012
:100a90000000060014002000da003700f4ff2f00e9
:100aa000d80037000001be00650007000470a700f1
:100ab00003f0a1006509b100160032000d003500f9
:100ac0006828e10006003500f0ff2f00f1ff270045
:100ad0000300e00013003b000100280000000500b7
:100ae00000004000818048008502e900fcff3a00d8
:100af00008003700f88f420002003c008000eb0045
:100b0000000005008100d1000080d3008502e800cc
:100b1000fcff3a000300e00002003b006000100010
:100b2000e0801800000006000001be00440007003d
:100b30000470a70003f0a10003f8a30013003a001b
:100b40006509b10010003200090035006928e10094
:100b500002003500010028000000050000004000f0
:100b6000818048008502e900fcff3a000000060091
:100b7000f88f4200050035008100d1000080d300cd
:100b80008502e800fcff3a00000006008000eb0050
:100b9000000005004f89de0082017800b4003700b4
:100ba0006011b800c200370081002000618055004c
:100bb0000b003d000b00200061fe2f000100e10052
:100bc0001d00340082817100610164008904d1003c
:100bd0000884d3000000e800faff3a00710020000a
:100be0006100640003007000020060000900320030
:100bf00061044400e0844c000988a500050032002f
:100c00008b05e8006808e10002003a008904d10081
:100c10000884d300f20f20000258e10005003d00d7
:100c2000c75ddd00f907b200898075000800780013
:100c3000000006000bf827008b007800000005007c
:100c4000c70ade00f107b200f50fb200080032005b
:100c5000e1cf4200020032000170a0002400050034
:100c6000810f7000010032000408050044000500f7
:100c7000810f700002003a00140005008502e900af
:100c80000000400081c04800fcff3b000170a00054
:100c9000240005000004be00e9ff07000003be00b9
:100ca0000405be000200be00e5ff0700844f75008a
:100cb000000006000200be006450e100050036009e
:100cc0006420e100020036000968a30001003a0038
:100cd0000800be000160a0004f0678004f05be006e
:100ce0004f04be0000000600f0ff2f00f1ff2700b8
:100cf000f9ff3700889fbe008a9fbe008c1f7800d6
:100d0000e4ff0700ebff330003866c006450e10052
:100d1000240032006420e100270032006150e1002d
:100d2000220032006120e100210032008b85420068
:100d3000eb07b1000134b800003ab80008044200e3
:100d400089844a00013ab8000030b8008880400029
:100d500009014a000400330000004000818048007f
:100d6000020149008b05e900c909dd00830170001b
:100d70000100320013002000c814de004814dd001a
:100d80004709de001200b200c808de0008847000c7
:100d900085ff070001f0a1000cf0a70001f0a00002
:100da000cdff37006120e100cfff32000801be0017
:100db0000200be00f7ff37006150e100fcff3a007f
:100dc000c9ff37006022b800060220000000d000f2
:100dd0008180d2000482d2008582d2000000a0006f
:100de0000202520083825a000300310002024200d4
:100df00083824a000000a1000603e900f3ff3a00e5
:100e000000000600889fbe008a9fbe00841f7800f5
:100e1000a0ff07004f00780011003300f0ff2f0003
:100e2000838f6c0006003b00040565000a00a700e4
:100e30000800370009f0a600100020000800370065
:100e4000820f5400838f5c000300390010002000e3
:100e500001003e000000200009f0a7000000ea00a9
:100e60004f05be004f04be000000e0000000060079
:100e7000881f7800030478000300e00007003d00ad
:100e800060001000e080180060011900e081190086
:100e900002003b0001f02d000300370004000700b2
:100ea00008f0a70001f0a0004f0478000000060041
:100eb000889fbe008a9fbe000082700004027100fd
:100ec00004827100260032000004be000200be0051
:100ed0006011b8006b092000950220000182cf004c
:100ee0000a0039000541b1000082cf000700390037
:100ef0000541b1000982cf00040039000541b1006d
:100f00000882cf00010039000541b10005425200be
:100f1000120032000a003b0082817100610164000e
:100f20008100d1000080d3008984d3000884d300dd
:100f30008b05e8000442e800f7ff3a00070037009d
:100f40000804440089844c00000048008180480067
:100f50008b05e9000442e900f9ff3a0012ff07009f
:0c0f60004f05be004f04be00000006005c
:020000040000fa
:100f6c003736000035340000333200003100000009
:020000040000fa
:100f7c001000fa00889fbe00880a0700b20a07001a
:100f8c00a206070048070700d107070093090700ce
:100f9c00c4070700200a0700ce09070010079800b5
:100fac00d0090700e14f50009c003a00d10907001e
:100fbc00c8090700200798002e0090006800400028
:100fcc00100078008000eb00f2fe070032332300a3
:100fdc003305240044ff07000200200003582400be
:100fec0058fe0700d2cc2c00c30424003eff07009f
:100ffc0030079800410798003e019000ce01900008
:10100c0000002000812024004efe0700020020007a
:10101c00030a2400edfd0700308e8800418e880005
:10102c002e00900066004000100078008000eb005d
:10103c00d8fe070032332300330524002aff0700b3
:10104c0002002000035824003efe0700d2cc2c00e6
:10105c00c304240024ff07003007980041079800c0
:10106c003e019000ce019000000020008120240061
:10107c0034fe070002002000030a2400d3fd070001
:10108c00908e8800a18e88002e0090006400400095
:10109c00100078008000eb00befe07003233230006
:1010ac003305240010ff0700020020000358240021
:1010bc0024fe0700d2cc2c00c30424000aff070036
:1010cc0030079800410798003e019000ce01900037
:1010dc0000002000812024001afe070002002000de
:1010ec00030a2400b9fd0700508e8800618e880029
:1010fc002e0090000080e800100078008000eb00cb
:10110c00a4fe07003233230033052400f6fe07004b
:10111c0002002000035824000afe0700d2cc2c0049
:10112c00c3042400f0fe0700300798004107980024
:10113c003e019000ce019000000020008120240090
:10114c0000fe070002002000030a24009ffd070098
:10115c00708e8800818e88002e0090001000780020
:10116c008000eb008bfe0700323323003305240094
:10117c00ddfe07000200200003582400f1fd0700eb
:10118c00d2cc2c00c3042400d7fe070030079800f3
:10119c00410798003e019000ce0190000000200015
:1011ac0081202400e7fd070002002000030a240030
:1011bc0086fd0700b08e8800c18e8800308e8000be
:1011cc00418e800034fe0700004078008044780097
:1011dc00508e8000618e80002ffe0700004078004a
:1011ec0000447800708e8000818e80002afe0700fb
:1011fc0000407800594f9800684f9800704f980045
:10120c0040002000500798006d0047000001780056
:10121c00de00900000032000c60407000000eb0075
:10122c00000f78000500370049090700404f98006f
:10123c004e4890001f0507001e0fe80065090700c7
:10124c009e0f5000f8ff3c0061808000a000200041
:10125c0000017800110009008200d8008000fd0018
:10126c000000e0001f003a00217380000004200001
:10127c000080600000f0a7000000ea000000e90018
:10128c004f00de00004078000080fb006100600031
:10129c004600dd00217380000160a1000100700098
:1012ac0020738800217380000008200000806000fb
:1012bc0000f0a7000000ea000000e9004f00de008b
:1012cc00004078000080fb00610060004700dd00fa
:1012dc00217380000170a100010070002073880050
:1012ec000c30ef00608080000000e8006080880017
:1012fc0029ff37000000fa000ed0bf000080fb0071
:10130c00cf80de007201200003002000820f50000d
:10131c00838f5800b4003e00000601001700370010
:10132c002000370029003700350037003600370021
:10133c003f00370040003700490037004a003700b3
:10134c0054003700550037005f003700a600370007
:10135c00a5003700a4003700a30037005c0037005d
:10136c0066003700670037007100370072003700e5
:10137c007e00370093003700850037002030ef00e7
:10138c002230ef000041eb006000b800ec060700d3
:10139c0012c0b3006000b800e906070010c0b3002b
:1013ac000ef0b7000281800013818000803e200087
:1013bc0001002000800f5100818f59008d003600f4
:1013cc0020c0b3000ef0b7008f0037008080800083
:1013dc00cf80de00ecfd07000041eb00d8060700d3
:1013ec0080808000cf80de00e7fd070012c0b300d4
:1013fc00d306070030c0b3000ef0b70082003700f0
:10140c0083000700800037000041eb006000b8004b
:10141c00cb06070012c0b300000020000115240009
:10142c00c706070050c0b3000ef0b70076003700b7
:10143c0077000700740037000041eb00000020002b
:10144c0001152400be06070012c0b3006000b800ee
:10145c00bb06070070c0b3000ef0b7006a0037007f
:10146c006b000700680037000041eb000000200013
:10147c0001152c00b206070012c0b30000002000ba
:10148c0001152400ae06070090c0b3000ef0b700a3
:10149c005d0037005e0007005b0037000041eb0089
:1014ac000000200001152400a506070012c0b3009f
:1014bc000000200001152c00a1060700b0c0b300ed
:1014cc000ef0b70050003700510007004e003700f7
:1014dc000041eb0000002000010a2c0098060700d8
:1014ec0012c0b30000002000011524009406070070
:1014fc0010c1b3000ef0b7004300370044000700e2
:10150c00410037000041eb000000200001152400d1
:10151c008b06070012c0b30000002000010a2c004b
:10152c008706070030c1b3000ef0b7003600370055
:10153c0037000700340037002030ef002230ef0076
:10154c000041eb0000002000011a24007c0607007b
:10155c0012c0b30000002000011a2c00780607000e
:10156c0050c1b3000ef0b700270037000080800098
:10157c006101b9000081800011818000800f510051
:10158c00818f59001d003100210007001e0037001b
:10159c002030ef002230ef000041eb000000200073
:1015ac00011a24006606070012c0b30000002000d8
:1015bc00011a2c006206070060c1b3000ef0b700e0
:1015cc0011003700008080006101b90000818000ab
:1015dc0011818000800f5100818f5900090031006a
:1015ec000b000700080037000e70ef000000000031
:1015fc000500370000000000030037000000000069
:10160c0001003700000000000080fa000000060016
:10161c000a00fa00889fbe008a1f78000040eb0089
:10162c00004f7800b88e8000c98e8000408080000a
:10163c00cf80de0054fd07001ac0b3000001be00cd
:10164c000800be0010fd07000000e000010035009e
:10165c000045eb000a04e00003003200b0c0b30008
:10166c00004f780082023700988e8000a98e80008f
:10167c0040808000cf80de0043fd07001ac0b3001d
:10168c000001be000800be00fffc07000000e000e7
:10169c00010035000045eb000a04e00003003200b5
:1016ac00a0c0b300004f780071023700b88e8000e4
:1016bc00c98e800030808000cf80de0032fd0700b4
:1016cc001ac0b3000001be000800be00eefc07000b
:1016dc000000e000010035000045eb000a04e000ca
:1016ec003b003200388e8000498e800010808000d4
:1016fc00cf80de0024fd07001ac0b3000001be003d
:10170c000800be00e2fc07000000e00001003c0005
:10171c000045eb000a04e0002d003200588e8000da
:10172c00698e800020808000cf80de0016fd0700cf
:10173c001ac0b3000001be000800be00d4fc0700b4
:10174c000000e00001003c000045eb000a04e00052
:10175c001f003200788e8000898e800010808000ff
:10176c00cf80de0008fd07001ac0b3000001be00e8
:10177c000800be00c6fc07000000e00001003c00b1
:10178c000045eb000a04e00011003200988e800046
:10179c00a98e800030808000cf80de00fafc07002c
:1017ac001ac0b3000001be000800be00b8fc070060
:1017bc000000e00001003c000045eb000a04e000e2
:1017cc0003003200b0c0b300004f7800280237008d
:1017dc00b88e8000c98e800030808000cf80de0003
:1017ec00e9fc07001ac0b3000001be000800be00ef
:1017fc00a7fc07000000e00001003c000045eb00e6
:10180c000a04e0003b003200388e8000498e8000d4
:10181c0010808000cf80de00dbfc07001ac0b30014
:10182c000001be000800be0099fc07000000e000ab
:10183c0001003c000045eb000a04e0002d003200e2
:10184c00588e8000698e800020808000cf80de0062
:10185c00cdfc07001ac0b3000001be000800be009a
:10186c008bfc07000000e00001003c000045eb0091
:10187c000a04e0001f003200788e8000898e800000
:10188c0010808000cf80de00bffc07001ac0b300c0
:10189c000001be000800be007dfc07000000e00057
:1018ac0001003c000045eb000a04e000110032008e
:1018bc00988e8000a98e800030808000cf80de0062
:1018cc00b1fc07001ac0b3000001be000800be0046
:1018dc006dfc07000000e000010035000045eb0046
:1018ec000a04e00003003200a0c0b300004f7800ef
:1018fc00df013700988e8000a98e80003080800038
:10190c00cf80de00a0fc07001ac0b3000001be00af
:10191c000800be005cfc07000000e0000100350080
:10192c000045eb000a04e0003b003200b88e80005a
:10193c00c98e800030808000cf80de0092fc0700d2
:10194c001ac0b3000001be000800be0050fc070026
:10195c000000e00001003c000045eb000a04e00040
:10196c002d003200388e8000498e8000108080005f
:10197c00cf80de0084fc07001ac0b3000001be005b
:10198c000800be0042fc07000000e00001003c0023
:10199c000045eb000a04e0001f003200588e800066
:1019ac00698e800020808000cf80de0076fc0700ee
:1019bc001ac0b3000001be000800be0034fc0700d2
:1019cc000000e00001003c000045eb000a04e000d0
:1019dc0011003200788e8000898e8000108080008b
:1019ec00cf80de0068fc07001ac0b3000001be0007
:1019fc000800be0026fc07000000e00001003c00cf
:101a0c000045eb000a04e00003003200a0c0b30064
:101a1c00004f780096013700988e8000a98e8000c8
:101a2c0030808000cf80de0057fc07001ac0b30066
:101a3c000001be000800be0015fc07000000e0001d
:101a4c0001003c000045eb000a04e0003b003200c2
:101a5c00b88e8000c98e800030808000cf80de0080
:101a6c0049fc07001ac0b3000001be000800be000c
:101a7c0005fc07000000e000010035000045eb000c
:101a8c000a04e0002d003200388e8000498e800060
:101a9c0010808000cf80de003bfc07001ac0b30032
:101aac000001be000800be00f9fb07000000e000ca
:101abc0001003c000045eb000a04e0001f0032006e
:101acc00588e8000698e800020808000cf80de00e0
:101adc002dfc07001ac0b3000001be000800be00b8
:101aec00ebfb07000000e00001003c000045eb00b0
:101afc000a04e00011003200788e8000898e80008c
:101b0c0010808000cf80de001ffc07001ac0b300dd
:101b1c000001be000800be00ddfb07000000e00075
:101b2c0001003c000045eb000a04e0000300320019
:101b3c00b0c0b300004f78004d013700388e8000e4
:101b4c00498e800010808000cf80de000efc0700e4
:101b5c001ac0b3000001be000800be00cafb07009b
:101b6c000000e000010035000045eb000a04e00035
:101b7c001f003200588e8000698e8000208080000b
:101b8c00cf80de0000fc07001ac0b3000001be00cd
:101b9c000800be00bcfb07000000e000010035009f
:101bac000045eb000a04e00011003200788e800042
:101bbc00898e800010808000cf80de00f2fb070051
:101bcc001ac0b3000001be000800be00aefb070047
:101bdc000000e000010035000045eb000a04e000c5
:101bec000300320070c0b300004f780020013700b2
:101bfc00388e8000498e800010808000cf80de00ff
:101c0c00e1fb07001ac0b3000001be000800be00d3
:101c1c009dfb07000000e000010035000045eb00d3
:101c2c000a04e0001f003200588e8000698e80008c
:101c3c0020808000cf80de00d3fb07001ac0b300e9
:101c4c000001be000800be0091fb07000000e00090
:101c5c0001003c000045eb000a04e00011003200da
:101c6c00788e8000898e800010808000cf80de000e
:101c7c00c5fb07001ac0b3000001be000800be007f
:101c8c0081fb07000000e000010035000045eb007f
:101c9c000a04e0000300320040c0b300004f78009b
:101cac00f3003700388e8000498e80001080800051
:101cbc00cf80de00b4fb07001ac0b3000001be00e9
:101ccc000800be0070fb07000000e00001003500ba
:101cdc000045eb000a04e0001f003200588e800023
:101cec00698e800020808000cf80de00a6fb07007c
:101cfc001ac0b3000001be000800be0062fb070062
:101d0c000000e000010035000045eb000a04e00093
:101d1c0011003200788e8000898e80001080800047
:101d2c00cf80de0098fb07001ac0b3000001be0094
:101d3c000800be0056fb07000000e00001003c005c
:101d4c000045eb000a04e0000300320060c0b30061
:101d5c00004f7800c6003700388e8000498e800016
:101d6c0010808000cf80de0087fb07001ac0b30014
:101d7c000001be000800be0045fb07000000e000ab
:101d8c0001003c000045eb000a04e0001f0032009b
:101d9c00588e8000698e800020808000cf80de000d
:101dac0079fb07001ac0b3000001be000800be009a
:101dbc0035fb07000000e000010035000045eb009a
:101dcc000a04e00011003200788e8000898e8000b9
:101ddc0010808000cf80de006bfb07001ac0b300c0
:101dec000001be000800be0027fb07000000e00059
:101dfc00010035000045eb000a04e000030032004e
:101e0c0050c0b300004f780099003700388e800026
:101e1c00498e800010808000cf80de005afb0700c6
:101e2c001ac0b3000001be000800be0016fb07007c
:101e3c000000e000010035000045eb000a04e00062
:101e4c001f003200588e8000698e80002080800038
:101e5c00cf80de004cfb07001ac0b3000001be00af
:101e6c000800be000afb07000000e00001003c0077
:101e7c000045eb000a04e00011003200788e80006f
:101e8c00898e800010808000cf80de003efb070032
:101e9c001ac0b3000001be000800be00fcfa070027
:101eac000000e00001003c000045eb000a04e000eb
:101ebc000300320020c0b300004f78006c003700e4
:101ecc00388e8000498e800010808000cf80de002c
:101edc002dfb07001ac0b3000001be000800be00b5
:101eec00ebfa07000000e00001003c000045eb00ad
:101efc000a04e0001f003200588e8000698e8000ba
:101f0c0020808000cf80de001ffb07001ac0b300ca
:101f1c000001be000800be00ddfa07000000e00072
:101f2c0001003c000045eb000a04e0001100320007
:101f3c00788e8000898e800010808000cf80de003b
:101f4c0011fb07001ac0b3000001be000800be0060
:101f5c00cdfa07000000e000010035000045eb0061
:101f6c000a04e0000300320010c0b300004f7800f8
:101f7c003f003700588e8000698e800020808000e2
:101f8c00cf80de0000fb07001ac0b3000001be00ca
:101f9c000800be00bcfa07000000e000010035009c
:101fac000045eb000a04e0000300320030c0b3002f
:101fbc00004f78002e003700388e8000498e80004c
:101fcc0010808000cf80de00effa07001ac0b3004b
:101fdc000001be000800be00adfa07000000e000e2
:101fec0001003c000045eb000a04e0002000320038
:101ffc00588e8000698e800020808000cf80de00ab
:10200c00e1fa07001ac0b3000001be000800be00d0
:10201c009ffa07000000e00001003c000045eb00c7
:10202c000a04e00012003200788e8000898e800055
:10203c0010808000cf80de00d3fa07001ac0b300f6
:10204c000001be000800be0091fa07000000e0008d
:10205c0001003c000045eb000a04e00004003200e3
:10206c000040eb00004f78001000200050808800ea
:10207c00508080000000e00002003a001030ef00b9
:10208c0009003700808080000080e8008080880094
:10209c000a30ef0080808000f90f500002003400fd
:1020ac0020002000808088001e4078000004e000a2
:1020bc0003003a0020c0b30012f0b70065003700ef
:1020cc001e407800e24f500004003a0040c0b300bc
:1020dc0012f0b7001430ef005e0037001e4078009d
:1020ec00e14f500005003a0060c0b30012f0b70099
:1020fc0010002000a0808800560037001e40780099
:10210c00e34f500009003a00a08080000000e0007e
:10211c0003003a0080c0b30012f0b7004d00370046
:10212c00a0c0b30012f0b7004a0037001e40780080
:10213c00e64f500004003a0080c0b30012f0b70024
:10214c001430ef00430037001e407800e54f50007c
:10215c0005003a00a0c0b30012f0b7001000200038
:10216c00a08088003b0037001e407800e44f5000f0
:10217c0003003a0080c0b30012f0b70035003700fe
:10218c001e407800e74f500009003a00a080800004
:10219c000000e00003003a0080c0b30012f0b7006a
:1021ac002c003700a0c0b30012f0b7002900370094
:1021bc001e407800e84f500003003a0080c0b30086
:1021cc0012f0b700230037001e407800ea4f500091
:1021dc0003003a0000c1b30012f0b7001d00370035
:1021ec001e407800eb4f500003003a0020c1b300b2
:1021fc0012f0b700170037001e407800ed4f50006a
:10220c0009003a00a08080000000e00003003a00c2
:10221c0000c1b30012f0b7000e00370020c1b300ac
:10222c0012f0b7000b0037001e407800ec4f500046
:10223c0008003a00a08080000000e00003003a0093
:10224c0070c1b30012f0b7000200370040c1b300f8
:10225c0012f0b70012d0bf008080fb000ed0bf0080
:10226c000080fb000000e900808f50003e0032002f
:10227c0012d0bf000ef0b7000000eb001007980062
:10228c00e1002100914078001e00900064004000a5
:10229c00017778001e0090000000e80010079800fd
:1022ac0000818000118180004808de0080407800a9
:1022bc001e00900064004000017778001e00900022
:1022cc000000e80010079800008180001181800058
:1022dc004008de00804078001e0090006400400042
:1022ec00017778001e0090000000e80010079800ad
:1022fc0000818000118180004809dd004800de006b
:10230c0000007100c808de00804078001e009000bc
:10231c0064004000017778001e0090000000e80087
:10232c0010079800008180001181800080407800a7
:10233c001e00900064004000017778001e009000a1
:10234c000000e800100798001e0090000000e80054
:10235c001007980064004700000178009e00900070
:10236c0000052000730007004f0578004f04be00e5
:10237c000080fa00000006000200fa00000f78004e
:10238c001e007800e40f50001e003200e40f5000d5
:10239c0007003c00e20f500012003200e20f500028
:1023ac0014003c00e10f50000a00320029003700f5
:1023bc00e60f50001b003200e60f500015003500f0
:1023cc00e70f50001b003200e80f50001d003200d8
:1023dc002000370064cea90064eea900254ea800a9
:1023ec002000370064cea80064eea900254ea90099
:1023fc001c00370064cea90064eea800254ea9008d
:10240c001800370064cea80064eea800254ea90081
:10241c001400370064cea90064eea800254ea80075
:10242c001000370064cea80064eea900254ea80069
:10243c000c00370064cea80064eea800254ea8005e
:10244c000800370064cea90064eea900254ea9004f
:10245c000400370064cea90064eea900254ea90043
:10246c00000000000080fa00000006000a00fa00dc
:10247c002007980031079800420798000040eb00b5
:10248c00004f7800e0cfb3001e4f68002e00900084
:10249c004880de00804078001e40780000c0680054
:1024ac00004f78002e009000804078001e4078008d
:1024bc0000c06800004f78003e0090004880de00ad
:1024cc00804078001e40780000c06800004f780003
:1024dc003e009000804078001e40780000c06800ec
:1024ec00004f78000000eb00100798000000eb0094
:1024fc0010079800080037001e009000ce009000d6
:10250c0000804000104078001e4f68001e009000b4
:10251c000000e800100798009e0090003e0090001c
:10252c00808f5000f4ff35001e4078000080fa00c8
:10253c00000006001000fa00889fbe0050079800ab
:10254c0061079800720798000f0478000f0078005c
:10255c00800478000040eb00404798006e0090002b
:10256c00660040008000e900310798000000e80098
:10257c000000e8000000d100800040000f0078004f
:10258c00818747000000e8000000d10000004000f7
:10259c00400798000000eb00000f78004e00900000
:1025ac001e004000e1cfb300014878001e0fe80088
:1025bc005e0090004880de00804078004e00900065
:1025cc001e004000014878001e0fe8005e009000dd
:1025dc00804078004e0090001e00400001487800ba
:1025ec001e0fe8006e0090004880de0080407800ee
:1025fc004e0090001e004000014878001e0fe800bd
:10260c006e009000804078004e0090001e0040004c
:10261c00014878001e0fe8000000eb00100798003e
:10262c000000eb00100798000b0037001e00900014
:10263c00fe00900000804000904078004e0090001a
:10264c001e004000014878001e0fe8001e0090009c
:10265c000000e800100798009e0090006e009000ab
:10266c00808f5000f1ff35007e019000ee0090004d
:10267c005e0090007dff0700404798004e009000e0
:10268c001e004000ce409000014878001e0fe8006c
:10269c006e009000e60040004e0090006e030700b4
:1026ac0089077800880778004f04be000080fa0084
:1026bc00000006000200fa00004f7800e080800065
:1026cc00e30f500026003200e30f500007003c00df
:1026dc00e10f500015003200e10f500019003c00d2
:1026ec000000e000080032004f003700e50f5000fa
:1026fc002d003200e50f50001f003500e60f500092
:10270c0037003200480037001e407800e24f40008e
:10271c0048003a0010002000e08088001830ef00dc
:10272c001630ef001a30ef00450037001e80fb001a
:10273c004800dd00b080880020002000e080880088
:10274c003f0037009e80fb00b0808000008040007e
:10275c00b080880030002000e0808800380037000e
:10276c001e80fb004800dd00c08088004000200077
:10277c00e0808800320037009e80fb00c080800023
:10278c0000804000c0808800c1808000c05d2000b7
:10279c00808f5000010034001c30ef0050002000ee
:1027ac00e080880026003700d08080004113210093
:1027bc00008040001e487800d08080000000e800b7
:1027cc00d0808800d1808000c0808000808f500035
:1027dc001a003a0060002000e080880018003700e2
:1027ec001e417800e1012100824878001ed0bf0014
:1027fc009e4f500007003a00c08080008040780057
:10280c00b080800000407800421321000e000700c9
:10281c0003003700607b2800710020000e030700c6
:10282c001c30ef00060037001c30ef0000000000e9
:10283c00030037000000000001003700000000001a
:10284c000080fa00000006000400fa00004f780037
:10285c0011479800120798001e80fb0011052000fc
:10286c00810f50000700320021052000810f50001d
:10287c000a00320001022000810f50000d003200ce
:10288c0058003700c14f21001e0090001040780006
:10289c000080fb0001000100520037004150210074
:1028ac001e009000104078000080fb000100010029
:1028bc004c0037001e0090009040780090c4b3008c
:1028cc0080cf500007003a001e0090000000e80086
:1028dc009040780010c3b30080cf500001003a0044
:1028ec00254ea8001e00900090407800f0c4b30064
:1028fc0080cf500007003a001e0090000000e80056
:10290c009040780010c3b30080cf500001003a0013
:10291c00254ea9001e0090009040780090c4b30092
:10292c0080cf500007003a001e0090000000e80025
:10293c009040780020c3b30080cf500001003a00d3
:10294c0064cea8001e00900090407800f0c4b30044
:10295c0080cf500007003a001e0090000000e800f5
:10296c009040780020c3b30080cf500001003a00a3
:10297c0064cea9001e0090009040780090c4b30073
:10298c0080cf500007003a001e0090000000e800c5
:10299c009040780030c3b30080cf500001003a0063
:1029ac0064eea8001e00900090407800f0c4b300c4
:1029bc0080cf500008003a001e0090000000e80094
:1029cc009040780030c3b30080cf500004003a0030
:1029dc0064eea9000300370000000000010037007e
:1029ec00000000000080fa00000006000200fa005f
:1029fc00004f78000080fa00000006000200fa0088
:102a0c00004f78000080fa00000006000400fa0075
:102a1c0013e1a90011e1a9001061a8001021a9007f
:102a2c0081088000f0fc2f00008060008008880086
:102a3c000a21ef000621ef00404c200070088800ae
:102a4c0000402b0060088800800880004400de00f5
:102a5c00634060000081fb008001eb007008800087
:102a6c008000eb00c002dd00040020006008800044
:102a7c008000eb000400400085804800809ab9007b
:102a8c00828bb90086027800050242000010b80063
:102a9c0001024200840078000001be0000a0250065
:102aac0021262000e9f7070037f80700008fbe0049
:102abc002142800080ff2f00008060000000a000f9
:102acc00204288000108a9002108a80011e1a800f3
:102adc000080fa00000006000400fa00881f78004d
:102aec00008fbe0021088000f0fc2f0000806000e9
:102afc00200888001e0178009e01900000682900c3
:102b0c0081c124008ff7070018c0b30002f02f001a
:102b1c00f3772400def707000000e00001003c0022
:102b2c000044eb000804e00054003200210880004f
:102b3c00f0fc2f00008060000040a00020088800fe
:102b4c001e0178009e0190000068290081c12400bc
:102b5c007cf70700020020000310240079f707001f
:102b6c0018c0b30002f02f00f3772400c8f7070059
:102b7c000000e00001003c000044eb000804e00011
:102b8c003200320021088000f0fc2f000080600031
:102b9c000050a000200888001e0178009e019000c3
:102bac000068290081c1240066f70700020020009c
:102bbc000328240063f7070018c0b30002f02f00ad
:102bcc00f3772400b2f707000000e00001003c009e
:102bdc000044eb000804e0001000320021088000e3
:102bec000003200001007000200888001e017800fe
:102bfc009e0190000068290081c1240051f7070054
:102c0c0002002000033824004ef70700a2f707004b
:102c1c000000780010088800200037001e017800a2
:102c2c009e0190000068290081c1240045f707002f
:102c3c00020020000328240042f7070096f7070043
:102c4c000000780010088800140037001e0178007e
:102c5c009e0190000068290081c1240039f707000b
:102c6c00020020000310240036f707008af7070043
:102c7c000000780010088800080037001e0178005a
:102c8c009e0190000068290081c124002df70700e7
:102c9c0081f7070000007800100888004f047800c6
:102cac000080fa00000006000000fa0005e1a9000f
:102cbc000421a900000020008124240086ff0700c5
:102ccc000068a9002068a80005e1a8000080fa00af
:102cdc00000006000400fa00881f7800008fbe0078
:102cec00f1088000f0fc2f0000806000f0088800e4
:102cfc001e0178009e0190000068290081c124000b
:102d0c0010f7070018c0b30002f02f00f37724006f
:102d1c005ff707000000e00001003c000044eb00fe
:102d2c000804e00054003200f1088000f0fc2f0091
:102d3c00008060000040a000f00888001e017800b0
:102d4c009e0190000068290081c12400fdf6070057
:102d5c000200200003102400faf6070018c0b3008c
:102d6c0002f02f00f377240049f707000000e00081
:102d7c0001003c000044eb000804e000320032008b
:102d8c00f1088000f0fc2f00008060000050a000d3
:102d9c00f00888001e0178009e0190000068290050
:102dac0081c12400e7f6070002002000032824005c
:102dbc00e4f6070018c0b30002f02f00f3772400ec
:102dcc0033f707000000e00001003c000044eb007a
:102ddc000804e00010003200f1088000000320001d
:102dec0001007000f00888001e0178009e01900020
:102dfc000068290081c12400d2f6070002002000df
:102e0c0003382400cff6070023f7070000007800f2
:102e1c00d0088800200037001e0178009e01900029
:102e2c000068290081c12400c6f6070002002000ba
:102e3c0003282400c3f6070017f7070000007800ea
:102e4c00d0088800140037001e0178009e01900005
:102e5c000068290081c12400baf607000200200096
:102e6c0003102400b7f607000bf7070000007800ea
:102e7c00d0088800080037001e0178009e019000e1
:102e8c000068290081c12400aef6070002f7070094
:102e9c0000007800d00888004f0478000080fa0009
:102eac00000006000000fa001fe1a9001e21a90085
:102ebc0000002000a147240086ff07000368a9003a
:102ecc002368a8001fe1a8000080fa00000006009b
:102edc000000fa001160800080ff2f00008060006d
:102eec001060880000fa20002060880023aca80045
:102efc00238ca80011618000f03f2f00008060003f
:102f0c0000a0a00010618800300020002061880023
:102f1c00c3aca800c38ca80011668000f03f2f0042
:102f2c000080600000a0a000106688003000200027
:102f3c002066880001eca8000080fa000000060062
:102f4c000600fa00008fbe00424798004e409000e9
:102f5c000004e00005003a001e0178009e0190007c
:102f6c00f28d8800038e8800070037004e409000d9
:102f7c00e14f500004003a001e0178009e019000c1
:102f8c00b28d8800c38d88000080fa000000060016
:102f9c000000fa00889fbe008a9fbe00148e80003d
:102fac00258e8000f08d8000018e800018c0b3004b
:102fbc000001be000400be00b3f607000000e000f4
:102fcc00010035000044eb000804e0000f00320063
:102fdc00f88d8000098e80001a8e80002b8e800068
:102fec0030d0bf000080fb00cf80de00e6f607008b
:102ffc000001be000a00be00f5f507000801be0086
:10300c00bc000700108e8800218e8800148e800072
:10301c00258e8000f08d8000018e800018c0b300da
:10302c000001be000400be0099f607000000e0009d
:10303c0001003c000044eb000804e0000f003200eb
:10304c00f88d8000098e80001a8e80002b8e8000f7
:10305c0030d0bf000080fb00cf80de00caf6070036
:10306c000001be000a00be00d8f507000801be0032
:10307c0088000700108e8800218e8800108e80003a
:10308c00218e800018c0b3006011b80080f60700d4
:10309c000000e00001003c000044eb000804e000ec
:1030ac0004003200c3cca90024eea800c3eca80095
:1030bc0003003700c3eca90024cea800c3cca800a1
:1030cc00108e8000218e80005c0007000200200022
:1030dc000322240004f7070090f607000000780094
:1030ec0030668800d48d8000e58d8000b08d800026
:1030fc00c18d800018c0b3000001be000400be00ea
:10310c0061f607000000e000010035000044eb0010
:10311c000804e0000f003200b88d8000c98d8000db
:10312c00da8d8000eb8d800030d0bf000080fb007a
:10313c00cf80de0094f607000001be000a00be003e
:10314c00a3f507000801be006a000700d08d8800b7
:10315c00e18d8800d48d8000e58d8000b08d8000dd
:10316c00c18d800018c0b3000001be000400be0079
:10317c0047f607000000e00001003c000044eb00b3
:10318c000804e0000f003200b88d8000c98d80006b
:10319c00da8d8000eb8d800030d0bf000080fb000a
:1031ac00cf80de0078f607000001be000a00be00ea
:1031bc0086f507000801be0036000700d08d880098
:1031cc00e18d8800d08d8000e18d800018c0b300a7
:1031dc006011b8002ef607000000e00001003c0072
:1031ec000044eb000804e0000400320023eca900ca
:1031fc0015cea80023cca8000300370023cca900cf
:10320c0015eea80023eca800d08d8000e18d800085
:10321c000a0007000200200003222400b2f6070077
:10322c003ef6070000007800306188004f05be00b4
:10323c004f04be000080fa00000006000400fa00f3
:10324c00881f7800008fbe0018c0b3006011b80052
:10325c001e0078009e0090000df607000000e000b4
:10326c0001003d000044eb000804e00003003200c4
:10327c001e0078009e009000030037001e007800ae
:10328c009e00900001f0a2004f0478000080fa002c
:10329c00000006000800fa00881f7800008fbe00ae
:1032ac00220798003307980018c0b3002e01900035
:1032bc00be0190001e0078009e009000f4f50700ff
:1032cc000000e00001003c000044eb000804e000ba
:1032dc00030032001e0078009e00900002003700b0
:1032ec002e009000be0090004f0478000080fa0081
:1032fc00000006000800fa00881f7800008fbe004e
:10330c00220798003307980018c0b3002e019000d4
:10331c00be0190001e0078009e009000daf50700b8
:10332c000000e000010035000044eb000804e00060
:10333c00030032001e0078009e009000020037004f
:10334c002e009000be0090004f0478000080fa0020
:10335c00000006000c00fa00881f7800008fbe00e9
:10336c0022079800330798004407980055079800e7
:10337c0018c0b3004e019000de0190001e007800d2
:10338c009e009000c2f507000000e00001003c0028
:10339c000044eb000804e000040032004e019000f1
:1033ac00de019000028fbe000e00370018c0b30083
:1033bc002e019000be0190001e0078009e0090002f
:1033cc00b1f507000000e000010035000044eb00ff
:1033dc000804e000030032002e019000be019000b2
:1033ec00028fbe001e0078009e0090004f047800f3
:1033fc000080fa00000006000400fa00008fbe00f6
:10340c00b2fd2000930424001e0078009e00900062
:10341c004cf50700020020004333240032f607006d
:10342c000080fa00000006000400fa00008fbe00c5
:10343c00b2fd2000930424001e0078009e00900032
:10344c0029f6070002002000433324003df5070055
:10345c000080fa00000006000600fa001007980031
:10346c00210798000040eb00004f78005400070043
:10347c00ae009000810f5000110034000040eb00b2
:10348c00004f7800060037001e80fb009e00900065
:10349c0000804000104078000b0007001e4fe80031
:1034ac009e80fb002e009000808f5000f6ff3500b0
:1034bc002e0007000004e00001003a002200070083
:1034cc000080fa00000006000200fa00004f7800ad
:1034dc003081800041032100008040001e487800ac
:1034ec00308180000000e80030818800318180004c
:1034fc00f0072000808f5000010034002630ef00d0
:10350c000080fa00000006000200fa0040818000f2
:10351c004103210000804000104f78004081800062
:10352c000000e8004081880041818000f007200005
:10353c00808f5000010034002830ef001e407800ce
:10354c000080fa00000006000200fa0010c0b30070
:10355c002af0b700ecff0700004f78001e80fb003c
:10356c00201188000080fa00000006000000fa001c
:10357c002ad0bf000080fa00000006000200fa000a
:10358c003181800040818000808f50000400350024
:10359c003181800040818000008f50000500370091
:1035ac0031818000408180000080500001082000a3
:1035bc00010f40001e0078000080fa000000060099
:1035cc000200fa00edff070001082000008f5000f8
:1035dc001e0078000080fa00000006000000fa00cf
:1035ec0021e3a9002143a80001198000f0cf2f008e
:1035fc0000806000001988002043a9000119800098
:10360c00000e2000010070000019880011198000c4
:10361c00f0ff210000806000101988002343a800ef
:10362c0011198000f0cf2f00008060001019880065
:10363c001119800030f82f00008060000040a000bd
:10364c00101988002203a9002223a90025e3a90050
:10365c00f0c0b30024e3b70021198000f00f2e0056
:10366c008080600000f020000100700020198800ac
:10367c003303a9002e0ea8002f6ea8006f2ea800f1
:10368c001e2ea8004feea80030c3a8003163a8007e
:10369c002e03a8003063a80031e3a8004119800074
:1036ac0000fc2f00008060004019880028e3a9006e
:1036bc0001a8a90021a8a80021e3a8000080fa0015
:1036cc00000006000000fa002023a8000080fa0089
:1036dc00000006000000fa00a01d21000080fa0086
:1036ec00000006000000fa0033d0bf000080fa0092
:1036fc00000006000000fa003370ef000080fa00b2
:10370c00000006000200fa00004f78002a000700b3
:10371c000000e0000c00340060818000410b2100af
:10372c00008040001e487800608180000000e800a6
:10373c006081880061818000f0072000808f50003c
:10374c00010034002c30ef000080fa00000006006d
:10375c000200fa0070818000410b210000804000c3
:10376c00104f7800708180000000e80070818800a4
:10377c0071818000f0072000808f50000100340020
:10378c002e30ef001e4078000080fa00000006008a
:10379c000000fa006181800070818000808f5000f1
:1037ac000200320010c0b300010037000040eb00f3
:1037bc000080fa00000006000200fa000500070075
:1037cc0001082000008f50001e0078000080fa00d5
:1037dc00000006000200fa00618180007081800008
:1037ec00808f500004003500618180007081800062
:1037fc00008f5000050037006181800070818000cf
:10380c000080500001082000010f40001e007800cd
:10381c000080fa00000006000000fa002002a90057
:10382c000111800090ff2f000080600000118800c3
:10383c0020a2a9002062a800500520004011880099
:10384c0023a2a90023e2a9000188a9002188a800cd
:10385c0011118000f0f32f0000806000101188001f
:10386c000168a9002168a80021e2a8002342a80051
:10387c000080fa00000006000600fa00100798000d
:10388c00210798000040eb00004f78000040eb004f
:10389c00004f78000e00370000000000111180006e
:1038ac0000202000008060000000e000fbff3a00d8
:1038bc001e009000104078000080fb002011880052
:1038cc001e0090000000e800100798001e4fe80052
:1038dc009e80fb002e009000808f5000eeff350084
:0838ec000080fa000000060054
:020000040000fa
:1038f4000c1000000a00000080000000001000000e
:103904000c00000082000000e803230000190000fe
:10391400050019000001000020100000060000004e
:1039240080000000b41100002600000080000000a8
:1039340030100000020000008200000001000000be
:10394400da1100000a0000008000000032100000bc
:10395400020000008000000034100000800000001d
:103964008000000026100000060000008000000017
:10397400b410000080000000800000002c10000043
:1039840004000000800000003411000080000000ea
:1039940080000000161000000a00000080000000f3
:0439a400000000001f
:020000040000fa
:1039a8000000fa00f0032000303a8800213a800035
:1039b800f0f32f0000806000203a8800213a800050
:1039c80000fe2f00008060000000a000203a880060
:1039d8001200200080072000a10920003374200075
:1039e800804978008149780082497800103a80003f
:1039f800000178000200a00060042000710520008a
:103a08002374200080497800814978008249780031
:103a180000000000113a800000002700808060004c
:103a280000002100808f5000faff3a0000000000db
:103a3800113a800000022000008060000000e000d1
:103a4800fbff32000080fa00000006000000fa00c8
:103a58000e2eef001e2eef002e2eef003e2eef0052
:103a68004e2eef005e2eef006e2eef00214ea900c5
:103a780060cea90060eea90011cea90011eea90040
:103a880020cea90020eea9002136800000f82f00e2
:103a9800008060008001b300203688001134800067
:103aa80000fc2f00008060000000a0001034880097
:083ab8000080fa000000060086
:020000040000fa
:02000004000af0
:04afe000cfff00009f
:020000040000fa
:02000004000af0
:04afe400ffff00006b
:020000040000fa
:02000004000af0
:04afe8007fff0000e7
:020000040000fa
:02000004000af0
:04afec005fff000003
:020000040000fa
:02000004000af0
:04aff00038ff000026
:020000040000fa
:02000004000af0
:04aff400ffff00005b
:00000001FF
