:020000040000fa
:080000000002040000000000f2
:020000040000fa
:04000800e803000009
:020000040000fa
:04000c00e803000005
:020000040000fa
:04001000e803000001
:020000040000fa
:04001400e8030000fd
:020000040000fa
:04001800e8030000f9
:020000040000fa
:04001c00e8030000f5
:020000040000fa
:04002000e8030000f1
:020000040000fa
:04002400e8030000ed
:020000040000fa
:04002800e8030000e9
:020000040000fa
:04002c00e8030000e5
:020000040000fa
:04003000e8030000e1
:020000040000fa
:0400340002030000c3
:020000040000fa
:04003800e8030000d9
:020000040000fa
:04003c00e8030000d5
:020000040000fa
:04004000e8030000d1
:020000040000fa
:04004400e8030000cd
:020000040000fa
:04004800fa020000b8
:020000040000fa
:04004c00e8030000c5
:020000040000fa
:04005000e8030000c1
:020000040000fa
:04005400a403000001
:020000040000fa
:040058007a03000027
:020000040000fa
:04005c005603000047
:020000040000fa
:04006000e8030000b1
:020000040000fa
:04006400e8030000ad
:020000040000fa
:04006800e8030000a9
:020000040000fa
:04006c00e8030000a5
:020000040000fa
:04007000e8030000a1
:020000040000fa
:04007400e80300009d
:020000040000fa
:04007800e803000099
:020000040000fa
:04007c00e803000095
:020000040000fa
:04008000e803000091
:020000040000fa
:04008400e80300008d
:020000040000fa
:04008800e803000089
:020000040000fa
:04008c00e803000085
:020000040000fa
:04009000e803000081
:020000040000fa
:040094003e03000027
:020000040000fa
:04009800e803000079
:020000040000fa
:04009c00e803000075
:020000040000fa
:0400a000e803000071
:020000040000fa
:0400a400e80300006d
:020000040000fa
:0400a800e803000069
:020000040000fa
:0400ac00e803000065
:020000040000fa
:0400b000e803000061
:020000040000fa
:0400b400e80300005d
:020000040000fa
:0400b800e803000059
:020000040000fa
:0400bc00e803000055
:020000040000fa
:0400c000e803000051
:020000040000fa
:0400c400e80300004d
:020000040000fa
:0400c800e803000049
:020000040000fa
:0400cc00e803000045
:020000040000fa
:0400d000e803000041
:020000040000fa
:0400d400e80300003d
:020000040000fa
:0400d800e803000039
:020000040000fa
:0400dc00e803000035
:020000040000fa
:0400e000e803000031
:020000040000fa
:0400e400e80300002d
:020000040000fa
:0400e800e803000029
:020000040000fa
:0400ec00e803000025
:020000040000fa
:0400f000e803000021
:020000040000fa
:0400f400e80300001d
:020000040000fa
:0400f800e803000019
:020000040000fa
:0400fc00e803000015
:020000040000fa
:04010000e803000010
:020000040000fa
:04010400e80300000c
:020000040000fa
:04010800e803000008
:020000040000fa
:04010c00e803000004
:020000040000fa
:04011000e803000000
:020000040000fa
:04011400e8030000fc
:020000040000fa
:04011800e8030000f8
:020000040000fa
:04011c00e8030000f4
:020000040000fa
:04012000e8030000f0
:020000040000fa
:04012400e8030000ec
:020000040000fa
:04012800e8030000e8
:020000040000fa
:04012c00e8030000e4
:020000040000fa
:04013000e8030000e0
:020000040000fa
:04013400e8030000dc
:020000040000fa
:04013800e8030000d8
:020000040000fa
:04013c00e8030000d4
:020000040000fa
:04014000e8030000d0
:020000040000fa
:04014400e8030000cc
:020000040000fa
:04014800e8030000c8
:020000040000fa
:04014c00e8030000c4
:020000040000fa
:04015000e8030000c0
:020000040000fa
:04015400e8030000bc
:020000040000fa
:04015800e8030000b8
:020000040000fa
:04015c00e8030000b4
:020000040000fa
:04016000e8030000b0
:020000040000fa
:04016400e8030000ac
:020000040000fa
:04016800e8030000a8
:020000040000fa
:04016c00e8030000a4
:020000040000fa
:04017000e8030000a0
:020000040000fa
:04017400e80300009c
:020000040000fa
:04017800e803000098
:020000040000fa
:04017c00e803000094
:020000040000fa
:04018000e803000090
:020000040000fa
:04018400e80300008c
:020000040000fa
:04018800e803000088
:020000040000fa
:04018c00e803000084
:020000040000fa
:04019000e803000080
:020000040000fa
:04019400e80300007c
:020000040000fa
:04019800e803000078
:020000040000fa
:04019c00e803000074
:020000040000fa
:0401a000e803000070
:020000040000fa
:0401a400e80300006c
:020000040000fa
:0401a800e803000068
:020000040000fa
:0401ac00e803000064
:020000040000fa
:0401b000e803000060
:020000040000fa
:0401b400e80300005c
:020000040000fa
:0401b800e803000058
:020000040000fa
:0401bc00e803000054
:020000040000fa
:0401c000e803000050
:020000040000fa
:0401c400e80300004c
:020000040000fa
:0401c800e803000048
:020000040000fa
:0401cc00e803000044
:020000040000fa
:0401d000e803000040
:020000040000fa
:0401d400e80300003c
:020000040000fa
:0401d800e803000038
:020000040000fa
:0401dc00e803000034
:020000040000fa
:0401e000e803000030
:020000040000fa
:0401e400e80300002c
:020000040000fa
:0401e800e803000028
:020000040000fa
:0401ec00e803000024
:020000040000fa
:0401f000e803000020
:020000040000fa
:0401f400e80300001c
:020000040000fa
:0401f800e803000018
:020000040000fa
:0401fc00e803000014
:020000040000fa
:04020000e80300000f
:020000040000fa
:04020400e80300000b
:020000040000fa
:04020800e803000007
:020000040000fa
:04020c00e803000003
:020000040000fa
:04021000e8030000ff
:020000040000fa
:04021400e8030000fb
:020000040000fa
:04021800e8030000f7
:020000040000fa
:04021c00e8030000f3
:020000040000fa
:04022000e8030000ef
:020000040000fa
:04022400e8030000eb
:020000040000fa
:04022800e8030000e7
:020000040000fa
:04022c00e8030000e3
:020000040000fa
:04023000e8030000df
:020000040000fa
:04023400e8030000db
:020000040000fa
:04023800e8030000d7
:020000040000fa
:04023c00e8030000d3
:020000040000fa
:04024000e8030000cf
:020000040000fa
:04024400e8030000cb
:020000040000fa
:04024800e8030000c7
:020000040000fa
:04024c00e8030000c3
:020000040000fa
:04025000e8030000bf
:020000040000fa
:04025400e8030000bb
:020000040000fa
:04025800e8030000b7
:020000040000fa
:04025c00e8030000b3
:020000040000fa
:04026000e8030000af
:020000040000fa
:04026400e8030000ab
:020000040000fa
:04026800e8030000a7
:020000040000fa
:04026c00e8030000a3
:020000040000fa
:04027000e80300009f
:020000040000fa
:04027400e80300009b
:020000040000fa
:04027800e803000097
:020000040000fa
:04027c00e803000093
:020000040000fa
:04028000e80300008f
:020000040000fa
:100400002f6e21000eff2c000e018800000000005e
:10041000000020000000e000020032000001200087
:100420002002880014000700eb0007000000e00035
:1004300003003a0040712200010020000200370052
:100440000000200001002000810f70000100320038
:100450000f000700000020000000e0000200320052
:10046000000002000000000034090200000000004b
:100470000040da000000fe00200020000000e00044
:1004800002003200100020009001880000000600e9
:10049000a1028800800478000000eb001f003700f4
:1004a000e284440054a0b4009905ba00e2844400f8
:1004b00054a0b4009906ba00e284440054a0b400e9
:1004c0000006eb00476fde00fd07b200ae018800ba
:1004d000636ce10003003a000ad801000000eb0061
:1004e0000e003700606ce10008003a00004deb00a0
:1004f0000a05e800020039003420ec000af0a000f0
:100500008b05e900f9ff3e00040037006168e10057
:10051000010032000086eb000b00070019c7ba008b
:100520000e04e0001905ba0003003a000a00e000da
:10053000dbff3a0000000600fe07b200ae028800b2
:100540008a047800f5ff37000cd0a300e20f4d00bd
:100550001c00390089027800354dba000a05e80010
:10056000020039003420ec000af0a0008b05e900fd
:100570000f003200254dba000a05e80002003900dc
:100580003420ec000af0a0008b05e90008003200de
:100590000c00e0000600320015cdba000a05e800a4
:1005a000020039003420ec000af0a0008b05e900bd
:1005b0008984e80054a0b4000b00e000e2ff3a0098
:1005c000000006009902ba00055d78008b05e9007d
:1005d000f7ff3200c82ade00055d78008b05e900d0
:1005e000f3ff32000c00e000f1ff320019ddba0029
:1005f000eeff37000000fa000108a9000080fa00b1
:10060000004006003600f800809fbe00829fbe00ba
:10061000849fbe00869fbe000000fa000068a9000b
:10062000a00c0700f50e07006c0d07007183800019
:100630002003200000017800110009008200d8008a
:100640008000fd000000e00002003a00d30f070028
:10065000890b0700708380000000e8007083880029
:100660000080fa004f03be004f02be004f01be00e3
:100670004f00be003600f90000400600809fbe001b
:100680000000fa000368a9005083800061838000a5
:1006900061004000e080480050838800618388004a
:1006a0000080fa004f00be0000400600801f780066
:1006b0000000fa0001a8a90000188000c0b6880058
:1006c00010188000d0b6880020188000e0b688009e
:1006d00030188000f0b688004018800000b788000d
:1006e00010c0b3007ff0b7000080fa004f00780020
:1006f000004006003600f800809fbe00829fbe00ca
:10070000849fbe00869fbe000000fa000188a900f9
:10071000a183800090838000808f5000020032000f
:100720000d110700010037007670ef000080fa001d
:100730004f03be004f02be004f01be004f00be007f
:100740003600f900004006003600f800809fbe0029
:10075000829fbe00849fbe00869fbe000000fa00fc
:100760000168a90010118000640060000000e00032
:10077000010032002242a9001011800062006000d6
:100780000000e000060032002222a9000500370028
:1007900030118000004078005e1107000100370032
:1007a0000000000010118000610060000000e00007
:1007b000f7ff3a000080fa004f03be004f02be0070
:1007c0004f01be004f00be003600f9000040060099
:1007d0000040da000000fe000000050003f0a20067
:1007e000889fbe008a9fbe008c1f78007d01070095
:1007f000840133006450e1004f0032006420e100c6
:100800005200320003826c0007003b000905d00053
:100810000306d000820f54000c065d000200390070
:1008200002003200890178000306780085825500b5
:1008300004003d000003fd008103fd008502ea0085
:100840008b854200840f720002003b0060001000a4
:10085000e08018006011b8000005eb007a28e10084
:100860000a00390006007800c75ddd00f707b20016
:10087000878075002d003700828171000a017800a1
:10088000610560008180d1000080d3008502e9000d
:10089000f9ff3b00060440008784480002003b004b
:1008a00060041400e0841c000988a30007003200e3
:1008b0008a81710082817100610164008904d10024
:1008c0000884d3008b05e800170037000978a300df
:1008d00013003a000b00e000130034008b05e90020
:1008e0000804440089844c000a4474000978a30079
:1008f0000d003a000b00e000070034008b05e90012
:100900000804440089844c0001003a000b002000d8
:100910000978a300f7ff32000001eb000200370066
:10092000828171000a017800f30007000cf0a70033
:1009300001f0a0003c0137006420e10002003a0011
:10094000838f6c003c0133000801be000200be0032
:10095000350137000081eb006e013700889fbe0033
:100960008a9fbe008c1f78001e01070025013300fe
:1009700003866c006450e1002e0032006420e10028
:10098000330032006150e1002f0032006120e100ad
:100990003100320085855500eb07b00009002000ca
:1009a00008042000050037000804440089844c0036
:1009b0000a0031000603430087834b000001530007
:1009c00081815b00f8ff33000203be000800a00035
:1009d0000804440089844c00f6ff3900c639dd0064
:1009e0008301730001003200130020008904d1004c
:1009f0000884d3000998a300050032000800a7006e
:100a00000300a0008904d1000884d3008b05e8000e
:100a10008904d1000884d3000001eb000281d200d8
:100a2000b500070001f0a1000cf0a70001f0a00044
:100a3000fd0037006420e100ff0032000801be0025
:100a40000200be00f7ff37006120e100fa0032002b
:100a50006000b800f3ff37000000200001f8270015
:100a6000f0ff3700839f68000100e00002003d00b6
:100a700060001000e08018000300e00002003d006c
:100a800060011100e08119008d0107004f00e000b6
:100a900002003b0060001000e0801800000006002b
:100aa0001400200096013700f4ff2f009401370056
:100ab0000001be00b60007000470a70003f0a1000b
:100ac0006509b100160032000d0035006828e1000c
:100ad00006003500f0ff2f00f1ff27000300e000c3
:100ae00013003b000100280000000500000040004a
:100af000818048008502e900fcff3a0008003700c9
:100b0000f88f420002003c008000eb00000005006e
:100b10008100d1000080d3008502e800fcff3a008c
:100b20000300e00002003b0060001000e0801800bd
:100b3000000006000001be00950007000470a70039
:100b400003f0a10003f8a30013003a006509b10007
:100b500010003200090035006928e100020035006c
:100b600001002800000005000000400081804800ce
:100b70008502e900fcff3a0000000600f88f420001
:100b8000050035008100d1000080d3008502e80017
:100b9000fcff3a00000006008000eb0000000500aa
:100ba0004f89de0082017800700137006011b800c3
:100bb0007e0137000400200000003700889fbe003f
:100bc0008a9fbe008c1f78004f26dd00850007003d
:100bd0008c0033006120e100430032006250e100ec
:100be00041003e003e0039006420e1003c0032003c
:100bf000058255000f003b000402e80038003a006f
:100c0000800f5300818f5b00350034000800be0068
:100c100003f0a10001f0a60003f0a0000cf0a70073
:100c2000effe0700800037000603430087834b0078
:100c30000c4646000005530081855b00020033002e
:100c40000a03be000c00a0000402e900f6ff3b000e
:100c5000850578000602430087824b0004003a00b5
:100c60006000b80009f0a70001f0a0006e00370096
:100c70000002520081825a000704e00004003300a1
:100c80000603430087834b008b05e900faff37001a
:100c9000090578000604be000203be006011b8001a
:100ca00015000700e00f5200e08f5a0007003500e2
:100cb00002003c000c08a300040032000601be0044
:100cc00003f0a0000cf0a700c5fe07000a8568002d
:100cd00001f0a1000af0a70001f0a00052003700c7
:100ce0000800be0050003700100220000cf0a600e3
:100cf000008488005000370081002000618055008a
:100d00000b003d000b00200061fe2f000100e10000
:100d10001d00340082817100610164008904d100ea
:100d20000884d3000000e800faff3a0071002000b8
:100d300061006400030070000200600009003200de
:100d400061044400e0844c000988a50005003200dd
:100d50008b05e8006808e10002003a008904d10030
:100d60000884d300f20f20000258e10005003d0086
:100d7000c75ddd00f907b2008980750008007800c2
:100d8000000006000bf827008b007800000005002b
:100d9000c70ade00f107b200f50fb200080032000a
:100da000e1cf4200020032000170a00024000500e3
:100db000810f7000010032000408050044000500a6
:100dc000810f700002003a00140005008502e9005e
:100dd0000000400081c04800fcff3b000170a00003
:100de000240005000004be00e9ff07000003be0068
:100df0000405be000200be00e5ff0700844f750039
:100e0000000006000200be006450e100050036004c
:100e10006420e100020036000968a30001003a00e6
:100e20000800be000160a0004f0678004f05be001c
:100e30004f04be0000000600f0ff2f00f1ff270066
:100e4000f9ff3700889fbe008a9fbe008c1f780084
:100e5000e4ff0700ebff330003866c006450e10001
:100e6000240032006420e100270032006150e100dc
:100e7000220032006120e100210032008b85420017
:100e8000eb07b1000134b800003ab8000804420092
:100e900089844a00013ab8000030b80088804000d8
:100ea00009014a000400330000004000818048002e
:100eb000020149008b05e900c909dd0083017000ca
:100ec0000100320013002000c814de004814dd00c9
:100ed0004709de001200b200c808de000884700076
:100ee00085ff070001f0a1000cf0a70001f0a000b1
:100ef000cdff37006120e100cfff32000801be00c6
:100f00000200be00f7ff37006150e100fcff3a002d
:100f1000c9ff3700889fbe008a9fbe008c9fbe001d
:100f2000820578000004be0099ff07000800be009b
:100f30006420e1000700390002003a00f1ff2700b9
:100f4000f0ff2f000160a000120220000284880040
:100f5000550037006120e10003003a000b00a700b4
:100f600001f823005000370001f0a1000200210029
:100f700093642400cafe07000800be000400350088
:100f8000b2fd2000930c24000aff07000004be00fd
:100f90000005eb000b00a6004f0dde0001f0a100e4
:100fa0000004be0032982f0023ea2300a5ff0700ab
:100fb0000001eb0003f023000b00a70003f823005f
:100fc00007fe0700bafe07000000a7000a00a20003
:100fd000f3fe07000b00e0000300320002002000d7
:100fe00003f02300fdfd070001f0a2000006be0093
:100ff000020020009304240092ff07000801be00b5
:10100000f7fd0700809fbe000c00be0022a22a0050
:10101000d3a723008bff07004f01be00f0fd0700a0
:101020000004be0001f0a10002002000039823008c
:101030009bfe07000800be00190035000001be003d
:1010400080ff07000006be00b2c52900e36223004e
:101050007cff070022222b00f3942b00e0fd070009
:101060000c01be0077ff0700e273280083c0230055
:10107000dbfd07000c01be0072ff070042aa2a0038
:10108000a3e22b00d6fd07000c01be006dff070098
:101090000801be006bff07000801be00d0fd07007d
:1010a0000a00a70001f0a2004f06be004f05be00d7
:1010b0004f04be00000006000001eb0095ff370062
:1010c0006022b800060220000000d0008180d2001b
:1010d0000482d2008582d2000000a00002025200e9
:1010e00083825a00030031000202420083824a00d8
:1010f0000000a1000603e900f3ff3a00000006002b
:10110000889fbe008a9fbe00841f780035ff0700bd
:101110004f00780011003300f0ff2f00838f6c0028
:1011200006003b00040565000a00a7000800370020
:1011300009f0a6001000200008003700820f5400bc
:10114000838f5c00030039001000200001003e0086
:101150000000200009f0a7000000ea004f05be00d3
:101160004f04be000000e00000000600881f780069
:10117000030478000300e00007003d006000100059
:10118000e080180060011900e081190002003b00b6
:1011900001f02d00030037000400070008f0a7004d
:1011a00001f0a0004f04780000000600889fbe00f8
:1011b0008a9fbe00008270000402710004827100e8
:1011c000260032000004be000200be006011b8001c
:1011d0006b092000950220000182cf000a0039002f
:1011e0000541b1000082cf00070039000541b10080
:1011f0000982cf00040039000541b1000882cf0008
:10120000010039000541b1000542520012003200d0
:101210000a003b0082817100610164008100d100fd
:101220000080d3008984d3000884d3008b05e800b4
:101230000442e800f7ff3a000700370008044400c2
:1012400089844c0000004800818048008b05e9003b
:101250000442e900f9ff3a00a7fe07004f05be006f
:081260004f04be00000006006f
:020000040000fa
:101268001000fa00881f78008b0f0700570f07003f
:101278009d0a0700430b070056090700590e07008f
:10128800bf0b07001d0f0700c80b0700d00b070096
:101298007708070001003700000000008f0e0700e4
:1012a80010079800910e0700e14f500098003a008f
:1012b800920e0700890e0700200798002e00900064
:1012c80068004000100078008000eb0035fe070041
:1012d8003233230033052400d8fe07000200200023
:1012e800035824009bfd0700d2cc2c00c304240023
:1012f800d2fe070030079800410798003e01900091
:10130800ce019000000020008120240091fd0700fc
:1013180002002000030a24002efd0700a0a4880074
:10132800b1a488002e0090006600400010007800ec
:101338008000eb001bfe0700323323003305240036
:10134800befe0700020020000358240081fd0700ac
:10135800d2cc2c00c3042400b8fe07003007980044
:10136800410798003e019000ce0190000000200047
:101378008120240077fd070002002000030a2400d2
:1013880014fd070000a5880011a588002e00900014
:1013980064004000100078008000eb0001fe0700a8
:1013a8003233230033052400a4fe07000200200086
:1013b8000358240067fd0700d2cc2c00c304240086
:1013c8009efe070030079800410798003e019000f4
:1013d800ce01900000002000812024005dfd070060
:1013e80002002000030a2400fafc0700c0a48800b9
:1013f800d1a488002e0090000080e800100078003a
:101408008000eb00e7fd070032332300330524009a
:101418008afe070002002000035824004dfd070043
:10142800d2cc2c00c304240084fe070030079800a7
:10143800410798003e019000ce0190000000200076
:101448008120240043fd070002002000030a240035
:10145800e0fc0700e0a48800f1a488002e009000ba
:10146800100078008000eb00cefd07003233230027
:101478003305240071fe07000200200003582400f1
:1014880034fd0700d2cc2c00c30424006bfe0700f7
:1014980030079800410798003e019000ce01900067
:1014a80000002000812024002afd070002002000ff
:1014b800030a2400c7fc070020a5880031a588007e
:1014c80060a4800071a480005d0c070076fd070011
:1014d800004078000044780020a4800031a48000f7
:1014e800570c070070fd070000407800584f98001f
:1014f800604f980030002000500798006d004700aa
:1015080000017800de00900000042000f6040700c7
:10151800210e07000004e0000b0032000000eb0081
:10152800000f7800050037000b0e0700404f9800a9
:101538004e4890004c0507001e0fe800270e0700d4
:101548009e0f5000f8ff3c0071828000a000200030
:1015580000017800110009008200d8008000fd0019
:101568000000e00001003a004e30ef007082800079
:101578000000e80070828800908280000000e0008f
:1015880045ff3a00100020009082880043ff370092
:101598000000fa0054d0bf000080fb00cf80de00be
:1015a8007201200003002000820f5000838f580032
:1015b800fb003e000006010017003700200037003e
:1015c80029003700370037003e0037004700370052
:1015d8004e003700570037005e00370068003700bc
:1015e8006f00370079003700de003700ec00370065
:1015f800eb003700ea0037007c0037008600370030
:101608008d003700970037009e003700aa0037008a
:10161800c5003700b70037006a30ef006c30ef00c4
:101628000041eb006000b8008608070012c0b30054
:101638006000b8008308070010c0b30054f0b7007a
:101648005283800063838000803e200001002000d8
:10165800800f5100818f5900d400360020c0b3009c
:1016680054f0b700da003700b08280000000ea00ca
:10167800cf80de0048fd07000041eb00710807003d
:10168800b08280000000ea00cf80de0042fd070043
:1016980012c0b3006b08070030c0b30054f0b700a5
:1016a800cb003700e0828000e10f500002003a00d2
:1016b800c9000700c6003700c0c0b30054f0b70027
:1016c800c30037000041eb006000b8005d08070068
:1016d80012c0b300000020000115240059080700bb
:1016e80050c0b30054f0b700b9003700e082800062
:1016f800e10f500002003a00b7000700b4003700bd
:10170800c0c0b30054f0b700b10037000041eb008f
:1017180000002000011524004a08070012c0b30089
:101728006000b8004708070070c0b30054f0b70065
:10173800a7003700e0828000e10f500002003a0065
:10174800a5000700a2003700c0c0b30054f0b700de
:101758009f0037000041eb000000200001152c001d
:101768003808070012c0b30000002000011524004b
:101778003408070090c0b30054f0b7009400370055
:10178800e0828000e10f500002003a00920007005a
:101798008f003700c0c0b30054f0b7008c0037008a
:1017a8000041eb0000002000011524002508070077
:1017b80012c0b3000000200001152c00210807000a
:1017c800b0c0b30054f0b70081003700e082800059
:1017d800e10f500002003a007f0007007c0037004c
:1017e800c0c0b30054f0b700790037000041eb00e7
:1017f80000002000010a2c001208070012c0b300e4
:1018080000002000011524000e08070010c1b300d5
:1018180054f0b7006e003700e0828000e10f5000fe
:1018280002003a006c00070069003700c0c0b3002e
:1018380054f0b700660037000041eb0000002000bc
:1018480001152400ff07070012c0b30000002000a4
:10185800010a2c00fb07070030c1b30054f0b700a1
:101868005b003700e0828000e10f500002003a0080
:101878005900070056003700c0c0b30054f0b70045
:10188800530037006a30ef006c30ef000041eb0086
:1018980000002000011a2400ea07070012c0b30064
:1018a80000002000011a2c00e607070050c1b30011
:1018b80054f0b70046003700f08280006101b9009b
:1018c8005083800061838000800f5100818f590010
:1018d80038003100e0828000e10f500002003a0039
:1018e8003d0007003a003700c0c0b30054f0b7000d
:1018f800370037006a30ef006c30ef000041eb0032
:1019080000002000011a2400ce07070012c0b3000f
:1019180000002000011a2c00ca07070060c1b300ac
:1019280054f0b7002a003700f08280006101b90046
:101938005083800061838000800f5100818f59009f
:101948001e003100e0828000e10f500002003a00e2
:10195800210007001e003700c0c0b30054f0b700d4
:101968001b003700e08280000000e00015003a000c
:10197800808280000000e00014003a000041eb0083
:101988006000b800af07070012c0b3006000b800dd
:10199800ac07070010002000808288000c00370088
:1019a8005470ef000000000009003700000000003c
:1019b80007003700000000000500370000000000a5
:1019c800030037000000000001003700000000009d
:1019d8000080fa00000006000a00fa00889fbe0096
:1019e8008a1f78000040eb00004f78005030ef006d
:1019f80028a5800039a5800030838000cf80de00d4
:101a080065fc07001ac0b3000001be000800be0054
:101a180021fc07000000e000010035000045eb0054
:101a28000a04e00003003200b0c0b300004f7800a1
:101a38008202370008a5800019a580003083800045
:101a4800cf80de0054fc07001ac0b3000001be00be
:101a58000800be0010fc07000000e000010035008f
:101a68000045eb000a04e00003003200a0c0b30008
:101a7800004f78007102370028a5800039a5800042
:101a880020838000cf80de0043fc07001ac0b3002b
:101a98000001be000800be00fffb07000000e000d8
:101aa800010035000045eb000a04e0003b0032006d
:101ab800a8a48000b9a4800000838000cf80de0045
:101ac80035fc07001ac0b3000001be000800be00c4
:101ad800f3fb07000000e00001003c000045eb00bc
:101ae8000a04e0002d003200c8a48000d9a48000b8
:101af80010838000cf80de0027fc07001ac0b300e7
:101b08000001be000800be00e5fb07000000e00081
:101b180001003c000045eb000a04e0001f00320011
:101b2800e8a48000f9a4800000838000cf80de0054
:101b380019fc07001ac0b3000001be000800be006f
:101b4800d7fb07000000e00001003c000045eb0067
:101b58000a04e0001100320008a5800019a58000e1
:101b680020838000cf80de000bfc07001ac0b30082
:101b78000001be000800be00c9fb07000000e0002d
:101b880001003c000045eb000a04e00003003200bd
:101b9800b0c0b300004f78002802370028a58000a5
:101ba80039a5800020838000cf80de00fafb070083
:101bb8001ac0b3000001be000800be00b8fb070051
:101bc8000000e00001003c000045eb000a04e000d2
:101bd8003b003200a8a48000b9a4800000838000e4
:101be800cf80de00ecfb07001ac0b3000001be0086
:101bf8000800be00aafb07000000e00001003c004e
:101c08000045eb000a04e0002d003200c8a4800063
:101c1800d9a4800010838000cf80de00defb07009f
:101c28001ac0b3000001be000800be009cfb0700fc
:101c38000000e00001003c000045eb000a04e00061
:101c48001f003200e8a48000f9a48000008380000f
:101c5800cf80de00d0fb07001ac0b3000001be0031
:101c68000800be008efb07000000e00001003c00f9
:101c78000045eb000a04e0001100320008a58000ce
:101c880019a5800020838000cf80de00c2fb0700fa
:101c98001ac0b3000001be000800be007efb0700aa
:101ca8000000e000010035000045eb000a04e000f8
:101cb80003003200a0c0b300004f7800df013700f6
:101cc80008a5800019a5800020838000cf80de0051
:101cd800b1fb07001ac0b3000001be000800be0037
:101ce8006dfb07000000e000010035000045eb0037
:101cf8000a04e0003b00320028a5800039a58000d6
:101d080020838000cf80de00a3fb07001ac0b30049
:101d18000001be000800be0061fb07000000e000f3
:101d280001003c000045eb000a04e0002d003200f1
:101d3800a8a48000b9a4800000838000cf80de00c2
:101d480095fb07001ac0b3000001be000800be00e2
:101d580053fb07000000e00001003c000045eb00d9
:101d68000a04e0001f003200c8a48000d9a4800043
:101d780010838000cf80de0087fb07001ac0b30005
:101d88000001be000800be0045fb07000000e0009f
:101d980001003c000045eb000a04e000110032009d
:101da800e8a48000f9a4800000838000cf80de00d2
:101db80079fb07001ac0b3000001be000800be008e
:101dc80037fb07000000e00001003c000045eb0085
:101dd8000a04e00003003200a0c0b300004f7800fe
:101de8009601370008a5800019a58000208380008f
:101df800cf80de0068fb07001ac0b3000001be00f8
:101e08000800be0026fb07000000e00001003c00bf
:101e18000045eb000a04e0003b00320028a58000e2
:101e280039a5800020838000cf80de005afb0700a0
:101e38001ac0b3000001be000800be0016fb070070
:101e48000000e000010035000045eb000a04e00056
:101e58002d003200a8a48000b9a48000008380006f
:101e6800cf80de004cfb07001ac0b3000001be00a3
:101e78000800be000afb07000000e00001003c006b
:101e88000045eb000a04e0001f003200c8a48000ef
:101e9800d9a4800010838000cf80de003efb0700bd
:101ea8001ac0b3000001be000800be00fcfa07001b
:101eb8000000e00001003c000045eb000a04e000df
:101ec80011003200e8a48000f9a48000008380009b
:101ed800cf80de0030fb07001ac0b3000001be004f
:101ee8000800be00eefa07000000e00001003c0018
:101ef8000045eb000a04e00003003200b0c0b30064
:101f0800004f78004d013700a8a48000b9a48000d4
:101f180000838000cf80de001ffb07001ac0b300db
:101f28000001be000800be00dbfa07000000e00068
:101f3800010035000045eb000a04e0001f003200f4
:101f4800c8a48000d9a4800010838000cf80de0060
:101f580011fb07001ac0b3000001be000800be0054
:101f6800cdfa07000000e000010035000045eb0055
:101f78000a04e00011003200e8a48000f9a48000ff
:101f880000838000cf80de0003fb07001ac0b30087
:101f98000001be000800be00bffa07000000e00014
:101fa800010035000045eb000a04e00003003200a0
:101fb80070c0b300004f780020013700a8a480004b
:101fc800b9a4800000838000cf80de00f2fa070009
:101fd8001ac0b3000001be000800be00aefa070038
:101fe8000000e000010035000045eb000a04e000b5
:101ff8001f003200c8a48000d9a48000108380008c
:10200800cf80de00e4fa07001ac0b3000001be006a
:102018000800be00a2fa07000000e00001003c0032
:102028000045eb000a04e00011003200e8a480003b
:10203800f9a4800000838000cf80de00d6fa070074
:102048001ac0b3000001be000800be0092fa0700e3
:102058000000e000010035000045eb000a04e00044
:102068000300320040c0b300004f7800f30037008f
:10207800a8a48000b9a4800000838000cf80de007f
:10208800c5fa07001ac0b3000001be000800be0070
:1020980081fa07000000e000010035000045eb0070
:1020a8000a04e0001f003200c8a48000d9a4800000
:1020b80010838000cf80de00b7fa07001ac0b30093
:1020c8000001be000800be0073fa07000000e0002f
:1020d800010035000045eb000a04e0001100320061
:1020e800e8a48000f9a4800000838000cf80de008f
:1020f800a9fa07001ac0b3000001be000800be001c
:1021080067fa07000000e00001003c000045eb0012
:102118000a04e0000300320060c0b300004f7800fa
:10212800c6003700a8a48000b9a4800000838000fe
:10213800cf80de0098fa07001ac0b3000001be0085
:102148000800be0056fa07000000e00001003c004d
:102158000045eb000a04e0001f003200c8a480001c
:10216800d9a4800010838000cf80de008afa07009f
:102178001ac0b3000001be000800be0046fa0700fe
:102188000000e000010035000045eb000a04e00013
:1021980011003200e8a48000f9a4800000838000c8
:1021a800cf80de007cfa07001ac0b3000001be0031
:1021b8000800be0038fa07000000e0000100350002
:1021c8000045eb000a04e0000300320050c0b300f1
:1021d800004f780099003700a8a48000b9a48000b7
:1021e80000838000cf80de006bfa07001ac0b300be
:1021f8000001be000800be0027fa07000000e0004a
:10220800010035000045eb000a04e0001f00320021
:10221800c8a48000d9a4800010838000cf80de008d
:102228005dfa07001ac0b3000001be000800be0036
:102238001bfa07000000e00001003c000045eb002d
:102248000a04e00011003200e8a48000f9a480002c
:1022580000838000cf80de004ffa07001ac0b30069
:102268000001be000800be000dfa07000000e000f3
:1022780001003c000045eb000a04e00003003200c6
:1022880020c0b300004f78006c003700a8a480007d
:10229800b9a4800000838000cf80de003efa0700ea
:1022a8001ac0b3000001be000800be00fcf9070018
:1022b8000000e00001003c000045eb000a04e000db
:1022c8001f003200c8a48000d9a4800010838000b9
:1022d800cf80de0030fa07001ac0b3000001be004c
:1022e8000800be00eef907000000e00001003c0015
:1022f8000045eb000a04e00011003200e8a4800069
:10230800f9a4800000838000cf80de0022fa070055
:102318001ac0b3000001be000800be00def90700c5
:102328000000e000010035000045eb000a04e00071
:102338000300320010c0b300004f78003f003700a0
:10234800c8a48000d9a4800010838000cf80de005c
:1023580011fa07001ac0b3000001be000800be0051
:10236800cdf907000000e000010035000045eb0052
:102378000a04e0000300320030c0b300004f7800c8
:102388002e003700a8a48000b9a480000083800034
:10239800cf80de0000fa07001ac0b3000001be00bb
:1023a8000800be00bef907000000e00001003c0084
:1023b8000045eb000a04e00020003200c8a48000b9
:1023c800d9a4800010838000cf80de00f2f90700d6
:1023d8001ac0b3000001be000800be00b0f9070033
:1023e8000000e00001003c000045eb000a04e000aa
:1023f80012003200e8a48000f9a480000083800065
:10240800cf80de00e4f907001ac0b3000001be0067
:102418000800be00a2f907000000e00001003c002f
:102428000045eb000a04e000040032000040eb0025
:10243800004f78001000200040838800408380000f
:102448000000e00002003a005630ef0003003700b9
:10245800a0002000b08288006830ef001e4078009d
:102468000004e00003003a0020c0b30058f0b700b1
:10247800650037001e407800e24f500004003a0023
:1024880040c0b30058f0b7005a30ef005e00370084
:102498001e407800e14f500005003a0060c0b300cc
:1024a80058f0b70010002000d0828800560037008e
:1024b8001e407800e34f500009003a00d0828000a7
:1024c8000000e00003003a0080c0b30058f0b700f5
:1024d8004d003700a0c0b30058f0b7004a003700dd
:1024e8001e407800e64f500004003a0080c0b30058
:1024f80058f0b7005a30ef00430037001e4078000c
:10250800e54f500005003a00a0c0b30058f0b700ee
:1025180010002000d08288003b0037001e40780061
:10252800e44f500003003a0080c0b30058f0b700f1
:10253800350037001e407800e74f500009003a0088
:10254800d08280000000e00003003a0080c0b300a1
:1025580058f0b7002c003700a0c0b30058f0b700ff
:10256800290037001e407800e84f500003003a0069
:1025780080c0b30058f0b700230037001e40780031
:10258800ea4f500003003a0000c1b30058f0b7000a
:102598001d0037001e407800eb4f500003003a0042
:1025a80020c1b30058f0b700170037001e4078006c
:1025b800ed4f500009003a00d08280000000e00092
:1025c80003003a0000c1b30058f0b7000e0037000e
:1025d80020c1b30058f0b7000b0037001e40780048
:1025e800ec4f500008003a00d08280000000e00064
:1025f80003003a0070c1b30058f0b700020037007a
:1026080040c1b30058f0b70058d0bf008080fb002d
:1026180054d0bf000080fb000000e900808f50000c
:102628003e00320058d0bf0054f0b7000000eb0065
:102638001007980041052100914078001e00900085
:1026480064004000017778001e0090000000e80058
:102658001007980050838000618380004808de00de
:10266800804078001e0090006400400001777800e8
:102678001e0090000000e8001007980050838000ba
:10268800618380004008de00804078001e009000d2
:1026980064004000017778001e0090000000e80008
:1026a8001007980050838000618380004809dd008e
:1026b8004800de0000007100c808de008040780095
:1026c8001e00900064004000017778001e00900012
:1026d8000000e800100798005083800061838000a4
:1026e800804078001e009000640040000177780068
:1026f8001e0090000000e800100798001e009000df
:102708000000e80010079800640047000001780006
:102718009e00900000052000730007004f05780018
:102728004f04be000080fa00000006000200fa0014
:10273800000f78001e007800e40f50001e003200e1
:10274800e40f500007003c00e20f50001200320076
:10275800e20f500014003c00e10f50000a00320064
:1027680029003700e60f50001b003200e60f50002a
:1027780015003500e70f50001b003200e80f50002d
:102788001d0032002000370064cea90064eea900c5
:10279800254ea8002000370064cea80064eea900ea
:1027a800254ea9001c00370064cea90064eea800dd
:1027b800254ea9001800370064cea80064eea800d2
:1027c800254ea9001400370064cea90064eea800c5
:1027d800254ea8001000370064cea80064eea900ba
:1027e800254ea8000c00370064cea80064eea800af
:1027f800254ea8000800370064cea90064eea900a1
:10280800254ea9000400370064cea90064eea90093
:10281800254ea900000000000080fa000000060014
:102828000a00fa002007980031079800420798002c
:102838000040eb00004f7800e0cfb3001e4f680067
:102848002e0090004880de00804078001e4078000e
:1028580000c06800004f78002e009000804078008b
:102868001e40780000c06800004f78003e009000cd
:102878004880de00804078001e40780000c0680074
:10288800004f78003e009000804078001e4078009d
:1028980000c06800004f78000000eb0010079800a7
:1028a8000000eb0010079800080037001e00900099
:1028b800ce00900000804000104078001e4f680055
:1028c8001e0090000000e800100798009e0090008d
:1028d8003e009000808f5000f4ff35001e407800c5
:1028e8000080fa00000006001000fa00889fbe0071
:1028f8005007980061079800720798000f04780045
:102908000f007800800478000040eb0040479800f2
:102918006e009000660040008000e90031079800d2
:102928000000e8000000e8000000d100800040003e
:102938000f007800818747000000e8000000d10000
:1029480000004000400798000000eb00000f7800ee
:102958004e0090001e004000e1cfb300014878000f
:102968001e0fe8005e0090004880de00804078007e
:102978004e0090001e004000014878001e0fe8003d
:102988005e009000804078004e0090001e004000dd
:10299800014878001e0fe8006e0090004880de00b5
:1029a800804078004e0090001e00400001487800ea
:1029b8001e0fe8006e009000804078004e009000e6
:1029c8001e004000014878001e0fe8000000eb00e0
:1029d800100798000000eb00100798000b00370064
:1029e8001e009000fe00900000804000904078009b
:1029f8004e0090001e004000014878001e0fe800bd
:102a08001e0090000000e800100798009e0090004b
:102a18006e009000808f5000f1ff35007e0190001d
:102a2800ee0090005e0090007dff07004047980090
:102a38004e0090001e004000ce40900001487800f3
:102a48001e0fe8006e009000e60040004e00900067
:102a58000308070089077800880778004f04be003c
:102a68000080fa00000006000200fa00004f78001b
:102a780030808000e30f500026003200e30f500042
:102a880007003c00e10f500015003200e10f500034
:102a980019003c000000e000080032004b0037003d
:102aa800e50f50002d003200e50f50001f003500e3
:102ab800e60f500037003200440037001e4078000f
:102ac800e24f400044003a001000200030808800a7
:102ad8000230ef000030ef000430ef004100370013
:102ae8001e80fb004800dd000080880020002000d8
:102af800308088003b0037009e80fb00008080000b
:102b0800008040000080880030002000308088006d
:102b1800340037001e80fb004800dd00108088006c
:102b280040002000308088002e0037009e80fb0087
:102b38001080800000804000108088001180800094
:102b4800c05d2000808f5000010034000630ef0087
:102b5800500020003080880022003700208080004c
:102b6800015f2100008040001e487800208080001e
:102b78000000e8002080880021808000108080000c
:102b8800808f500016003a006000200030808800d6
:102b9800140037001e417800810021008248780027
:102ba80008d0bf009e4f500006003a0010808000f9
:102bb800804078000080800000407800025f21009b
:102bc8000a0007000630ef00060037000630ef0065
:102bd800000000000300370000000000010037007b
:102be800000000000080fa00000006000400fa005f
:102bf800889fbe008a9fbe00004f7800114798004a
:102c0800120798001e80fb0021052000810f50004c
:102c18001800320021052000810f500007003c00f9
:102c280001022000810f50001d0032001105200014
:102c3800810f50000b003200cf0037001107200031
:102c4800810f5000bb00320001082000810f5000a6
:102c58000c00320001072000810f5000590032009b
:102c6800c50037001e00900010407800c60007001d
:102c7800c10037001e00900010407800e6000700f1
:102c8800bd0037001e4090000080fb001e01900030
:102c9800800078000008200013ff0700b600370006
:102ca8001e0090009040780090c4b30080cf500080
:102cb80007003a001e0090000000e80090407800ed
:102cc80010c3b30080cf500001003a00254ea80081
:102cd8001e00900090407800f0c4b30080cf5000f0
:102ce80007003a001e0090000000e80090407800bd
:102cf80010c3b30080cf500001003a00254ea90050
:102d08001e0090009040780090c4b30080cf50001f
:102d180007003a001e0090000000e800904078008c
:102d280020c3b30080cf500001003a0064eea80031
:102d38001e00900090407800f0c4b30080cf50008f
:102d480007003a001e0090000000e800904078005c
:102d580020c3b30080cf500001003a0064eea90000
:102d68001e0090009040780090c4b30080cf5000bf
:102d780007003a001e0090000000e800904078002c
:102d880030c3b30080cf500001003a0064cea800e1
:102d98001e00900090407800f0c4b30080cf50002f
:102da80070003a001e0090000000e8009040780093
:102db80030c3b30080cf50006c003a0064cea90045
:102dc8006d0037008000eb001e009000b50607007c
:102dd8005080880061808800410020001e0090001b
:102de800b00607007080880081808800810020007c
:102df8001e009000ab06070090808800a180880024
:102e0800c10020001e009000a6060700b0808800c0
:102e1800c1808800010120001e009000a106070063
:102e2800d0808800e1808800410120001e009000c9
:102e38009c060700f080880001818800810120003d
:102e48001e009000970607001081880021818800e5
:102e580050808000618080000200200003f8230079
:102e68000df707000000e00016003a001a81800004
:102e78002b818000f880800009818000d680800046
:102e8800e7808000b4808000c58080009280800048
:102e9800a380800070808000818080008a9fbe00af
:102ea800889fbe00869fbe000403be000202be00cb
:102eb8000001be00804d210095000700ec875700f7
:102ec8002d00370050808000618080006011b800bc
:102ed800f1f607000000e00026003a001a818000a1
:102ee8002b818000f880800009818000d6808000d6
:102ef800e7808000b4808000c580800092808000d8
:102f0800a380800070808000818080008a9fbe003e
:102f1800889fbe00869fbe000403be000202be005a
:102f28000001be004051210079000700ec875700de
:102f3800110037008000eb001e00900059060700c2
:102f4800c0a68800d1a68800410020001e0090007d
:102f580054060700a0a88800b1a888000000000057
:102f680005003700000000000300370000000000e3
:102f780001003700000000004f05be004f04be00ee
:102f88000080fa00000006000400fa0020479800bc
:102f98000040eb00004f78000040eb00104798001d
:102fa800ae40900000c3b30080cf50000b003a0041
:102fb80064eea80090c4b300004f780020c3b300ab
:102fc800104798000e017800210020000002200020
:102fd80045fe07005c30ef000d00370064eea900e5
:102fe800f0c4b300004f780020c3b3001047980026
:102ff8000e01780021002000000220003afe0700a0
:1030080010002000e082880020c0b30054f0b70010
:103018000080fa00000006000200fa00004f780065
:103028001e80fb00ea0f500015003200ea0f500026
:1030380005003c00e20f50001a003200e80f500073
:103048000600320030003700ec0f50001e0032003e
:10305800ee0f5000230032002b0037000041eb0038
:103068000000200001172c00f601070012c0b30071
:103078000000200001172400f20107002200370099
:103088000041eb000000200001172400ed010700bb
:1030980012c0b3000000200001172c00e90107004e
:1030a800190037000041eb0000002000011a2c0035
:1030b800e401070012c0b30000002000011a2c0030
:1030c800e0010700100037000041eb006000b80085
:1030d800dc01070012c0b3006000b800d901070086
:1030e800090037000041eb0000002000011a24000d
:1030f800d401070012c0b30000002000011a240008
:10310800d0010700000000000080fa00000006005f
:103118000e00fa00000f78001207980023079800a5
:1031280034079800450798005607980067079800e5
:103138001e0078001e019000ae0190000208980061
:10314800130898001e0078003eb99700ceb9970082
:1031580062089800730898001e0078003e019000ed
:10316800ce01900022089800330898001e007800cd
:103178001eb99700aeb99700021098001310980076
:103188001e0078005e019000ee0190004208980051
:10319800530898001e0078007eb197008eb99700fa
:1031a80022109800331098000080fa0000000600f2
:1031b8001200fa00889fbe00600798007207980006
:1031c800030f98006e0090007e0190008e09900019
:1031d80042009800530098006e009000600a90002a
:1031e800f00a90006e00900090089000000890008f
:1031f8000001be000400be00d6f507000004be00b2
:103208006e009000f0089000600890000002be0078
:1032180005f0a2006e009000900890000008900051
:103228000001be000400be00caf507000802be0087
:103238000001be007e0090008e0890004605070041
:10324800008fbe006e00900090089000000890006b
:103258001e0178009e019000f8f607006e019000ac
:1032680000199800111998006e0090004014900001
:10327800d014900002002000a33724007e009000a4
:103288008e089000b3f507000001be000800be00dc
:1032980051f507006e0190004011980051119800f7
:1032a8006e00900000129000901290006e00900046
:1032b800b0089000200890000001be000400be0085
:1032c800a4f507000004be006e0090009010900066
:1032d800001090000002be0005f0a2006e009000f1
:1032e800b0089000200890000001be000400be0055
:1032f80098f507006e01900042139000d2139000d9
:103308000802be000001be000600be00120507004c
:103318006e01900040119800511198006e009000c5
:1033280040129000d01290006e009000b0089000fb
:10333800200890000001be000400be00bff6070090
:103348006e01900020199800311998006e009000c5
:10335800f0109000601090000001be007e00900008
:103368008e0890001bf5070002002000a3372400f8
:10337800b2f6070020079800310798006e00900009
:1033880020129000b01290006e009000d0089000bb
:10339800400890000001be000400be006df5070063
:1033a8000004be006e009000b01090002010900045
:1033b8000002be0005f0a2006e009000d008900048
:1033c800400890000001be000400be0061f507003f
:1033d8000802be000001be002e009000be00900052
:1033e800dd04070040079800510798006e00900020
:1033f8007e0190008e09900062109800731098006a
:103408006e009000d0089000400890004e01900097
:10341800de01900089f607006e01900040199800bf
:10342800511998006e009000001a9000901a9000b0
:103438006e009000b0189000201890000001be00a7
:103448000400be00e4f407000002be006e00900015
:10345800d0189000401890000001be000400be0083
:10346800ddf407004f04be000080fa0000000600eb
:103478000200fa000000eb00000f7800c0a68000f0
:10348800d1a680000001be009e00780000672100e0
:103498000f050700a0a88000b1a880001e017800d1
:1034a800640f41000001be009e0078000067210003
:1034b80007050700e0a68000f1a680001e0178003d
:1034c800640f41000001be009e00780000672100e3
:1034d800ff040700c0a88000d1a880001e01780062
:1034e800640f41000001be009e00780000672100c3
:1034f800f704070000a7800011a780001e017800cc
:10350800640f41000001be009e00780000672100a2
:10351800ef040700e0a88000f1a880001e017800f1
:10352800640f41000001be009e0078000067210082
:10353800e704070020a7800031a780001e0178005b
:10354800640f41000001be009e0078000067210062
:10355800df04070000a9800011a980001e0178007f
:10356800640f41000001be009e0078000067210042
:10357800d704070040a8800051a880001e017800e9
:10358800640f41000001be009e0078000067210022
:10359800cf04070020aa800031aa80001e0178000d
:1035a800640f41000001be009e0078000067210002
:1035b800c704070060a8800071a880001e01780079
:1035c800640f41000001be009e00780000672100e2
:1035d800bf04070020aa800031aa80001e017800dd
:1035e800640f41000001be009e00780000672100c2
:1035f800b704070080a8800091a880001e01780009
:10360800640f41000001be009e00780000672100a1
:10361800af04070060aa800071aa80001e0178002c
:10362800640f41000001be009e0078000067210081
:10363800a704070040a7800051a780001e0178005a
:10364800640f41000001be009e0078000067210061
:103658009f04070020a9800031a980001e0178007e
:10366800640f41000001be009e0078000067210041
:103678009704070060a7800071a780001e017800ea
:10368800640f41000001be009e0078000067210021
:103698008f04070040a9800051a980001e0178000e
:1036a800640f41000001be009e0078000067210001
:1036b8008704070080a7800091a780001e0178007a
:1036c800640f41000001be009e00780000672100e1
:1036d8007f04070060a9800071a980001e0178009e
:1036e800640f41000001be009e00780000672100c1
:1036f80077040700a0a78000b1a780001e0178000a
:10370800640f41000001be009e00780000672100a0
:103718006f04070080a9800091a980001e0178002d
:10372800640f41000001be009e0078000067210080
:1037380067040700c0a78000d1a780001e01780099
:10374800640f41000001be009e0078000067210060
:103758005f040700a0a98000b1a980001e017800bd
:10376800640f41000001be009e0078000067210040
:1037780057040700e0a78000f1a780001e01780029
:10378800640f41000001be009e0078000067210020
:103798004f040700c0a98000d1a980001e0178004d
:1037a800640f41000001be009e0078000067210000
:1037b800470407009e007800648f400002672100dc
:1037c8009e0078000007200047fc07000080fa00f0
:1037d800000006000000fa001160800080ff2f0042
:1037e800008060001060880000fa200020608800d7
:1037f80023aca800238ca80011618000f03f2f00a3
:103808000080600000a0a000106188003000200047
:1038180020618800c3aca800c38ca8001166800092
:10382800f03f2f000080600000a0a0001066880014
:10383800300020002066880001eca8000080fa0013
:10384800000006000600fa00008fbe0042479800fc
:103858004e4090000004e00006003a001e00780088
:103868009e00900001f0a20060a4880071a4880066
:10387800080037004e409000e14f500005003a0024
:103888001e0078009e00900001f0a20020a488008d
:1038980031a488000080fa00000006000000fa0049
:1038a800889fbe008a9fbe0084a4800095a48000e3
:1038b80060a4800071a4800018c0b3000001be009d
:1038c8000400be0074f407000000e00001003500a9
:1038d8000044eb000804e0000f00320068a48000f8
:1038e80079a480008aa480009ba480007cd0bf00bb
:1038f8000080fb00cf80de00a7f407000001be00b7
:103908000a00be00b4f307000801be007a030700ee
:1039180080a4880091a4880084a4800095a48000d5
:1039280060a4800071a4800018c0b3000001be002c
:103938000400be005af407000000e00001003c004b
:103948000044eb000804e0000f00320068a4800087
:1039580079a480008aa480009ba480007cd0bf004a
:103968000080fb00cf80de008bf407000001be0062
:103978000a00be0097f307000801be0046030700cf
:1039880080a4880091a4880080a4800091a480006d
:1039980018c0b3006011b80041f407000000e0004f
:1039a80001003c000044eb000804e0000400320081
:1039b800c3cca90024eea800c3eca800030037007c
:1039c800c3eca90024cea800c3cca80080a4800022
:1039d80091a480001a03070002002000032224009b
:1039e80016f5070051f407000000780030668800db
:1039f80044a4800055a4800020a4800031a4800045
:103a080018c0b3000001be000400be0022f4070085
:103a18000000e000010035000044eb000804e0006d
:103a28000f00320028a4800039a480004aa4800036
:103a38005ba480007cd0bf000080fb00cf80de004c
:103a480055f407000001be000a00be0062f307003b
:103a58000801be002803070040a4880051a488007c
:103a680044a4800055a4800020a4800031a48000d4
:103a780018c0b3000001be000400be0008f407002f
:103a88000000e00001003c000044eb000804e000f6
:103a98000f00320028a4800039a480004aa48000c6
:103aa8005ba480007cd0bf000080fb00cf80de00dc
:103ab80039f407000001be000a00be0045f3070004
:103ac8000801be00f402070040a4880051a4880041
:103ad80040a4800051a4800018c0b3006011b80051
:103ae800eff307000000e00001003c000044eb0099
:103af8000804e0000400320023eca90015cea80059
:103b080023cca8000300370023cca90015eea80099
:103b180023eca80040a4800051a48000c80207003c
:103b28000200200003222400c4f40700fff307006a
:103b380000007800306188004f05be004f04be00c9
:103b48000080fa00000006000000fa0004ab8000c4
:103b580015ab800080a5800091a580000001be0003
:103b68000400be001bf3070000a7880011a7880007
:103b780024ab800035ab8000a0a58000b1a58000f3
:103b88000001be000400be0012f30700e0a8880090
:103b9800f1a8880000a7800011a780000001be00de
:103ba800804d210082fd070040ab880051ab8800a2
:103bb800e0a88000f1a880000001be00405121006b
:103bc8007bfd070060ab880071ab88000080fa00bd
:103bd800000006000000fa00889fbe00a0aa80002e
:103be800b1aa800002002000a329240093f4070052
:103bf80080aa880091aa8800e0aa8000f1aa800023
:103c080002002000432b24008cf40700c0aa88007f
:103c1800d1aa8800c8aa8000d9aa800080aa8000fa
:103c280091aa8000f2532300e3e5230083f4070000
:103c3800020020000300240046f307000001be0034
:103c48000800be00e4f2070001f0a20060a48800aa
:103c580071a4880060a4800071a480000400200082
:103c6800852c240002002000832c2c00ba020700b7
:103c780060a4880071a48800c8aa8000d9aa80001e
:103c880080aa800091aa8000f2532300e3e5230074
:103c98006af4070002002000030024002df3070047
:103ca8000001be000800be00caf2070001f0a20031
:103cb80020a4880031a4880020a4800031a48000ba
:103cc80004002000852c240002002000832c2c00f6
:103cd800a102070020a4880031a488004f04be0078
:103ce8000080fa00000006000400fa0013e1a900b1
:103cf80011e1a9001061a8001021a9008108800025
:103d0800f0fc2f0000806000800888000a21ef0086
:103d18000621ef00404c20007008880000402b006e
:103d280060088800800880004400de00634060006e
:103d38000081fb008001eb00700880008000eb0030
:103d4800c002dd0004002000600880008000eb0055
:103d58000400400085804800809ab900828bb90031
:103d680086027800050242000010b80001024200f5
:103d7800840078000001be0000a025002126200054
:103d880036f3070084f30700008fbe00214280004d
:103d980080ff2f00008060000000a0002042880003
:103da8000108a9002108a80011e1a8000080fa0074
:103db800000006000400fa00881f7800008fbe008b
:103dc80021088000f0fc2f00008060002008880097
:103dd8001e0178009e0190000068290081c124001e
:103de800dcf2070018c0b30002f02f00f3772400bc
:103df8002bf307000000e00001003c000044eb004a
:103e08000804e0005400320021088000f0fc2f0074
:103e1800008060000040a000200888001e01780093
:103e28009e0190000068290081c12400c9f20700a2
:103e38000200200003102400c6f2070018c0b300d7
:103e480002f02f00f377240015f307000000e000cc
:103e580001003c000044eb000804e000320032009e
:103e680021088000f0fc2f00008060000050a000b6
:103e7800200888001e0178009e0190000068290033
:103e880081c12400b3f207000200200003282400a7
:103e9800b0f2070018c0b30002f02f00f377240037
:103ea800fff207000000e00001003c000044eb00c6
:103eb8000804e00010003200210880000003200000
:103ec80001007000200888001e0178009e01900003
:103ed8000068290081c124009ef20700020020002a
:103ee800033824009bf20700eff207000000780077
:103ef80010088800200037001e0178009e019000fd
:103f08000068290081c1240092f207000200200005
:103f1800032824008ff20700e3f20700000078006e
:103f280010088800140037001e0178009e019000d8
:103f38000068290081c1240086f2070002002000e1
:103f48000310240083f20700d7f20700000078006e
:103f580010088800080037001e0178009e019000b4
:103f68000068290081c124007af20700cef2070018
:103f780000007800100888004f0478000080fa00dc
:103f8800000006000000fa0005e1a9000421a900cc
:103f980000002000a137240086ff07000068a90060
:103fa8002068a80005e1a8000080fa0000000600cb
:103fb8000400fa00881f7800008fbe00f108800016
:103fc800f0fc2f0000806000f00888001e017800d7
:103fd8009e0190000068290081c124005df207005d
:103fe80018c0b30002f02f00f3772400acf20700ea
:103ff8000000e00001003c000044eb000804e00081
:1040080054003200f1088000f0fc2f0000806000ae
:104018000040a000f00888001e0178009e01900072
:104028000068290081c124004af20700020020002c
:104038000310240047f2070018c0b30002f02f0055
:10404800f377240096f207000000e00001003c002e
:104058000044eb000804e00032003200f108800060
:10406800f0fc2f00008060000050a000f0088800dd
:104078001e0178009e0190000068290081c124007b
:1040880034f20700020020000328240031f2070060
:1040980018c0b30002f02f00f377240080f2070065
:1040a8000000e00001003c000044eb000804e000d0
:1040b80010003200f10880000003200001007000a9
:1040c800f00888001e0178009e0190000068290011
:1040d80081c124001ff207000200200003382400d9
:1040e8001cf2070070f2070000007800d008880072
:1040f800200037001e0178009e019000006829000a
:1041080081c1240013f207000200200003282400c4
:1041180010f2070064f2070000007800d008880059
:10412800140037001e0178009e01900000682900e5
:1041380081c1240007f207000200200003102400b8
:1041480004f2070058f2070000007800d008880041
:10415800080037001e0178009e01900000682900c1
:1041680081c12400fbf107004ff20700000078002e
:10417800d00888004f0478000080fa00000006008c
:104188000000fa001fe1a9001e21a900000020007c
:10419800a147240086ff07000368a9002368a80038
:1041a8001fe1a8000080fa00000006000000fa00e5
:1041b800c301a8000080eb00e00e88000080eb003f
:1041c800f00e8800c1e1a8000080fa000000060097
:1041d8000000fa00c305a8000080eb00e02e88006c
:1041e8000080eb00f02e8800c1e5a8000080fa00ee
:1041f800000006000800fa00889fbe008a9fbe00e3
:1042080090818000a1818000708188008181880070
:10421800d0818000e1818000b0818800c181880060
:10422800300e80008000eb00008fbe00500e800032
:104238008000eb00c000dd00000020001e0f4000e1
:104248005e974800302e80008000eb002007980021
:1042580031079800502e80008000eb00c000dd0080
:10426800000020002e019000be01900002004000d6
:104278008380480020079800310798001e007800c6
:104288009e00900044f20700b29420009378230027
:10429800eaf2070090818800a18188002e00900032
:1042a800be0090003cf20700b294200093782b00e7
:1042b800e2f20700d0818800e181880094818000c3
:1042c800a581800070818000818180000001be008e
:1042d8000400be003ff10700f081880001828800d9
:1042e800d4818000e5818000b0818000c181800098
:1042f8000001be000400be0036f1070010828800ed
:1043080021828800f481800005828000108280006c
:10431800218280000001be000400be002df10700cc
:10432800f2532300e3e523008af107003082880076
:1043380041828800f481800005828000108280001c
:10434800218280000001be000400be0022f10700a7
:1043580002002000030024007ef10700508288003c
:104368006182880080a5800091a5800060a68800f1
:1043780071a68800a0a58000b1a5800080a688004d
:1043880091a68800f0818000018280000200200050
:10439800a3372400a9f2070040a5880051a588008a
:1043a800108280002182800002002000a3372400b0
:1043b800a2f2070060a5880071a5880044a58000c6
:1043c80055a5800060a5800071a580000001be0091
:1043d8000400be0000f107000200200003002400d2
:1043e8005cf1070080a5880091a5880030828000d4
:1043f8004182800002002000a33724008ff20700ca
:10440800a0a58800b1a5880000a6800011a680009c
:10441800c0a58800d1a5880020a6800031a680000c
:10442800e0a58800f1a58800a0a68000b1a68000bc
:1044380040a6880051a6880008a6800019a680001a
:1044480080a5800091a5800002002000a3372400e9
:1044580040f107000005be00a0a68000b1a68000bc
:104468003af107000001be000a00be0073f207001f
:104478000001be000800be00d7f0070000a68800b3
:1044880011a6880028a6800039a6800080a5800093
:1044980091a5800002002000a33724002df1070019
:1044a8000005be00a0a68000b1a6800000f30700aa
:1044b8000001be000a00be0060f207000001be0055
:1044c8000800be00c4f0070020a6880031a68800b6
:1044d800a4a68000b5a680003082800041828000ba
:1044e8000001be000400be00bbf00700a0a68800c3
:1044f800b1a68800a0a68000b1a6800018c0b300ad
:10450800b2fd20009304240065f107000000e000dc
:1045180001003c000044eb000804e0000700320002
:10452800a0a68000b1a68000b2fd2000930c240054
:10453800a8f00700a0a68800b1a68800a0a6800061
:10454800b1a6800018c0b300b2fd200093042c006f
:1045580051f107000000e000010035000044eb00c5
:104568000804e00007003200a0a68000b1a6800081
:10457800b2fd2000930c240097f00700a0a6880045
:10458800b1a688004f05be004f04be000080fa00a7
:10459800000006001800fa00508380006183800044
:1045a8000001be008000eb000e007800e10007006b
:1045b80000a6800011a680000001be004100200076
:1045c8000e007800c200070020a6800031a68000f7
:1045d8000001be00810020000e007800bc0007002a
:1045e800a0a68000b1a680000001be00c100200086
:1045f8000e007800b600070080a5800091a5800015
:104608000001be00010120000e007800b000070084
:10461800a0a58000b1a580000001be0041012000d6
:104628000e007800aa0007000e0178008101200022
:1046380010062000acf807000080fa000000060011
:104648000400fa00881f7800008fbe0018c0b3006d
:104658006011b8001e0078009e00900010f107005d
:104668000000e00001003d000044eb000804e00009
:10467800030032001e0078009e00900003003700ff
:104688001e0078009e00900001f0a2004f04780000
:104698000080fa00000006000800fa00881f780071
:1046a800008fbe00220798003307980018c0b30097
:1046b8002e019000be0190001e0078009e00900020
:1046c800f7f007000000e00001003c000044eb00a8
:1046d8000804e000030032001e0078009e009000ed
:1046e800020037002e009000be0090004f047800b2
:1046f8000080fa00000006000800fa00881f780011
:10470800008fbe00220798003307980018c0b30036
:104718002e019000be0190001e0078009e009000bf
:10472800ddf007000000e000010035000044eb0068
:104738000804e000030032001e0078009e0090008c
:10474800020037002e009000be0090004f04780051
:104758000080fa00000006000c00fa00881f7800ac
:10476800008fbe002207980033079800440798007e
:104778005507980018c0b3002e019000be019000a4
:104788001e0078009e009000c3f007000000e000c3
:10479800010035000044eb000804e000030032008b
:1047a8002e009000be0090001000370018c0b30023
:1047b8004e019000de0190001e0078009e009000df
:1047c800b7f007000000e00001003c000044eb00e7
:1047d8000804e000030032004e009000de00900064
:1047e800020037001e0078009e0090004f047800f9
:1047f8000080fa00000006000800fa002007980070
:1048080031079800b2fd2000930424002e00900088
:10481800be009000efef0700b2fd2000930c2400cb
:10482800e2f00700b2fd200093042400eaef07003d
:10483800008fbe00b2fd2000930424001e00780003
:104848009e009000e4ef0700b2fd2000930c2400c6
:10485800d6f00700b2fd200093042400ddef070026
:104868000080fa00000006000a00fa0030079800ed
:1048780041079800be0090004e009000008f400055
:104888001e0078001001780090019000120798002f
:10489800230798001e009000ae0090000080fa00e8
:1048a800000006000600fa0010079800210798008b
:1048b8009e0090002e009000008f40001e0078009f
:1048c80090009000100078000080fa0000000600b8
:1048d8000c00fa002007980031079800420798005a
:1048e8005307980068004700100798000000eb0085
:1048f800000f78000a0037003e0090001e004000bc
:10490800ae009000008040009e0078001e019000dc
:104918008100410091407800014878001e0fe800ae
:104928001e007800e30f5000f3ff34000080fa0007
:10493800000006000c00fa002007980031079800d4
:10494800420798005307980068004700100798002e
:104958000000eb00000f78000b0037003e009000cd
:104968001e004000ae009000008040003200200091
:104978009e0051001e019000810041009140780086
:10498800014878001e0fe8001e007800e30f500071
:10499800f2ff34000080fa00000006000c00fa0064
:1049a800200798003107980042079800530798009d
:1049b80068004700100798000000eb00000f78001f
:1049c8000a0037003e0090001e004000ae00900034
:1049d800008040009e0078001e0190008100410088
:1049e80091407800014878001e0fe8001e0078000a
:1049f800e70f5000f3ff34000080fa0000000600c3
:104a08000400fa00008fbe00b2fd200093042400c9
:104a18001e0078009e009000ceef070002002000e4
:104a28004333240005f107000080fa000000060067
:104a38000400fa00008fbe00b2fd20009304240099
:104a48001e0078009e009000fcf007000200200085
:104a580043332400bfef07000080fa00000006007f
:104a68000600fa0010079800210798000040eb00a4
:104a7800004f780054000700ae009000810f5000ee
:104a8800110034000040eb00004f780006003700aa
:104a98001e80fb009e0090000080400010407800bf
:104aa8000b0007001e4fe8009e80fb002e009000c0
:104ab800808f5000f6ff35002e0007000004e0004c
:104ac80001003a00220007000080fa0000000600fa
:104ad8000200fa00004f780090838000210821002e
:104ae800008040001e487800908380000000e800a5
:104af8009083880091838000f03f2000808f5000d1
:104b0800010034007230ef000080fa000000060057
:104b18000200fa00a08380002108210000804000e4
:104b2800104f7800a08380000000e800a083880070
:104b3800a1838000f03f2000808f500001003400e6
:104b48007430ef001e4078000080fa000000060074
:104b58000200fa0010c0b30076f0b700ecff0700bf
:104b6800004f78001e80fb00201188000080fa00aa
:104b7800000006000000fa0076d0bf000080fa00ae
:104b8800000006000200fa0091838000a0838000e4
:104b9800808f50000400350091838000a08380003e
:104ba800008f50000500370091838000a0838000ab
:104bb8008080500000402000008f40001e007800d8
:104bc8000080fa00000006000200fa00edff07006e
:104bd80001402000008f50001e0078000080fa007d
:104be800000006000000fa0021e3a9002143a80004
:104bf80001198000f0cf2f000080600000198800a4
:104c08002043a90001198000000e20000100700057
:104c18000019880011198000f0ff21000080600051
:104c2800101988002343a80011198000f0cf2f0025
:104c380000806000101988001119800030f82f00da
:104c4800008060000040a000101988002203a9001d
:104c58002223a90025e3a900f0c0b30024e3b7008c
:104c680021198000f00f2e008080600000f02000e5
:104c780001007000201988003303a9002e0ea80037
:104c88002f6ea8006f2ea8001e2ea8004feea800b9
:104c980030c3a8003163a8002e03a8003063a80021
:104ca80031e3a8004119800000fc2f00008060005b
:104cb8004019880028e3a90001a8a90021a8a80094
:104cc80021e3a8000080fa00000006000000fa00b6
:104cd8002023a8000080fa00000006000000fa0067
:104ce800806d21000080fa00000006000000fa0034
:104cf8007fd0bf000080fa00000006000000fa0024
:104d08007f70ef000080fa00000006000200fa0041
:104d1800004f78002a0007000000e0000c00340073
:104d2800c083800001572100008040001e487800a1
:104d3800c08380000000e800c0838800c183800031
:104d4800f0072000808f5000010034007830ef0019
:104d58000080fa00000006000200fa00d0838000fc
:104d68000157210000804000104f7800d083800058
:104d78000000e800d0838800d1838000f00720007d
:104d8800808f5000010034007a30ef001e40780018
:104d98000080fa00000006000000fa00c1838000cd
:104da800d0838000808f50000200320010c0b30012
:104db800010037000040eb000080fa000000060008
:104dc8000200fa000500070001082000008f5000cb
:104dd8001e0078000080fa00000006000200fa00b9
:104de800c1838000d0838000808f5000040035008c
:104df800c1838000d0838000008f500005003700f9
:104e0800c1838000d083800000805000010820000a
:104e1800010f40001e0078000080fa000000060024
:020000040000fa
:104e28004e1000000e000000800000005c10000022
:104e38000e000000820000000100e80003230000cb
:104e48001900050000190000010000006a100000a8
:104e5800080000008000000082140000ee0000003e
:104e6800800000007c1000000200000082000000aa
:104e780001000000d81600000a00000080000000b1
:104e88007e10000002000000800000008210000078
:104e980000040000800000007210000006000000fe
:104ea80080000000701500008000000080000000f5
:104eb800781000000400000080000000f0150000d9
:104ec8008000000080000000001000002e0000009c
:104ed800800000002e10000020000000800000006c
:104ee80070160000680000008000000080100000bc
:0c4ef8000200000080000000000000002c
:020000040000fa
:104f04000000fa002002a9000111800090ff2f0088
:104f1400008060000011880020a2a9002062a8007f
:104f2400500520004011880023a2a90023e2a90013
:104f34000188a9002188a80011118000f0f32f0036
:104f440000806000101188000168a9002168a80091
:104f540021e2a8002342a8000080fa000000060015
:104f64000600fa0010079800210798000040eb00a3
:104f7400004f78000040eb00004f78000e0037002f
:104f8400000000001111800000202000008060005b
:104f94000000e000fbff3a001e0090001040780083
:104fa4000080fb00201188001e0090000000e80033
:104fb400100798001e4fe8009e80fb002e00900012
:104fc400808f5000eeff35000080fa0000000600dc
:104fd4000000fa000e2eef001e2eef002e2eef0022
:104fe4003e2eef004e2eef005e2eef006e2eef00f1
:104ff400214ea90060cea90060eea90011cea9003f
:1050040011eea90020cea90020eea90021368000cf
:1050140000f82f00008060008001b3002036880073
:105024001134800000fc2f00008060000000a0000c
:10503400103488000136800000f82f008080600062
:105044001006200001007000003688000136800040
:10505400f00f28008080600000002600010070002e
:1050640000368800e135800000f82f008080600061
:105074006004200001007000e0358800e135800004
:10508400f00f2800808060000050240001007000b0
:10509400e03588000080fa00000006000000fa00f5
:1050a400f0032000303a8800213a8000f0f32f000a
:1050b40000806000203a8800213a800000fe2f0022
:1050c400008060000000a000203a88001200200048
:1050d40080072000a1092000337420008049780053
:1050e4008149780082497800103a800000017800f4
:1050f4000200a00060042000710520002374200039
:1051040080497800814978008249780000000000d5
:10511400113a800000002700808060000000210018
:10512400808f5000faff3a0000000000113a80001e
:1051340000022000008060000000e000fbff32005d
:085144000080fa0000000600e3
:020000040000fa
:02000004000af0
:04afe000cfff00009f
:020000040000fa
:02000004000af0
:04afe400ffff00006b
:020000040000fa
:02000004000af0
:04afe8007fff0000e7
:020000040000fa
:02000004000af0
:04afec005fff000003
:020000040000fa
:02000004000af0
:04aff00038ff000026
:020000040000fa
:02000004000af0
:04aff400ffff00005b
:00000001FF
