:020000040000fa
:080000000002040000000000f2
:020000040000fa
:04000800de03000013
:020000040000fa
:04000c00de0300000f
:020000040000fa
:04001000de0300000b
:020000040000fa
:04001400de03000007
:020000040000fa
:04001800de03000003
:020000040000fa
:04001c00de030000ff
:020000040000fa
:04002000de030000fb
:020000040000fa
:04002400de030000f7
:020000040000fa
:04002800de030000f3
:020000040000fa
:04002c00de030000ef
:020000040000fa
:04003000de030000eb
:020000040000fa
:0400340002030000c3
:020000040000fa
:04003800de030000e3
:020000040000fa
:04003c00de030000df
:020000040000fa
:04004000de030000db
:020000040000fa
:04004400de030000d7
:020000040000fa
:04004800fa020000b8
:020000040000fa
:04004c00de030000cf
:020000040000fa
:04005000de030000cb
:020000040000fa
:040054009a0300000b
:020000040000fa
:040058007003000031
:020000040000fa
:04005c004c03000051
:020000040000fa
:04006000de030000bb
:020000040000fa
:04006400de030000b7
:020000040000fa
:04006800de030000b3
:020000040000fa
:04006c00de030000af
:020000040000fa
:04007000de030000ab
:020000040000fa
:04007400de030000a7
:020000040000fa
:04007800de030000a3
:020000040000fa
:04007c00de0300009f
:020000040000fa
:04008000de0300009b
:020000040000fa
:04008400de03000097
:020000040000fa
:04008800de03000093
:020000040000fa
:04008c00de0300008f
:020000040000fa
:04009000de0300008b
:020000040000fa
:040094002203000043
:020000040000fa
:04009800de03000083
:020000040000fa
:04009c00de0300007f
:020000040000fa
:0400a000de0300007b
:020000040000fa
:0400a400de03000077
:020000040000fa
:0400a800de03000073
:020000040000fa
:0400ac00de0300006f
:020000040000fa
:0400b000de0300006b
:020000040000fa
:0400b400de03000067
:020000040000fa
:0400b800de03000063
:020000040000fa
:0400bc00de0300005f
:020000040000fa
:0400c000de0300005b
:020000040000fa
:0400c400de03000057
:020000040000fa
:0400c800de03000053
:020000040000fa
:0400cc00de0300004f
:020000040000fa
:0400d000de0300004b
:020000040000fa
:0400d400de03000047
:020000040000fa
:0400d800de03000043
:020000040000fa
:0400dc00de0300003f
:020000040000fa
:0400e000de0300003b
:020000040000fa
:0400e400de03000037
:020000040000fa
:0400e800de03000033
:020000040000fa
:0400ec00de0300002f
:020000040000fa
:0400f000de0300002b
:020000040000fa
:0400f400de03000027
:020000040000fa
:0400f800de03000023
:020000040000fa
:0400fc00de0300001f
:020000040000fa
:04010000de0300001a
:020000040000fa
:04010400de03000016
:020000040000fa
:04010800de03000012
:020000040000fa
:04010c00de0300000e
:020000040000fa
:04011000de0300000a
:020000040000fa
:04011400de03000006
:020000040000fa
:04011800de03000002
:020000040000fa
:04011c00de030000fe
:020000040000fa
:04012000de030000fa
:020000040000fa
:04012400de030000f6
:020000040000fa
:04012800de030000f2
:020000040000fa
:04012c00de030000ee
:020000040000fa
:04013000de030000ea
:020000040000fa
:04013400de030000e6
:020000040000fa
:04013800de030000e2
:020000040000fa
:04013c00de030000de
:020000040000fa
:04014000de030000da
:020000040000fa
:04014400de030000d6
:020000040000fa
:04014800de030000d2
:020000040000fa
:04014c00de030000ce
:020000040000fa
:04015000de030000ca
:020000040000fa
:04015400de030000c6
:020000040000fa
:04015800de030000c2
:020000040000fa
:04015c00de030000be
:020000040000fa
:04016000de030000ba
:020000040000fa
:04016400de030000b6
:020000040000fa
:04016800de030000b2
:020000040000fa
:04016c00de030000ae
:020000040000fa
:04017000de030000aa
:020000040000fa
:04017400de030000a6
:020000040000fa
:04017800de030000a2
:020000040000fa
:04017c00de0300009e
:020000040000fa
:04018000de0300009a
:020000040000fa
:04018400de03000096
:020000040000fa
:04018800de03000092
:020000040000fa
:04018c00de0300008e
:020000040000fa
:04019000de0300008a
:020000040000fa
:04019400de03000086
:020000040000fa
:04019800de03000082
:020000040000fa
:04019c00de0300007e
:020000040000fa
:0401a000de0300007a
:020000040000fa
:0401a400de03000076
:020000040000fa
:0401a800de03000072
:020000040000fa
:0401ac00de0300006e
:020000040000fa
:0401b000de0300006a
:020000040000fa
:0401b400de03000066
:020000040000fa
:0401b800de03000062
:020000040000fa
:0401bc00de0300005e
:020000040000fa
:0401c000de0300005a
:020000040000fa
:0401c400de03000056
:020000040000fa
:0401c800de03000052
:020000040000fa
:0401cc00de0300004e
:020000040000fa
:0401d000de0300004a
:020000040000fa
:0401d400de03000046
:020000040000fa
:0401d800de03000042
:020000040000fa
:0401dc00de0300003e
:020000040000fa
:0401e000de0300003a
:020000040000fa
:0401e400de03000036
:020000040000fa
:0401e800de03000032
:020000040000fa
:0401ec00de0300002e
:020000040000fa
:0401f000de0300002a
:020000040000fa
:0401f400de03000026
:020000040000fa
:0401f800de03000022
:020000040000fa
:0401fc00de0300001e
:020000040000fa
:04020000de03000019
:020000040000fa
:04020400de03000015
:020000040000fa
:04020800de03000011
:020000040000fa
:04020c00de0300000d
:020000040000fa
:04021000de03000009
:020000040000fa
:04021400de03000005
:020000040000fa
:04021800de03000001
:020000040000fa
:04021c00de030000fd
:020000040000fa
:04022000de030000f9
:020000040000fa
:04022400de030000f5
:020000040000fa
:04022800de030000f1
:020000040000fa
:04022c00de030000ed
:020000040000fa
:04023000de030000e9
:020000040000fa
:04023400de030000e5
:020000040000fa
:04023800de030000e1
:020000040000fa
:04023c00de030000dd
:020000040000fa
:04024000de030000d9
:020000040000fa
:04024400de030000d5
:020000040000fa
:04024800de030000d1
:020000040000fa
:04024c00de030000cd
:020000040000fa
:04025000de030000c9
:020000040000fa
:04025400de030000c5
:020000040000fa
:04025800de030000c1
:020000040000fa
:04025c00de030000bd
:020000040000fa
:04026000de030000b9
:020000040000fa
:04026400de030000b5
:020000040000fa
:04026800de030000b1
:020000040000fa
:04026c00de030000ad
:020000040000fa
:04027000de030000a9
:020000040000fa
:04027400de030000a5
:020000040000fa
:04027800de030000a1
:020000040000fa
:04027c00de0300009d
:020000040000fa
:04028000de03000099
:020000040000fa
:100400008f1e21000eff2c000e018800000000004e
:10041000000020000000e000020032000001200087
:100420002002880014000700e60007000000e0003a
:1004300003003a00a0de2100010020000200370086
:100440000000200001002000810f70000100320038
:100450000f000700000020000000e0000200320052
:100460000000020000000000ae07020000000000d3
:100470000040da000000fe00200020000000e00044
:1004800002003200100020009001880000000600e9
:10049000a1028800800478000000eb001f003700f4
:1004a000e284440054a0b4009905ba00e2844400f8
:1004b00054a0b4009906ba00e284440054a0b400e9
:1004c0000006eb00476fde00fd07b200ae018800ba
:1004d000636ce10003003a000ad801000000eb0061
:1004e0000e003700606ce10008003a00004deb00a0
:1004f0000a05e800020039003420ec000af0a000f0
:100500008b05e900f9ff3e00040037006168e10057
:10051000010032000086eb000b00070019c7ba008b
:100520000e04e0001905ba0003003a000a00e000da
:10053000dbff3a0000000600fe07b200ae028800b2
:100540008a047800f5ff37000cd0a300e20f4d00bd
:100550001c00390089027800354dba000a05e80010
:10056000020039003420ec000af0a0008b05e900fd
:100570000f003200254dba000a05e80002003900dc
:100580003420ec000af0a0008b05e90008003200de
:100590000c00e0000600320015cdba000a05e800a4
:1005a000020039003420ec000af0a0008b05e900bd
:1005b0008984e80054a0b4000b00e000e2ff3a0098
:1005c000000006009902ba00055d78008b05e9007d
:1005d000f7ff3200c82ade00055d78008b05e900d0
:1005e000f3ff32000c00e000f1ff320019ddba0029
:1005f000eeff37000000fa000108a9000080fa00b1
:10060000004006003600f800809fbe00829fbe00ba
:10061000849fbe00869fbe000000fa000068a9000b
:10062000e30a0700af0c07000080fa004f03be008a
:100630004f02be004f01be004f00be003600f90061
:10064000004006003600f800809fbe00829fbe007a
:10065000849fbe00869fbe000000fa000368a900c8
:10066000208180003181800061004000e0804800ee
:100670002081880031818800120307000080fa0081
:100680004f03be004f02be004f01be004f00be0030
:100690003600f90000400600801f78000000fa00d4
:1006a00001a8a90000188000f08e880010188000b2
:1006b000008f880020188000108f8800301880007c
:1006c000208f880040188000308f880010c0b30051
:1006d00037f0b7000080fa004f00780000400600b5
:1006e0003600f800809fbe00829fbe00849fbe003f
:1006f000869fbe000000fa000188a9006181800089
:1007000050818000808f500002003200160c0700dc
:10071000010037002e70ef000080fa004f03be008a
:100720004f02be004f01be004f00be003600f90070
:10073000004006003600f800809fbe00829fbe0089
:10074000849fbe00869fbe000000fa000168a900d9
:1007500010118000640060000000e0000100320021
:100760002242a90010118000620060000000e00039
:10077000060032002222a900050037003011800057
:1007800000407800670c07000100370000000000ff
:1007900010118000610060000000e000f7ff3a00e7
:1007a0000080fa004f03be004f02be004f01be00a2
:1007b0004f00be003600f900004006000040da009d
:1007c0000000fe000000050003f0a200889fbe00ac
:1007d0008a9fbe008c1f78002a0107003101330078
:1007e0006450e1004f0032006420e100520032000a
:1007f00003826c0007003b000905d0000306d0000f
:10080000820f54000c065d00020039000200320025
:1008100089017800030678008582550004003d00b8
:100820000003fd008103fd008502ea008b85420084
:10083000840f720002003b0060001000e08018008e
:100840006011b8000005eb007a28e1000a003900c9
:1008500006007800c75ddd00f707b20087807500ed
:100860002d003700828171000a0178006105600067
:100870008180d1000080d3008502e900f9ff3b00b0
:10088000060440008784480002003b006004140016
:10089000e0841c000988a300070032008a817100ef
:1008a00082817100610164008904d1000884d30051
:1008b0008b05e800170037000978a30013003a0001
:1008c0000b00e000130034008b05e900080444002d
:1008d00089844c000a4474000978a3000d003a0092
:1008e0000b00e000070034008b05e9000804440019
:1008f00089844c0001003a000b0020000978a30015
:10090000f7ff32000001eb00020037008281710026
:100910000a017800a00007000cf0a70001f0a00079
:10092000e90037006420e10002003a00838f6c0088
:10093000e90033000801be000200be00e2003700fb
:10094000889fbe008a9fbe008c1f7800cd000700e4
:10095000d400330003866c006450e1002e003200a6
:100960006420e100330032006150e1002f003200ca
:100970006120e1003100320085855500eb07b000b1
:100980000900200008042000050037000804440086
:1009900089844c000a0031000603430087834b0022
:1009a0000001530081815b00f8ff33000203be00a9
:1009b0000800a0000804440089844c00f6ff3900b8
:1009c000c639dd00830173000100320013002000ee
:1009d0008904d1000884d3000998a30005003200df
:1009e0000800a7000300a0008904d1000884d300f8
:1009f0008b05e8008904d1000884d3000001eb00d6
:100a00000281d2006400070001f0a1000cf0a700f1
:100a100001f0a000ac0037006420e100ae0032001d
:100a20000801be000200be00f7ff37006120e100b0
:100a3000a90032006000b800f3ff3700000020007a
:100a400001f82700f0ff3700839f68000100e000f5
:100a500002003d0060001000e08018000300e0008c
:100a600002003d0060011100e0811900d100070083
:100a70004f00e00002003b0060001000e080180022
:100a80000000060014002000da003700f4ff2f00f9
:100a9000d80037000001be00650007000470a70001
:100aa00003f0a1006509b100160032000d00350009
:100ab0006828e10006003500f0ff2f00f1ff270055
:100ac0000300e00013003b000100280000000500c7
:100ad00000004000818048008502e900fcff3a00e8
:100ae00008003700f88f420002003c008000eb0055
:100af000000005008100d1000080d3008502e800dd
:100b0000fcff3a000300e00002003b006000100020
:100b1000e0801800000006000001be00440007004d
:100b20000470a70003f0a10003f8a30013003a002b
:100b30006509b10010003200090035006928e100a4
:100b40000200350001002800000005000000400000
:100b5000818048008502e900fcff3a0000000600a1
:100b6000f88f4200050035008100d1000080d300dd
:100b70008502e800fcff3a00000006008000eb0060
:100b8000000005004f89de0082017800b4003700c4
:100b90006011b800c200370081002000618055005c
:100ba0000b003d000b00200061fe2f000100e10062
:100bb0001d00340082817100610164008904d1004c
:100bc0000884d3000000e800faff3a00710020001a
:100bd0006100640003007000020060000900320040
:100be00061044400e0844c000988a500050032003f
:100bf0008b05e8006808e10002003a008904d10092
:100c00000884d300f20f20000258e10005003d00e7
:100c1000c75ddd00f907b200898075000800780023
:100c2000000006000bf827008b007800000005008c
:100c3000c70ade00f107b200f50fb200080032006b
:100c4000e1cf4200020032000170a0002400050044
:100c5000810f700001003200040805004400050007
:100c6000810f700002003a00140005008502e900bf
:100c70000000400081c04800fcff3b000170a00064
:100c8000240005000004be00e9ff07000003be00c9
:100c90000405be000200be00e5ff0700844f75009a
:100ca000000006000200be006450e10005003600ae
:100cb0006420e100020036000968a30001003a0048
:100cc0000800be000160a0004f0678004f05be007e
:100cd0004f04be0000000600f0ff2f00f1ff2700c8
:100ce000f9ff3700889fbe008a9fbe008c1f7800e6
:100cf000e4ff0700ebff330003866c006450e10063
:100d0000240032006420e100270032006150e1003d
:100d1000220032006120e100210032008b85420078
:100d2000eb07b1000134b800003ab80008044200f3
:100d300089844a00013ab8000030b8008880400039
:100d400009014a000400330000004000818048008f
:100d5000020149008b05e900c909dd00830170002b
:100d60000100320013002000c814de004814dd002a
:100d70004709de001200b200c808de0008847000d7
:100d800085ff070001f0a1000cf0a70001f0a00012
:100d9000cdff37006120e100cfff32000801be0027
:100da0000200be00f7ff37006150e100fcff3a008f
:100db000c9ff37006022b800060220000000d00002
:100dc0008180d2000482d2008582d2000000a0007f
:100dd0000202520083825a000300310002024200e4
:100de00083824a000000a1000603e900f3ff3a00f5
:100df00000000600889fbe008a9fbe00841f780006
:100e0000a0ff07004f00780011003300f0ff2f0013
:100e1000838f6c0006003b00040565000a00a700f4
:100e20000800370009f0a600100020000800370075
:100e3000820f5400838f5c000300390010002000f3
:100e400001003e000000200009f0a7000000ea00b9
:100e50004f05be004f04be000000e0000000060089
:100e6000881f7800030478000300e00007003d00bd
:100e700060001000e080180060011900e081190096
:100e800002003b0001f02d000300370004000700c2
:100e900008f0a70001f0a0004f0478000000060051
:100ea000889fbe008a9fbe0000827000040271000d
:100eb00004827100260032000004be000200be0061
:100ec0006011b8006b092000950220000182cf005c
:100ed0000a0039000541b1000082cf000700390047
:100ee0000541b1000982cf00040039000541b1007d
:100ef0000882cf00010039000541b10005425200cf
:100f0000120032000a003b0082817100610164001e
:100f10008100d1000080d3008984d3000884d300ed
:100f20008b05e8000442e800f7ff3a0007003700ad
:100f30000804440089844c00000048008180480077
:100f40008b05e9000442e900f9ff3a0012ff0700af
:0c0f50004f05be004f04be00000006006c
:020000040000fa
:100f5c001400fa00889fbe00490b0700e70a07003f
:100f6c002f070700d50707005e080700200a0700b7
:100f7c0051080700ad0a07005b0a0700100798002c
:100f8c005d0a0700e14f5000b0003a005e0a07000e
:100f9c00550a0700200798002e00900068004000ba
:100fac00100078008000eb00f6fe070032332300bf
:100fbc003305240048ff07000200200003582400da
:100fcc005cfe0700d2cc2c00c304240042ff0700b7
:100fdc0030079800410798003e019000ce01900028
:100fec00000020008120240052fe07000200200097
:100ffc00030a2400f1fd0700508e8800618e8800e2
:10100c002e00900066004000100078008000eb007d
:10101c00dcfe070032332300330524002eff0700cb
:10102c00020020000358240042fe0700d2cc2c0002
:10103c00c304240028ff07003007980041079800dc
:10104c003e019000ce019000000020008120240081
:10105c0038fe070002002000030a2400d7fd070019
:10106c00b08e8800c18e88002e0090006400400075
:10107c00100078008000eb00c2fe07003233230022
:10108c003305240014ff070002002000035824003d
:10109c0028fe0700d2cc2c00c30424000eff07004e
:1010ac0030079800410798003e019000ce01900057
:1010bc0000002000812024001efe070002002000fa
:1010cc00030a2400bdfd0700708e8800818e880005
:1010dc002e0090000080e800100078008000eb00eb
:1010ec00a8fe07003233230033052400fafe070064
:1010fc0002002000035824000efe0700d2cc2c0066
:10110c00c3042400f4fe0700300798004107980040
:10111c003e019000ce0190000000200081202400b0
:10112c0004fe070002002000030a2400a3fd0700b0
:10113c00908e8800a18e88002e0090001000780000
:10114c008000eb008ffe07003233230033052400b0
:10115c00e1fe07000200200003582400f5fd070003
:10116c00d2cc2c00c3042400dbfe0700300798000f
:10117c00410798003e019000ce0190000000200035
:10118c0081202400ebfd070002002000030a24004c
:10119c008afd0700d08e8800e18e8800508e80007a
:1011ac00618e800038fe0700004078008044780093
:1011bc00708e8000818e800033fe07000040780026
:1011cc0000447800908e8000a18e80002efe0700d7
:1011dc0000407800794f98000857980010579800f5
:1011ec0040002000500798006f0047000001780075
:1011fc00de0090000003200005050700108e800023
:10120c00218e8000920807001ffe07000040780026
:10121c0000447800d08d8000e18d80008c080700a0
:10122c0019fe0700004078002857980030579800a6
:10123c003000200060079800720047000001780021
:10124c00ee00900000042000f1040700d50907000f
:10125c000004e0000b0032000000eb00000f7800ef
:10126c0005003700bf090700604f98006e489000da
:10127c00470507001e0fe800db0907009e0f500012
:10128c00f8ff3c0071808000a00020000001780075
:10129c00110009008200d8008000fd000000e00071
:1012ac0001003a000e30ef00708080000000e80072
:1012bc007080880030ff37000000fa0012d0bf00a9
:1012cc000080fb00cf80de007201200003002000b4
:1012dc00820f5000838f5800fb003e000006010077
:1012ec00170037002000370029003700370037007f
:1012fc003e003700470037004e00370057003700dc
:10130c005e003700680037006f0037007900370047
:10131c00de003700ec003700eb003700ea00370046
:10132c007c003700860037008d00370097003700af
:10133c009e003700aa003700c5003700b700370001
:10134c002430ef002630ef000041eb006000b800c5
:10135c008007070012c0b3006000b8007d070700cb
:10136c0010c0b30012f0b7002281800033818000de
:10137c00803e200001002000800f5100818f590019
:10138c00d400360020c0b30012f0b700da003700ea
:10139c00a08080000000ea00cf80de00f6fd070090
:1013ac000041eb006b070700a08080000000ea0002
:1013bc00cf80de00f0fd070012c0b3006507070008
:1013cc0030c0b30012f0b700cb00370000808000b3
:1013dc00e10f500002003a00c9000700c6003700b8
:1013ec00c0c0b30012f0b700c30037000041eb00df
:1013fc006000b8005707070012c0b30000002000bf
:10140c00011524005307070050c0b30012f0b700b9
:10141c00b900370000808000e10f500002003a0054
:10142c00b7000700b4003700c0c0b30012f0b7001b
:10143c00b10037000041eb00000020000115240032
:10144c004407070012c0b3006000b8004107070052
:10145c0070c0b30012f0b700a70037000080800006
:10146c00e10f500002003a00a5000700a20037006f
:10147c00c0c0b30012f0b7009f0037000041eb0072
:10148c000000200001152c003207070012c0b30029
:10149c0000002000011524002e07070090c0b300a7
:1014ac0012f0b7009400370000808000e10f50006c
:1014bc0002003a00920007008f003700c0c0b30052
:1014cc0012f0b7008c0037000041eb000000200048
:1014dc00011524001f07070012c0b30000002000f4
:1014ec0001152c001b070700b0c0b30012f0b700a9
:1014fc008100370000808000e10f500002003a00ac
:10150c007f0007007c003700c0c0b30012f0b700aa
:10151c00790037000041eb0000002000010a2c008c
:10152c000c07070012c0b3000000200001152400b6
:10153c000807070010c1b30012f0b7006e003700a7
:10154c0000808000e10f500002003a006c000700a0
:10155c0069003700c0c0b30012f0b7006600370056
:10156c000041eb000000200001152400f9060700e3
:10157c0012c0b30000002000010a2c00f506070081
:10158c0030c1b30012f0b7005b0037000080800060
:10159c00e10f500002003a005900070056003700d6
:1015ac00c0c0b30012f0b700530037002430ef0076
:1015bc002630ef000041eb0000002000011a24004f
:1015cc00e406070012c0b30000002000011a2c0032
:1015dc00e006070050c1b30012f0b7004600370018
:1015ec00108080006101b900208180003181800071
:1015fc00800f5100818f590038003100008080002d
:10160c00e10f500002003a003d0007003a0037009d
:10161c00c0c0b30012f0b700370037002430ef0021
:10162c002630ef000041eb0000002000011a2400de
:10163c00c806070012c0b30000002000011a2c00dd
:10164c00c406070060c1b30012f0b7002a003700cf
:10165c00108080006101b900208180003181800000
:10166c00800f5100818f59001e00310000808000d6
:10167c00e10f500002003a00210007001e00370065
:10168c00c0c0b30012f0b7001b0037000080800010
:10169c000000e00015003a00808080000000e000af
:1016ac0014003a000041eb006000b800a9060700e6
:1016bc0012c0b3006000b800a6060700100020009e
:1016cc00808088000c0037001270ef0000000000d2
:1016dc000900370000000000070037000000000080
:1016ec000500370000000000030037000000000078
:1016fc0001003700000000000080fa000000060026
:10170c000a00fa00889fbe008a1f78000040eb0098
:10171c00004f78001030ef00d88e8000e98e8000ea
:10172c0050808000cf80de0013fd07001ac0b3008c
:10173c000001be000800be00cffc07000000e00066
:10174c00010035000045eb000a04e0000300320004
:10175c00b0c0b300004f780082023700b88e800012
:10176c00c98e800050808000cf80de0002fd070013
:10177c001ac0b3000001be000800be00befc07008a
:10178c000000e000010035000045eb000a04e00019
:10179c0003003200a0c0b300004f78007102370084
:1017ac00d88e8000e98e800040808000cf80de00e3
:1017bc00f1fc07001ac0b3000001be000800be0017
:1017cc00adfc07000000e000010035000045eb0017
:1017dc000a04e0003b003200588e8000698e8000c5
:1017ec0020808000cf80de00e3fc07001ac0b3002d
:1017fc000001be000800be00a1fc07000000e000d4
:10180c0001003c000045eb000a04e0002d00320012
:10181c00788e8000898e800030808000cf80de0042
:10182c00d5fc07001ac0b3000001be000800be00c2
:10183c0093fc07000000e00001003c000045eb00b9
:10184c000a04e0001f003200988e8000a98e8000f0
:10185c0020808000cf80de00c7fc07001ac0b300d8
:10186c000001be000800be0085fc07000000e0007f
:10187c0001003c000045eb000a04e00011003200be
:10188c00b88e8000c98e800040808000cf80de0042
:10189c00b9fc07001ac0b3000001be000800be006e
:1018ac0077fc07000000e00001003c000045eb0065
:1018bc000a04e00003003200b0c0b300004f78000f
:1018cc0028023700d88e8000e98e8000408080008e
:1018dc00cf80de00a8fc07001ac0b3000001be00d8
:1018ec000800be0066fc07000000e00001003c00a0
:1018fc000045eb000a04e0003b003200588e8000eb
:10190c00698e800020808000cf80de009afc07006a
:10191c001ac0b3000001be000800be0058fc07004e
:10192c000000e00001003c000045eb000a04e00070
:10193c002d003200788e8000898e800030808000ef
:10194c00cf80de008cfc07001ac0b3000001be0083
:10195c000800be004afc07000000e00001003c004b
:10196c000045eb000a04e0001f003200988e800056
:10197c00a98e800020808000cf80de007efc0700d6
:10198c001ac0b3000001be000800be003cfc0700fa
:10199c000000e00001003c000045eb000a04e00000
:1019ac0011003200b88e8000c98e8000408080000b
:1019bc00cf80de0070fc07001ac0b3000001be002f
:1019cc000800be002cfc07000000e0000100350000
:1019dc000045eb000a04e00003003200a0c0b30095
:1019ec00004f7800df013700b88e8000c98e800070
:1019fc0040808000cf80de005ffc07001ac0b3007f
:101a0c000001be000800be001bfc07000000e00047
:101a1c00010035000045eb000a04e0003b003200f9
:101a2c00d88e8000e98e800040808000cf80de0060
:101a3c0051fc07001ac0b3000001be000800be0034
:101a4c000ffc07000000e00001003c000045eb002b
:101a5c000a04e0002d003200588e8000698e800050
:101a6c0020808000cf80de0043fc07001ac0b3004a
:101a7c000001be000800be0001fc07000000e000f1
:101a8c0001003c000045eb000a04e0001f0032009e
:101a9c00788e8000898e800030808000cf80de00c0
:101aac0035fc07001ac0b3000001be000800be00e0
:101abc00f3fb07000000e00001003c000045eb00d8
:101acc000a04e00011003200988e8000a98e80007c
:101adc0020808000cf80de0027fc07001ac0b300f6
:101aec000001be000800be00e5fb07000000e0009e
:101afc0001003c000045eb000a04e000030032004a
:101b0c00a0c0b300004f780096013700b88e80005b
:101b1c00c98e800040808000cf80de0016fc07005c
:101b2c001ac0b3000001be000800be00d4fb0700c1
:101b3c000000e00001003c000045eb000a04e0005e
:101b4c003b003200d88e8000e98e800040808000ff
:101b5c00cf80de0008fc07001ac0b3000001be00f5
:101b6c000800be00c4fb07000000e00001003500c7
:101b7c000045eb000a04e0002d003200588e800076
:101b8c00698e800020808000cf80de00fafb070089
:101b9c001ac0b3000001be000800be00b8fb07006d
:101bac000000e00001003c000045eb000a04e000ee
:101bbc001f003200788e8000898e8000308080007b
:101bcc00cf80de00ecfb07001ac0b3000001be00a2
:101bdc000800be00aafb07000000e00001003c006a
:101bec000045eb000a04e00011003200988e8000e2
:101bfc00a98e800020808000cf80de00defb0700f5
:101c0c001ac0b3000001be000800be009cfb070018
:101c1c000000e00001003c000045eb000a04e0007d
:101c2c0003003200b0c0b300004f78004d01370004
:101c3c00588e8000698e800020808000cf80de006e
:101c4c00cdfb07001ac0b3000001be000800be00a7
:101c5c0089fb07000000e000010035000045eb00a7
:101c6c000a04e0001f003200788e8000898e80000c
:101c7c0030808000cf80de00bffb07001ac0b300ad
:101c8c000001be000800be007bfb07000000e00066
:101c9c00010035000045eb000a04e00011003200a1
:101cac00988e8000a98e800020808000cf80de007e
:101cbc00b1fb07001ac0b3000001be000800be0053
:101ccc006dfb07000000e000010035000045eb0053
:101cdc000a04e0000300320070c0b300004f78002b
:101cec0020013700588e8000698e80002080800093
:101cfc00cf80de00a0fb07001ac0b3000001be00bd
:101d0c000800be005cfb07000000e000010035008d
:101d1c000045eb000a04e0001f003200788e8000c2
:101d2c00898e800030808000cf80de0092fb07001f
:101d3c001ac0b3000001be000800be0050fb070033
:101d4c000000e00001003c000045eb000a04e0004c
:101d5c0011003200988e8000a98e800020808000b7
:101d6c00cf80de0084fb07001ac0b3000001be0068
:101d7c000800be0040fb07000000e0000100350039
:101d8c000045eb000a04e0000300320040c0b30041
:101d9c00004f7800f3003700588e8000698e800069
:101dac0020808000cf80de0073fb07001ac0b300d8
:101dbc000001be000800be002ffb07000000e00081
:101dcc00010035000045eb000a04e0001f00320062
:101ddc00788e8000898e800030808000cf80de007d
:101dec0065fb07001ac0b3000001be000800be006e
:101dfc0021fb07000000e000010035000045eb006e
:101e0c000a04e00011003200988e8000a98e800038
:101e1c0020808000cf80de0057fb07001ac0b30083
:101e2c000001be000800be0015fb07000000e0002a
:101e3c0001003c000045eb000a04e0000300320006
:101e4c0060c0b300004f7800c6003700588e800089
:101e5c00698e800020808000cf80de0046fb07006a
:101e6c001ac0b3000001be000800be0004fb07004e
:101e7c000000e00001003c000045eb000a04e0001b
:101e8c001f003200788e8000898e800030808000a8
:101e9c00cf80de0038fb07001ac0b3000001be0083
:101eac000800be00f4fa07000000e0000100350055
:101ebc000045eb000a04e00011003200988e80000f
:101ecc00a98e800020808000cf80de002afb0700d6
:101edc001ac0b3000001be000800be00e6fa0700fd
:101eec000000e000010035000045eb000a04e000b2
:101efc000300320050c0b300004f78009900370047
:101f0c00588e8000698e800020808000cf80de009b
:101f1c0019fb07001ac0b3000001be000800be0088
:101f2c00d5fa07000000e000010035000045eb0089
:101f3c000a04e0001f003200788e8000898e800039
:101f4c0030808000cf80de000bfb07001ac0b3008e
:101f5c000001be000800be00c9fa07000000e00046
:101f6c0001003c000045eb000a04e00011003200c7
:101f7c00988e8000a98e800020808000cf80de00ab
:101f8c00fdfa07001ac0b3000001be000800be0035
:101f9c00bbfa07000000e00001003c000045eb002c
:101fac000a04e0000300320020c0b300004f7800a8
:101fbc006c003700588e8000698e80002080800075
:101fcc00cf80de00ecfa07001ac0b3000001be009f
:101fdc000800be00aafa07000000e00001003c0067
:101fec000045eb000a04e0001f003200788e8000f0
:101ffc00898e800030808000cf80de00defa070002
:10200c001ac0b3000001be000800be009cfa070015
:10201c000000e00001003c000045eb000a04e00079
:10202c0011003200988e8000a98e800020808000e4
:10203c00cf80de00d0fa07001ac0b3000001be004a
:10204c000800be008cfa07000000e000010035001b
:10205c000045eb000a04e0000300320010c0b3009e
:10206c00004f78003f003700788e8000898e80000a
:10207c0030808000cf80de00bffa07001ac0b300aa
:10208c000001be000800be007bfa07000000e00063
:10209c00010035000045eb000a04e00003003200ab
:1020ac0030c0b300004f78002e003700588e8000ef
:1020bc00698e800020808000cf80de00aefa0700a1
:1020cc001ac0b3000001be000800be006cfa070085
:1020dc000000e00001003c000045eb000a04e000b9
:1020ec0020003200788e8000898e80003080800045
:1020fc00cf80de00a0fa07001ac0b3000001be00ba
:10210c000800be005efa07000000e00001003c0081
:10211c000045eb000a04e00012003200988e8000ab
:10212c00a98e800020808000cf80de0092fa07000c
:10213c001ac0b3000001be000800be0050fa070030
:10214c000000e00001003c000045eb000a04e00048
:10215c00040032000040eb00004f7800100020001b
:10216c0060808800608080000000e00002003a007f
:10217c001430ef000300370030022000a0808800ec
:10218c000c30ef001e4078000004e00003003a0021
:10219c0020c0b30016f0b700650037001e40780071
:1021ac00e24f500004003a0040c0b30016f0b700f4
:1021bc001830ef005e0037001e407800e14f5000f1
:1021cc0005003a0060c0b30016f0b7001000200004
:1021dc00c0808800560037001e407800e34f500046
:1021ec0009003a00c08080000000e00003003a00c3
:1021fc0080c0b30016f0b7004d003700a0c0b3008c
:10220c0016f0b7004a0037001e407800e64f500029
:10221c0004003a0080c0b30016f0b7001830ef008d
:10222c00430037001e407800e54f500005003a008f
:10223c00a0c0b30016f0b70010002000c0808800ca
:10224c003b0037001e407800e44f500003003a007a
:10225c0080c0b30016f0b700350037001e40780080
:10226c00e74f500009003a00c08080000000e000f9
:10227c0003003a0080c0b30016f0b7002c00370002
:10228c00a0c0b30016f0b700290037001e4078003c
:10229c00e84f500003003a0080c0b30016f0b700be
:1022ac00230037001e407800ea4f500003003a002c
:1022bc0000c1b30016f0b7001d0037001e407800b7
:1022cc00eb4f500003003a0020c1b30016f0b700ea
:1022dc00170037001e407800ed4f500009003a00ff
:1022ec00c08080000000e00003003a0000c1b30091
:1022fc0016f0b7000e00370020c1b30016f0b7007f
:10230c000b0037001e407800ec4f500008003a00dc
:10231c00c08080000000e00003003a0070c1b300f0
:10232c0016f0b7000200370040c1b30016f0b7003a
:10233c0016d0bf008080fb0012d0bf000080fb00d5
:10234c000000e900808f50003e00320016d0bf0024
:10235c0012f0b7000000eb001007980021012100db
:10236c00914078001e0090006400400001777800d6
:10237c001e0090000000e8001007980020818000eb
:10238c00318180004808de00804078001e009000fb
:10239c0064004000017778001e0090000000e80007
:1023ac001007980020818000318180004008de00f9
:1023bc00804078001e009000640040000177780097
:1023cc001e0090000000e80010079800208180009b
:1023dc00318180004809dd004800de0000007100fa
:1023ec00c808de00804078001e00900064004000a9
:1023fc00017778001e0090000000e800100798009c
:10240c002081800031818000804078001e00900087
:10241c0064004000017778001e0090000000e80086
:10242c00100798001e0090000000e80010079800ac
:10243c0064004700000178009e0090000005200019
:10244c00730007004f0578004f04be000080fa00af
:10245c00000006000200fa00000f78001e00780051
:10246c00e40f50001e003200e40f500007003c0047
:10247c00e20f500012003200e20f500014003c003a
:10248c00e10f50000a00320029003700e60f50001f
:10249c001b003200e60f500015003500e70f50000e
:1024ac001b003200e80f50001d00320020003700e6
:1024bc0064cea90064eea900254ea80020003700c8
:1024cc0064cea80064eea900254ea9001c003700bc
:1024dc0064cea90064eea800254ea90018003700b0
:1024ec0064cea80064eea800254ea90014003700a5
:1024fc0064cea90064eea800254ea8001000370099
:10250c0064cea80064eea900254ea8000c0037008c
:10251c0064cea80064eea800254ea8000800370081
:10252c0064cea90064eea900254ea9000400370072
:10253c0064cea90064eea900254ea900000000009d
:10254c000080fa00000006000a00fa00200798003c
:10255c0031079800420798000040eb00004f7800cc
:10256c00e0cfb3001e4f68002e0090004880de00c4
:10257c00804078001e40780000c06800004f780052
:10258c002e009000804078001e40780000c068004b
:10259c00004f78003e0090004880de0080407800bc
:1025ac001e40780000c06800004f78003e0090008c
:1025bc00804078001e40780000c06800004f780012
:1025cc000000eb00100798000000eb0010079800cb
:1025dc00080037001e009000ce00900000804000e4
:1025ec00104078001e4f68001e0090000000e800ac
:1025fc00100798009e0090003e009000808f5000c5
:10260c00f4ff35001e4078000080fa000000060040
:10261c001000fa00889fbe005007980061079800d0
:10262c00720798000f0478000f007800800478007f
:10263c000040eb00404798006e00900066004000a0
:10264c008000e900310798000000e8000000e80075
:10265c000000d100800040000f0078008187470007
:10266c000000e8000000d100000040004007980086
:10267c000000eb00000f78004e0090001e004000a0
:10268c00e1cfb300014878001e0fe8005e00900017
:10269c004880de00804078004e0090001e00400014
:1026ac00014878001e0fe8005e0090008040780022
:1026bc004e0090001e004000014878001e0fe800fc
:1026cc006e0090004880de00804078004e00900044
:1026dc001e004000014878001e0fe8006e009000bc
:1026ec00804078004e0090001e00400001487800a9
:1026fc001e0fe8000000eb00100798000000eb0034
:10270c00100798000b0037001e009000fe00900090
:10271c0000804000904078004e0090001e00400069
:10272c00014878001e0fe8001e0090000000e80031
:10273c00100798009e0090006e009000808f500053
:10274c00f1ff35007e019000ee0090005e009000dd
:10275c007dff0700404798004e0090001e0040008f
:10276c00ce409000014878001e0fe8006e009000eb
:10277c00e60040004e009000bc030700890778007b
:10278c00880778004f04be000080fa0000000600a5
:10279c000200fa00004f780000818000e30f500027
:1027ac0026003200e30f500007003c00e10f500000
:1027bc0015003200e10f500019003c000000e00051
:1027cc00080032004b003700e50f50002d0032009e
:1027dc00e50f50001f003500e60f500037003200a7
:1027ec00440037001e407800e24f400044003a009d
:1027fc0010002000008188001c30ef001a30ef0020
:10280c001e30ef00410037001e80fb004800dd0049
:10281c00d080880020002000008188003b00370019
:10282c009e80fb00d080800000804000d08088001b
:10283c003000200000818800340037001e80fb002f
:10284c004800dd00e0808800400020000081880006
:10285c002e0037009e80fb00e0808000008040004e
:10286c00e0808800e1808000c05d2000808f5000f7
:10287c00010034002030ef0050002000008188005f
:10288c0022003700f080800081132100008040007e
:10289c001e487800f08080000000e800f08088007e
:1028ac00f1808000e0808000808f500016003a009c
:1028bc006000200000818800140037001e41780061
:1028cc00210221008248780022d0bf009e4f500088
:1028dc0006003a00e080800080407800d0808000c4
:1028ec0000407800821321000a0007002030ef001e
:1028fc00060037002030ef00000000000300370016
:10290c000000000001003700000000000080fa0009
:10291c00000006000400fa00004f780011479800f0
:10292c00120798001e80fb0011052000810f50003b
:10293c000e00320011052000810f500004003c00f5
:10294c0001022000810f5000170032006200370096
:10295c0021052000810f50000800320001082000e2
:10296c00810f5000090032005b0037001e00900000
:10297c00104078005a000700570037001e009000e6
:10298c001040780066000700530037001e4090008e
:10299c000080fb001e0190008000780000082000e1
:1029ac001bff07004c0037001e0090009040780081
:1029bc0090c4b30080cf500007003a001e00900076
:1029cc000000e8009040780010c3b30080cf5000a6
:1029dc0001003a00254ea8001e009000904078009f
:1029ec00f0c4b30080cf500007003a001e009000e6
:1029fc000000e8009040780010c3b30080cf500076
:102a0c0001003a00254ea9001e009000904078006d
:102a1c0090c4b30080cf500007003a001e00900015
:102a2c000000e8009040780020c3b30080cf500035
:102a3c0001003a0064cea8001e009000904078007f
:102a4c00f0c4b30080cf500007003a001e00900085
:102a5c000000e8009040780020c3b30080cf500005
:102a6c0001003a0064cea9001e009000904078004e
:102a7c0090c4b30080cf500007003a001e009000b5
:102a8c000000e8009040780030c3b30080cf5000c5
:102a9c0001003a0064eea8001e00900090407800ff
:102aac00f0c4b30080cf500008003a001e00900024
:102abc000000e8009040780030c3b30080cf500095
:102acc0004003a0064eea900030037000000000087
:102adc0001003700000000000080fa000000060032
:102aec000200fa00004f780000c3b3009e4078004b
:102afc0080cf500003003a0064eea8000030ef00d5
:102b0c000500370064eea90010002000008088004a
:102b1c0020c0b30012f0b7000080fa0000000600dd
:102b2c000200fa00004f78001e80fb00ea0f5000f4
:102b3c0016003200ea0f500005003c00e20f500076
:102b4c001c003200e80f5000060032003200370043
:102b5c00ec0f500020003200ee0f50002500320028
:102b6c002d003700254ea8000041eb00000020008e
:102b7c0001172c007701070012c0b30000002000e1
:102b8c00011724007301070023003700254ea9000c
:102b9c000041eb0000002000011724006d0107002c
:102bac0012c0b3000000200001172c0069010700bf
:102bbc00190037000041eb0000002000011a2c0026
:102bcc006401070012c0b30000002000011a2c00a1
:102bdc0060010700100037000041eb006000b800f6
:102bec005c01070012c0b3006000b8005901070077
:102bfc00090037000041eb0000002000011a2400fe
:102c0c005401070012c0b30000002000011a240078
:102c1c0050010700000000000080fa0000000600d0
:102c2c000400fa0013e1a90011e1a9001061a80049
:102c3c001021a90081088000f0fc2f0000806000aa
:102c4c00800888000a21ef000621ef00404c20008c
:102c5c007008880000402b00600888008008800005
:102c6c004400de00634060000081fb008001eb004b
:102c7c00700880008000eb00c002dd000400200022
:102c8c00600880008000eb00040040008580480054
:102c9c00809ab900828bb900860278000502420046
:102cac000010b80001024200840078000001be0050
:102cbc0000a025002126200060f70700aef70700d2
:102ccc00008fbe002142800080ff2f00008060003a
:102cdc000000a000204288000108a9002108a800db
:102cec0011e1a8000080fa00000006000400fa00c0
:102cfc00881f7800008fbe0021088000f0fc2f0098
:102d0c0000806000200888001e0178009e01900061
:102d1c000068290081c1240006f7070018c0b30021
:102d2c0002f02f00f377240055f707000000e000b5
:102d3c0001003c000044eb000804e00054003200a9
:102d4c0021088000f0fc2f00008060000040a000f3
:102d5c00200888001e0178009e0190000068290060
:102d6c0081c12400f3f607000200200003102400a8
:102d7c00f0f6070018c0b30002f02f00f377240020
:102d8c003ff707000000e00001003c000044eb00ae
:102d9c000804e0003200320021088000f0fc2f0013
:102dac00008060000050a000200888001e01780000
:102dbc009e0190000068290081c12400ddf6070007
:102dcc000200200003282400daf6070018c0b30024
:102ddc0002f02f00f377240029f707000000e00031
:102dec0001003c000044eb000804e000100032003d
:102dfc0021088000000320000100700020088800da
:102e0c001e0178009e0190000068290081c12400f9
:102e1c00c8f607000200200003382400c5f607009e
:102e2c0019f7070000007800100888002000370010
:102e3c001e0178009e0190000068290081c12400c9
:102e4c00bcf607000200200003282400b9f6070096
:102e5c000df70700000078001008880014003700f8
:102e6c001e0178009e0190000068290081c1240099
:102e7c00b0f607000200200003102400adf6070096
:102e8c0001f70700000078001008880008003700e0
:102e9c001e0178009e0190000068290081c1240069
:102eac00a4f60700f8f60700000078001008880068
:102ebc004f0478000080fa00000006000000fa00c1
:102ecc0005e1a9000421a9000000200081242400b0
:102edc0086ff07000068a9002068a80005e1a8008b
:102eec000080fa00000006000400fa00881f780039
:102efc00008fbe00f1088000f0fc2f000080600005
:102f0c00f00888001e0178009e01900000682900de
:102f1c0081c1240087f6070018c0b30002f02f000f
:102f2c00f3772400d6f607000000e00001003c0017
:102f3c000044eb000804e00054003200f10880006b
:102f4c00f0fc2f00008060000040a000f00888001a
:102f5c001e0178009e0190000068290081c12400a8
:102f6c0074f60700020020000310240071f607001d
:102f7c0018c0b30002f02f00f3772400c0f607004e
:102f8c000000e00001003c000044eb000804e000fd
:102f9c0032003200f1088000f0fc2f00008060004d
:102fac000050a000f00888001e0178009e019000df
:102fbc000068290081c124005ef607000200200091
:102fcc00032824005bf6070018c0b30002f02f00a2
:102fdc00f3772400aaf607000000e00001003c0093
:102fec000044eb000804e00010003200f1088000ff
:102ffc000003200001007000f00888001e0178001a
:10300c009e0190000068290081c1240049f6070048
:10301c00020020000338240046f607009af6070049
:10302c0000007800d0088800200037001e017800ce
:10303c009e0190000068290081c124003df6070024
:10304c0002002000032824003af607008ef6070041
:10305c0000007800d0088800140037001e017800aa
:10306c009e0190000068290081c1240031f6070000
:10307c0002002000031024002ef6070082f6070041
:10308c0000007800d0088800080037001e01780086
:10309c009e0190000068290081c1240025f60700dc
:1030ac0079f6070000007800d00888004f047800fb
:1030bc000080fa00000006000000fa001fe1a900e1
:1030cc001e21a90000002000a147240086ff070054
:1030dc000368a9002368a8001fe1a8000080fa007b
:1030ec00000006000000fa001160800080ff2f0035
:1030fc00008060001060880000fa200020608800ca
:10310c0023aca800238ca80011618000f03f2f0095
:10311c000080600000a0a00010618800300020003a
:10312c0020618800c3aca800c38ca8001166800085
:10313c00f03f2f000080600000a0a0001066880007
:10314c00300020002066880001eca8000080fa0006
:10315c00000006000600fa00008fbe0042479800ef
:10316c004e4090000004e00005003a001e0178007b
:10317c009e019000128e8800238e88000700370075
:10318c004e409000e14f500004003a001e017800c0
:10319c009e019000d28d8800e38d88000080fa009b
:1031ac00000006000000fa00889fbe008a9fbe0047
:1031bc00348e8000458e8000108e8000218e800021
:1031cc0018c0b3000001be000400be002af60700c0
:1031dc000000e000010035000044eb000804e000b2
:1031ec000f003200188e8000298e80003a8e8000ed
:1031fc004b8e800034d0bf000080fb00cf80de00ff
:10320c005df607000001be000a00be006cf5070069
:10321c000801be00bc000700308e8800418e88007b
:10322c00348e8000458e8000108e8000218e8000b0
:10323c0018c0b3000001be000400be0010f6070069
:10324c000000e00001003c000044eb000804e0003a
:10325c000f003200188e8000298e80003a8e80007c
:10326c004b8e800034d0bf000080fb00cf80de008e
:10327c0041f607000001be000a00be004ff5070032
:10328c000801be0088000700308e8800418e88003f
:10329c00308e8000418e800018c0b3006011b800e1
:1032ac00f7f507000000e00001003c000044eb00d3
:1032bc000804e00004003200c3cca90024eea800ee
:1032cc00c3eca80003003700c3eca90024cea8006f
:1032dc00c3cca800308e8000418e80005c000700bb
:1032ec0002002000032224007bf6070007f60700eb
:1032fc000000780030668800f48d8000058e800018
:10330c00d08d8000e18d800018c0b3000001be009c
:10331c000400be00d8f507000000e00001003500f5
:10332c000044eb000804e0000f003200d88d800050
:10333c00e98d8000fa8d80000b8e800034d0bf00a8
:10334c000080fb00cf80de000bf607000001be0002
:10335c000a00be001af507000801be006a0007004b
:10336c00f08d8800018e8800f48d8000058e800021
:10337c00d08d8000e18d800018c0b3000001be002c
:10338c000400be00bef507000000e00001003c0098
:10339c000044eb000804e0000f003200d88d8000e0
:1033ac00e98d8000fa8d80000b8e800034d0bf0038
:1033bc000080fb00cf80de00eff507000001be00af
:1033cc000a00be00fdf407000801be00360007002d
:1033dc00f08d8800018e8800f08d8000018e8000b9
:1033ec0018c0b3006011b800a5f507000000e0009c
:1033fc0001003c000044eb000804e0000400320033
:10340c0023eca90015cea80023cca800030037009c
:10341c0023cca90015eea80023eca800f08d8000a9
:10342c00018e80000a000700020020000322240005
:10343c0029f60700b5f50700000078003061880018
:10344c004f05be004f04be000080fa0000000600cd
:10345c000400fa00881f7800008fbe0018c0b3006b
:10346c006011b8001e0078009e00900084f50700e3
:10347c000000e00001003d000044eb000804e00007
:10348c00030032001e0078009e00900003003700fd
:10349c001e0078009e00900001f0a2004f047800fe
:1034ac000080fa00000006000800fa00881f78006f
:1034bc00008fbe00220798003307980018c0b30095
:1034cc002e019000be0190001e0078009e0090001e
:1034dc006bf507000000e00001003c000044eb002d
:1034ec000804e000030032001e0078009e009000eb
:1034fc00020037002e009000be0090004f047800b0
:10350c000080fa00000006000800fa00881f78000e
:10351c00008fbe00220798003307980018c0b30034
:10352c002e019000be0190001e0078009e009000bd
:10353c0051f507000000e000010035000044eb00ed
:10354c000804e000030032001e0078009e0090008a
:10355c00020037002e009000be0090004f0478004f
:10356c000080fa00000006000c00fa00881f7800aa
:10357c00008fbe002207980033079800440798007c
:10358c005507980018c0b3004e019000de01900062
:10359c001e0078009e00900039f507000000e00046
:1035ac0001003c000044eb000804e0000400320081
:1035bc004e019000de019000028fbe000e0037001d
:1035cc0018c0b3002e019000be0190001e007800c0
:1035dc009e00900028f507000000e0000100350077
:1035ec000044eb000804e000030032002e019000c0
:1035fc00be019000028fbe001e0078009e0090005d
:10360c004f0478000080fa00000006000400fa0065
:10361c00008fbe00b2fd2000930424001e00780031
:10362c009e009000c3f407000200200043332400e6
:10363c00a9f507000080fa00000006000400fa005b
:10364c00008fbe00b2fd2000930424001e00780001
:10365c009e009000a0f507000200200043332400d8
:10366c00b4f407000080fa00000006000600fa001f
:10367c0010079800210798000040eb00004f7800dd
:10368c0054000700ae009000810f50001100340070
:10369c000040eb00004f7800060037001e80fb0056
:1036ac009e00900000804000104078000b00070046
:1036bc001e4fe8009e80fb002e009000808f500073
:1036cc00f6ff35002e0007000004e00001003a0070
:1036dc00220007000080fa00000006000200fa0039
:1036ec00004f780050818000810321000080400051
:1036fc001e487800508180000000e800508188004e
:10370c0051818000f0072000808f500001003400b0
:10371c002a30ef000080fa00000006000200fa00d8
:10372c00608180008103210000804000104f7800f0
:10373c00608180000000e800608188006181800069
:10374c00f0072000808f5000010034002c30ef0077
:10375c001e4078000080fa00000006000200fa000b
:10376c0010c0b3002ef0b700ecff0700004f78003c
:10377c001e80fb00201188000080fa00000006006b
:10378c000000fa002ed0bf000080fa0000000600f6
:10379c000200fa005181800060818000808f50000f
:1037ac00040035005181800060818000008f500042
:1037bc00050037005181800060818000008050003e
:1037cc0001082000010f40001e0078000080fa0064
:1037dc00000006000200fa00edff070001082000bf
:1037ec00008f50001e0078000080fa0000000600d8
:1037fc000000fa0021e3a9002143a8000119800070
:10380c00f0cf2f0000806000001988002043a90031
:10381c0001198000000e20000100700000198800c2
:10382c0011198000f0ff2100008060001019880041
:10383c002343a80011198000f0cf2f0000806000f6
:10384c00101988001119800030f82f0000806000da
:10385c000040a000101988002203a9002223a9000f
:10386c0025e3a900f0c0b30024e3b70021198000c0
:10387c00f00f2e008080600000f02000010070002e
:10388c00201988003303a9002e0ea8002f6ea80063
:10389c006f2ea8001e2ea8004feea80030c3a80063
:1038ac003163a8002e03a8003063a80031e3a80000
:1038bc004119800000fc2f00008060004019880036
:1038cc0028e3a90001a8a90021a8a80021e3a800c9
:1038dc000080fa00000006000000fa002023a80077
:1038ec000080fa00000006000000fa00e01d210034
:1038fc000080fa00000006000000fa0037d0bf007c
:10390c000080fa00000006000000fa003770ef009b
:10391c000080fa00000006000200fa00004f780058
:10392c002a0007000000e0000c00340080818000b9
:10393c00810b2100008040001e48780080818000af
:10394c000000e8008081880081818000f007200061
:10395c00808f5000010034003030ef000080fa00fe
:10396c00000006000200fa0090818000810b21000b
:10397c0000804000104f7800908180000000e8002b
:10398c009081880091818000f0072000808f50008a
:10399c00010034003230ef001e4078000080fa0045
:1039ac00000006000000fa008181800090818000f8
:1039bc00808f50000200320010c0b30001003700ad
:1039cc000040eb000080fa00000006000200fa0044
:1039dc000500070001082000008f50001e00780031
:1039ec000080fa00000006000200fa0081818000cd
:1039fc0090818000808f5000040035008181800010
:103a0c0090818000008f500005003700818180007c
:103a1c00908180000080500001082000010f4000c0
:103a2c001e0078000080fa00000006000000fa007a
:103a3c002002a9000111800090ff2f00008060007f
:103a4c000011880020a2a9002062a80050052000c7
:103a5c004011880023a2a90023e2a9000188a90033
:103a6c002188a80011118000f0f32f000080600065
:103a7c00101188000168a9002168a80021e2a800a3
:103a8c002342a8000080fa00000006000600fa009d
:103a9c0010079800210798000040eb00004f7800b9
:103aac000040eb00004f78000e00370000000000d3
:103abc001111800000202000008060000000e00058
:103acc00fbff3a001e009000104078000080fb00c5
:103adc00201188001e0090000000e80010079800dc
:103aec001e4fe8009e80fb002e009000808f50003f
:103afc00eeff35000080fa00000006000000fa001e
:103b0c000e2eef001e2eef002e2eef003e2eef009d
:103b1c004e2eef005e2eef006e2eef00214ea90010
:103b2c0060cea90060eea90011cea90011eea9008b
:103b3c0020cea90020eea9002136800000f82f002d
:103b4c00008060008001b3002036880011348000b2
:103b5c0000fc2f00008060000000a00010348800e2
:103b6c000136800000f82f008080600010062000d5
:103b7c00010070000036880001368000f00f28002c
:103b8c008080600000002600010070000036880074
:103b9c00e135800000f82f00808060006004200078
:103bac0001007000e0358800e1358000f00f28003e
:103bbc00808060000050240001007000e035880017
:083bcc000080fa000000060071
:020000040000fa
:103bd4000e1000000c000000800000000010000027
:103be4000e000000820000000100e8000323000032
:103bf4001900050000190000010000002410000055
:103c04000600000080000000b8110000260000003b
:103c14008000000034100000020000008200000058
:103c240001000000de1100000a0000008000000016
:103c34003610000002000000800000003810000070
:103c440080000000800000002a1000000600000030
:103c540080000000b8100000800000008000000018
:103c64003010000004000000800000003811000043
:103c740080000000800000001a1000000a0000000c
:083c84008000000000000000b8
:020000040000fa
:103c8c000000fa00f0032000303a8800213a80004e
:103c9c00f0f32f0000806000203a8800213a800069
:103cac0000fe2f00008060000000a000203a880079
:103cbc001200200080072000a1092000337420008e
:103ccc00804978008149780082497800103a800058
:103cdc00000178000200a0006004200071052000a3
:103cec00237420008049780081497800824978004b
:103cfc0000000000113a8000000027008080600066
:103d0c0000002100808f5000faff3a0000000000f4
:103d1c00113a800000022000008060000000e000ea
:0c3d2c00fbff32000080fa0000000600df
:020000040000fa
:02000004000af0
:04afe000cfff00009f
:020000040000fa
:02000004000af0
:04afe400ffff00006b
:020000040000fa
:02000004000af0
:04afe8007fff0000e7
:020000040000fa
:02000004000af0
:04afec005fff000003
:020000040000fa
:02000004000af0
:04aff00038ff000026
:020000040000fa
:02000004000af0
:04aff400ffff00005b
:00000001FF
