:020000040000fa
:080000000002040000000000f2
:020000040000fa
:04000800fa030000f7
:020000040000fa
:04000c00fa030000f3
:020000040000fa
:04001000fa030000ef
:020000040000fa
:04001400fa030000eb
:020000040000fa
:04001800fa030000e7
:020000040000fa
:04001c00fa030000e3
:020000040000fa
:04002000fa030000df
:020000040000fa
:04002400fa030000db
:020000040000fa
:04002800fa030000d7
:020000040000fa
:04002c00fa030000d3
:020000040000fa
:04003000fa030000cf
:020000040000fa
:0400340002030000c3
:020000040000fa
:04003800fa030000c7
:020000040000fa
:04003c00fa030000c3
:020000040000fa
:04004000fa030000bf
:020000040000fa
:04004400fa030000bb
:020000040000fa
:04004800fa020000b8
:020000040000fa
:04004c00fa030000b3
:020000040000fa
:04005000fa030000af
:020000040000fa
:04005400b6030000ef
:020000040000fa
:040058008c03000015
:020000040000fa
:04005c006803000035
:020000040000fa
:04006000fa0300009f
:020000040000fa
:04006400fa0300009b
:020000040000fa
:04006800fa03000097
:020000040000fa
:04006c00fa03000093
:020000040000fa
:04007000fa0300008f
:020000040000fa
:04007400fa0300008b
:020000040000fa
:04007800fa03000087
:020000040000fa
:04007c00fa03000083
:020000040000fa
:04008000fa0300007f
:020000040000fa
:04008400fa0300007b
:020000040000fa
:04008800fa03000077
:020000040000fa
:04008c00fa03000073
:020000040000fa
:04009000fa0300006f
:020000040000fa
:040094003e03000027
:020000040000fa
:04009800fa03000067
:020000040000fa
:04009c00fa03000063
:020000040000fa
:0400a000fa0300005f
:020000040000fa
:0400a400fa0300005b
:020000040000fa
:0400a800fa03000057
:020000040000fa
:0400ac00fa03000053
:020000040000fa
:0400b000fa0300004f
:020000040000fa
:0400b400fa0300004b
:020000040000fa
:0400b800fa03000047
:020000040000fa
:0400bc00fa03000043
:020000040000fa
:0400c000fa0300003f
:020000040000fa
:0400c400fa0300003b
:020000040000fa
:0400c800fa03000037
:020000040000fa
:0400cc00fa03000033
:020000040000fa
:0400d000fa0300002f
:020000040000fa
:0400d400fa0300002b
:020000040000fa
:0400d800fa03000027
:020000040000fa
:0400dc00fa03000023
:020000040000fa
:0400e000fa0300001f
:020000040000fa
:0400e400fa0300001b
:020000040000fa
:0400e800fa03000017
:020000040000fa
:0400ec00fa03000013
:020000040000fa
:0400f000fa0300000f
:020000040000fa
:0400f400fa0300000b
:020000040000fa
:0400f800fa03000007
:020000040000fa
:0400fc00fa03000003
:020000040000fa
:04010000fa030000fe
:020000040000fa
:04010400fa030000fa
:020000040000fa
:04010800fa030000f6
:020000040000fa
:04010c00fa030000f2
:020000040000fa
:04011000fa030000ee
:020000040000fa
:04011400fa030000ea
:020000040000fa
:04011800fa030000e6
:020000040000fa
:04011c00fa030000e2
:020000040000fa
:04012000fa030000de
:020000040000fa
:04012400fa030000da
:020000040000fa
:04012800fa030000d6
:020000040000fa
:04012c00fa030000d2
:020000040000fa
:04013000fa030000ce
:020000040000fa
:04013400fa030000ca
:020000040000fa
:04013800fa030000c6
:020000040000fa
:04013c00fa030000c2
:020000040000fa
:04014000fa030000be
:020000040000fa
:04014400fa030000ba
:020000040000fa
:04014800fa030000b6
:020000040000fa
:04014c00fa030000b2
:020000040000fa
:04015000fa030000ae
:020000040000fa
:04015400fa030000aa
:020000040000fa
:04015800fa030000a6
:020000040000fa
:04015c00fa030000a2
:020000040000fa
:04016000fa0300009e
:020000040000fa
:04016400fa0300009a
:020000040000fa
:04016800fa03000096
:020000040000fa
:04016c00fa03000092
:020000040000fa
:04017000fa0300008e
:020000040000fa
:04017400fa0300008a
:020000040000fa
:04017800fa03000086
:020000040000fa
:04017c00fa03000082
:020000040000fa
:04018000fa0300007e
:020000040000fa
:04018400fa0300007a
:020000040000fa
:04018800fa03000076
:020000040000fa
:04018c00fa03000072
:020000040000fa
:04019000fa0300006e
:020000040000fa
:04019400fa0300006a
:020000040000fa
:04019800fa03000066
:020000040000fa
:04019c00fa03000062
:020000040000fa
:0401a000fa0300005e
:020000040000fa
:0401a400fa0300005a
:020000040000fa
:0401a800fa03000056
:020000040000fa
:0401ac00fa03000052
:020000040000fa
:0401b000fa0300004e
:020000040000fa
:0401b400fa0300004a
:020000040000fa
:0401b800fa03000046
:020000040000fa
:0401bc00fa03000042
:020000040000fa
:0401c000fa0300003e
:020000040000fa
:0401c400fa0300003a
:020000040000fa
:0401c800fa03000036
:020000040000fa
:0401cc00fa03000032
:020000040000fa
:0401d000fa0300002e
:020000040000fa
:0401d400fa0300002a
:020000040000fa
:0401d800fa03000026
:020000040000fa
:0401dc00fa03000022
:020000040000fa
:0401e000fa0300001e
:020000040000fa
:0401e400fa0300001a
:020000040000fa
:0401e800fa03000016
:020000040000fa
:0401ec00fa03000012
:020000040000fa
:0401f000fa0300000e
:020000040000fa
:0401f400fa0300000a
:020000040000fa
:0401f800fa03000006
:020000040000fa
:0401fc00fa03000002
:020000040000fa
:04020000fa030000fd
:020000040000fa
:04020400fa030000f9
:020000040000fa
:04020800fa030000f5
:020000040000fa
:04020c00fa030000f1
:020000040000fa
:04021000fa030000ed
:020000040000fa
:04021400fa030000e9
:020000040000fa
:04021800fa030000e5
:020000040000fa
:04021c00fa030000e1
:020000040000fa
:04022000fa030000dd
:020000040000fa
:04022400fa030000d9
:020000040000fa
:04022800fa030000d5
:020000040000fa
:04022c00fa030000d1
:020000040000fa
:04023000fa030000cd
:020000040000fa
:04023400fa030000c9
:020000040000fa
:04023800fa030000c5
:020000040000fa
:04023c00fa030000c1
:020000040000fa
:04024000fa030000bd
:020000040000fa
:04024400fa030000b9
:020000040000fa
:04024800fa030000b5
:020000040000fa
:04024c00fa030000b1
:020000040000fa
:04025000fa030000ad
:020000040000fa
:04025400fa030000a9
:020000040000fa
:04025800fa030000a5
:020000040000fa
:04025c00fa030000a1
:020000040000fa
:04026000fa0300009d
:020000040000fa
:04026400fa03000099
:020000040000fa
:04026800fa03000095
:020000040000fa
:04026c00fa03000091
:020000040000fa
:04027000fa0300008d
:020000040000fa
:04027400fa03000089
:020000040000fa
:04027800fa03000085
:020000040000fa
:04027c00fa03000081
:020000040000fa
:04028000fa0300007d
:020000040000fa
:10040000ef2f21000eff2c000e01880000000000dd
:10041000000020000000e000020032000001200087
:100420002002880014000700f40007000000e0002c
:1004300003003a008057220001002000020037002c
:100440000000200001002000810f70000100320038
:100450000f000700000020000000e0000200320052
:100460000000020000000000460902000000000039
:100470000040da000000fe00200020000000e00044
:1004800002003200100020009001880000000600e9
:10049000a1028800800478000000eb001f003700f4
:1004a000e284440054a0b4009905ba00e2844400f8
:1004b00054a0b4009906ba00e284440054a0b400e9
:1004c0000006eb00476fde00fd07b200ae018800ba
:1004d000636ce10003003a000ad801000000eb0061
:1004e0000e003700606ce10008003a00004deb00a0
:1004f0000a05e800020039003420ec000af0a000f0
:100500008b05e900f9ff3e00040037006168e10057
:10051000010032000086eb000b00070019c7ba008b
:100520000e04e0001905ba0003003a000a00e000da
:10053000dbff3a0000000600fe07b200ae028800b2
:100540008a047800f5ff37000cd0a300e20f4d00bd
:100550001c00390089027800354dba000a05e80010
:10056000020039003420ec000af0a0008b05e900fd
:100570000f003200254dba000a05e80002003900dc
:100580003420ec000af0a0008b05e90008003200de
:100590000c00e0000600320015cdba000a05e800a4
:1005a000020039003420ec000af0a0008b05e900bd
:1005b0008984e80054a0b4000b00e000e2ff3a0098
:1005c000000006009902ba00055d78008b05e9007d
:1005d000f7ff3200c82ade00055d78008b05e900d0
:1005e000f3ff32000c00e000f1ff320019ddba0029
:1005f000eeff37000000fa000108a9000080fa00b1
:10060000004006003600f800809fbe00829fbe00ba
:10061000849fbe00869fbe000000fa000068a9000b
:10062000980f0700dd100700530d0700518280006e
:10063000a000200000017800110009008200d8000d
:100640008000fd000000e00002003a002a0e0700d2
:10065000920a0700508280000000e8005082880063
:100660000080fa004f03be004f02be004f01be00e3
:100670004f00be003600f900004006003600f800ca
:10068000809fbe00829fbe00849fbe00869fbe00ea
:100690000000fa000368a9003082800041828000d7
:1006a00061004000e080480030828800418288007c
:1006b000e70307000080fa004f03be004f02be00b0
:1006c0004f01be004f00be003600f900004006009a
:1006d000801f78000000fa0001a8a900001880001f
:1006e000a097880010188000b0978800201880001c
:1006f000c097880030188000d0978800401880008c
:10070000e097880010c0b3005bf0b7000080fa00eb
:100710004f007800004006003600f800809fbe00c1
:10072000829fbe00849fbe00869fbe000000fa002c
:100730000188a9008182800070828000808f500033
:100740000200320036100700010037005270ef003f
:100750000080fa004f03be004f02be004f01be00f2
:100760004f00be003600f900004006003600f800d9
:10077000809fbe00829fbe00849fbe00869fbe00f9
:100780000000fa000168a9001011800064006000f8
:100790000000e000010032002242a9001011800098
:1007a000620060000000e000060032002222a90082
:1007b00005003700301180000040780087100700e6
:1007c000010037000000000010118000610060008f
:1007d0000000e000f7ff3a000080fa004f03be007f
:1007e0004f02be004f01be004f00be003600f900b0
:1007f000004006000040da000000fe000000050096
:1008000003f0a200889fbe008a9fbe008c1f780064
:100810007d010700840133006450e1004f00320085
:100820006420e1005200320003826c0007003b00ac
:100830000905d0000306d000820f54000c065d00ad
:1008400002003900020032008901780003067800b6
:100850008582550004003d000003fd008103fd007a
:100860008502ea008b854200840f720002003b0083
:1008700060001000e08018006011b8000005eb0077
:100880007a28e1000a00390006007800c75ddd0023
:10089000f707b200878075002d0037008281710054
:1008a0000a017800610560008180d1000080d300da
:1008b0008502e900f9ff3b000604400087844800f8
:1008c00002003b0060041400e0841c000988a300bf
:1008d000070032008a817100828171006101640029
:1008e0008904d1000884d3008b05e8001700370085
:1008f0000978a30013003a000b00e0001300340055
:100900008b05e9000804440089844c000a44740003
:100910000978a3000d003a000b00e0000700340046
:100920008b05e9000804440089844c0001003a006a
:100930000b0020000978a300f7ff32000001eb0054
:1009400002003700828171000a017800f30007007d
:100950000cf0a70001f0a0003c0137006420e1008a
:1009600002003a00838f6c003c0133000801be0096
:100970000200be00350137000081eb006e01370038
:10098000889fbe008a9fbe008c1f78001e01070052
:100990002501330003866c006450e1002e00320014
:1009a0006420e100330032006150e1002f0032008a
:1009b0006120e1003100320085855500eb07b00071
:1009c0000900200008042000050037000804440046
:1009d00089844c000a0031000603430087834b00e2
:1009e0000001530081815b00f8ff33000203be0069
:1009f0000800a0000804440089844c00f6ff390078
:100a0000c639dd00830173000100320013002000ad
:100a10008904d1000884d3000998a300050032009e
:100a20000800a7000300a0008904d1000884d300b7
:100a30008b05e8008904d1000884d3000001eb0095
:100a40000281d200b500070001f0a1000cf0a70060
:100a500001f0a000fd0037006420e100ff0032003b
:100a60000801be000200be00f7ff37006120e10070
:100a7000fa0032006000b800f3ff370000002000e9
:100a800001f82700f0ff3700839f68000100e000b5
:100a900002003d0060001000e08018000300e0004c
:100aa00002003d0060011100e08119008d01070086
:100ab0004f00e00002003b0060001000e0801800e2
:100ac000000006001400200096013700f4ff2f00fc
:100ad000940137000001be00b60007000470a700b3
:100ae00003f0a1006509b100160032000d003500c9
:100af0006828e10006003500f0ff2f00f1ff270015
:100b00000300e00013003b00010028000000050086
:100b100000004000818048008502e900fcff3a00a7
:100b200008003700f88f420002003c008000eb0014
:100b3000000005008100d1000080d3008502e8009c
:100b4000fcff3a000300e00002003b0060001000e0
:100b5000e0801800000006000001be0095000700bc
:100b60000470a70003f0a10003f8a30013003a00eb
:100b70006509b10010003200090035006928e10064
:100b800002003500010028000000050000004000c0
:100b9000818048008502e900fcff3a000000060061
:100ba000f88f4200050035008100d1000080d3009d
:100bb0008502e800fcff3a00000006008000eb0020
:100bc000000005004f89de008201780070013700c7
:100bd0006011b8007e0137000400200000003700db
:100be000889fbe008a9fbe008c1f78004f26dd00c4
:100bf000850007008c0033006120e10043003200d3
:100c00006250e10041003e003e0039006420e100f6
:100c10003c003200058255000f003b000402e80052
:100c200038003a00800f5300818f5b00350034009c
:100c30000800be0003f0a10001f0a60003f0a00030
:100c40000cf0a700effe070080003700060343000a
:100c500087834b000c4646000005530081855b00ee
:100c6000020033000a03be000c00a0000402e900e9
:100c7000f6ff3b00850578000602430087824b00a3
:100c800004003a006000b80009f0a70001f0a000dd
:100c90006e0037000002520081825a000704e00013
:100ca000040033000603430087834b008b05e900f3
:100cb000faff3700090578000604be000203be00f3
:100cc0006011b80015000700e00f5200e08f5a00d5
:100cd0000700350002003c000c08a30004003200ad
:100ce0000601be0003f0a0000cf0a700c5fe07003f
:100cf0000a85680001f0a1000af0a70001f0a00039
:100d0000520037000800be005000370010022000db
:100d10000cf0a600e082880050003700810020001f
:100d2000618055000b003d000b00200061fe2f008c
:100d30000100e1001d003400828171006101640046
:100d40008904d1000884d3000000e800faff3a00cb
:100d50007100200061006400030070000200600068
:100d60000900320061044400e0844c000988a500b9
:100d7000050032008b05e8006808e10002003a0037
:100d80008904d1000884d300f20f20000258e1004a
:100d900005003d00c75ddd00f907b20089807500e0
:100da00008007800000006000bf827008b00780090
:100db00000000500c70ade00f107b200f50fb2001f
:100dc00008003200e1cf4200020032000170a000b2
:100dd00024000500810f70000100320004080500a6
:100de00044000500810f700002003a001400050065
:100df0008502e9000000400081c04800fcff3b0084
:100e00000170a000240005000004be00e9ff0700f7
:100e10000003be000405be000200be00e5ff07009f
:100e2000844f7500000006000200be006450e1001f
:100e3000050036006420e100020036000968a300c6
:100e400001003a000800be000160a0004f067800d3
:100e50004f05be004f04be0000000600f0ff2f004b
:100e6000f1ff2700f9ff3700889fbe008a9fbe0070
:100e70008c1f7800e4ff0700ebff330003866c0053
:100e80006450e100240032006420e10027003200b9
:100e90006150e100220032006120e10021003200b7
:100ea0008b854200eb07b1000134b800003ab8006e
:100eb0000804420089844a00013ab8000030b800b2
:100ec0008880400009014a0004003300000040000f
:100ed00081804800020149008b05e900c909dd0055
:100ee000830170000100320013002000c814de00ee
:100ef0004814dd004709de001200b200c808de0019
:100f00000884700085ff070001f0a1000cf0a70025
:100f100001f0a000cdff37006120e100cfff3200db
:100f20000801be000200be00f7ff37006150e1007b
:100f3000fcff3a00c9ff3700889fbe008a9fbe00b1
:100f40008c9fbe00820578000004be0099ff070058
:100f50000800be006420e1000700390002003a00ea
:100f6000f1ff2700f0ff2f000160a0001202200017
:100f7000e2828800550037006120e10003003a005a
:100f80000b00a70001f823005000370001f0a1007a
:100f90000200210093642400cafe07000800be007e
:100fa00004003500b2fd2000930c24000aff070066
:100fb0000004be000005eb000b00a6004f0dde0094
:100fc00001f0a1000004be0032982f0023ea2300a4
:100fd000a5ff07000001eb0003f023000b00a700b2
:100fe00003f8230007fe0700bafe07000000a70071
:100ff0000a00a200f3fe07000b00e000030032002d
:101000000200200003f02300fdfd070001f0a20014
:101010000006be00020020009304240092ff070097
:101020000801be00f7fd0700809fbe000c00be0057
:1010300022a22a00d3a723008bff07004f01be0086
:10104000f0fd07000004be0001f0a1000200200036
:10105000039823009bfe07000800be00190035001e
:101060000001be0080ff07000006be00b2c52900d7
:10107000e36223007cff070022222b00f3942b0065
:10108000e0fd07000c01be0077ff0700e2732800b7
:1010900083c02300dbfd07000c01be0072ff0700c8
:1010a00042aa2a00a3e22b00d6fd07000c01be00d5
:1010b0006dff07000801be006bff07000801be00be
:1010c000d0fd07000a00a70001f0a2004f06be00f5
:1010d0004f05be004f04be00000006000001eb00fb
:1010e00095ff37006022b800060220000000d00003
:1010f0008180d2000482d2008582d2000000a0004c
:101100000202520083825a000300310002024200b0
:1011100083824a000000a1000603e900f3ff3a00c1
:1011200000000600889fbe008a9fbe00841f7800d2
:1011300035ff07004f00780011003300f0ff2f004b
:10114000838f6c0006003b00040565000a00a700c1
:101150000800370009f0a600100020000800370042
:10116000820f5400838f5c000300390010002000c0
:1011700001003e000000200009f0a7000000ea0086
:101180004f05be004f04be000000e0000000060056
:10119000881f7800030478000300e00007003d008a
:1011a00060001000e080180060011900e081190063
:1011b00002003b0001f02d0003003700040007008f
:1011c00008f0a70001f0a0004f047800000006001e
:1011d000889fbe008a9fbe000082700004027100da
:1011e00004827100260032000004be000200be002e
:1011f0006011b8006b092000950220000182cf0029
:101200000a0039000541b1000082cf000700390013
:101210000541b1000982cf00040039000541b10049
:101220000882cf00010039000541b100054252009b
:10123000120032000a003b008281710061016400eb
:101240008100d1000080d3008984d3000884d300ba
:101250008b05e8000442e800f7ff3a00070037007a
:101260000804440089844c00000048008180480044
:101270008b05e9000442e900f9ff3a00a7fe0700e8
:0c1280004f05be004f04be000000060039
:020000040000fa
:10128c001600fa00889fbe008a9fbe00b30e0700ae
:10129c007f0e0700f208070098090700460c0700ac
:1012ac00810d0700140a0700450e07001d0a0700f0
:1012bc00250a070076070700010037000000000030
:1012cc00b70d070010079800b90d0700e14f50004b
:1012dc00bc003a00ba0d0700b10d070020079800ba
:1012ec002e00900068004000100078008000eb0099
:1012fc0034fe07003233230033052400d7fe0700e9
:10130c0002002000035824009afd0700d2cc2c00c8
:10131c00c3042400d1fe0700300798004107980051
:10132c003e019000ce01900000002000812024009e
:10133c0090fd070002002000030a24002dfd070089
:10134c0080838800918388002e0090006600400006
:10135c00100078008000eb001afe070032332300e7
:10136c0033052400bdfe07000200200003582400b2
:10137c0080fd0700d2cc2c00c3042400b7fe07006c
:10138c0030079800410798003e019000ce01900074
:10139c00000020008120240076fd070002002000c0
:1013ac00030a240013fd0700e0838800f183880002
:1013bc002e00900064004000100078008000eb00cc
:1013cc0000fe07003233230033052400a3fe070080
:1013dc00020020000358240066fd0700d2cc2c002c
:1013ec00c30424009dfe07003007980041079800b5
:1013fc003e019000ce0190000000200081202400ce
:10140c005cfd070002002000030a2400f9fc070021
:10141c00a0838800b18388002e0090000080e80033
:10142c00100078008000eb00e6fd0700323323004b
:10143c003305240089fe0700020020000358240015
:10144c004cfd0700d2cc2c00c304240083fe070003
:10145c0030079800410798003e019000ce019000a3
:10146c00000020008120240042fd07000200200023
:10147c00030a2400dffc0700c0838800d1838800a6
:10148c002e009000100078008000eb00cdfd0700ce
:10149c00323323003305240070fe070002002000c5
:1014ac000358240033fd0700d2cc2c00c3042400c5
:1014bc006afe070030079800410798003e01900033
:1014cc00ce019000000020008120240029fd07009f
:1014dc0002002000030a2400c6fc070000848800d8
:1014ec0011848800c0838000d183800076fd0700c2
:1014fc000040780080457800a0838000b183800094
:10150c0071fd070000407800004578008083800062
:10151c00918380006cfd07000040780080447800c7
:10152c00e0838000f183800067fd070000407800b5
:10153c0000447800008480001184800062fd070064
:10154c00004078007b4f98000a5798001957980074
:10155c0028579800305798006000200050079800da
:10156c006f00470000017800de00900000032000af
:10157c000a0507004083800051838000860a07001b
:10158c0051fd070000407800004478000083800083
:10159c0011838000800a07004bfd07000040780093
:1015ac00485798005057980030002000600798006a
:1015bc007400470000017800ee0090000004200049
:1015cc00f6040700250d07000004e0000b003200b4
:1015dc000000eb00000f7800050037000f0d07002e
:1015ec00604f98006e4890004c0507001e0fe800f5
:1015fc002b0d07009e0f5000f8ff3c00018180006e
:10160c00a000200000017800110009008200d80021
:10161c008000fd000000e00001003a002030ef00e7
:10162c00008180000000e80000818800208180009b
:10163c000000e00021ff3a0010002000208188000b
:10164c001fff37000000fa0026d0bf000080fb000f
:10165c00cf80de007201200003002000820f5000ba
:10166c00838f5800fb003e00000601001700370076
:10167c002000370029003700370037003e003700c4
:10168c00470037004e003700570037005e00370028
:10169c00680037006f00370079003700de00370034
:1016ac00ec003700eb003700ea0037007c00370015
:1016bc00860037008d003700970037009e003700fa
:1016cc00aa003700c5003700b70037004630ef00de
:1016dc004830ef000041eb006000b800520b0700ef
:1016ec0012c0b3006000b8004f0b070010c0b3006d
:1016fc0026f0b7003282800043828000803e2000ba
:10170c0001002000800f5100818f5900d400360059
:10171c0020c0b30026f0b700da003700408180000b
:10172c000000ea00cf80de0023fd07000041eb0043
:10173c003d0b0700408180000000ea00cf80de00f6
:10174c001dfd070012c0b300370b070030c0b300fb
:10175c0026f0b700cb00370070818000e10f5000fd
:10176c0002003a00c9000700c6003700c0c0b30031
:10177c0026f0b700c30037000041eb006000b80052
:10178c00290b070012c0b300000020000115240033
:10179c00250b070050c0b30026f0b700b900370086
:1017ac0070818000e10f500002003a00b700070082
:1017bc00b4003700c0c0b30026f0b700b10037004a
:1017cc000041eb000000200001152400160b07005f
:1017dc0012c0b3006000b800130b070070c0b30058
:1017ec0026f0b700a700370070818000e10f500091
:1017fc0002003a00a5000700a2003700c0c0b300e9
:10180c0026f0b7009f0037000041eb0000002000dd
:10181c0001152c00040b070012c0b30000002000bf
:10182c0001152400000b070090c0b30026f0b70090
:10183c009400370070818000e10f500002003a00e4
:10184c00920007008f003700c0c0b30026f0b7002d
:10185c008c0037000041eb00000020000115240033
:10186c00f10a070012c0b3000000200001152c0083
:10187c00ed0a0700b0c0b30026f0b70081003700b6
:10188c0070818000e10f500002003a007f000700d9
:10189c007c003700c0c0b30026f0b70079003700d9
:1018ac000041eb0000002000010a2c00de0a0700ba
:1018bc0012c0b3000000200001152400da0a070052
:1018cc0010c1b30026f0b7006e00370070818000a5
:1018dc00e10f500002003a006c000700690037006d
:1018ec00c0c0b30026f0b700660037000041eb0023
:1018fc000000200001152400cb0a070012c0b30021
:10190c0000002000010a2c00c70a070030c1b300f8
:10191c0026f0b7005b00370070818000e10f5000ab
:10192c0002003a005900070056003700c0c0b3004f
:10193c0026f0b700530037004630ef004830ef0078
:10194c000041eb0000002000011a2400b60a070039
:10195c0012c0b30000002000011a2c00b20a0700cc
:10196c0050c1b30026f0b7004600370080818000dc
:10197c006101b9003082800041828000800f5100eb
:10198c00818f59003800310070818000e10f5000c8
:10199c0002003a003d0007003a003700c0c0b30017
:1019ac0026f0b700370037004630ef004830ef0024
:1019bc000041eb0000002000011a24009a0a0700e5
:1019cc0012c0b30000002000011a2c00960a070078
:1019dc0060c1b30026f0b7002a0037008081800078
:1019ec006101b9003082800041828000800f51007b
:1019fc00818f59001e00310070818000e10f500072
:101a0c0002003a00210007001e003700c0c0b300de
:101a1c0026f0b7001b003700708180000000e0004a
:101a2c0015003a00108180000000e00014003a001c
:101a3c000041eb006000b8007b0a070012c0b30045
:101a4c006000b800780a07001000200010818800a0
:101a5c000c0037002670ef00000000000900370072
:101a6c0000000000070037000000000005003700f0
:101a7c0000000000030037000000000001003700e8
:101a8c00000000000080fa00000006000a00fa00c6
:101a9c00889fbe008a1f78000040eb00004f780042
:101aac002230ef000884800019848000c0818000ff
:101abc00cf80de0040fc07001ac0b3000001be005e
:101acc000800be00fcfb07000000e0000100350030
:101adc000045eb000a04e00003003200b0c0b30084
:101aec00004f780082023700e8838000f983800081
:101afc00c0818000cf80de002ffc07001ac0b3002d
:101b0c000001be000800be00ebfb07000000e00077
:101b1c00010035000045eb000a04e0000300320030
:101b2c00a0c0b300004f7800710237000884800019
:101b3c0019848000b0818000cf80de001efc07007d
:101b4c001ac0b3000001be000800be00dafb07009b
:101b5c000000e000010035000045eb000a04e00045
:101b6c003b00320088838000998380009081800044
:101b7c00cf80de0010fc07001ac0b3000001be00cd
:101b8c000800be00cefb07000000e00001003c0096
:101b9c000045eb000a04e0002d003200a883800011
:101bac00b9838000a0818000cf80de0002fc07009a
:101bbc001ac0b3000001be000800be00c0fb070045
:101bcc000000e00001003c000045eb000a04e000ce
:101bdc001f003200c8838000d98380009081800070
:101bec00cf80de00f4fb07001ac0b3000001be007a
:101bfc000800be00b2fb07000000e00001003c0042
:101c0c000045eb000a04e00011003200e88380007c
:101c1c00f9838000b0818000cf80de00e6fb0700f6
:101c2c001ac0b3000001be000800be00a4fb0700f0
:101c3c000000e00001003c000045eb000a04e0005d
:101c4c0003003200b0c0b300004f78002802370008
:101c5c000884800019848000b0818000cf80de0071
:101c6c00d5fb07001ac0b3000001be000800be007f
:101c7c0093fb07000000e00001003c000045eb0076
:101c8c000a04e0003b0032008883800099838000c6
:101c9c0090818000cf80de00c7fb07001ac0b30024
:101cac000001be000800be0085fb07000000e0003c
:101cbc0001003c000045eb000a04e0002d0032005e
:101ccc00a8838000b9838000a0818000cf80de00d3
:101cdc00b9fb07001ac0b3000001be000800be002b
:101cec0077fb07000000e00001003c000045eb0022
:101cfc000a04e0001f003200c8838000d9838000f2
:101d0c0090818000cf80de00abfb07001ac0b300cf
:101d1c000001be000800be0069fb07000000e000e7
:101d2c0001003c000045eb000a04e0001100320009
:101d3c00e8838000f9838000b0818000cf80de00d2
:101d4c009dfb07001ac0b3000001be000800be00d6
:101d5c0059fb07000000e000010035000045eb00d6
:101d6c000a04e00003003200a0c0b300004f78006a
:101d7c00df013700e8838000f9838000b0818000a8
:101d8c00cf80de008cfb07001ac0b3000001be0040
:101d9c000800be0048fb07000000e0000100350011
:101dac000045eb000a04e0003b0032000884800090
:101dbc0019848000b0818000cf80de007efb07009c
:101dcc001ac0b3000001be000800be003cfb0700b7
:101ddc000000e00001003c000045eb000a04e000bc
:101dec002d003200888380009983800090818000d0
:101dfc00cf80de0070fb07001ac0b3000001be00ec
:101e0c000800be002efb07000000e00001003c00b3
:101e1c000045eb000a04e0001f003200a88380009c
:101e2c00b9838000a0818000cf80de0062fb0700b8
:101e3c001ac0b3000001be000800be0020fb070062
:101e4c000000e00001003c000045eb000a04e0004b
:101e5c0011003200c8838000d983800090818000fb
:101e6c00cf80de0054fb07001ac0b3000001be0097
:101e7c000800be0012fb07000000e00001003c005f
:101e8c000045eb000a04e00003003200a0c0b300e0
:101e9c00004f780096013700e8838000f9838000ba
:101eac00b0818000cf80de0043fb07001ac0b30076
:101ebc000001be000800be0001fb07000000e000ae
:101ecc0001003c000045eb000a04e0003b0032003e
:101edc000884800019848000b0818000cf80de00ef
:101eec0035fb07001ac0b3000001be000800be009d
:101efc00f1fa07000000e000010035000045eb009e
:101f0c000a04e0002d003200888380009983800051
:101f1c0090818000cf80de0027fb07001ac0b30041
:101f2c000001be000800be00e5fa07000000e0005a
:101f3c0001003c000045eb000a04e0001f003200e9
:101f4c00a8838000b9838000a0818000cf80de0050
:101f5c0019fb07001ac0b3000001be000800be0048
:101f6c00d7fa07000000e00001003c000045eb0040
:101f7c000a04e00011003200c8838000d98380007d
:101f8c0090818000cf80de000bfb07001ac0b300ed
:101f9c000001be000800be00c9fa07000000e00006
:101fac0001003c000045eb000a04e0000300320095
:101fbc00b0c0b300004f78004d013700888380001b
:101fcc009983800090818000cf80de00fafa0700b0
:101fdc001ac0b3000001be000800be00b6fa07002c
:101fec000000e000010035000045eb000a04e000b1
:101ffc001f003200a8838000b9838000a08180007c
:10200c00cf80de00ecfa07001ac0b3000001be005e
:10201c000800be00a8fa07000000e000010035002f
:10202c000045eb000a04e00011003200c883800078
:10203c00d983800090818000cf80de00defa07001b
:10204c001ac0b3000001be000800be009afa0700d7
:10205c000000e000010035000045eb000a04e00040
:10206c000300320070c0b300004f7800200137002d
:10207c00888380009983800090818000cf80de006f
:10208c00cdfa07001ac0b3000001be000800be0064
:10209c0089fa07000000e000010035000045eb0064
:1020ac000a04e0001f003200a8838000b98380007e
:1020bc00a0818000cf80de00bffa07001ac0b300f9
:1020cc000001be000800be007dfa07000000e00021
:1020dc0001003c000045eb000a04e0001100320056
:1020ec00c8838000d983800090818000cf80de007f
:1020fc00b1fa07001ac0b3000001be000800be0010
:10210c006dfa07000000e000010035000045eb000f
:10211c000a04e0000300320040c0b300004f780016
:10212c00f3003700888380009983800090818000c1
:10213c00cf80de00a0fa07001ac0b3000001be0079
:10214c000800be005cfa07000000e000010035004a
:10215c000045eb000a04e0001f003200a883800059
:10216c00b9838000a0818000cf80de0092fa070046
:10217c001ac0b3000001be000800be004efa0700f2
:10218c000000e000010035000045eb000a04e0000f
:10219c0011003200c8838000d983800090818000b8
:1021ac00cf80de0084fa07001ac0b3000001be0025
:1021bc000800be0042fa07000000e00001003c00ed
:1021cc000045eb000a04e0000300320060c0b300dd
:1021dc00004f7800c6003700888380009983800008
:1021ec0090818000cf80de0073fa07001ac0b30024
:1021fc000001be000800be0031fa07000000e0003c
:10220c0001003c000045eb000a04e0001f00320016
:10221c00a8838000b9838000a0818000cf80de007d
:10222c0065fa07001ac0b3000001be000800be002a
:10223c0021fa07000000e000010035000045eb002a
:10224c000a04e00011003200c8838000d9838000aa
:10225c0090818000cf80de0057fa07001ac0b300cf
:10226c000001be000800be0013fa07000000e000e9
:10227c00010035000045eb000a04e00003003200c9
:10228c0050c0b300004f780099003700888380005d
:10229c009983800090818000cf80de0046fa070091
:1022ac001ac0b3000001be000800be0002fa07000d
:1022bc000000e000010035000045eb000a04e000de
:1022cc001f003200a8838000b9838000a0818000a9
:1022dc00cf80de0038fa07001ac0b3000001be0040
:1022ec000800be00f6f907000000e00001003c0009
:1022fc000045eb000a04e00011003200c8838000a6
:10230c00d983800090818000cf80de002afa0700fc
:10231c001ac0b3000001be000800be00e8f90700b7
:10232c000000e00001003c000045eb000a04e00066
:10233c000300320020c0b300004f78006c0037005f
:10234c00888380009983800090818000cf80de009c
:10235c0019fa07001ac0b3000001be000800be0045
:10236c00d7f907000000e00001003c000045eb003d
:10237c000a04e0001f003200a8838000b9838000ab
:10238c00a0818000cf80de000bfa07001ac0b300da
:10239c000001be000800be00c9f907000000e00003
:1023ac0001003c000045eb000a04e0001100320083
:1023bc00c8838000d983800090818000cf80de00ac
:1023cc00fdf907001ac0b3000001be000800be00f2
:1023dc00b9f907000000e000010035000045eb00f2
:1023ec000a04e0000300320010c0b300004f780074
:1023fc003f003700a8838000b9838000a081800053
:10240c00cf80de00ecf907001ac0b3000001be005b
:10241c000800be00a8f907000000e000010035002c
:10242c000045eb000a04e0000300320030c0b300aa
:10243c00004f78002e00370088838000998380003d
:10244c0090818000cf80de00dbf907001ac0b3005a
:10245c000001be000800be0099f907000000e00072
:10246c0001003c000045eb000a04e00020003200b3
:10247c00a8838000b9838000a0818000cf80de001b
:10248c00cdf907001ac0b3000001be000800be0061
:10249c008bf907000000e00001003c000045eb0058
:1024ac000a04e00012003200c8838000d983800047
:1024bc0090818000cf80de00bff907001ac0b30006
:1024cc000001be000800be007df907000000e0001e
:1024dc0001003c000045eb000a04e000040032005f
:1024ec000040eb00004f780010002000d0818800e5
:1024fc00d08180000000e00002003a002830ef009c
:10250c0003003700a0002000408188003a30ef0023
:10251c001e4078000004e00003003a0020c0b30025
:10252c002af0b700650037001e407800e24f5000db
:10253c0004003a0040c0b3002af0b7002c30ef0082
:10254c005e0037001e407800e14f500005003a0055
:10255c0060c0b3002af0b700100020006081880032
:10256c00560037001e407800e34f500009003a0037
:10257c00608180000000e00003003a0080c0b300de
:10258c002af0b7004d003700a0c0b3002af0b70006
:10259c004a0037001e407800e64f500004003a0015
:1025ac0080c0b3002af0b7002c30ef004300370096
:1025bc001e407800e54f500005003a00a0c0b30063
:1025cc002af0b70010002000608188003b00370023
:1025dc001e407800e44f500003003a0080c0b30066
:1025ec002af0b700350037001e407800e74f500046
:1025fc0009003a00608180000000e00003003a000e
:10260c0080c0b3002af0b7002c003700a0c0b30084
:10261c002af0b700290037001e407800e84f500020
:10262c0003003a0080c0b3002af0b7002300370043
:10263c001e407800ea4f500003003a0000c1b3007e
:10264c002af0b7001d0037001e407800eb4f5000f9
:10265c0003003a0020c1b3002af0b700170037007e
:10266c001e407800ed4f500009003a006081800058
:10267c000000e00003003a0000c1b3002af0b700ec
:10268c000e00370020c1b3002af0b7000b00370052
:10269c001e407800ec4f500008003a00608180002a
:1026ac000000e00003003a0070c1b3002af0b7004c
:1026bc000200370040c1b3002af0b7002ad0bf0097
:1026cc008080fb0026d0bf000080fb000000e900ea
:1026dc00808f50003e0032002ad0bf0026f0b70099
:1026ec000000eb0010079800610221009140780077
:1026fc001e00900064004000017778001e009000de
:10270c000000e800100798003082800041828000b1
:10271c004808de00804078001e00900064004000f5
:10272c00017778001e0090000000e8001007980068
:10273c0030828000418280004008de0080407800ba
:10274c001e00900064004000017778001e0090008d
:10275c000000e80010079800308280004182800061
:10276c004809dd004800de0000007100c808de00ea
:10277c00804078001e0090006400400001777800d3
:10278c001e0090000000e8001007980030828000c6
:10279c0041828000804078001e0090006400400060
:1027ac00017778001e0090000000e80010079800e8
:1027bc001e0090000000e80010079800640047001d
:1027cc00000178009e0090000005200073000700b7
:1027dc004f0578004f04be000080fa000000060090
:1027ec000200fa00000f78001e007800e40f500081
:1027fc001e003200e40f500007003c00e20f5000b6
:10280c0012003200e20f500014003c00e10f5000a7
:10281c000a00320029003700e60f50001b0032007e
:10282c00e60f500015003500e70f50001b0032007a
:10283c00e80f50001d0032002000370064cea900c4
:10284c0064eea900254ea8002000370064cea80035
:10285c0064eea900254ea9001c00370064cea90027
:10286c0064eea800254ea9001800370064cea8001d
:10287c0064eea800254ea9001400370064cea90010
:10288c0064eea800254ea8001000370064cea80006
:10289c0064eea900254ea8000c00370064cea800f9
:1028ac0064eea800254ea8000800370064cea900ed
:1028bc0064eea900254ea9000400370064cea900df
:1028cc0064eea900254ea900000000000080fa006b
:1028dc00000006000a00fa00200798003107980053
:1028ec00420798000040eb00004f7800e0cfb300a7
:1028fc001e4f68002e0090004880de00804078005b
:10290c001e40780000c06800004f78002e00900038
:10291c00804078001e40780000c06800004f7800ae
:10292c003e0090004880de00804078001e40780019
:10293c0000c06800004f78003e0090008040780096
:10294c001e40780000c06800004f78000000eb00cb
:10295c00100798000000eb001007980008003700e3
:10296c001e009000ce0090000080400010407800c7
:10297c001e4f68001e0090000000e8001007980031
:10298c009e0090003e009000808f5000f4ff3500b8
:10299c001e4078000080fa00000006001000fa00cb
:1029ac00889fbe0050079800610798007207980036
:1029bc000f0478000f007800800478000040eb00d2
:1029cc00404798006e009000660040008000e900cf
:1029dc00310798000000e8000000e8000000d1007a
:1029ec00800040000f007800818747000000e8005d
:1029fc000000d10000004000400798000000eb00f0
:102a0c00000f78004e0090001e004000e1cfb30094
:102a1c00014878001e0fe8005e0090004880de0040
:102a2c00804078004e0090001e0040000148780065
:102a3c001e0fe8005e009000804078004e00900071
:102a4c001e004000014878001e0fe8006e00900048
:102a5c004880de00804078004e0090001e00400050
:102a6c00014878001e0fe8006e009000804078004e
:102a7c004e0090001e004000014878001e0fe80038
:102a8c000000eb00100798000000eb001007980006
:102a9c000b0037001e009000fe00900000804000ec
:102aac00904078004e0090001e00400001487800d5
:102abc001e0fe8001e0090000000e80010079800b0
:102acc009e0090006e009000808f5000f1ff35004a
:102adc007e019000ee0090005e0090007dff0700ec
:102aec00404798004e0090001e004000ce409000e1
:102afc00014878001e0fe8006e009000e6004000d0
:102b0c004e009000070707008907780088077800b7
:102b1c004f04be000080fa00000006000200fa001c
:102b2c00004f780010828000e30f50002600320026
:102b3c00e30f500007003c00e10f5000150032007d
:102b4c00e10f500019003c000000e00008003200ca
:102b5c004b003700e50f50002d003200e50f500000
:102b6c001f003500e60f50003700320044003700dc
:102b7c001e407800e24f400044003a001000200054
:102b8c00108288003e30ef003c30ef004030ef0008
:102b9c00410037001e80fb004800dd00e08188000a
:102bac0020002000108288003b0037009e80fb0034
:102bbc00e081800000804000e0818800300020002f
:102bcc0010828800340037001e80fb004800dd00b6
:102bdc00f081880040002000108288002e00370011
:102bec009e80fb00f081800000804000f081880016
:102bfc00f1818000c05d2000808f50000100340006
:102c0c004230ef0050002000108288002200370074
:102c1c0000828000c1202100008040001e48780006
:102c2c00008280000000e8000082880001828000a1
:102c3c00f0818000808f500016003a006000200068
:102c4c0010828800140037001e41780041042100d6
:102c5c008248780044d0bf009e4f500006003a00d6
:102c6c00f081800080407800e08180000040780096
:102c7c00c22021000a0007004230ef000600370096
:102c8c004230ef000000000003003700000000009d
:102c9c0001003700000000000080fa000000060070
:102cac000400fa00004f78001147980012079800b2
:102cbc001e80fb0011052000810f50000e00320019
:102ccc0011052000810f500004003c00010220007f
:102cdc00810f5000170032006200370021052000e0
:102cec00810f50000800320001082000810f5000b5
:102cfc00090032005b0037001e0090001040780085
:102d0c005a000700570037001e0090001040780052
:102d1c007a000700530037001e4090000080fb0033
:102d2c001e01900080007800000820001bff0700a7
:102d3c004c0037001e0090009040780090c4b30007
:102d4c0080cf500007003a001e0090000000e80001
:102d5c009040780010c3b30080cf500001003a00bf
:102d6c00254ea8001e00900090407800f0c4b300df
:102d7c0080cf500007003a001e0090000000e800d1
:102d8c009040780010c3b30080cf500001003a008f
:102d9c00254ea9001e0090009040780090c4b3000e
:102dac0080cf500007003a001e0090000000e800a1
:102dbc009040780020c3b30080cf500001003a004f
:102dcc0064eea8001e00900090407800f0c4b300a0
:102ddc0080cf500007003a001e0090000000e80071
:102dec009040780020c3b30080cf500001003a001f
:102dfc0064eea9001e0090009040780090c4b300cf
:102e0c0080cf500007003a001e0090000000e80040
:102e1c009040780030c3b30080cf500001003a00de
:102e2c0064cea8001e00900090407800f0c4b3005f
:102e3c0080cf500008003a001e0090000000e8000f
:102e4c009040780030c3b30080cf500004003a00ab
:102e5c0064cea90003003700000000000100370019
:102e6c00000000000080fa00000006000400fa00d8
:102e7c00204798000040eb00004f78000040eb002a
:102e8c0010479800ae40900000c3b30080cf5000b4
:102e9c000b003a0064eea80090c4b300004f780019
:102eac0020c3b300104798000e01780021002000c9
:102ebc0000022000b9fe07002e30ef000d00370095
:102ecc0064eea900f0c4b300004f780020c3b30037
:102edc00104798000e01780021002000000220000d
:102eec00aefe0700100020007081880020c0b300e7
:102efc0026f0b7000080fa00000006000200fa007d
:102f0c00004f78001e80fb00ea0f500015003200c5
:102f1c00ea0f500005003c00e20f50001a0032008e
:102f2c00e80f50000600320030003700ec0f500064
:102f3c001e003200ee0f5000230032002b00370031
:102f4c000041eb000000200001172c0036050700a3
:102f5c0012c0b30000002000011724003205070046
:102f6c00220037000041eb00000020000117240074
:102f7c002d05070012c0b3000000200001172c0023
:102f8c0029050700190037000041eb000000200064
:102f9c00011a2c002405070012c0b3000000200009
:102fac00011a2c0020050700100037000041eb002f
:102fbc006000b8001c05070012c0b3006000b80028
:102fcc0019050700090037000041eb000000200044
:102fdc00011a24001405070012c0b30000002000e1
:102fec00011a240010050700000000000080fa0000
:102ffc00000006000e00fa00000f7800120798007f
:10300c002307980034079800450798005607980046
:10301c00670798001e0078001e019000ae0190001a
:10302c000288be001e0078003eb99700ceb997000a
:10303c0062009800730098001e0078003e0190001a
:10304c00ce01900022009800330098001e007800fa
:10305c001eb99700aeb997000208980013089800a3
:10306c001e0078005e019000ee0190004200980076
:10307c00530098001e0078007eb197008eb997001f
:10308c0022089800330898000080fa00000006001f
:10309c006a00fa00a0702d0031c22300008fbe0020
:1030ac00a0702d0031ca230020079800310798002a
:1030bc00f0282c0051cf23004007980051079800ae
:1030cc00a0702d0031d22300600798007107980082
:1030dc00d0cc2c00c1d42300000f9800110f980005
:1030ec00f0282c0051d72300200f9800310f9800a6
:1030fc0090c22500f1d82300400f9800510f980082
:10310c00a0702d0031da2300600f9800710f980029
:10311c00c01e250081db23000017980011179800b2
:10312c00d0cc2c00c1dc230020179800311798005c
:10313c00e07a240011de2300401798005117980004
:10314c00f0282c0051df23006017980071179800ad
:10315c0080eb210051e02300001f9800111f980004
:10316c0090c22500f1e02300201f9800311f980029
:10317c00a099290091e12300401f9800511f98004d
:10318c00a0702d0031e22300601f9800711f980081
:10319c00b0472100e1e22300002798001127980096
:1031ac00c01e250081e323002027980031279800ba
:1031bc00c0f5280021e423004027980051279800ef
:1031cc00d0cc2c00c1e42300602798007127980014
:1031dc00d0a3200071e52300002f9800112f980038
:1031ec00e07a240011e62300202f9800312f98005c
:1031fc00f0512800b1e62300402f9800512f980081
:10320c00f0282c0051e72300602f9800712f9800b4
:10321c000000200001e823000037980011379800c7
:10322c0080eb210051e823002037980031379800bb
:10323c000000eb00403798001e0078009e009000c4
:10324c0021f607000001be00ce309000c0282100fe
:10325c000e0407002e009000be0090001af6070026
:10326c004e31900064014100423798000001be00cd
:10327c00ce309000c0282100040407004e009000be
:10328c00de00900010f607004e3190006401410002
:10329c00423798000001be00ce309000c0282100bb
:1032ac00fa0307006e009000fe00900006f607007f
:1032bc004e31900064014100423798000001be007d
:1032cc00ce309000c0282100f00307000e089000bb
:1032dc009e089000fcf507004e31900064014100ff
:1032ec00423798000001be00ce309000c02821006b
:1032fc00e60307002e089000be089000f2f50700c8
:10330c004e31900064014100423798000001be002c
:10331c00ce309000c0282100dc0307004e0890003e
:10332c00de089000e8f507004e3190006401410082
:10333c00423798000001be00ce309000c02821001a
:10334c00d20307006e089000fe089000def507001f
:10335c004e31900064014100423798000001be00dc
:10336c00ce309000c0282100c80307000e1090003a
:10337c009e109000d4f507004e319000640141007e
:10338c00423798000001be00ce309000c0282100ca
:10339c00be0307002e109000be109000caf5070067
:1033ac004e31900064014100423798000001be008c
:1033bc00ce309000c0282100b40307004e109000be
:1033cc00de109000c0f507004e3190006401410002
:1033dc00423798000001be00ce309000c02821007a
:1033ec00aa0307006e109000fe109000b6f50700bf
:1033fc004e31900064014100423798000001be003c
:10340c00ce309000c0282100a00307000e189000b9
:10341c009e189000acf507004e31900064014100fd
:10342c00423798000001be00ce309000c028210029
:10343c00960307002e189000be189000a2f5070006
:10344c004e31900064014100423798000001be00eb
:10345c00ce309000c02821008c0307004e1890003d
:10346c00de18900098f507004e3190006401410081
:10347c00423798000001be00ce309000c0282100d9
:10348c00820307006e189000fe1890008ef507005e
:10349c004e31900064014100423798000001be009b
:1034ac00ce309000c0282100780307000e20900039
:1034bc009e20900084f507004e319000640141007d
:1034cc00423798000001be00ce309000c028210089
:1034dc006e0307002e209000be2090007af50700a6
:1034ec004e31900064014100423798000001be004b
:1034fc00ce309000c0282100640307004e209000bd
:10350c00de20900070f507004e3190006401410000
:10351c00423798000001be00ce309000c028210038
:10352c005a0307006e209000fe20900066f50700fd
:10353c004e31900064014100423798000001be00fa
:10354c00ce309000c0282100500307000e289000b8
:10355c009e2890005cf507004e31900064014100fc
:10356c00423798000001be00ce309000c0282100e8
:10357c00460307002e289000be28900052f5070045
:10358c004e31900064014100423798000001be00aa
:10359c00ce309000c02821003c0307004e2890003c
:1035ac00de28900048f507004e3190006401410080
:1035bc00423798000001be00ce309000c028210098
:1035cc00320307006e289000fe2890003ef507009d
:1035dc004e31900064014100423798000001be005a
:1035ec00ce309000c0282100280307000e30900038
:1035fc009e30900034f507004e319000640141007c
:10360c00423798000001be00ce309000c028210047
:10361c001e0307002e309000be3090002af50700e4
:10362c004e31900064014100423798000001be0009
:10363c00ce309000c0282100140307004e309000bb
:10364c006400400040379800c2282100ce30900022
:10365c0000072000d1fc07000080fa0000000600e3
:10366c000400fa0013e1a90011e1a9001061a800ff
:10367c001021a90081088000f0fc2f000080600060
:10368c00800888000a21ef000621ef00404c200042
:10369c007008880000402b006008880080088000bb
:1036ac004400de00634060000081fb008001eb0001
:1036bc00700880008000eb00c002dd0004002000d8
:1036cc00600880008000eb0004004000858048000a
:1036dc00809ab900828bb9008602780005024200fc
:1036ec000010b80001024200840078000001be0006
:1036fc0000a0250021262000e0f407002ef507008d
:10370c00008fbe002142800080ff2f0000806000ef
:10371c000000a000204288000108a9002108a80090
:10372c0011e1a8000080fa00000006000400fa0075
:10373c00881f7800008fbe0021088000f0fc2f004d
:10374c0000806000200888001e0178009e01900017
:10375c000068290081c1240086f4070018c0b3005a
:10376c0002f02f00f3772400d5f407000000e000ee
:10377c0001003c000044eb000804e000540032005f
:10378c0021088000f0fc2f00008060000040a000a9
:10379c00200888001e0178009e0190000068290016
:1037ac0081c1240073f407000200200003102400e0
:1037bc0070f4070018c0b30002f02f00f377240058
:1037cc00bff407000000e00001003c000044eb00e7
:1037dc000804e0003200320021088000f0fc2f00c9
:1037ec00008060000050a000200888001e017800b6
:1037fc009e0190000068290081c124005df407003f
:10380c0002002000032824005af4070018c0b3005b
:10381c0002f02f00f3772400a9f407000000e00069
:10382c0001003c000044eb000804e00010003200f2
:10383c00210880000003200001007000200888008f
:10384c001e0178009e0190000068290081c12400af
:10385c0048f40700020020000338240045f4070058
:10386c0099f4070000007800100888002000370049
:10387c001e0178009e0190000068290081c124007f
:10388c003cf40700020020000328240039f4070050
:10389c008df4070000007800100888001400370031
:1038ac001e0178009e0190000068290081c124004f
:1038bc0030f4070002002000031024002df4070050
:1038cc0081f4070000007800100888000800370019
:1038dc001e0178009e0190000068290081c124001f
:1038ec0024f4070078f40700000078001008880022
:1038fc004f0478000080fa00000006000000fa0077
:10390c0005e1a9000421a900000020008124240065
:10391c0086ff07000068a9002068a80005e1a80040
:10392c000080fa00000006000400fa00881f7800ee
:10393c00008fbe00f1088000f0fc2f0000806000ba
:10394c00f00888001e0178009e0190000068290094
:10395c0081c1240007f4070018c0b30002f02f0047
:10396c00f377240056f407000000e00001003c004f
:10397c000044eb000804e00054003200f108800021
:10398c00f0fc2f00008060000040a000f0088800d0
:10399c001e0178009e0190000068290081c124005e
:1039ac00f4f307000200200003102400f1f30700d9
:1039bc0018c0b30002f02f00f377240040f4070086
:1039cc000000e00001003c000044eb000804e000b3
:1039dc0032003200f1088000f0fc2f000080600003
:1039ec000050a000f00888001e0178009e01900095
:1039fc000068290081c12400def3070002002000ca
:103a0c0003282400dbf3070018c0b30002f02f00da
:103a1c00f37724002af407000000e00001003c00ca
:103a2c000044eb000804e00010003200f1088000b4
:103a3c000003200001007000f00888001e017800cf
:103a4c009e0190000068290081c12400c9f3070081
:103a5c000200200003382400c6f307001af4070004
:103a6c0000007800d0088800200037001e01780084
:103a7c009e0190000068290081c12400bdf307005d
:103a8c000200200003282400baf307000ef40700fc
:103a9c0000007800d0088800140037001e01780060
:103aac009e0190000068290081c12400b1f3070039
:103abc000200200003102400aef3070002f40700fc
:103acc0000007800d0088800080037001e0178003c
:103adc009e0190000068290081c12400a5f3070015
:103aec00f9f3070000007800d00888004f04780034
:103afc000080fa00000006000000fa001fe1a90097
:103b0c001e21a90000002000a147240086ff070009
:103b1c000368a9002368a8001fe1a8000080fa0030
:103b2c00000006000000fa00c301a8000080eb00b2
:103b3c00e00e88000080eb00f00e8800c1e1a800c8
:103b4c000080fa00000006000000fa00c305a8007f
:103b5c000080eb00e02e88000080eb00f02e880047
:103b6c00c1e5a8000080fa00000006000800fa0079
:103b7c00889fbe008a9fbe0020808000318080001c
:103b8c000080880011808800608080007180800037
:103b9c004080880051808800300e80008000eb004f
:103bac00008fbe00500e80008000eb00c000dd00d6
:103bbc00000020001e0f40005e974800302e800051
:103bcc008000eb002007980031079800502e8000f1
:103bdc008000eb00c000dd00000020002e019000f2
:103bec00be0190000200400083804800200798002e
:103bfc00310798001e0078009e009000eef307003d
:103c0c00c2bf2b008378230094f407002080880027
:103c1c00318088002e009000be009000e6f3070073
:103c2c00c2bf2b0083782b008cf4070060808800c7
:103c3c0071808800248080003580800000808000a6
:103c4c00118080000001be000400be00e9f20700f4
:103c5c00808088009180880064808000758080005e
:103c6c0040808000518080000001be000400be0036
:103c7c00e0f20700a0808800b1808800848080007a
:103c8c0095808000a0808000b18080000001be0083
:103c9c000400be00d7f20700f2532300e3e5230033
:103cac0034f30700c0808800d180880084808000b5
:103cbc0095808000a0808000b18080000001be0053
:103ccc000400be00ccf20700020020000300240018
:103cdc0028f30700e0808800f18088008080800055
:103cec009180800002002000a33724005bf40700c1
:103cfc002084880031848800a0808000b1808000fe
:103d0c0002002000a337240054f4070040848800ec
:103d1c005184880024848000358480004084800095
:103d2c00518480000001be000400be00b2f2070006
:103d3c0002002000030024000ef3070060848800ba
:103d4c0071848800c0808000d18080000200200037
:103d5c00a337240041f407008084880091848800f4
:103d6c00e0848000f1848000a0848800b184880005
:103d7c000085800011858000c0848800d184880073
:103d8c004085800051858000208588003185880021
:103d9c00a8848000b98480006084800071848000d5
:103dac0002002000a3372400f2f207000005be0039
:103dbc004085800051858000ecf207000001be00b8
:103dcc000a00be0025f407000001be000800be007a
:103ddc0089f20700e0848800f1848800c8848000a0
:103dec00d9848000608480007184800002002000ef
:103dfc00a3372400dff207000005be0040858000d9
:103e0c0051858000b2f407000001be000a00be001c
:103e1c0012f407000001be000800be0076f2070095
:103e2c0000858800118588004485800055858000b8
:103e3c00c0808000d18080000001be000400be0064
:103e4c006df2070040858800518588004085800010
:103e5c005185800018c0b300b2fd200093042400eb
:103e6c0017f307000000e00001003c000044eb00e9
:103e7c000804e00007003200408580005185800076
:103e8c00b2fd2000930c24005af2070040858800f4
:103e9c0051858800408580005185800018c0b30092
:103eac00b2fd200093042c0003f307000000e00097
:103ebc00010035000044eb000804e000070032006c
:103ecc004085800051858000b2fd2000930c2400b9
:103edc0049f2070040858800518588004f05be00d7
:103eec004f04be000080fa00000006001800fa0023
:103efc0030828000418280000001be008000eb0017
:103f0c000e007800e1000700e0848000f18480005e
:103f1c000001be00410020000e007800c200070026
:103f2c0000858000118580000001be00810020000a
:103f3c000e007800bc000700408580005185800091
:103f4c000001be00c10020000e007800b600070082
:103f5c0060848000718480000001be00010120009b
:103f6c000e007800b00007008084800091848000ef
:103f7c000001be00410120000e007800aa000700dd
:103f8c000e017800810120001006200083fa070042
:103f9c000080fa00000006000400fa00881f780078
:103fac00008fbe0018c0b3006011b8001e0078006e
:103fbc009e009000c2f207000000e00001003d00ee
:103fcc000044eb000804e000030032001e007800ff
:103fdc009e009000030037001e0078009e009000a9
:103fec0001f0a2004f0478000080fa0000000600e7
:103ffc000800fa00881f7800008fbe002207980086
:10400c003307980018c0b3002e019000be01900039
:10401c001e0078009e009000a9f207000000e0004e
:10402c0001003c000044eb000804e00003003200f7
:10403c001e0078009e009000020037002e009000b9
:10404c00be0090004f0478000080fa0000000600cb
:10405c000800fa00881f7800008fbe002207980025
:10406c003307980018c0b3002e019000be019000d9
:10407c001e0078009e0090008ff207000000e00008
:10408c00010035000044eb000804e000030032009e
:10409c001e0078009e009000020037002e00900059
:1040ac00be0090004f0478000080fa00000006006b
:1040bc000c00fa00881f7800008fbe0022079800c1
:1040cc0033079800440798005507980018c0b300b0
:1040dc002e019000be0190001e0078009e00900002
:1040ec0075f207000000e000010035000044eb0011
:1040fc000804e000030032002e009000be00900087
:10410c001000370018c0b3004e019000de01900083
:10411c001e0078009e00900069f207000000e0008d
:10412c0001003c000044eb000804e00003003200f6
:10413c004e009000de009000020037001e00780058
:10414c009e0090004f0478000080fa0000000600ea
:10415c000800fa002007980031079800b2fd2000f3
:10416c00930424002e009000be009000a1f10700e3
:10417c00b2fd2000930c240094f20700b2fd200045
:10418c00930424009cf10700008fbe00b2fd2000b8
:10419c00930424001e0078009e00900096f1070006
:1041ac00b2fd2000930c240088f20700b2fd200021
:1041bc00930424008ff107000080fa000000060031
:1041cc000a00fa003007980041079800be009000e2
:1041dc004e009000008f40001e0078001001780007
:1041ec009001900012079800230798001e00900081
:1041fc00ae0090000080fa00000006000600fa00f5
:10420c0010079800210798009e0090002e00900047
:10421c00008f40001e007800900090001000780085
:10422c000080fa00000006000c00fa00200798003d
:10423c003107980042079800530798006800470020
:10424c00100798000000eb00000f78000a00370000
:10425c003e0090001e004000ae0090000080400028
:10426c009e0078001e019000810041009140780072
:10427c00014878001e0fe8001e007800e30f500084
:10428c00f3ff34000080fa00000006000c00fa0076
:10429c0020079800310798004207980053079800b0
:1042ac0068004700100798000000eb00000f780032
:1042bc000b0037003e0090001e004000ae00900046
:1042cc0000804000320020009e0051001e01900032
:1042dc008100410091407800014878001e0fe800f1
:1042ec001e007800e30f5000f2ff34000080fa004b
:1042fc00000006000c00fa00200798003107980017
:10430c004207980053079800680047001007980070
:10431c000000eb00000f78000a0037003e00900010
:10432c001e004000ae009000008040009e0078000f
:10433c001e019000810041009140780001487800f6
:10434c001e0fe8001e007800e70f5000f3ff34004a
:10435c000080fa00000006000400fa00008fbe0086
:10436c00b2fd2000930424001e0078009e009000f3
:10437c0080f107000200200043332400b7f207004d
:10438c000080fa00000006000400fa00008fbe0056
:10439c00b2fd2000930424001e0078009e009000c3
:1043ac00aef20700020020004333240071f1070035
:1043bc000080fa00000006000000fa001160800086
:1043cc0080ff2f00008060001060880000fa200041
:1043dc002060880023aca800238ca8001161800009
:1043ec00f03f2f000080600000a0a000106188004a
:1043fc003000200020618800c3aca800c38ca8004a
:10440c0011668000f03f2f000080600000a0a0002b
:10441c0010668800300020002066880001eca8009f
:10442c000080fa00000006000600fa00008fbe00b3
:10443c00424798004e4090000004e00005003a000e
:10444c001e0178009e0190004283880053838800ef
:10445c00070037004e409000e14f500004003a0036
:10446c001e0178009e01900002838800138388004f
:10447c000080fa00000006000000fa00889fbe00d1
:10448c008a9fbe0064838000758380004083800017
:10449c005183800018c0b3000001be000400be00b0
:1044ac0085f107000000e000010035000044eb003e
:1044bc000804e0000f00320048838000598380001c
:1044cc006a8380007b83800058d0bf000080fb0093
:1044dc00cf80de00b8f107000001be000a00be006c
:1044ec00c5f007000801be00d9fe070060838800f4
:1044fc007183880064838000758380004083800012
:10450c005183800018c0b3000001be000400be003f
:10451c006bf107000000e00001003c000044eb00e0
:10452c000804e0000f0032004883800059838000ab
:10453c006a8380007b83800058d0bf000080fb0022
:10454c00cf80de009cf107000001be000a00be0017
:10455c00a8f007000801be00a5fe070060838800d4
:10456c0071838800608380007183800018c0b30061
:10457c006011b80052f107000000e00001003c009f
:10458c000044eb000804e00004003200c3cca90096
:10459c0024eea800c3eca80003003700c3eca9006c
:1045ac0024cea800c3cca800608380007183800057
:1045bc0079fe0700020020000322240027f20700e6
:1045cc0062f10700000078003066880024838000c8
:1045dc0035838000008380001183800018c0b300f5
:1045ec000001be000400be0033f107000000e00033
:1045fc00010035000044eb000804e0000f0032001d
:10460c0008838000198380002a8380003b8380000c
:10461c0058d0bf000080fb00cf80de0066f10700a1
:10462c000001be000a00be0073f007000801be00c6
:10463c0087fe070020838800318388002483800054
:10464c0035838000008380001183800018c0b30084
:10465c000001be000400be0019f107000000e000dc
:10466c0001003c000044eb000804e0000f003200a5
:10467c0008838000198380002a8380003b8380009c
:10468c0058d0bf000080fb00cf80de004af107004d
:10469c000001be000a00be0056f007000801be0073
:1046ac0053fe07002083880031838800208380001c
:1046bc003183800018c0b3006011b80000f107000e
:1046cc000000e00001003c000044eb000804e000a6
:1046dc000400320023eca90015cea80023cca800be
:1046ec000300370023cca90015eea80023eca8008a
:1046fc00208380003183800027fe07000200200009
:10470c0003222400d5f1070010f107000000780007
:10471c00306188004f05be004f04be000080fa00d7
:10472c00000006000600fa00100798002107980008
:10473c000040eb00004f780054000700ae009000e2
:10474c00810f5000110034000040eb00004f780046
:10475c00060037001e80fb009e0090000080400089
:10476c00104078000b0007001e4fe8009e80fb00f5
:10477c002e009000808f5000f6ff35002e000700b1
:10478c000004e00001003a00220007000080fa005b
:10479c00000006000200fa00004f780070828000d2
:1047ac00c1102100008040001e48780070828000fb
:1047bc000000e8007082880071828000f007200001
:1047cc00808f5000010034004e30ef000080fa0062
:1047dc00000006000200fa0080828000c110210057
:1047ec0000804000104f7800808280000000e800bc
:1047fc008082880081828000f0072000808f50002a
:10480c00010034005030ef001e4078000080fa00a8
:10481c00000006000200fa0010c0b30052f0b7000e
:10482c00ecff0700004f78001e80fb002011880071
:10483c000080fa00000006000000fa0052d0bf0011
:10484c000080fa00000006000200fa00718280006d
:10485c0080828000808f50000400350071828000bf
:10486c0080828000008f500005003700718280002c
:10487c00808280000080500001082000010f400061
:10488c001e0078000080fa00000006000200fa000a
:10489c00edff070001082000008f50001e0078007b
:1048ac000080fa00000006000000fa0021e3a900d5
:1048bc002143a80001198000f0cf2f000080600078
:1048cc00001988002043a90001198000000e200067
:1048dc00010070000019880011198000f0ff210000
:1048ec0000806000101988002343a8001119800073
:1048fc00f0cf2f0000806000101988001119800083
:10490c0030f82f00008060000040a00010198800d3
:10491c002203a9002223a90025e3a900f0c0b300bb
:10492c0024e3b70021198000f00f2e008080600076
:10493c0000f0200001007000201988003303a9004a
:10494c002e0ea8002f6ea8006f2ea8001e2ea800f9
:10495c004feea80030c3a8003163a8002e03a800b6
:10496c003063a80031e3a8004119800000fc2f003f
:10497c00008060004019880028e3a90001a8a90064
:10498c0021a8a80021e3a8000080fa00000006007e
:10499c000000fa002023a8000080fa0000000600a6
:1049ac000000fa00402f21000080fa0000000600f1
:1049bc000000fa005bd0bf000080fa000000060087
:1049cc000000fa005b70ef000080fa0000000600a7
:1049dc000200fa00004f78002a0007000000e000f7
:1049ec000c003400a0828000c1182100008040001f
:1049fc001e487800a08280000000e800a082880099
:104a0c00a1828000f0072000808f5000010034004c
:104a1c005430ef000080fa00000006000200fa009b
:104a2c00b0828000c118210000804000104f780037
:104a3c00b08280000000e800b0828800b182800063
:104a4c00f0072000808f5000010034005630ef003a
:104a5c001e4078000080fa00000006000000fa00fa
:104a6c00a1828000b0828000808f50000200320052
:104a7c0010c0b300010037000040eb000080fa00ca
:104a8c00000006000200fa000500070001082000e3
:104a9c00008f50001e0078000080fa000000060015
:104aac000200fa00a1828000b0828000808f50004a
:104abc0004003500a1828000b0828000008f50007d
:104acc0005003700a1828000b08280000080500079
:104adc0001082000010f40001e0078000080fa0041
:044aec0000000600c0
:020000040000fa
:104af000201000000e000000800000002e100000ba
:104b00000e000000820000000100e8000323000006
:104b10001900050000190000010000004610000007
:104b200008000000800000005e100000ae000000e1
:104b30008000000058100000020000008200000009
:104b400001000000f41200000a00000080000000d4
:104b50005a10000002000000800000000c1100004c
:104b600080000000800000004e10000006000000e1
:104b7000800000008c110000800000008000000018
:104b80005410000004000000800000000c1200001f
:104b900080000000800000003c1000000a000000bf
:104ba00080000000001000002000000080000000d5
:104bb0008c12000068000000800000005c10000003
:0c4bc00002000000800000000000000067
:020000040000fa
:104bcc000000fa002002a9000111800090ff2f00c4
:104bdc00008060000011880020a2a9002062a800bb
:104bec00500520004011880023a2a90023e2a9004f
:104bfc000188a9002188a80011118000f0f32f0072
:104c0c0000806000101188000168a9002168a800cc
:104c1c0021e2a8002342a8000080fa000000060050
:104c2c000600fa0010079800210798000040eb00de
:104c3c00004f78000040eb00004f78000e0037006a
:104c4c000000000011118000002020000080600096
:104c5c000000e000fbff3a001e00900010407800be
:104c6c000080fb00201188001e0090000000e8006e
:104c7c00100798001e4fe8009e80fb002e0090004d
:104c8c00808f5000eeff35000080fa000000060017
:104c9c000000fa000e2eef001e2eef002e2eef005d
:104cac003e2eef004e2eef005e2eef006e2eef002c
:104cbc00214ea90060cea90060eea90011cea9007a
:104ccc0011eea90020cea90020eea900213680000b
:104cdc0000f82f00008060008001b30020368800af
:104cec001134800000fc2f00008060000000a00048
:104cfc00103488000136800000f82f00808060009e
:104d0c00100620000100700000368800013680007b
:104d1c00f00f280080806000000026000100700069
:104d2c0000368800e135800000f82f00808060009c
:104d3c006004200001007000e0358800e13580003f
:104d4c00f00f2800808060000050240001007000eb
:104d5c00e03588000080fa00000006000000fa0030
:104d6c00f0032000303a8800213a8000f0f32f0045
:104d7c0000806000203a8800213a800000fe2f005d
:104d8c00008060000000a000203a88001200200083
:104d9c0080072000a109200033742000804978008e
:104dac008149780082497800103a8000000178002f
:104dbc000200a00060042000710520002374200074
:104dcc008049780081497800824978000000000011
:104ddc00113a800000002700808060000000210054
:104dec00808f5000faff3a0000000000113a80005a
:104dfc0000022000008060000000e000fbff320099
:084e0c000080fa00000006001e
:020000040000fa
:02000004000af0
:04afe000cfff00009f
:020000040000fa
:02000004000af0
:04afe400ffff00006b
:020000040000fa
:02000004000af0
:04afe8007fff0000e7
:020000040000fa
:02000004000af0
:04afec005fff000003
:020000040000fa
:02000004000af0
:04aff00038ff000026
:020000040000fa
:02000004000af0
:04aff400ffff00005b
:00000001FF
