:020000040000fa
:080000000002040000000000f2
:020000040000fa
:04000800f8030000f9
:020000040000fa
:04000c00f8030000f5
:020000040000fa
:04001000f8030000f1
:020000040000fa
:04001400f8030000ed
:020000040000fa
:04001800f8030000e9
:020000040000fa
:04001c00f8030000e5
:020000040000fa
:04002000f8030000e1
:020000040000fa
:04002400f8030000dd
:020000040000fa
:04002800f8030000d9
:020000040000fa
:04002c00f8030000d5
:020000040000fa
:04003000f8030000d1
:020000040000fa
:0400340002030000c3
:020000040000fa
:04003800f8030000c9
:020000040000fa
:04003c00f8030000c5
:020000040000fa
:04004000f8030000c1
:020000040000fa
:04004400f8030000bd
:020000040000fa
:04004800fa020000b8
:020000040000fa
:04004c00f8030000b5
:020000040000fa
:04005000f8030000b1
:020000040000fa
:04005400b4030000f1
:020000040000fa
:040058008a03000017
:020000040000fa
:04005c006603000037
:020000040000fa
:04006000f8030000a1
:020000040000fa
:04006400f80300009d
:020000040000fa
:04006800f803000099
:020000040000fa
:04006c00f803000095
:020000040000fa
:04007000f803000091
:020000040000fa
:04007400f80300008d
:020000040000fa
:04007800f803000089
:020000040000fa
:04007c00f803000085
:020000040000fa
:04008000f803000081
:020000040000fa
:04008400f80300007d
:020000040000fa
:04008800f803000079
:020000040000fa
:04008c00f803000075
:020000040000fa
:04009000f803000071
:020000040000fa
:040094003c03000029
:020000040000fa
:04009800f803000069
:020000040000fa
:04009c00f803000065
:020000040000fa
:0400a000f803000061
:020000040000fa
:0400a400f80300005d
:020000040000fa
:0400a800f803000059
:020000040000fa
:0400ac00f803000055
:020000040000fa
:0400b000f803000051
:020000040000fa
:0400b400f80300004d
:020000040000fa
:0400b800f803000049
:020000040000fa
:0400bc00f803000045
:020000040000fa
:0400c000f803000041
:020000040000fa
:0400c400f80300003d
:020000040000fa
:0400c800f803000039
:020000040000fa
:0400cc00f803000035
:020000040000fa
:0400d000f803000031
:020000040000fa
:0400d400f80300002d
:020000040000fa
:0400d800f803000029
:020000040000fa
:0400dc00f803000025
:020000040000fa
:0400e000f803000021
:020000040000fa
:0400e400f80300001d
:020000040000fa
:0400e800f803000019
:020000040000fa
:0400ec00f803000015
:020000040000fa
:0400f000f803000011
:020000040000fa
:0400f400f80300000d
:020000040000fa
:0400f800f803000009
:020000040000fa
:0400fc00f803000005
:020000040000fa
:04010000f803000000
:020000040000fa
:04010400f8030000fc
:020000040000fa
:04010800f8030000f8
:020000040000fa
:04010c00f8030000f4
:020000040000fa
:04011000f8030000f0
:020000040000fa
:04011400f8030000ec
:020000040000fa
:04011800f8030000e8
:020000040000fa
:04011c00f8030000e4
:020000040000fa
:04012000f8030000e0
:020000040000fa
:04012400f8030000dc
:020000040000fa
:04012800f8030000d8
:020000040000fa
:04012c00f8030000d4
:020000040000fa
:04013000f8030000d0
:020000040000fa
:04013400f8030000cc
:020000040000fa
:04013800f8030000c8
:020000040000fa
:04013c00f8030000c4
:020000040000fa
:04014000f8030000c0
:020000040000fa
:04014400f8030000bc
:020000040000fa
:04014800f8030000b8
:020000040000fa
:04014c00f8030000b4
:020000040000fa
:04015000f8030000b0
:020000040000fa
:04015400f8030000ac
:020000040000fa
:04015800f8030000a8
:020000040000fa
:04015c00f8030000a4
:020000040000fa
:04016000f8030000a0
:020000040000fa
:04016400f80300009c
:020000040000fa
:04016800f803000098
:020000040000fa
:04016c00f803000094
:020000040000fa
:04017000f803000090
:020000040000fa
:04017400f80300008c
:020000040000fa
:04017800f803000088
:020000040000fa
:04017c00f803000084
:020000040000fa
:04018000f803000080
:020000040000fa
:04018400f80300007c
:020000040000fa
:04018800f803000078
:020000040000fa
:04018c00f803000074
:020000040000fa
:04019000f803000070
:020000040000fa
:04019400f80300006c
:020000040000fa
:04019800f803000068
:020000040000fa
:04019c00f803000064
:020000040000fa
:0401a000f803000060
:020000040000fa
:0401a400f80300005c
:020000040000fa
:0401a800f803000058
:020000040000fa
:0401ac00f803000054
:020000040000fa
:0401b000f803000050
:020000040000fa
:0401b400f80300004c
:020000040000fa
:0401b800f803000048
:020000040000fa
:0401bc00f803000044
:020000040000fa
:0401c000f803000040
:020000040000fa
:0401c400f80300003c
:020000040000fa
:0401c800f803000038
:020000040000fa
:0401cc00f803000034
:020000040000fa
:0401d000f803000030
:020000040000fa
:0401d400f80300002c
:020000040000fa
:0401d800f803000028
:020000040000fa
:0401dc00f803000024
:020000040000fa
:0401e000f803000020
:020000040000fa
:0401e400f80300001c
:020000040000fa
:0401e800f803000018
:020000040000fa
:0401ec00f803000014
:020000040000fa
:0401f000f803000010
:020000040000fa
:0401f400f80300000c
:020000040000fa
:0401f800f803000008
:020000040000fa
:0401fc00f803000004
:020000040000fa
:04020000f8030000ff
:020000040000fa
:04020400f8030000fb
:020000040000fa
:04020800f8030000f7
:020000040000fa
:04020c00f8030000f3
:020000040000fa
:04021000f8030000ef
:020000040000fa
:04021400f8030000eb
:020000040000fa
:04021800f8030000e7
:020000040000fa
:04021c00f8030000e3
:020000040000fa
:04022000f8030000df
:020000040000fa
:04022400f8030000db
:020000040000fa
:04022800f8030000d7
:020000040000fa
:04022c00f8030000d3
:020000040000fa
:04023000f8030000cf
:020000040000fa
:04023400f8030000cb
:020000040000fa
:04023800f8030000c7
:020000040000fa
:04023c00f8030000c3
:020000040000fa
:04024000f8030000bf
:020000040000fa
:04024400f8030000bb
:020000040000fa
:04024800f8030000b7
:020000040000fa
:04024c00f8030000b3
:020000040000fa
:04025000f8030000af
:020000040000fa
:04025400f8030000ab
:020000040000fa
:04025800f8030000a7
:020000040000fa
:04025c00f8030000a3
:020000040000fa
:04026000f80300009f
:020000040000fa
:04026400f80300009b
:020000040000fa
:04026800f803000097
:020000040000fa
:04026c00f803000093
:020000040000fa
:04027000f80300008f
:020000040000fa
:04027400f80300008b
:020000040000fa
:04027800f803000087
:020000040000fa
:04027c00f803000083
:020000040000fa
:04028000f80300007f
:020000040000fa
:100400004f2321000eff2c000e0188000000000089
:10041000000020000000e000020032000001200087
:100420002002880014000700f30007000000e0002d
:1004300003003a00c029220001002000020037001a
:100440000000200001002000810f70000100320038
:100450000f000700000020000000e0000200320052
:10046000000002000000000044090200000000003b
:100470000040da000000fe00200020000000e00044
:1004800002003200100020009001880000000600e9
:10049000a1028800800478000000eb001f003700f4
:1004a000e284440054a0b4009905ba00e2844400f8
:1004b00054a0b4009906ba00e284440054a0b400e9
:1004c0000006eb00476fde00fd07b200ae018800ba
:1004d000636ce10003003a000ad801000000eb0061
:1004e0000e003700606ce10008003a00004deb00a0
:1004f0000a05e800020039003420ec000af0a000f0
:100500008b05e900f9ff3e00040037006168e10057
:10051000010032000086eb000b00070019c7ba008b
:100520000e04e0001905ba0003003a000a00e000da
:10053000dbff3a0000000600fe07b200ae028800b2
:100540008a047800f5ff37000cd0a300e20f4d00bd
:100550001c00390089027800354dba000a05e80010
:10056000020039003420ec000af0a0008b05e900fd
:100570000f003200254dba000a05e80002003900dc
:100580003420ec000af0a0008b05e90008003200de
:100590000c00e0000600320015cdba000a05e800a4
:1005a000020039003420ec000af0a0008b05e900bd
:1005b0008984e80054a0b4000b00e000e2ff3a0098
:1005c000000006009902ba00055d78008b05e9007d
:1005d000f7ff3200c82ade00055d78008b05e900d0
:1005e000f3ff32000c00e000f1ff320019ddba0029
:1005f000eeff37000000fa000108a9000080fa00b1
:10060000004006003600f800809fbe00829fbe00ba
:10061000849fbe00869fbe000000fa000068a9000b
:10062000f60d07003b0f0700b10b07004182800069
:10063000a000200000017800110009008200d8000d
:100640008000fd000000e00001003a00880c070077
:10065000408280000000e800408288000080fa00ac
:100660004f03be004f02be004f01be004f00be0050
:100670003600f900004006003600f800809fbe00fa
:10068000829fbe00849fbe00869fbe000000fa00cd
:100690000368a90020828000318280006100400050
:1006a000e08048002082880031828800df03070054
:1006b0000080fa004f03be004f02be004f01be0093
:1006c0004f00be003600f90000400600801f780091
:1006d0000000fa0001a8a9000018800050918800cd
:1006e00010188000609188002018800070918800a8
:1006f0003018800080918800401880009091880018
:1007000010c0b30059f0b7000080fa004f00780025
:10071000004006003600f800809fbe00829fbe00a9
:10072000849fbe00869fbe000000fa000188a900d9
:100730007182800060828000808f50000200320051
:10074000950e0700010037005070ef000080fa009e
:100750004f03be004f02be004f01be004f00be005f
:100760003600f900004006003600f800809fbe0009
:10077000829fbe00849fbe00869fbe000000fa00dc
:100780000168a90010118000640060000000e00012
:10079000010032002242a9001011800062006000b6
:1007a0000000e000060032002222a9000500370008
:1007b0003011800000407800e60e0700010037008d
:1007c0000000000010118000610060000000e000e7
:1007d000f7ff3a000080fa004f03be004f02be0050
:1007e0004f01be004f00be003600f9000040060079
:1007f0000040da000000fe000000050003f0a20047
:10080000889fbe008a9fbe008c1f78007d01070074
:10081000840133006450e1004f0032006420e100a5
:100820005200320003826c0007003b000905d00033
:100830000306d000820f54000c065d000200390050
:100840000200320089017800030678008582550095
:1008500004003d000003fd008103fd008502ea0065
:100860008b854200840f720002003b006000100084
:10087000e08018006011b8000005eb007a28e10064
:100880000a00390006007800c75ddd00f707b200f6
:10089000878075002d003700828171000a01780081
:1008a000610560008180d1000080d3008502e900ed
:1008b000f9ff3b00060440008784480002003b002b
:1008c00060041400e0841c000988a30007003200c3
:1008d0008a81710082817100610164008904d10004
:1008e0000884d3008b05e800170037000978a300bf
:1008f00013003a000b00e000130034008b05e90000
:100900000804440089844c000a4474000978a30058
:100910000d003a000b00e000070034008b05e900f1
:100920000804440089844c0001003a000b002000b8
:100930000978a300f7ff32000001eb000200370046
:10094000828171000a017800f30007000cf0a70013
:1009500001f0a0003c0137006420e10002003a00f1
:10096000838f6c003c0133000801be000200be0012
:10097000350137000081eb006e013700889fbe0013
:100980008a9fbe008c1f78001e01070025013300de
:1009900003866c006450e1002e0032006420e10008
:1009a000330032006150e1002f0032006120e1008d
:1009b0003100320085855500eb07b00009002000aa
:1009c00008042000050037000804440089844c0016
:1009d0000a0031000603430087834b0000015300e7
:1009e00081815b00f8ff33000203be000800a00015
:1009f0000804440089844c00f6ff3900c639dd0044
:100a00008301730001003200130020008904d1002b
:100a10000884d3000998a300050032000800a7004d
:100a20000300a0008904d1000884d3008b05e800ee
:100a30008904d1000884d3000001eb000281d200b8
:100a4000b500070001f0a1000cf0a70001f0a00024
:100a5000fd0037006420e100ff0032000801be0005
:100a60000200be00f7ff37006120e100fa0032000b
:100a70006000b800f3ff37000000200001f82700f5
:100a8000f0ff3700839f68000100e00002003d0096
:100a900060001000e08018000300e00002003d004c
:100aa00060011100e08119008d0107004f00e00096
:100ab00002003b0060001000e0801800000006000b
:100ac0001400200096013700f4ff2f009401370036
:100ad0000001be00b60007000470a70003f0a100eb
:100ae0006509b100160032000d0035006828e100ec
:100af00006003500f0ff2f00f1ff27000300e000a3
:100b000013003b0001002800000005000000400029
:100b1000818048008502e900fcff3a0008003700a8
:100b2000f88f420002003c008000eb00000005004e
:100b30008100d1000080d3008502e800fcff3a006c
:100b40000300e00002003b0060001000e08018009d
:100b5000000006000001be00950007000470a70019
:100b600003f0a10003f8a30013003a006509b100e7
:100b700010003200090035006928e100020035004c
:100b800001002800000005000000400081804800ae
:100b90008502e900fcff3a0000000600f88f4200e1
:100ba000050035008100d1000080d3008502e800f7
:100bb000fcff3a00000006008000eb00000005008a
:100bc0004f89de0082017800700137006011b800a3
:100bd0007e0137000400200000003700889fbe001f
:100be0008a9fbe008c1f78004f26dd00850007001d
:100bf0008c0033006120e100430032006250e100cc
:100c000041003e003e0039006420e1003c0032001b
:100c1000058255000f003b000402e80038003a004e
:100c2000800f5300818f5b00350034000800be0048
:100c300003f0a10001f0a60003f0a0000cf0a70053
:100c4000effe0700800037000603430087834b0058
:100c50000c4646000005530081855b00020033000e
:100c60000a03be000c00a0000402e900f6ff3b00ee
:100c7000850578000602430087824b0004003a0095
:100c80006000b80009f0a70001f0a0006e00370076
:100c90000002520081825a000704e0000400330081
:100ca0000603430087834b008b05e900faff3700fa
:100cb000090578000604be000203be006011b800fa
:100cc00015000700e00f5200e08f5a0007003500c2
:100cd00002003c000c08a300040032000601be0024
:100ce00003f0a0000cf0a700c5fe07000a8568000d
:100cf00001f0a1000af0a70001f0a00052003700a7
:100d00000800be0050003700100220000cf0a600c2
:100d1000d08288005000370081002000618055009b
:100d20000b003d000b00200061fe2f000100e100e0
:100d30001d00340082817100610164008904d100ca
:100d40000884d3000000e800faff3a007100200098
:100d500061006400030070000200600009003200be
:100d600061044400e0844c000988a50005003200bd
:100d70008b05e8006808e10002003a008904d10010
:100d80000884d300f20f20000258e10005003d0066
:100d9000c75ddd00f907b2008980750008007800a2
:100da000000006000bf827008b007800000005000b
:100db000c70ade00f107b200f50fb20008003200ea
:100dc000e1cf4200020032000170a00024000500c3
:100dd000810f700001003200040805004400050086
:100de000810f700002003a00140005008502e9003e
:100df0000000400081c04800fcff3b000170a000e3
:100e0000240005000004be00e9ff07000003be0047
:100e10000405be000200be00e5ff0700844f750018
:100e2000000006000200be006450e100050036002c
:100e30006420e100020036000968a30001003a00c6
:100e40000800be000160a0004f0678004f05be00fc
:100e50004f04be0000000600f0ff2f00f1ff270046
:100e6000f9ff3700889fbe008a9fbe008c1f780064
:100e7000e4ff0700ebff330003866c006450e100e1
:100e8000240032006420e100270032006150e100bc
:100e9000220032006120e100210032008b854200f7
:100ea000eb07b1000134b800003ab8000804420072
:100eb00089844a00013ab8000030b80088804000b8
:100ec00009014a000400330000004000818048000e
:100ed000020149008b05e900c909dd0083017000aa
:100ee0000100320013002000c814de004814dd00a9
:100ef0004709de001200b200c808de000884700056
:100f000085ff070001f0a1000cf0a70001f0a00090
:100f1000cdff37006120e100cfff32000801be00a5
:100f20000200be00f7ff37006150e100fcff3a000d
:100f3000c9ff3700889fbe008a9fbe008c9fbe00fd
:100f4000820578000004be0099ff07000800be007b
:100f50006420e1000700390002003a00f1ff270099
:100f6000f0ff2f000160a00012022000d282880052
:100f7000550037006120e10003003a000b00a70094
:100f800001f823005000370001f0a1000200210009
:100f900093642400cafe07000800be000400350068
:100fa000b2fd2000930c24000aff07000004be00dd
:100fb0000005eb000b00a6004f0dde0001f0a100c4
:100fc0000004be0032982f0023ea2300a5ff07008b
:100fd0000001eb0003f023000b00a70003f823003f
:100fe00007fe0700bafe07000000a7000a00a200e3
:100ff000f3fe07000b00e0000300320002002000b7
:1010000003f02300fdfd070001f0a2000006be0072
:10101000020020009304240092ff07000801be0094
:10102000f7fd0700809fbe000c00be0022a22a0030
:10103000d3a723008bff07004f01be00f0fd070080
:101040000004be0001f0a10002002000039823006c
:101050009bfe07000800be00190035000001be001d
:1010600080ff07000006be00b2c52900e36223002e
:101070007cff070022222b00f3942b00e0fd0700e9
:101080000c01be0077ff0700e273280083c0230035
:10109000dbfd07000c01be0072ff070042aa2a0018
:1010a000a3e22b00d6fd07000c01be006dff070078
:1010b0000801be006bff07000801be00d0fd07005d
:1010c0000a00a70001f0a2004f06be004f05be00b7
:1010d0004f04be00000006000001eb0095ff370042
:1010e0006022b800060220000000d0008180d200fb
:1010f0000482d2008582d2000000a00002025200c9
:1011000083825a00030031000202420083824a00b7
:101110000000a1000603e900f3ff3a00000006000a
:10112000889fbe008a9fbe00841f780035ff07009d
:101130004f00780011003300f0ff2f00838f6c0008
:1011400006003b00040565000a00a7000800370000
:1011500009f0a6001000200008003700820f54009c
:10116000838f5c00030039001000200001003e0066
:101170000000200009f0a7000000ea004f05be00b3
:101180004f04be000000e00000000600881f780049
:10119000030478000300e00007003d006000100039
:1011a000e080180060011900e081190002003b0096
:1011b00001f02d00030037000400070008f0a7002d
:1011c00001f0a0004f04780000000600889fbe00d8
:1011d0008a9fbe00008270000402710004827100c8
:1011e000260032000004be000200be006011b800fc
:1011f0006b092000950220000182cf000a0039000f
:101200000541b1000082cf00070039000541b1005f
:101210000982cf00040039000541b1000882cf00e7
:10122000010039000541b1000542520012003200b0
:101230000a003b0082817100610164008100d100dd
:101240000080d3008984d3000884d3008b05e80094
:101250000442e800f7ff3a000700370008044400a2
:1012600089844c0000004800818048008b05e9001b
:101270000442e900f9ff3a00a7fe07004f05be004f
:081280004f04be00000006004f
:020000040000fa
:101288001600fa00889fbe008a9fbe000f0d070057
:10129800db0c070051070700f7070700a50a07003e
:1012a800e00b0700730807006d0c07007c080700b7
:1012b80084080700190c0700100798001b0c07008a
:1012c800e14f5000bc003a001c0c0700130c07004b
:1012d800200798002e009000680040001000780059
:1012e8008000eb0037fe070032332300330524006b
:1012f800dafe070002002000035824009dfd0700c5
:10130800d2cc2c00c3042400d4fe07003007980078
:10131800410798003e019000ce0190000000200097
:101328008120240093fd070002002000030a240006
:1013380030fd0700708f8800818f88002e00900094
:1013480066004000100078008000eb001dfe0700da
:101358003233230033052400c0fe070002002000ba
:101368000358240083fd0700d2cc2c00c3042400ba
:10137800bafe070030079800410798003e01900028
:10138800ce019000000020008120240079fd070094
:1013980002002000030a240016fd0700d08f8800f1
:1013a800e18f88002e009000640040001000780053
:1013b8008000eb0003fe07003233230033052400ce
:1013c800a6fe0700020020000358240069fd07005c
:1013d800d2cc2c00c3042400a0fe070030079800dc
:1013e800410798003e019000ce01900000002000c7
:1013f800812024005ffd070002002000030a24006a
:10140800fcfc0700908f8800a18f88002e009000b8
:101418000080e800100078008000eb00e9fd07007c
:1014280032332300330524008cfe0700020020001d
:10143800035824004ffd0700d2cc2c00c30424001d
:1014480086fe070030079800410798003e0190008b
:10145800ce019000000020008120240045fd0700f7
:1014680002002000030a2400e2fc0700b08f880075
:10147800c18f88002e009000100078008000eb00db
:10148800d0fd0700323323003305240073fe070024
:10149800020020000358240036fd0700d2cc2c009f
:1014a800c30424006dfe0700300798004107980028
:1014b8003e019000ce019000000020008120240011
:1014c8002cfd070002002000030a2400c9fc0700c5
:1014d800f08f880001908800b08f8000c18f800055
:1014e80079fd07000040780080457800908f8000e3
:1014f800a18f800074fd0700004078000045780047
:10150800708f8000818f80006ffd07000040780099
:1015180080447800d08f8000e18f80006afd07004a
:101528000040780000447800f08f8000019080002f
:1015380065fd0700004078007b4f98000a57980027
:1015480019579800285798003057980060002000d5
:10155800500798006f00470000017800de009000f7
:101568000003200005050700308f8000418f8000b0
:10157800e808070054fd07000040780000447800a0
:10158800f08e8000018f8000e20807004efd070002
:1015980000407800485798005057980030002000c5
:1015a800600798007400470000017800ee00900082
:1015b80000042000f1040700870b07000004e00086
:1015c8000b0032000000eb00000f78000500370028
:1015d800710b0700604f98006e48900047050700a0
:1015e8001e0fe8008d0b07009e0f5000f8ff3c000f
:1015f80071818000a000200000017800110009001e
:101608008200d8008000fd000000e00001003a00e0
:101618002e30ef00708180000000e80070818800a3
:1016280024ff37000000fa0032d0bf000080fb0022
:10163800cf80de007201200003002000820f5000de
:10164800838f5800fb003e0000060100170037009a
:101658002000370029003700370037003e003700e8
:10166800470037004e003700570037005e0037004c
:10167800680037006f00370079003700de00370058
:10168800ec003700eb003700ea0037007c00370039
:10169800860037008d003700970037009e0037001e
:1016a800aa003700c5003700b70037004430ef0004
:1016b8004630ef000041eb006000b800b9090700b0
:1016c80012c0b3006000b800b609070010c0b3002c
:1016d80032f0b7002282800033828000803e2000f2
:1016e80001002000800f5100818f5900d40036007e
:1016f80020c0b30032f0b700da003700a0818000c4
:101708000000ea00cf80de002bfd07000041eb005f
:10171800a4090700a08180000000ea00cf80de0055
:1017280025fd070012c0b3009e09070030c0b300b2
:1017380032f0b700cb00370000818000e10f500085
:1017480002003a00c9000700c6003700c0c0b30055
:1017580032f0b700c30037000041eb006000b8006a
:101768009009070012c0b3000000200001152400f2
:101778008c09070050c0b30032f0b700b900370039
:1017880000818000e10f500002003a00b700070016
:10179800b4003700c0c0b30032f0b700b100370062
:1017a8000041eb0000002000011524007d0907001e
:1017b80012c0b3006000b8007a09070070c0b30017
:1017c80032f0b700a700370000818000e10f500019
:1017d80002003a00a5000700a2003700c0c0b3000d
:1017e80032f0b7009f0037000041eb0000002000f6
:1017f80001152c006b09070012c0b300000020007f
:10180800011524006709070090c0b30032f0b70043
:101818009400370000818000e10f500002003a0078
:10182800920007008f003700c0c0b30032f0b70045
:101838008c0037000041eb00000020000115240057
:101848005809070012c0b3000000200001152c0041
:1018580054090700b0c0b30032f0b7008100370068
:1018680000818000e10f500002003a007f0007006d
:101878007c003700c0c0b30032f0b70079003700f1
:101888000041eb0000002000010a2c004509070078
:1018980012c0b30000002000011524004109070010
:1018a80010c1b30032f0b7006e003700008180002d
:1018b800e10f500002003a006c0007006900370091
:1018c800c0c0b30032f0b700660037000041eb003b
:1018d80000002000011524003209070012c0b300df
:1018e80000002000010a2c002e09070030c1b300b7
:1018f80032f0b7005b00370000818000e10f500034
:1019080002003a005900070056003700c0c0b30073
:1019180032f0b700530037004430ef004630ef0094
:101928000041eb0000002000011a24001d090700f7
:1019380012c0b30000002000011a2c00190907008a
:1019480050c1b30032f0b700460037001081800064
:101958006101b9002082800031828000800f51002f
:10196800818f59003800310000818000e10f50005c
:1019780002003a003d0007003a003700c0c0b3003b
:1019880032f0b700370037004430ef004630ef0040
:101998000041eb0000002000011a240001090700a3
:1019a80012c0b30000002000011a2c00fd08070037
:1019b80060c1b30032f0b7002a0037001081800000
:1019c8006101b9002082800031828000800f5100bf
:1019d800818f59001e00310000818000e10f500006
:1019e80002003a00210007001e003700c0c0b30003
:1019f80032f0b7001b003700008180000000e000d3
:101a080015003a00808180000000e00014003a00d0
:101a18000041eb006000b800e208070012c0b30004
:101a28006000b800df0807001000200080818800ef
:101a38000c0037003270ef0000000000090037008a
:101a48000000000007003700000000000500370014
:101a5800000000000300370000000000010037000c
:101a6800000000000080fa00000006000a00fa00ea
:101a7800889fbe008a1f78000040eb00004f780066
:101a88003030ef00f88f800009908000508180008e
:101a9800cf80de0048fc07001ac0b3000001be007a
:101aa8000800be0004fc07000000e000010035004b
:101ab8000045eb000a04e00003003200b0c0b300a8
:101ac800004f780082023700d88f8000e98f8000ad
:101ad80050818000cf80de0037fc07001ac0b300b9
:101ae8000001be000800be00f3fb07000000e00094
:101af800010035000045eb000a04e0000300320055
:101b0800a0c0b300004f780071023700f88f800042
:101b18000990800040818000cf80de0026fc07000d
:101b28001ac0b3000001be000800be00e2fb0700b7
:101b38000000e000010035000045eb000a04e00069
:101b48003b003200788f8000898f800020818000e0
:101b5800cf80de0018fc07001ac0b3000001be00e9
:101b68000800be00d6fb07000000e00001003c00b2
:101b78000045eb000a04e0002d003200988f800039
:101b8800a98f800030818000cf80de000afc07002a
:101b98001ac0b3000001be000800be00c8fb070061
:101ba8000000e00001003c000045eb000a04e000f2
:101bb8001f003200b88f8000c98f8000208180000c
:101bc800cf80de00fcfb07001ac0b3000001be0096
:101bd8000800be00bafb07000000e00001003c005e
:101be8000045eb000a04e00011003200d88f8000a5
:101bf800e98f800040818000cf80de00eefb070087
:101c08001ac0b3000001be000800be00acfb07000c
:101c18000000e00001003c000045eb000a04e00081
:101c280003003200b0c0b300004f7800280237002c
:101c3800f88f80000990800040818000cf80de000e
:101c4800ddfb07001ac0b3000001be000800be009b
:101c58009bfb07000000e00001003c000045eb0092
:101c68000a04e0003b003200788f8000898f8000f2
:101c780020818000cf80de00cffb07001ac0b300b0
:101c88000001be000800be008dfb07000000e00058
:101c980001003c000045eb000a04e0002d00320082
:101ca800988f8000a98f800030818000cf80de006f
:101cb800c1fb07001ac0b3000001be000800be0047
:101cc8007ffb07000000e00001003c000045eb003e
:101cd8000a04e0001f003200b88f8000c98f80001e
:101ce80020818000cf80de00b3fb07001ac0b3005c
:101cf8000001be000800be0071fb07000000e00004
:101d080001003c000045eb000a04e000110032002d
:101d1800d88f8000e98f800040818000cf80de006e
:101d2800a5fb07001ac0b3000001be000800be00f2
:101d380061fb07000000e000010035000045eb00f2
:101d48000a04e00003003200a0c0b300004f78008e
:101d5800df013700d88f8000e98f80004081800044
:101d6800cf80de0094fb07001ac0b3000001be005c
:101d78000800be0050fb07000000e000010035002d
:101d88000045eb000a04e0003b003200f88f8000b9
:101d98000990800040818000cf80de0086fb07002c
:101da8001ac0b3000001be000800be0044fb0700d3
:101db8000000e00001003c000045eb000a04e000e0
:101dc8002d003200788f8000898f8000208180006c
:101dd800cf80de0078fb07001ac0b3000001be0008
:101de8000800be0036fb07000000e00001003c00d0
:101df8000045eb000a04e0001f003200988f8000c5
:101e0800a98f800030818000cf80de006afb070048
:101e18001ac0b3000001be000800be0028fb07007e
:101e28000000e00001003c000045eb000a04e0006f
:101e380011003200b88f8000c98f80002081800097
:101e4800cf80de005cfb07001ac0b3000001be00b3
:101e58000800be001afb07000000e00001003c007b
:101e68000045eb000a04e00003003200a0c0b30004
:101e7800004f780096013700d88f8000e98f8000e6
:101e880040818000cf80de004bfb07001ac0b30002
:101e98000001be000800be0009fb07000000e000ca
:101ea80001003c000045eb000a04e0003b00320062
:101eb800f88f80000990800040818000cf80de008c
:101ec8003dfb07001ac0b3000001be000800be00b9
:101ed800f9fa07000000e000010035000045eb00ba
:101ee8000a04e0002d003200788f8000898f80007e
:101ef80020818000cf80de002ffb07001ac0b300ce
:101f08000001be000800be00edfa07000000e00076
:101f180001003c000045eb000a04e0001f0032000d
:101f2800988f8000a98f800030818000cf80de00ec
:101f380021fb07001ac0b3000001be000800be0064
:101f4800dffa07000000e00001003c000045eb005c
:101f58000a04e00011003200b88f8000c98f8000a9
:101f680020818000cf80de0013fb07001ac0b30079
:101f78000001be000800be00d1fa07000000e00022
:101f880001003c000045eb000a04e00003003200b9
:101f9800b0c0b300004f78004d013700788f800043
:101fa800898f800020818000cf80de0002fb07003f
:101fb8001ac0b3000001be000800be00befa070048
:101fc8000000e000010035000045eb000a04e000d5
:101fd8001f003200988f8000a98f80003081800018
:101fe800cf80de00f4fa07001ac0b3000001be007b
:101ff8000800be00b0fa07000000e000010035004c
:102008000045eb000a04e00011003200b88f8000a0
:10201800c98f800020818000cf80de00e6fa0700ab
:102028001ac0b3000001be000800be00a2fa0700f3
:102038000000e000010035000045eb000a04e00064
:102048000300320070c0b300004f78002001370051
:10205800788f8000898f800020818000cf80de000b
:10206800d5fa07001ac0b3000001be000800be0080
:1020780091fa07000000e000010035000045eb0080
:102088000a04e0001f003200988f8000a98f8000aa
:1020980030818000cf80de00c7fa07001ac0b30085
:1020a8000001be000800be0085fa07000000e0003d
:1020b80001003c000045eb000a04e000110032007a
:1020c800b88f8000c98f800020818000cf80de001b
:1020d800b9fa07001ac0b3000001be000800be002c
:1020e80075fa07000000e000010035000045eb002c
:1020f8000a04e0000300320040c0b300004f78003b
:10210800f3003700788f8000898f8000208180005d
:10211800cf80de00a8fa07001ac0b3000001be0095
:102128000800be0064fa07000000e0000100350066
:102138000045eb000a04e0001f003200988f800081
:10214800a98f800030818000cf80de009afa0700d6
:102158001ac0b3000001be000800be0056fa07000e
:102168000000e000010035000045eb000a04e00033
:1021780011003200b88f8000c98f80002081800054
:10218800cf80de008cfa07001ac0b3000001be0041
:102198000800be004afa07000000e00001003c0009
:1021a8000045eb000a04e0000300320060c0b30001
:1021b800004f7800c6003700788f8000898f800034
:1021c80020818000cf80de007bfa07001ac0b300b0
:1021d8000001be000800be0039fa07000000e00058
:1021e80001003c000045eb000a04e0001f0032003b
:1021f800988f8000a98f800030818000cf80de001a
:102208006dfa07001ac0b3000001be000800be0046
:1022180029fa07000000e000010035000045eb0046
:102228000a04e00011003200b88f8000c98f8000d6
:1022380020818000cf80de005ffa07001ac0b3005b
:102248000001be000800be001bfa07000000e00005
:10225800010035000045eb000a04e00003003200ed
:1022680050c0b300004f780099003700788f800085
:10227800898f800020818000cf80de004efa070021
:102288001ac0b3000001be000800be000afa070029
:102298000000e000010035000045eb000a04e00002
:1022a8001f003200988f8000a98f80003081800045
:1022b800cf80de0040fa07001ac0b3000001be005c
:1022c8000800be00fef907000000e00001003c0025
:1022d8000045eb000a04e00011003200b88f8000ce
:1022e800c98f800020818000cf80de0032fa07008d
:1022f8001ac0b3000001be000800be00f0f90700d4
:102308000000e00001003c000045eb000a04e0008a
:102318000300320020c0b300004f78006c00370083
:10232800788f8000898f800020818000cf80de0038
:1023380021fa07001ac0b3000001be000800be0061
:10234800dff907000000e00001003c000045eb0059
:102358000a04e0001f003200988f8000a98f8000d7
:1023680030818000cf80de0013fa07001ac0b30066
:102378000001be000800be00d1f907000000e0001f
:1023880001003c000045eb000a04e00011003200a7
:10239800b88f8000c98f800020818000cf80de0048
:1023a80005fa07001ac0b3000001be000800be000d
:1023b800c1f907000000e000010035000045eb000e
:1023c8000a04e0000300320010c0b300004f780098
:1023d8003f003700988f8000a98f800030818000ef
:1023e800cf80de00f4f907001ac0b3000001be0078
:1023f8000800be00b0f907000000e0000100350049
:102408000045eb000a04e0000300320030c0b300ce
:10241800004f78002e003700788f8000898f800069
:1024280020818000cf80de00e3f907001ac0b300e6
:102438000001be000800be00a1f907000000e0008e
:1024480001003c000045eb000a04e00020003200d7
:10245800988f8000a98f800030818000cf80de00b7
:10246800d5f907001ac0b3000001be000800be007d
:1024780093f907000000e00001003c000045eb0074
:102488000a04e00012003200b88f8000c98f800073
:1024980020818000cf80de00c7f907001ac0b30092
:1024a8000001be000800be0085f907000000e0003a
:1024b80001003c000045eb000a04e0000400320083
:1024c8000040eb00004f7800100020006081880079
:1024d800608180000000e00002003a003430ef0024
:1024e8000300370040012000a08188002c30ef0055
:1024f8001e4078000004e00003003a0020c0b3004a
:1025080036f0b700650037001e407800e24f5000f3
:1025180004003a0040c0b30036f0b7003830ef008e
:102528005e0037001e407800e14f500005003a0079
:1025380060c0b30036f0b70010002000c0818800ea
:10254800560037001e407800e34f500009003a005b
:10255800c08180000000e00003003a0080c0b300a2
:1025680036f0b7004d003700a0c0b30036f0b70012
:102578004a0037001e407800e64f500004003a0039
:1025880080c0b30036f0b7003830ef0043003700a2
:102598001e407800e54f500005003a00a0c0b30087
:1025a80036f0b70010002000c08188003b003700db
:1025b8001e407800e44f500003003a0080c0b3008a
:1025c80036f0b700350037001e407800e74f50005e
:1025d80009003a00c08180000000e00003003a00d2
:1025e80080c0b30036f0b7002c003700a0c0b3009d
:1025f80036f0b700290037001e407800e84f500039
:1026080003003a0080c0b30036f0b700230037005b
:102618001e407800ea4f500003003a0000c1b300a2
:1026280036f0b7001d0037001e407800eb4f500011
:1026380003003a0020c1b30036f0b7001700370096
:102648001e407800ed4f500009003a00c08180001c
:102658000000e00003003a0000c1b30036f0b70004
:102668000e00370020c1b30036f0b7000b0037006a
:102678001e407800ec4f500008003a00c0818000ee
:102688000000e00003003a0070c1b30036f0b70064
:102698000200370040c1b30036f0b70036d0bf00a3
:1026a8008080fb0032d0bf000080fb000000e90002
:1026b800808f50003e00320036d0bf0032f0b700a5
:1026c8000000eb00100798002103210091407800da
:1026d8001e00900064004000017778001e00900002
:1026e8000000e800100798002082800031828000f6
:1026f8004808de00804078001e009000640040001a
:10270800017778001e0090000000e800100798008c
:1027180020828000318280004008de0080407800fe
:102728001e00900064004000017778001e009000b1
:102738000000e800100798002082800031828000a5
:102748004809dd004800de0000007100c808de000e
:10275800804078001e0090006400400001777800f7
:102768001e0090000000e8001007980020828000fa
:1027780031828000804078001e0090006400400094
:10278800017778001e0090000000e800100798000c
:102798001e0090000000e800100798006400470041
:1027a800000178009e0090000005200073000700db
:1027b8004f0578004f04be000080fa0000000600b4
:1027c8000200fa00000f78001e007800e40f5000a5
:1027d8001e003200e40f500007003c00e20f5000da
:1027e80012003200e20f500014003c00e10f5000cc
:1027f8000a00320029003700e60f50001b003200a3
:10280800e60f500015003500e70f50001b0032009e
:10281800e80f50001d0032002000370064cea900e8
:1028280064eea900254ea8002000370064cea80059
:1028380064eea900254ea9001c00370064cea9004b
:1028480064eea800254ea9001800370064cea80041
:1028580064eea800254ea9001400370064cea90034
:1028680064eea800254ea8001000370064cea8002a
:1028780064eea900254ea8000c00370064cea8001d
:1028880064eea800254ea8000800370064cea90011
:1028980064eea900254ea9000400370064cea90003
:1028a80064eea900254ea900000000000080fa008f
:1028b800000006000a00fa00200798003107980077
:1028c800420798000040eb00004f7800e0cfb300cb
:1028d8001e4f68002e0090004880de00804078007f
:1028e8001e40780000c06800004f78002e0090005d
:1028f800804078001e40780000c06800004f7800d3
:102908003e0090004880de00804078001e4078003d
:1029180000c06800004f78003e00900080407800ba
:102928001e40780000c06800004f78000000eb00ef
:10293800100798000000eb00100798000800370007
:102948001e009000ce0090000080400010407800eb
:102958001e4f68001e0090000000e8001007980055
:102968009e0090003e009000808f5000f4ff3500dc
:102978001e4078000080fa00000006001000fa00ef
:10298800889fbe005007980061079800720798005a
:102998000f0478000f007800800478000040eb00f6
:1029a800404798006e009000660040008000e900f3
:1029b800310798000000e8000000e8000000d1009e
:1029c800800040000f007800818747000000e80081
:1029d8000000d10000004000400798000000eb0014
:1029e800000f78004e0090001e004000e1cfb300b9
:1029f800014878001e0fe8005e0090004880de0065
:102a0800804078004e0090001e0040000148780089
:102a18001e0fe8005e009000804078004e00900095
:102a28001e004000014878001e0fe8006e0090006c
:102a38004880de00804078004e0090001e00400074
:102a4800014878001e0fe8006e0090008040780072
:102a58004e0090001e004000014878001e0fe8005c
:102a68000000eb00100798000000eb00100798002a
:102a78000b0037001e009000fe0090000080400010
:102a8800904078004e0090001e00400001487800f9
:102a98001e0fe8001e0090000000e80010079800d4
:102aa8009e0090006e009000808f5000f1ff35006e
:102ab8007e019000ee0090005e0090007dff070010
:102ac800404798004e0090001e004000ce40900005
:102ad800014878001e0fe8006e009000e6004000f4
:102ae8004e0090006e050700890778008807780077
:102af8004f04be000080fa00000006000200fa0041
:102b0800004f780000828000e30f5000260032005a
:102b1800e30f500007003c00e10f500015003200a1
:102b2800e10f500019003c000000e00008003200ee
:102b38004b003700e50f50002d003200e50f500024
:102b48001f003500e60f5000370032004400370000
:102b58001e407800e24f400044003a001000200078
:102b6800008288003c30ef003a30ef003e30ef0042
:102b7800410037001e80fb004800dd00d08188003e
:102b880020002000008288003b0037009e80fb0068
:102b9800d081800000804000d08188003000200073
:102ba80000828800340037001e80fb004800dd00ea
:102bb800e081880040002000008288002e00370055
:102bc8009e80fb00e081800000804000e08188005a
:102bd800e1818000c05d2000808f5000010034003a
:102be8004030ef00500020000082880022003700ab
:102bf800f0818000c1152100008040001e48780047
:102c0800f08180000000e800f0818800f1818000f8
:102c1800e0818000808f500016003a00600020009c
:102c280000828800140037001e417800210421002a
:102c38008248780042d0bf009e4f500006003a00fc
:102c4800e081800080407800d081800000407800da
:102c5800c21521000a0007004030ef0006003700c7
:102c68004030ef00000000000300370000000000c3
:102c780001003700000000000080fa000000060094
:102c88000400fa00004f78001147980012079800d6
:102c98001e80fb0011052000810f50000e0032003d
:102ca80011052000810f500004003c0001022000a3
:102cb800810f500017003200620037002105200004
:102cc800810f50000800320001082000810f5000d9
:102cd800090032005b0037001e00900010407800a9
:102ce8005a000700570037001e0090001040780077
:102cf8007a000700530037001e4090000080fb0058
:102d08001e01900080007800000820001bff0700cb
:102d18004c0037001e0090009040780090c4b3002b
:102d280080cf500007003a001e0090000000e80025
:102d38009040780010c3b30080cf500001003a00e3
:102d4800254ea8001e00900090407800f0c4b30003
:102d580080cf500007003a001e0090000000e800f5
:102d68009040780010c3b30080cf500001003a00b3
:102d7800254ea9001e0090009040780090c4b30032
:102d880080cf500007003a001e0090000000e800c5
:102d98009040780020c3b30080cf500001003a0073
:102da80064eea8001e00900090407800f0c4b300c4
:102db80080cf500007003a001e0090000000e80095
:102dc8009040780020c3b30080cf500001003a0043
:102dd80064eea9001e0090009040780090c4b300f3
:102de80080cf500007003a001e0090000000e80065
:102df8009040780030c3b30080cf500001003a0003
:102e080064cea8001e00900090407800f0c4b30083
:102e180080cf500008003a001e0090000000e80033
:102e28009040780030c3b30080cf500004003a00cf
:102e380064cea9000300370000000000010037003d
:102e4800000000000080fa00000006000400fa00fc
:102e5800204798000040eb00004f78000040eb004e
:102e680010479800ae40900000c3b30080cf5000d8
:102e78000b003a0064eea80090c4b300004f78003d
:102e880020c3b300104798000e01780021002000ed
:102e980000022000b9fe07002030ef000d003700c7
:102ea80064eea900f0c4b300004f780020c3b3005b
:102eb800104798000e017800210020000002200031
:102ec800aefe0700100020000081880020c0b3007b
:102ed80032f0b7000080fa00000006000200fa0095
:102ee800004f78001e80fb00ea0f500016003200e9
:102ef800ea0f500005003c00e20f50001c003200b1
:102f0800e80f50000600320032003700ec0f500086
:102f180020003200ee0f5000250032002d0037004f
:102f2800254ea8000041eb000000200001172c00ee
:102f38009c03070012c0b300000020000117240002
:102f48009803070023003700254ea9000041eb0035
:102f580000002000011724009203070012c0b300ec
:102f68000000200001172c008e030700190037000d
:102f78000041eb0000002000011a2c008903070023
:102f880012c0b30000002000011a2c0085030700be
:102f9800100037000041eb006000b8008103070013
:102fa80012c0b3006000b8007e03070009003700b4
:102fb8000041eb0000002000011a240079030700fb
:102fc80012c0b30000002000011a24007503070096
:102fd800000000000080fa00000006000400fa006b
:102fe80013e1a90011e1a9001061a8001021a900ae
:102ff80081088000f0fc2f000080600080088800b5
:103008000a21ef000621ef00404c200070088800dc
:1030180000402b0060088800800880004400de0023
:10302800634060000081fb008001eb0070088000b5
:103038008000eb00c002dd00040020006008800072
:103048008000eb000400400085804800809ab900a9
:10305800828bb90086027800050242000010b80091
:1030680001024200840078000001be0000a0250093
:103078002126200081f60700cff60700008fbe004a
:103088002142800080ff2f00008060000000a00027
:10309800204288000108a9002108a80011e1a80021
:1030a8000080fa00000006000400fa00881f78007b
:1030b800008fbe0021088000f0fc2f000080600017
:1030c800200888001e0178009e01900000682900f1
:1030d80081c1240027f6070018c0b30002f02f00b2
:1030e800f377240076f607000000e00001003c00ba
:1030f8000044eb000804e00054003200210880007e
:10310800f0fc2f00008060000040a000200888002c
:103118001e0178009e0190000068290081c12400ea
:1031280014f60700020020000310240011f607001f
:1031380018c0b30002f02f00f377240060f60700f0
:103148000000e00001003c000044eb000804e0003f
:103158003200320021088000f0fc2f00008060005f
:103168000050a000200888001e0178009e019000f1
:103178000068290081c12400fef507000200200034
:1031880003282400fbf5070018c0b30002f02f0045
:10319800f37724004af607000000e00001003c0035
:1031a8000044eb000804e000100032002108800011
:1031b8000003200001007000200888001e0178002c
:1031c8009e0190000068290081c12400e9f50700ec
:1031d8000200200003382400e6f507003af607004d
:1031e8000000780010088800200037001e017800d1
:1031f8009e0190000068290081c12400ddf50700c8
:103208000200200003282400daf507002ef6070044
:103218000000780010088800140037001e017800ac
:103228009e0190000068290081c12400d1f50700a3
:103238000200200003102400cef5070022f6070044
:103248000000780010088800080037001e01780088
:103258009e0190000068290081c12400c5f507007f
:1032680019f6070000007800100888004f0478005d
:103278000080fa00000006000000fa0005e1a9003d
:103288000421a900000020008124240086ff0700f3
:103298000068a9002068a80005e1a8000080fa00dd
:1032a800000006000400fa00881f7800008fbe00a6
:1032b800f1088000f0fc2f0000806000f008880012
:1032c8001e0178009e0190000068290081c1240039
:1032d800a8f5070018c0b30002f02f00f377240008
:1032e800f7f507000000e00001003c000044eb0097
:1032f8000804e00054003200f1088000f0fc2f00c0
:10330800008060000040a000f00888001e017800de
:103318009e0190000068290081c1240095f50700ee
:10332800020020000310240092f5070018c0b30023
:1033380002f02f00f3772400e1f507000000e00019
:1033480001003c000044eb000804e00032003200b9
:10335800f1088000f0fc2f00008060000050a00001
:10336800f00888001e0178009e019000006829007e
:1033780081c124007ff507000200200003282400f3
:103388007cf5070018c0b30002f02f00f377240083
:10339800cbf507000000e00001003c000044eb0012
:1033a8000804e00010003200f1088000000320004b
:1033b80001007000f00888001e0178009e0190004e
:1033c8000068290081c124006af507000200200076
:1033d8000338240067f50700bbf5070000007800f4
:1033e800d0088800200037001e0178009e01900058
:1033f8000068290081c124005ef507000200200052
:10340800032824005bf50700aff5070000007800eb
:10341800d0088800140037001e0178009e01900033
:103428000068290081c1240052f50700020020002d
:10343800031024004ff50700a3f5070000007800eb
:10344800d0088800080037001e0178009e0190000f
:103458000068290081c1240046f507009af5070095
:1034680000007800d00888004f0478000080fa0037
:10347800000006000000fa001fe1a9001e21a900b3
:1034880000002000a147240086ff07000368a90068
:103498002368a8001fe1a8000080fa0000000600c9
:1034a8000000fa00c301a8000080eb00e00e8800cd
:1034b8000080eb00f00e8800c1e1a8000080fa004f
:1034c800000006000000fa00c305a8000080eb0019
:1034d800e02e88000080eb00f02e8800c1e5a800ef
:1034e8000080fa00000006000800fa00889fbe006d
:1034f8008a9fbe0020808000318080000080880084
:103508001180880060808000718080004080880081
:1035180051808800300e80008000eb00008fbe00d4
:10352800500e80008000eb00c000dd00000020008d
:103538001e0f40005e974800302e80008000eb0090
:103548002007980031079800502e80008000eb007b
:10355800c000dd00000020002e019000be01900098
:103568000200400083804800200798003107980037
:103578001e0078009e0090008ff50700d25d2b009a
:1035880043c8230035f60700208088003180880072
:103598002e009000be00900087f50700d25d2b003a
:1035a80043c82b002df607006080880071808800d2
:1035b8002480800035808000008080001180800099
:1035c8000001be000400be0024f6070080808800c9
:1035d8009180880064808000758080004080800031
:1035e800518080000001be000400be001bf60700e9
:1035f800a0808800b1808800848080009580800049
:10360800a0808000b18080000001be000400be00e0
:1036180078f4070022972f00f3e82300d5f4070079
:10362800c0808800d18088008480800095808000d8
:10363800a0808000b18080000001be000400be00b0
:103648006df407000200200003002400c9f40700fd
:10365800e0808800f1808800808080009180800070
:1036680002002000a3372400fcf507001090880012
:1036780021908800a0808000b18080000200200096
:10368800a3372400f5f507003090880041908800a2
:103698001490800025908000309080004190800038
:1036a8000001be000400be0053f407000200200021
:1036b80003002400aff40700509088006190880050
:1036c800c0808000d180800002002000a337240041
:1036d800e2f507007090880081908800d090800003
:1036e800e190800090908800a1908800f090800080
:1036f80001918000b0908800c190880030918000ce
:103708004191800010918800219188009890800054
:10371800a9908000509080006190800002002000f5
:10372800a337240093f407000005be003091800001
:10373800419180008df407000001be000a00be0020
:10374800c6f507000001be000800be002af4070005
:10375800d0908800e1908800b8908000c9908000df
:10376800509080006190800002002000a337240060
:1037780080f407000005be00309180004191800070
:1037880053f607000001be000a00be00b3f50700ab
:103798000001be000800be0017f40700f090880082
:1037a800019188003491800045918000c08080009c
:1037b800d18080000001be000400be000ef40700a6
:1037c80030918800419188003091800041918000bb
:1037d80018c0b300b2fd200093042400b8f4070019
:1037e8000000e00001003c000044eb000804e00099
:1037f800070032003091800041918000b2fd200026
:10380800930c2400fbf30700309188004191880055
:10381800309180004191800018c0b300b2fd2000b3
:1038280093042c00a4f407000000e0000100350018
:103838000044eb000804e0000700320030918000eb
:1038480041918000b2fd2000930c2400eaf30700a8
:1038580030918800419188004f05be004f04be009a
:103868000080fa00000006001800fa00208280009c
:10387800318280000001be008000eb000e0078005d
:10388800e1000700d0908000e19080000001be00b8
:10389800410020000e007800c2000700f090800070
:1038a800019180000001be00810020000e00780018
:1038b800bc00070030918000419180000001be00eb
:1038c800c10020000e007800b6000700509080006c
:1038d800619080000001be00010120000e00780008
:1038e800b000070070908000819080000001be0049
:1038f800410120000e007800aa0007000e017800a0
:1039080081012000100620001cfc07000080fa003e
:10391800000006000400fa00881f7800008fbe002f
:1039280018c0b3006011b8001e0078009e00900017
:1039380063f407000000e00001003d000044eb00d4
:103948000804e000030032001e0078009e0090008a
:10395800030037001e0078009e00900001f0a200ce
:103968004f0478000080fa00000006000800fa0002
:10397800881f7800008fbe00220798003307980040
:1039880018c0b3002e019000be0190001e00780000
:103998009e0090004af407000000e00001003c008f
:1039a8000044eb000804e000030032001e00780029
:1039b8009e009000020037002e009000be0090008c
:1039c8004f0478000080fa00000006000800fa00a2
:1039d800881f7800008fbe002207980033079800e0
:1039e80018c0b3002e019000be0190001e007800a0
:1039f8009e00900030f407000000e0000100350050
:103a08000044eb000804e000030032001e007800c8
:103a18009e009000020037002e009000be0090002b
:103a28004f0478000080fa00000006000c00fa003d
:103a3800881f7800008fbe0022079800330798007f
:103a4800440798005507980018c0b3002e0190004d
:103a5800be0190001e0078009e00900016f407003a
:103a68000000e000010035000044eb000804e0001d
:103a7800030032002e009000be00900010003700b6
:103a880018c0b3004e019000de0190001e007800bf
:103a98009e0090000af407000000e00001003c00ce
:103aa8000044eb000804e000030032004e009000e0
:103ab800de009000020037001e0078009e00900093
:103ac8004f0478000080fa00000006000800fa00a1
:103ad8002007980031079800b2fd200093042400c5
:103ae8002e009000be00900042f30700b2fd2000b7
:103af800930c240035f40700b2fd20009304240041
:103b08003df30700008fbe00b2fd2000930424009f
:103b18001e0078009e00900037f30700b2fd2000d9
:103b2800930c240029f40700b2fd2000930424001c
:103b380030f307000080fa00000006000a00fa00cf
:103b48003007980041079800be0090004e00900092
:103b5800008f40001e00780010017800900190004e
:103b680012079800230798001e009000ae009000ee
:103b78000080fa00000006000600fa00100798000e
:103b8800210798009e0090002e009000008f4000b2
:103b98001e00780090009000100078000080fa0065
:103ba800000006000c00fa00200798003107980072
:103bb80042079800530798006800470010079800cc
:103bc8000000eb00000f78000a0037003e0090006c
:103bd8001e004000ae009000008040009e0078006b
:103be8001e01900081004100914078000148780052
:103bf8001e0fe8001e007800e30f5000f3ff3400aa
:103c08000080fa00000006000c00fa002007980067
:103c1800310798004207980053079800680047004a
:103c2800100798000000eb00000f78000b00370029
:103c38003e0090001e004000ae0090000080400052
:103c4800320020009e0051001e01900081004100ba
:103c580091407800014878001e0fe8001e007800a7
:103c6800e30f5000f2ff34000080fa000000060065
:103c78000c00fa00200798003107980042079800c6
:103c88005307980068004700100798000000eb00f1
:103c9800000f78000a0037003e0090001e00400028
:103ca800ae009000008040009e0078001e01900049
:103cb8008100410091407800014878001e0fe8001b
:103cc8001e007800e70f5000f3ff34000080fa0070
:103cd800000006000400fa00008fbe00b2fd2000bc
:103ce800930424001e0078009e00900021f3070032
:103cf800020020004333240058f407000080fa0033
:103d0800000006000400fa00008fbe00b2fd20008b
:103d1800930424001e0078009e0090004ff40700d2
:103d2800020020004333240012f307000080fa0049
:103d3800000006000000fa001160800080ff2f00dc
:103d4800008060001060880000fa20002060880071
:103d580023aca800238ca80011618000f03f2f003d
:103d68000080600000a0a0001061880030002000e2
:103d780020618800c3aca800c38ca800116680002d
:103d8800f03f2f000080600000a0a00010668800af
:103d9800300020002066880001eca8000080fa00ae
:103da800000006000600fa00008fbe004247980097
:103db8004e4090000004e00005003a001e01780023
:103dc8009e019000328f8800438f880007003700db
:103dd8004e409000e14f500004003a001e01780068
:103de8009e019000f28e8800038f88000080fa0000
:103df800000006000000fa00889fbe008a9fbe00ef
:103e0800548f8000658f8000308f8000418f800044
:103e180018c0b3000001be000400be0026f307006e
:103e28000000e000010035000044eb000804e00059
:103e38000f003200388f8000498f80005a8f800031
:103e48006b8f800056d0bf000080fb00cf80de0063
:103e580059f307000001be000a00be0066f2070021
:103e68000801be00d9fe0700508f8800618f8800c6
:103e7800548f8000658f8000308f8000418f8000d4
:103e880018c0b3000001be000400be000cf3070018
:103e98000000e00001003c000044eb000804e000e2
:103ea8000f003200388f8000498f80005a8f8000c1
:103eb8006b8f800056d0bf000080fb00cf80de00f3
:103ec8003df307000001be000a00be0049f20700ea
:103ed8000801be00a5fe0700508f8800618f88008a
:103ee800508f8000618f800018c0b3006011b80047
:103ef800f3f207000000e00001003c000044eb0082
:103f08000804e00004003200c3cca90024eea80095
:103f1800c3eca80003003700c3eca90024cea80016
:103f2800c3cca800508f8000618f800079fe070005
:103f38000200200003222400c8f3070003f307004f
:103f48000000780030668800148f8000258f80007c
:103f5800f08e8000018f800018c0b3000001be0001
:103f68000400be00d4f207000000e00001003500a4
:103f78000044eb000804e0000f003200f88e8000d7
:103f8800098f80001a8f80002b8f800056d0bf00c9
:103f98000080fb00cf80de0007f307000001be00b1
:103fa8000a00be0014f207000801be0087fe0700e1
:103fb800108f8800218f8800148f8000258f800043
:103fc800f08e8000018f800018c0b3000001be0091
:103fd8000400be00baf207000000e00001003c0047
:103fe8000044eb000804e0000f003200f88e800067
:103ff800098f80001a8f80002b8f800056d0bf0059
:104008000080fb00cf80de00ebf207000001be005d
:104018000a00be00f7f107000801be0053fe0700c2
:10402800108f8800218f8800108f8000218f8000da
:1040380018c0b3006011b800a1f207000000e0004a
:1040480001003c000044eb000804e00004003200da
:1040580023eca90015cea80023cca8000300370044
:1040680023cca90015eea80023eca800108f80002f
:10407800218f800027fe0700020020000322240071
:1040880076f30700b1f2070000007800306188007d
:104098004f05be004f04be000080fa000000060075
:1040a8000600fa0010079800210798000040eb006e
:1040b800004f780054000700ae009000810f5000b8
:1040c800110034000040eb00004f78000600370074
:1040d8001e80fb009e009000008040001040780089
:1040e8000b0007001e4fe8009e80fb002e0090008a
:1040f800808f5000f6ff35002e0007000004e00016
:1041080001003a00220007000080fa0000000600c3
:104118000200fa00004f780060828000c10521008b
:10412800008040001e487800608280000000e8009f
:104138006082880061828000f0072000808f500034
:10414800010034004c30ef000080fa000000060047
:104158000200fa0070828000c10521000080400042
:10416800104f7800708280000000e800708288009c
:1041780071828000f0072000808f50000100340019
:104188004e30ef001e4078000080fa000000060064
:104198000200fa0010c0b30050f0b700ecff0700af
:1041a800004f78001e80fb00201188000080fa0074
:1041b800000006000000fa0050d0bf000080fa009e
:1041c800000006000200fa00618280007082800010
:1041d800808f50000400350061828000708280006a
:1041e800008f5000050037006182800070828000d7
:1041f8000080500001082000010f40001e007800d8
:104208000080fa00000006000200fa00edff070037
:1042180001082000008f50001e0078000080fa007e
:10422800000006000000fa0021e3a9002143a800cd
:1042380001198000f0cf2f0000806000001988006d
:104248002043a90001198000000e20000100700021
:104258000019880011198000f0ff2100008060001b
:10426800101988002343a80011198000f0cf2f00ef
:1042780000806000101988001119800030f82f00a4
:10428800008060000040a000101988002203a900e7
:104298002223a90025e3a900f0c0b30024e3b70056
:1042a80021198000f00f2e008080600000f02000af
:1042b80001007000201988003303a9002e0ea80001
:1042c8002f6ea8006f2ea8001e2ea8004feea80083
:1042d80030c3a8003163a8002e03a8003063a800eb
:1042e80031e3a8004119800000fc2f000080600025
:1042f8004019880028e3a90001a8a90021a8a8005e
:1043080021e3a8000080fa00000006000000fa007f
:104318002023a8000080fa00000006000000fa0030
:10432800a02221000080fa00000006000000fa0028
:1043380059d0bf000080fa00000006000000fa0013
:104348005970ef000080fa00000006000200fa0031
:10435800004f78002a0007000000e0000c0034003d
:1043680090828000c10d2100008040001e48780026
:10437800908280000000e80090828800918280008e
:10438800f0072000808f5000010034005230ef0009
:104398000080fa00000006000200fa00a0828000f7
:1043a800c10d210000804000104f7800a0828000dd
:1043b8000000e800a0828800a1828000f0072000a9
:1043c800808f5000010034005430ef001e40780008
:1043d8000080fa00000006000000fa0091828000c8
:1043e800a0828000808f50000200320010c0b3000d
:1043f800010037000040eb000080fa0000000600d2
:104408000200fa000500070001082000008f500094
:104418001e0078000080fa00000006000200fa0082
:1044280091828000a0828000808f500004003500b7
:1044380091828000a0828000008f50000500370024
:1044480091828000a0828000008050000108200036
:10445800010f40001e0078000080fa0000000600ee
:104468000000fa002002a9000111800090ff2f002f
:10447800008060000011880020a2a9002062a80026
:10448800500520004011880023a2a90023e2a900ba
:104498000188a9002188a80011118000f0f32f00dd
:1044a80000806000101188000168a9002168a80038
:1044b80021e2a8002342a8000080fa0000000600bc
:1044c8000600fa0010079800210798000040eb004a
:1044d800004f78000040eb00004f78000e003700d6
:1044e8000000000011118000002020000080600002
:1044f8000000e000fbff3a001e009000104078002a
:104508000080fb00201188001e0090000000e800d9
:10451800100798001e4fe8009e80fb002e009000b8
:10452800808f5000eeff35000080fa000000060082
:020000040000fa
:104538002e1000000c000000800000002010000079
:104548000e000000820000000100e80003230000c4
:1045580019000500001900000100000044100000c7
:104568000800000080000000dc1100004e00000080
:1045780080000000561000000200000082000000c9
:10458800010000002a1200000a000000800000005c
:104598005810000002000000800000005c100000bd
:1045a80080000000800000004c10000006000000a1
:1045b80080000000dc100000800000008000000087
:1045c8005210000004000000800000005c11000090
:1045d80080000000800000003a1000000a0000007f
:1045e8008000000000100000200000008000000093
:1045f8005a100000020000008000000000000000c7
:020000040000fa
:104608000000fa000e2eef001e2eef002e2eef00f7
:104618003e2eef004e2eef005e2eef006e2eef00c6
:10462800214ea90060cea90060eea90011cea90014
:1046380011eea90020cea90020eea90021368000a5
:1046480000f82f00008060008001b3002036880049
:104658001134800000fc2f00008060000000a000e2
:10466800103488000136800000f82f008080600038
:104678001006200001007000003688000136800016
:10468800f00f280080806000000026000100700004
:1046980000368800e135800000f82f008080600037
:1046a8006004200001007000e0358800e1358000da
:1046b800f00f280080806000005024000100700086
:1046c800e03588000080fa00000006000000fa00cb
:1046d800f0032000303a8800213a8000f0f32f00e0
:1046e80000806000203a8800213a800000fe2f00f8
:1046f800008060000000a000203a8800120020001e
:1047080080072000a1092000337420008049780028
:104718008149780082497800103a800000017800c9
:104728000200a0006004200071052000237420000e
:1047380080497800814978008249780000000000ab
:10474800113a8000000027008080600000002100ee
:10475800808f5000faff3a0000000000113a8000f4
:1047680000022000008060000000e000fbff320033
:084778000080fa0000000600b9
:020000040000fa
:02000004000af0
:04afe000cfff00009f
:020000040000fa
:02000004000af0
:04afe400ffff00006b
:020000040000fa
:02000004000af0
:04afe8007fff0000e7
:020000040000fa
:02000004000af0
:04afec005fff000003
:020000040000fa
:02000004000af0
:04aff00038ff000026
:020000040000fa
:02000004000af0
:04aff400ffff00005b
:00000001FF
