:020000040000fa
:080000000002040000000000f2
:020000040000fa
:04000800de03000013
:020000040000fa
:04000c00de0300000f
:020000040000fa
:04001000de0300000b
:020000040000fa
:04001400de03000007
:020000040000fa
:04001800de03000003
:020000040000fa
:04001c00de030000ff
:020000040000fa
:04002000de030000fb
:020000040000fa
:04002400de030000f7
:020000040000fa
:04002800de030000f3
:020000040000fa
:04002c00de030000ef
:020000040000fa
:04003000de030000eb
:020000040000fa
:0400340002030000c3
:020000040000fa
:04003800de030000e3
:020000040000fa
:04003c00de030000df
:020000040000fa
:04004000de030000db
:020000040000fa
:04004400de030000d7
:020000040000fa
:04004800fa020000b8
:020000040000fa
:04004c00de030000cf
:020000040000fa
:04005000de030000cb
:020000040000fa
:040054009a0300000b
:020000040000fa
:040058007003000031
:020000040000fa
:04005c004c03000051
:020000040000fa
:04006000de030000bb
:020000040000fa
:04006400de030000b7
:020000040000fa
:04006800de030000b3
:020000040000fa
:04006c00de030000af
:020000040000fa
:04007000de030000ab
:020000040000fa
:04007400de030000a7
:020000040000fa
:04007800de030000a3
:020000040000fa
:04007c00de0300009f
:020000040000fa
:04008000de0300009b
:020000040000fa
:04008400de03000097
:020000040000fa
:04008800de03000093
:020000040000fa
:04008c00de0300008f
:020000040000fa
:04009000de0300008b
:020000040000fa
:040094002203000043
:020000040000fa
:04009800de03000083
:020000040000fa
:04009c00de0300007f
:020000040000fa
:0400a000de0300007b
:020000040000fa
:0400a400de03000077
:020000040000fa
:0400a800de03000073
:020000040000fa
:0400ac00de0300006f
:020000040000fa
:0400b000de0300006b
:020000040000fa
:0400b400de03000067
:020000040000fa
:0400b800de03000063
:020000040000fa
:0400bc00de0300005f
:020000040000fa
:0400c000de0300005b
:020000040000fa
:0400c400de03000057
:020000040000fa
:0400c800de03000053
:020000040000fa
:0400cc00de0300004f
:020000040000fa
:0400d000de0300004b
:020000040000fa
:0400d400de03000047
:020000040000fa
:0400d800de03000043
:020000040000fa
:0400dc00de0300003f
:020000040000fa
:0400e000de0300003b
:020000040000fa
:0400e400de03000037
:020000040000fa
:0400e800de03000033
:020000040000fa
:0400ec00de0300002f
:020000040000fa
:0400f000de0300002b
:020000040000fa
:0400f400de03000027
:020000040000fa
:0400f800de03000023
:020000040000fa
:0400fc00de0300001f
:020000040000fa
:04010000de0300001a
:020000040000fa
:04010400de03000016
:020000040000fa
:04010800de03000012
:020000040000fa
:04010c00de0300000e
:020000040000fa
:04011000de0300000a
:020000040000fa
:04011400de03000006
:020000040000fa
:04011800de03000002
:020000040000fa
:04011c00de030000fe
:020000040000fa
:04012000de030000fa
:020000040000fa
:04012400de030000f6
:020000040000fa
:04012800de030000f2
:020000040000fa
:04012c00de030000ee
:020000040000fa
:04013000de030000ea
:020000040000fa
:04013400de030000e6
:020000040000fa
:04013800de030000e2
:020000040000fa
:04013c00de030000de
:020000040000fa
:04014000de030000da
:020000040000fa
:04014400de030000d6
:020000040000fa
:04014800de030000d2
:020000040000fa
:04014c00de030000ce
:020000040000fa
:04015000de030000ca
:020000040000fa
:04015400de030000c6
:020000040000fa
:04015800de030000c2
:020000040000fa
:04015c00de030000be
:020000040000fa
:04016000de030000ba
:020000040000fa
:04016400de030000b6
:020000040000fa
:04016800de030000b2
:020000040000fa
:04016c00de030000ae
:020000040000fa
:04017000de030000aa
:020000040000fa
:04017400de030000a6
:020000040000fa
:04017800de030000a2
:020000040000fa
:04017c00de0300009e
:020000040000fa
:04018000de0300009a
:020000040000fa
:04018400de03000096
:020000040000fa
:04018800de03000092
:020000040000fa
:04018c00de0300008e
:020000040000fa
:04019000de0300008a
:020000040000fa
:04019400de03000086
:020000040000fa
:04019800de03000082
:020000040000fa
:04019c00de0300007e
:020000040000fa
:0401a000de0300007a
:020000040000fa
:0401a400de03000076
:020000040000fa
:0401a800de03000072
:020000040000fa
:0401ac00de0300006e
:020000040000fa
:0401b000de0300006a
:020000040000fa
:0401b400de03000066
:020000040000fa
:0401b800de03000062
:020000040000fa
:0401bc00de0300005e
:020000040000fa
:0401c000de0300005a
:020000040000fa
:0401c400de03000056
:020000040000fa
:0401c800de03000052
:020000040000fa
:0401cc00de0300004e
:020000040000fa
:0401d000de0300004a
:020000040000fa
:0401d400de03000046
:020000040000fa
:0401d800de03000042
:020000040000fa
:0401dc00de0300003e
:020000040000fa
:0401e000de0300003a
:020000040000fa
:0401e400de03000036
:020000040000fa
:0401e800de03000032
:020000040000fa
:0401ec00de0300002e
:020000040000fa
:0401f000de0300002a
:020000040000fa
:0401f400de03000026
:020000040000fa
:0401f800de03000022
:020000040000fa
:0401fc00de0300001e
:020000040000fa
:04020000de03000019
:020000040000fa
:04020400de03000015
:020000040000fa
:04020800de03000011
:020000040000fa
:04020c00de0300000d
:020000040000fa
:04021000de03000009
:020000040000fa
:04021400de03000005
:020000040000fa
:04021800de03000001
:020000040000fa
:04021c00de030000fd
:020000040000fa
:04022000de030000f9
:020000040000fa
:04022400de030000f5
:020000040000fa
:04022800de030000f1
:020000040000fa
:04022c00de030000ed
:020000040000fa
:04023000de030000e9
:020000040000fa
:04023400de030000e5
:020000040000fa
:04023800de030000e1
:020000040000fa
:04023c00de030000dd
:020000040000fa
:04024000de030000d9
:020000040000fa
:04024400de030000d5
:020000040000fa
:04024800de030000d1
:020000040000fa
:04024c00de030000cd
:020000040000fa
:04025000de030000c9
:020000040000fa
:04025400de030000c5
:020000040000fa
:04025800de030000c1
:020000040000fa
:04025c00de030000bd
:020000040000fa
:04026000de030000b9
:020000040000fa
:04026400de030000b5
:020000040000fa
:04026800de030000b1
:020000040000fa
:04026c00de030000ad
:020000040000fa
:04027000de030000a9
:020000040000fa
:04027400de030000a5
:020000040000fa
:04027800de030000a1
:020000040000fa
:04027c00de0300009d
:020000040000fa
:04028000de03000099
:020000040000fa
:100400006f1e21000eff2c000e018800000000006e
:10041000000020000000e000020032000001200087
:100420002002880014000700e60007000000e0003a
:1004300003003a0000cf2100010020000200370035
:100440000000200001002000810f70000100320038
:100450000f000700000020000000e0000200320052
:100460000000020000000000ae07020000000000d3
:100470000040da000000fe00200020000000e00044
:1004800002003200100020009001880000000600e9
:10049000a1028800800478000000eb001f003700f4
:1004a000e284440054a0b4009905ba00e2844400f8
:1004b00054a0b4009906ba00e284440054a0b400e9
:1004c0000006eb00476fde00fd07b200ae018800ba
:1004d000636ce10003003a000ad801000000eb0061
:1004e0000e003700606ce10008003a00004deb00a0
:1004f0000a05e800020039003420ec000af0a000f0
:100500008b05e900f9ff3e00040037006168e10057
:10051000010032000086eb000b00070019c7ba008b
:100520000e04e0001905ba0003003a000a00e000da
:10053000dbff3a0000000600fe07b200ae028800b2
:100540008a047800f5ff37000cd0a300e20f4d00bd
:100550001c00390089027800354dba000a05e80010
:10056000020039003420ec000af0a0008b05e900fd
:100570000f003200254dba000a05e80002003900dc
:100580003420ec000af0a0008b05e90008003200de
:100590000c00e0000600320015cdba000a05e800a4
:1005a000020039003420ec000af0a0008b05e900bd
:1005b0008984e80054a0b4000b00e000e2ff3a0098
:1005c000000006009902ba00055d78008b05e9007d
:1005d000f7ff3200c82ade00055d78008b05e900d0
:1005e000f3ff32000c00e000f1ff320019ddba0029
:1005f000eeff37000000fa000108a9000080fa00b1
:10060000004006003600f800809fbe00829fbe00ba
:10061000849fbe00869fbe000000fa000068a9000b
:10062000990a0700650c07000080fa004f03be001e
:100630004f02be004f01be004f00be003600f90061
:10064000004006003600f800809fbe00829fbe007a
:10065000849fbe00869fbe000000fa000368a900c8
:10066000108180002181800061004000e08048000e
:100670001081880021818800fe0207000080fa00b6
:100680004f03be004f02be004f01be004f00be0030
:100690003600f90000400600801f78000000fa00d4
:1006a00001a8a90000188000e08e880010188000c2
:1006b000f08e880020188000008f8800301880009d
:1006c000108f880040188000208f880010c0b30071
:1006d00035f0b7000080fa004f00780000400600b7
:1006e0003600f800809fbe00829fbe00849fbe003f
:1006f000869fbe000000fa000188a9005181800099
:1007000040818000808f500002003200cc0b070037
:10071000010037002c70ef000080fa004f03be008c
:100720004f02be004f01be004f00be003600f90070
:10073000004006003600f800809fbe00829fbe0089
:10074000849fbe00869fbe000000fa000168a900d9
:1007500010118000640060000000e0000100320021
:100760002242a90010118000620060000000e00039
:10077000060032002222a900050037003011800057
:10078000004078001d0c0700010037000000000049
:1007900010118000610060000000e000f7ff3a00e7
:1007a0000080fa004f03be004f02be004f01be00a2
:1007b0004f00be003600f900004006000040da009d
:1007c0000000fe000000050003f0a200889fbe00ac
:1007d0008a9fbe008c1f78002a0107003101330078
:1007e0006450e1004f0032006420e100520032000a
:1007f00003826c0007003b000905d0000306d0000f
:10080000820f54000c065d00020039000200320025
:1008100089017800030678008582550004003d00b8
:100820000003fd008103fd008502ea008b85420084
:10083000840f720002003b0060001000e08018008e
:100840006011b8000005eb007a28e1000a003900c9
:1008500006007800c75ddd00f707b20087807500ed
:100860002d003700828171000a0178006105600067
:100870008180d1000080d3008502e900f9ff3b00b0
:10088000060440008784480002003b006004140016
:10089000e0841c000988a300070032008a817100ef
:1008a00082817100610164008904d1000884d30051
:1008b0008b05e800170037000978a30013003a0001
:1008c0000b00e000130034008b05e900080444002d
:1008d00089844c000a4474000978a3000d003a0092
:1008e0000b00e000070034008b05e9000804440019
:1008f00089844c0001003a000b0020000978a30015
:10090000f7ff32000001eb00020037008281710026
:100910000a017800a00007000cf0a70001f0a00079
:10092000e90037006420e10002003a00838f6c0088
:10093000e90033000801be000200be00e2003700fb
:10094000889fbe008a9fbe008c1f7800cd000700e4
:10095000d400330003866c006450e1002e003200a6
:100960006420e100330032006150e1002f003200ca
:100970006120e1003100320085855500eb07b000b1
:100980000900200008042000050037000804440086
:1009900089844c000a0031000603430087834b0022
:1009a0000001530081815b00f8ff33000203be00a9
:1009b0000800a0000804440089844c00f6ff3900b8
:1009c000c639dd00830173000100320013002000ee
:1009d0008904d1000884d3000998a30005003200df
:1009e0000800a7000300a0008904d1000884d300f8
:1009f0008b05e8008904d1000884d3000001eb00d6
:100a00000281d2006400070001f0a1000cf0a700f1
:100a100001f0a000ac0037006420e100ae0032001d
:100a20000801be000200be00f7ff37006120e100b0
:100a3000a90032006000b800f3ff3700000020007a
:100a400001f82700f0ff3700839f68000100e000f5
:100a500002003d0060001000e08018000300e0008c
:100a600002003d0060011100e0811900d100070083
:100a70004f00e00002003b0060001000e080180022
:100a80000000060014002000da003700f4ff2f00f9
:100a9000d80037000001be00650007000470a70001
:100aa00003f0a1006509b100160032000d00350009
:100ab0006828e10006003500f0ff2f00f1ff270055
:100ac0000300e00013003b000100280000000500c7
:100ad00000004000818048008502e900fcff3a00e8
:100ae00008003700f88f420002003c008000eb0055
:100af000000005008100d1000080d3008502e800dd
:100b0000fcff3a000300e00002003b006000100020
:100b1000e0801800000006000001be00440007004d
:100b20000470a70003f0a10003f8a30013003a002b
:100b30006509b10010003200090035006928e100a4
:100b40000200350001002800000005000000400000
:100b5000818048008502e900fcff3a0000000600a1
:100b6000f88f4200050035008100d1000080d300dd
:100b70008502e800fcff3a00000006008000eb0060
:100b8000000005004f89de0082017800b4003700c4
:100b90006011b800c200370081002000618055005c
:100ba0000b003d000b00200061fe2f000100e10062
:100bb0001d00340082817100610164008904d1004c
:100bc0000884d3000000e800faff3a00710020001a
:100bd0006100640003007000020060000900320040
:100be00061044400e0844c000988a500050032003f
:100bf0008b05e8006808e10002003a008904d10092
:100c00000884d300f20f20000258e10005003d00e7
:100c1000c75ddd00f907b200898075000800780023
:100c2000000006000bf827008b007800000005008c
:100c3000c70ade00f107b200f50fb200080032006b
:100c4000e1cf4200020032000170a0002400050044
:100c5000810f700001003200040805004400050007
:100c6000810f700002003a00140005008502e900bf
:100c70000000400081c04800fcff3b000170a00064
:100c8000240005000004be00e9ff07000003be00c9
:100c90000405be000200be00e5ff0700844f75009a
:100ca000000006000200be006450e10005003600ae
:100cb0006420e100020036000968a30001003a0048
:100cc0000800be000160a0004f0678004f05be007e
:100cd0004f04be0000000600f0ff2f00f1ff2700c8
:100ce000f9ff3700889fbe008a9fbe008c1f7800e6
:100cf000e4ff0700ebff330003866c006450e10063
:100d0000240032006420e100270032006150e1003d
:100d1000220032006120e100210032008b85420078
:100d2000eb07b1000134b800003ab80008044200f3
:100d300089844a00013ab8000030b8008880400039
:100d400009014a000400330000004000818048008f
:100d5000020149008b05e900c909dd00830170002b
:100d60000100320013002000c814de004814dd002a
:100d70004709de001200b200c808de0008847000d7
:100d800085ff070001f0a1000cf0a70001f0a00012
:100d9000cdff37006120e100cfff32000801be0027
:100da0000200be00f7ff37006150e100fcff3a008f
:100db000c9ff37006022b800060220000000d00002
:100dc0008180d2000482d2008582d2000000a0007f
:100dd0000202520083825a000300310002024200e4
:100de00083824a000000a1000603e900f3ff3a00f5
:100df00000000600889fbe008a9fbe00841f780006
:100e0000a0ff07004f00780011003300f0ff2f0013
:100e1000838f6c0006003b00040565000a00a700f4
:100e20000800370009f0a600100020000800370075
:100e3000820f5400838f5c000300390010002000f3
:100e400001003e000000200009f0a7000000ea00b9
:100e50004f05be004f04be000000e0000000060089
:100e6000881f7800030478000300e00007003d00bd
:100e700060001000e080180060011900e081190096
:100e800002003b0001f02d000300370004000700c2
:100e900008f0a70001f0a0004f0478000000060051
:100ea000889fbe008a9fbe0000827000040271000d
:100eb00004827100260032000004be000200be0061
:100ec0006011b8006b092000950220000182cf005c
:100ed0000a0039000541b1000082cf000700390047
:100ee0000541b1000982cf00040039000541b1007d
:100ef0000882cf00010039000541b10005425200cf
:100f0000120032000a003b0082817100610164001e
:100f10008100d1000080d3008984d3000884d300ed
:100f20008b05e8000442e800f7ff3a0007003700ad
:100f30000804440089844c00000048008180480077
:100f40008b05e9000442e900f9ff3a0012ff0700af
:0c0f50004f05be004f04be00000006006c
:020000040000fa
:100f5c001000fa00889fbe00cc0a0700f60a0700b2
:100f6c00e50607008b07070014080700d6090700e1
:100f7c0007080700630a0700110a0700100798000a
:100f8c00130a0700e14f50009c003a00140a0700b6
:100f9c000b0a0700200798002e0090006800400004
:100fac00100078008000eb00f6fe070032332300bf
:100fbc003305240048ff07000200200003582400da
:100fcc005cfe0700d2cc2c00c304240042ff0700b7
:100fdc0030079800410798003e019000ce01900028
:100fec00000020008120240052fe07000200200097
:100ffc00030a2400f1fd0700408e8800518e880002
:10100c002e00900066004000100078008000eb007d
:10101c00dcfe070032332300330524002eff0700cb
:10102c00020020000358240042fe0700d2cc2c0002
:10103c00c304240028ff07003007980041079800dc
:10104c003e019000ce019000000020008120240081
:10105c0038fe070002002000030a2400d7fd070019
:10106c00a08e8800b18e88002e0090006400400095
:10107c00100078008000eb00c2fe07003233230022
:10108c003305240014ff070002002000035824003d
:10109c0028fe0700d2cc2c00c30424000eff07004e
:1010ac0030079800410798003e019000ce01900057
:1010bc0000002000812024001efe070002002000fa
:1010cc00030a2400bdfd0700608e8800718e880025
:1010dc002e0090000080e800100078008000eb00eb
:1010ec00a8fe07003233230033052400fafe070064
:1010fc0002002000035824000efe0700d2cc2c0066
:10110c00c3042400f4fe0700300798004107980040
:10111c003e019000ce0190000000200081202400b0
:10112c0004fe070002002000030a2400a3fd0700b0
:10113c00808e8800918e88002e0090001000780020
:10114c008000eb008ffe07003233230033052400b0
:10115c00e1fe07000200200003582400f5fd070003
:10116c00d2cc2c00c3042400dbfe0700300798000f
:10117c00410798003e019000ce0190000000200035
:10118c0081202400ebfd070002002000030a24004c
:10119c008afd0700c08e8800d18e8800408e8000aa
:1011ac00518e800038fe07000040780080447800a3
:1011bc00608e8000718e800033fe07000040780046
:1011cc0000447800808e8000918e80002efe0700f7
:1011dc0000407800594f9800684f9800704f980065
:1011ec0040002000500798006d0047000001780077
:1011fc00de00900000032000050507009f09070092
:10120c000004e0000b0032000000eb00000f78003f
:10121c000500370089090700404f98004e489000a0
:10122c005b0507001e0fe800a50907009e0f500084
:10123c00f8ff3c0071808000a000200000017800c5
:10124c00110009008200d8008000fd000000e000c1
:10125c0001003a000e30ef00708080000000e800c2
:10126c007080880044ff37000000fa0010d0bf00e7
:10127c000080fb00cf80de00720120000300200004
:10128c00820f5000838f58000e013e0000060100b3
:10129c0017003700200037002900370035003700d1
:1012ac004000370049003700540037005d0037001c
:1012bc0068003700720037007d0037008700370068
:1012cc0000013700ff003700fe003700fd0037003b
:1012dc008e00370098003700a3003700ad003700b0
:1012ec00b8003700c4003700e3003700d5003700e2
:1012fc002230ef002430ef000041eb006000b8001a
:10130c004a07070012c0b3006000b8004707070087
:10131c0010c0b30010f0b700128180002381800050
:10132c00803e200001002000800f5100818f590069
:10133c00e700360020c0b30010f0b700e90037001a
:10134c0090808000cf80de000bfe07000041eb0098
:10135c003607070090808000cf80de0006fe070075
:10136c0012c0b3003107070030c0b30010f0b70053
:10137c00dc00370000808000e10f500002003a00d2
:10138c00da000700d70037000041eb006000b8001e
:10139c002607070012c0b3006000b800230707003f
:1013ac00d00037000041eb006000b8001f070700b9
:1013bc0012c0b30000002000011524001b07070019
:1013cc0050c0b30010f0b700c6003700008080009a
:1013dc00e10f500002003a00c4000700c1003700c2
:1013ec000041eb006000b8001007070012c0b3000a
:1013fc006000b8000d070700ba0037000041eb0091
:10140c0000002000011524000807070012c0b300db
:10141c006000b8000507070070c0b30010f0b700fb
:10142c00b000370000808000e10f500002003a004d
:10143c00ae000700ab0037000041eb006000b800c5
:10144c00fa06070012c0b3006000b800f7060700e8
:10145c00a40037000041eb000000200001152c0017
:10146c00f206070012c0b300000020000115240092
:10147c00ee06070090c0b30010f0b70099003700db
:10148c0000808000e10f500002003a009700070036
:10149c00940037000041eb006000b800e306070041
:1014ac0012c0b3006000b800e00607008d003700e2
:1014bc000041eb000000200001152400db060700b2
:1014cc0012c0b3000000200001152c00d706070045
:1014dc00b0c0b30010f0b70082003700008080006d
:1014ec00e10f500002003a00800007007d00370039
:1014fc000041eb006000b800cc06070012c0b3003e
:10150c006000b800c9060700760037000041eb0008
:10151c0000002000010a2c00c406070012c0b30012
:10152c000000200001152400c006070010c1b30004
:10153c0010f0b7006b00370000808000e10f500006
:10154c0002003a0069000700660037000041eb001a
:10155c006000b800b506070012c0b3006000b80008
:10156c00b20607005f0037000041eb0000002000ce
:10157c0001152400ad06070012c0b30000002000c6
:10158c00010a2c00a906070030c1b30010f0b70007
:10159c005400370000808000e10f500002003a0038
:1015ac00520007004f0037000041eb006000b8000c
:1015bc009e06070012c0b3006000b8009b0607002f
:1015cc00480037002230ef002430ef000041eb00e0
:1015dc0000002000011a24009406070012c0b3007a
:1015ec0000002000011a2c009006070050c1b30027
:1015fc0010f0b7003b003700108080006101b9008b
:10160c001081800021818000800f5100818f590052
:10161c003100310000808000e10f500002003a00e0
:10162c00320007002f0037000041eb006000b800cb
:10163c007e06070012c0b3006000b8007b060700ee
:10164c00280037002230ef002430ef000041eb007f
:10165c0000002000011a24007406070012c0b30019
:10166c0000002000011a2c007006070060c1b300b6
:10167c0010f0b7001b003700108080006101b9002a
:10168c001081800021818000800f5100818f5900d2
:10169c001300310000808000e10f500002003a007e
:1016ac00120007000f0037000041eb006000b8008b
:1016bc005e06070012c0b3006000b8005b060700ae
:1016cc00080037001070ef00000000000500370024
:1016dc00000000000300370000000000010037008c
:1016ec00000000000080fa00000006000a00fa006a
:1016fc00889fbe008a1f78000040eb00004f7800e6
:10170c00c88e8000d98e800050808000cf80de0093
:10171c0019fd07001ac0b3000001be000800be008e
:10172c00d5fc07000000e000010035000045eb008f
:10173c000a04e00003003200b0c0b300004f780090
:10174c0082023700a88e8000b98e80005080800005
:10175c00cf80de0008fd07001ac0b3000001be00f8
:10176c000800be00c4fc07000000e00001003500ca
:10177c000045eb000a04e00003003200a0c0b300f7
:10178c00004f780071023700c88e8000d98e80001f
:10179c0040808000cf80de00f7fc07001ac0b30049
:1017ac000001be000800be00b3fc07000000e00012
:1017bc00010035000045eb000a04e0003b0032005c
:1017cc00488e8000598e800020808000cf80de0003
:1017dc00e9fc07001ac0b3000001be000800be00ff
:1017ec00a7fc07000000e00001003c000045eb00f6
:1017fc000a04e0002d003200688e8000798e800093
:10180c0030808000cf80de00dbfc07001ac0b30004
:10181c000001be000800be0099fc07000000e000bb
:10182c0001003c000045eb000a04e0001f00320000
:10183c00888e8000998e800020808000cf80de0012
:10184c00cdfc07001ac0b3000001be000800be00aa
:10185c008bfc07000000e00001003c000045eb00a1
:10186c000a04e00011003200a88e8000b98e8000be
:10187c0040808000cf80de00bffc07001ac0b300a0
:10188c000001be000800be007dfc07000000e00067
:10189c0001003c000045eb000a04e00003003200ac
:1018ac00b0c0b300004f780028023700c88e80000b
:1018bc00d98e800040808000cf80de00aefc070017
:1018cc001ac0b3000001be000800be006cfc07008b
:1018dc000000e00001003c000045eb000a04e000c1
:1018ec003b003200488e8000598e800020808000a2
:1018fc00cf80de00a0fc07001ac0b3000001be00c0
:10190c000800be005efc07000000e00001003c0087
:10191c000045eb000a04e0002d003200688e8000c8
:10192c00798e800030808000cf80de0092fc070032
:10193c001ac0b3000001be000800be0050fc070036
:10194c000000e00001003c000045eb000a04e00050
:10195c001f003200888e8000998e800020808000cd
:10196c00cf80de0084fc07001ac0b3000001be006b
:10197c000800be0042fc07000000e00001003c0033
:10198c000045eb000a04e00011003200a88e800034
:10199c00b98e800040808000cf80de0076fc07008e
:1019ac001ac0b3000001be000800be0032fc0700e4
:1019bc000000e000010035000045eb000a04e000e7
:1019cc0003003200a0c0b300004f7800df013700e5
:1019dc00a88e8000b98e800040808000cf80de0011
:1019ec0065fc07001ac0b3000001be000800be0071
:1019fc0021fc07000000e000010035000045eb0071
:101a0c000a04e0003b003200c88e8000d98e8000b2
:101a1c0040808000cf80de0057fc07001ac0b30066
:101a2c000001be000800be0015fc07000000e0002d
:101a3c0001003c000045eb000a04e0002d003200e0
:101a4c00488e8000598e800020808000cf80de0080
:101a5c0049fc07001ac0b3000001be000800be001c
:101a6c0007fc07000000e00001003c000045eb0013
:101a7c000a04e0001f003200688e8000798e80001e
:101a8c0030808000cf80de003bfc07001ac0b30022
:101a9c000001be000800be00f9fb07000000e000da
:101aac0001003c000045eb000a04e000110032008c
:101abc00888e8000998e800020808000cf80de0090
:101acc002dfc07001ac0b3000001be000800be00c8
:101adc00ebfb07000000e00001003c000045eb00c0
:101aec000a04e00003003200a0c0b300004f7800ed
:101afc0096013700a88e8000b98e8000408080004f
:101b0c00cf80de001cfc07001ac0b3000001be0031
:101b1c000800be00dafb07000000e00001003c00fa
:101b2c000045eb000a04e0003b003200c88e800048
:101b3c00d98e800040808000cf80de000efc070034
:101b4c001ac0b3000001be000800be00cafb0700ab
:101b5c000000e000010035000045eb000a04e00045
:101b6c002d003200488e8000598e8000208080002d
:101b7c00cf80de0000fc07001ac0b3000001be00dd
:101b8c000800be00befb07000000e00001003c00a6
:101b9c000045eb000a04e0001f003200688e800054
:101bac00798e800030808000cf80de00f2fb070051
:101bbc001ac0b3000001be000800be00b0fb070055
:101bcc000000e00001003c000045eb000a04e000ce
:101bdc0011003200888e8000998e80002080800059
:101bec00cf80de00e4fb07001ac0b3000001be008a
:101bfc000800be00a2fb07000000e00001003c0052
:101c0c000045eb000a04e00003003200b0c0b30052
:101c1c00004f78004d013700488e8000598e8000af
:101c2c0020808000cf80de00d3fb07001ac0b300f9
:101c3c000001be000800be008ffb07000000e000a2
:101c4c00010035000045eb000a04e0001f003200e3
:101c5c00688e8000798e800030808000cf80de001e
:101c6c00c5fb07001ac0b3000001be000800be008f
:101c7c0081fb07000000e000010035000045eb008f
:101c8c000a04e00011003200888e8000998e8000da
:101c9c0020808000cf80de00b7fb07001ac0b300a5
:101cac000001be000800be0073fb07000000e0004e
:101cbc00010035000045eb000a04e000030032008f
:101ccc0070c0b300004f780020013700488e8000b0
:101cdc00598e800020808000cf80de00a6fb07009c
:101cec001ac0b3000001be000800be0062fb070072
:101cfc000000e000010035000045eb000a04e000a4
:101d0c001f003200688e8000798e80003080800049
:101d1c00cf80de0098fb07001ac0b3000001be00a4
:101d2c000800be0056fb07000000e00001003c006c
:101d3c000045eb000a04e00011003200888e8000a0
:101d4c00998e800020808000cf80de008afb070007
:101d5c001ac0b3000001be000800be0046fb07001d
:101d6c000000e000010035000045eb000a04e00033
:101d7c000300320040c0b300004f7800f30037007e
:101d8c00488e8000598e800020808000cf80de003d
:101d9c0079fb07001ac0b3000001be000800be00aa
:101dac0035fb07000000e000010035000045eb00aa
:101dbc000a04e0001f003200688e8000798e8000db
:101dcc0030808000cf80de006bfb07001ac0b300b0
:101ddc000001be000800be0027fb07000000e00069
:101dec00010035000045eb000a04e0001100320050
:101dfc00888e8000998e800020808000cf80de004d
:101e0c005dfb07001ac0b3000001be000800be0055
:101e1c001bfb07000000e00001003c000045eb004c
:101e2c000a04e0000300320060c0b300004f7800e9
:101e3c00c6003700488e8000598e800020808000bc
:101e4c00cf80de004cfb07001ac0b3000001be00bf
:101e5c000800be000afb07000000e00001003c0087
:101e6c000045eb000a04e0001f003200688e800081
:101e7c00798e800030808000cf80de003efb070032
:101e8c001ac0b3000001be000800be00fafa070039
:101e9c000000e000010035000045eb000a04e00002
:101eac0011003200888e8000998e80002080800086
:101ebc00cf80de0030fb07001ac0b3000001be006b
:101ecc000800be00ecfa07000000e000010035003d
:101edc000045eb000a04e0000300320050c0b300e0
:101eec00004f780099003700488e8000598e800092
:101efc0020808000cf80de001ffb07001ac0b300db
:101f0c000001be000800be00dbfa07000000e00084
:101f1c00010035000045eb000a04e0001f00320010
:101f2c00688e8000798e800030808000cf80de004b
:101f3c0011fb07001ac0b3000001be000800be0070
:101f4c00cffa07000000e00001003c000045eb0068
:101f5c000a04e00011003200888e8000998e800007
:101f6c0020808000cf80de0003fb07001ac0b30086
:101f7c000001be000800be00c1fa07000000e0002e
:101f8c0001003c000045eb000a04e00003003200b5
:101f9c0020c0b300004f78006c003700488e8000e2
:101fac00598e800020808000cf80de00f2fa07007e
:101fbc001ac0b3000001be000800be00b0fa070052
:101fcc000000e00001003c000045eb000a04e000ca
:101fdc001f003200688e8000798e80003080800077
:101fec00cf80de00e4fa07001ac0b3000001be0087
:101ffc000800be00a2fa07000000e00001003c004f
:10200c000045eb000a04e00011003200888e8000cd
:10201c00998e800020808000cf80de00d6fa0700e9
:10202c001ac0b3000001be000800be0092fa0700ff
:10203c000000e000010035000045eb000a04e00060
:10204c000300320010c0b300004f78003f0037008f
:10205c00688e8000798e800030808000cf80de001a
:10206c00c5fa07001ac0b3000001be000800be008c
:10207c0081fa07000000e000010035000045eb008c
:10208c000a04e0000300320030c0b300004f7800b7
:10209c002e003700488e8000598e800020808000f2
:1020ac00cf80de00b4fa07001ac0b3000001be00f6
:1020bc000800be0072fa07000000e00001003c00be
:1020cc000045eb000a04e00020003200688e80001e
:1020dc00798e800030808000cf80de00a6fa070069
:1020ec001ac0b3000001be000800be0064fa07006d
:1020fc000000e00001003c000045eb000a04e00099
:10210c0012003200888e8000998e80002080800022
:10211c00cf80de0098fa07001ac0b3000001be00a1
:10212c000800be0056fa07000000e00001003c0069
:10213c000045eb000a04e000040032000040eb0014
:10214c00004f7800100020006080880060808000c4
:10215c000000e00002003a001230ef0009003700e6
:10216c00908080000080e800908088000c30ef00a8
:10217c0090808000f90f50000200340020002000f5
:10218c00908088001e4078000004e00003003a00b4
:10219c0020c0b30014f0b700650037001e40780073
:1021ac00e24f500004003a0040c0b30014f0b700f6
:1021bc001630ef005e0037001e407800e14f5000f3
:1021cc0005003a0060c0b30014f0b7001000200006
:1021dc00b0808800560037001e407800e34f500056
:1021ec0009003a00b08080000000e00003003a00d3
:1021fc0080c0b30014f0b7004d003700a0c0b3008e
:10220c0014f0b7004a0037001e407800e64f50002b
:10221c0004003a0080c0b30014f0b7001630ef0091
:10222c00430037001e407800e54f500005003a008f
:10223c00a0c0b30014f0b70010002000b0808800dc
:10224c003b0037001e407800e44f500003003a007a
:10225c0080c0b30014f0b700350037001e40780082
:10226c00e74f500009003a00b08080000000e00009
:10227c0003003a0080c0b30014f0b7002c00370004
:10228c00a0c0b30014f0b700290037001e4078003e
:10229c00e84f500003003a0080c0b30014f0b700c0
:1022ac00230037001e407800ea4f500003003a002c
:1022bc0000c1b30014f0b7001d0037001e407800b9
:1022cc00eb4f500003003a0020c1b30014f0b700ec
:1022dc00170037001e407800ed4f500009003a00ff
:1022ec00b08080000000e00003003a0000c1b300a1
:1022fc0014f0b7000e00370020c1b30014f0b70083
:10230c000b0037001e407800ec4f500008003a00dc
:10231c00b08080000000e00003003a0070c1b30000
:10232c0014f0b7000200370040c1b30014f0b7003e
:10233c0014d0bf008080fb0010d0bf000080fb00d9
:10234c000000e900808f50003e00320014d0bf0026
:10235c0010f0b7000000eb001007980001012100fd
:10236c00914078001e0090006400400001777800d6
:10237c001e0090000000e8001007980010818000fb
:10238c00218180004808de00804078001e0090000b
:10239c0064004000017778001e0090000000e80007
:1023ac001007980010818000218180004008de0019
:1023bc00804078001e009000640040000177780097
:1023cc001e0090000000e8001007980010818000ab
:1023dc00218180004809dd004800de00000071000a
:1023ec00c808de00804078001e00900064004000a9
:1023fc00017778001e0090000000e800100798009c
:10240c001081800021818000804078001e009000a7
:10241c0064004000017778001e0090000000e80086
:10242c00100798001e0090000000e80010079800ac
:10243c0064004700000178009e0090000005200019
:10244c00730007004f0578004f04be000080fa00af
:10245c00000006000200fa00000f78001e00780051
:10246c00e40f50001e003200e40f500007003c0047
:10247c00e20f500012003200e20f500014003c003a
:10248c00e10f50000a00320029003700e60f50001f
:10249c001b003200e60f500015003500e70f50000e
:1024ac001b003200e80f50001d00320020003700e6
:1024bc0064cea90064eea900254ea80020003700c8
:1024cc0064cea80064eea900254ea9001c003700bc
:1024dc0064cea90064eea800254ea90018003700b0
:1024ec0064cea80064eea800254ea90014003700a5
:1024fc0064cea90064eea800254ea8001000370099
:10250c0064cea80064eea900254ea8000c0037008c
:10251c0064cea80064eea800254ea8000800370081
:10252c0064cea90064eea900254ea9000400370072
:10253c0064cea90064eea900254ea900000000009d
:10254c000080fa00000006000a00fa00200798003c
:10255c0031079800420798000040eb00004f7800cc
:10256c00e0cfb3001e4f68002e0090004880de00c4
:10257c00804078001e40780000c06800004f780052
:10258c002e009000804078001e40780000c068004b
:10259c00004f78003e0090004880de0080407800bc
:1025ac001e40780000c06800004f78003e0090008c
:1025bc00804078001e40780000c06800004f780012
:1025cc000000eb00100798000000eb0010079800cb
:1025dc00080037001e009000ce00900000804000e4
:1025ec00104078001e4f68001e0090000000e800ac
:1025fc00100798009e0090003e009000808f5000c5
:10260c00f4ff35001e4078000080fa000000060040
:10261c001000fa00889fbe005007980061079800d0
:10262c00720798000f0478000f007800800478007f
:10263c000040eb00404798006e00900066004000a0
:10264c008000e900310798000000e8000000e80075
:10265c000000d100800040000f0078008187470007
:10266c000000e8000000d100000040004007980086
:10267c000000eb00000f78004e0090001e004000a0
:10268c00e1cfb300014878001e0fe8005e00900017
:10269c004880de00804078004e0090001e00400014
:1026ac00014878001e0fe8005e0090008040780022
:1026bc004e0090001e004000014878001e0fe800fc
:1026cc006e0090004880de00804078004e00900044
:1026dc001e004000014878001e0fe8006e009000bc
:1026ec00804078004e0090001e00400001487800a9
:1026fc001e0fe8000000eb00100798000000eb0034
:10270c00100798000b0037001e009000fe00900090
:10271c0000804000904078004e0090001e00400069
:10272c00014878001e0fe8001e0090000000e80031
:10273c00100798009e0090006e009000808f500053
:10274c00f1ff35007e019000ee0090005e009000dd
:10275c007dff0700404798004e0090001e0040008f
:10276c00ce409000014878001e0fe8006e009000eb
:10277c00e60040004e0090007203070089077800c5
:10278c00880778004f04be000080fa0000000600a5
:10279c000200fa00004f7800f0808000e30f500038
:1027ac0026003200e30f500007003c00e10f500000
:1027bc0015003200e10f500019003c000000e00051
:1027cc00080032004b003700e50f50002d0032009e
:1027dc00e50f50001f003500e60f500037003200a7
:1027ec00440037001e407800e24f400044003a009d
:1027fc0010002000f08088001a30ef001830ef0035
:10280c001c30ef00410037001e80fb004800dd004b
:10281c00c080880020002000f08088003b0037003a
:10282c009e80fb00c080800000804000c08088003b
:10283c0030002000f0808800340037001e80fb0040
:10284c004800dd00d080880040002000f080880027
:10285c002e0037009e80fb00d0808000008040005e
:10286c00d0808800d1808000c05d2000808f500017
:10287c00010034001e30ef0050002000f080880072
:10288c0022003700e08080006113210000804000ae
:10289c001e487800e08080000000e800e08088009e
:1028ac00e1808000d0808000808f500016003a00bc
:1028bc0060002000f0808800140037001e41780072
:1028cc00010221008248780020d0bf009e4f5000aa
:1028dc0006003a00d080800080407800c0808000e4
:1028ec0000407800621321000a0007001e30ef0040
:1028fc00060037001e30ef00000000000300370018
:10290c000000000001003700000000000080fa0009
:10291c00000006000400fa00004f780011479800f0
:10292c00120798001e80fb0011052000810f50003b
:10293c000700320021052000810f500008003200f2
:10294c0001022000810f50000900320054003700b2
:10295c001e00900010407800530007005000370014
:10296c001e009000104078005f0007004c003700fc
:10297c001e0090009040780090c4b30080cf5000af
:10298c0007003a001e0090000000e800904078001c
:10299c0010c3b30080cf500001003a00254ea800b0
:1029ac001e00900090407800f0c4b30080cf50001f
:1029bc0007003a001e0090000000e80090407800ec
:1029cc0010c3b30080cf500001003a00254ea9007f
:1029dc001e0090009040780090c4b30080cf50004f
:1029ec0007003a001e0090000000e80090407800bc
:1029fc0020c3b30080cf500001003a0064cea80081
:102a0c001e00900090407800f0c4b30080cf5000be
:102a1c0007003a001e0090000000e800904078008b
:102a2c0020c3b30080cf500001003a0064cea9004f
:102a3c001e0090009040780090c4b30080cf5000ee
:102a4c0007003a001e0090000000e800904078005b
:102a5c0030c3b30080cf500001003a0064eea800f0
:102a6c001e00900090407800f0c4b30080cf50005e
:102a7c0008003a001e0090000000e800904078002a
:102a8c0030c3b30080cf500004003a0064eea900bc
:102a9c0003003700000000000100370000000000b8
:102aac000080fa00000006000200fa00004f7800d7
:102abc0000c3b3009e40780080cf500003003a0062
:102acc0064eea8000030ef000500370064eea900aa
:102adc00100020000080880020c0b30010f0b70068
:102aec000080fa00000006000200fa00004f780097
:102afc000080fa00000006000400fa0013e1a900af
:102b0c0011e1a9001061a8001021a9008108800022
:102b1c00f0fc2f0000806000800888000a21ef0084
:102b2c000621ef00404c20007008880000402b006c
:102b3c0060088800800880004400de00634060006c
:102b4c000081fb008001eb00700880008000eb002e
:102b5c00c002dd0004002000600880008000eb0053
:102b6c000400400085804800809ab900828bb9002f
:102b7c0086027800050242000010b80001024200f3
:102b8c00840078000001be0000a025002126200052
:102b9c00aaf70700f8f70700008fbe00214280005b
:102bac0080ff2f00008060000000a0002042880001
:102bbc000108a9002108a80011e1a8000080fa0072
:102bcc00000006000400fa00881f7800008fbe0089
:102bdc0021088000f0fc2f00008060002008880095
:102bec001e0178009e0190000068290081c124001c
:102bfc0050f7070018c0b30002f02f00f377240041
:102c0c009ff707000000e00001003c000044eb00cf
:102c1c000804e0005400320021088000f0fc2f0072
:102c2c00008060000040a000200888001e01780091
:102c3c009e0190000068290081c124003df7070027
:102c4c0002002000031024003af7070018c0b3005c
:102c5c0002f02f00f377240089f707000000e00052
:102c6c0001003c000044eb000804e000320032009c
:102c7c0021088000f0fc2f00008060000050a000b4
:102c8c00200888001e0178009e0190000068290031
:102c9c0081c1240027f7070002002000032824002c
:102cac0024f7070018c0b30002f02f00f3772400bc
:102cbc0073f707000000e00001003c000044eb004b
:102ccc000804e000100032002108800000032000fe
:102cdc0001007000200888001e0178009e01900001
:102cec000068290081c1240012f7070002002000af
:102cfc00033824000ff7070063f707000000780083
:102d0c0010088800200037001e0178009e019000fa
:102d1c000068290081c1240006f70700020020008a
:102d2c000328240003f7070057f70700000078007a
:102d3c0010088800140037001e0178009e019000d6
:102d4c000068290081c12400faf607000200200067
:102d5c0003102400f7f607004bf70700000078007b
:102d6c0010088800080037001e0178009e019000b2
:102d7c000068290081c12400eef6070042f7070025
:102d8c0000007800100888004f0478000080fa00da
:102d9c00000006000000fa0005e1a9000421a900ca
:102dac00000020008124240086ff07000068a90091
:102dbc002068a80005e1a8000080fa0000000600c9
:102dcc000400fa00881f7800008fbe00f108800014
:102ddc00f0fc2f0000806000f00888001e017800d5
:102dec009e0190000068290081c12400d1f60700e3
:102dfc0018c0b30002f02f00f377240020f707006f
:102e0c000000e00001003c000044eb000804e0007e
:102e1c0054003200f1088000f0fc2f0000806000ac
:102e2c000040a000f00888001e0178009e01900070
:102e3c000068290081c12400bef6070002002000b2
:102e4c0003102400bbf6070018c0b30002f02f00db
:102e5c00f37724000af707000000e00001003c00b3
:102e6c000044eb000804e00032003200f10880005e
:102e7c00f0fc2f00008060000050a000f0088800db
:102e8c001e0178009e0190000068290081c1240079
:102e9c00a8f607000200200003282400a5f607006e
:102eac0018c0b30002f02f00f3772400f4f60700eb
:102ebc000000e00001003c000044eb000804e000ce
:102ecc0010003200f10880000003200001007000a7
:102edc00f00888001e0178009e019000006829000f
:102eec0081c1240093f6070002002000033824005f
:102efc0090f60700e4f6070000007800d008880080
:102f0c00200037001e0178009e0190000068290007
:102f1c0081c1240087f6070002002000032824004a
:102f2c0084f60700d8f6070000007800d008880067
:102f3c00140037001e0178009e01900000682900e3
:102f4c0081c124007bf6070002002000031024003e
:102f5c0078f60700ccf6070000007800d00888004f
:102f6c00080037001e0178009e01900000682900bf
:102f7c0081c124006ff60700c3f60700000078003b
:102f8c00d00888004f0478000080fa00000006008a
:102f9c000000fa001fe1a9001e21a900000020007a
:102fac00a147240086ff07000368a9002368a80036
:102fbc001fe1a8000080fa00000006000000fa00e3
:102fcc001160800080ff2f0000806000106088007e
:102fdc0000fa20002060880023aca800238ca800f5
:102fec0011618000f03f2f000080600000a0a00065
:102ffc00106188003000200020618800c3aca8005c
:10300c00c38ca80011668000f03f2f000080600088
:10301c0000a0a00010668800300020002066880008
:10302c0001eca8000080fa00000006000600fa007f
:10303c00008fbe00424798004e4090000004e00014
:10304c0005003a001e0178009e019000028e880057
:10305c00138e8800070037004e409000e14f50005f
:10306c0004003a001e0178009e019000c28d880079
:10307c00d38d88000080fa00000006000000fa00e2
:10308c00889fbe008a9fbe00248e8000358e8000f3
:10309c00008e8000118e800018c0b3000001be00ad
:1030ac000400be0074f607000000e00001003500cb
:1030bc000044eb000804e0000f003200088e800092
:1030cc00198e80002a8e80003b8e800032d0bf008b
:1030dc000080fb00cf80de00a7f607000001be00d9
:1030ec000a00be00b6f507000801be00bc000700d0
:1030fc00208e8800318e8800248e8000358e8000d2
:10310c00008e8000118e800018c0b3000001be003c
:10311c000400be005af607000000e00001003c006d
:10312c000044eb000804e0000f003200088e800021
:10313c00198e80002a8e80003b8e800032d0bf001a
:10314c000080fb00cf80de008bf607000001be0084
:10315c000a00be0099f507000801be0088000700b0
:10316c00208e8800318e8800208e8000318e800069
:10317c0018c0b3006011b80041f607000000e00071
:10318c0001003c000044eb000804e00004003200a5
:10319c00c3cca90024eea800c3eca80003003700a0
:1031ac00c3eca90024cea800c3cca800208e8000bc
:1031bc00318e80005c0007000200200003222400f6
:1031cc00c5f6070051f6070000007800306688004d
:1031dc00e48d8000f58d8000c08d8000d18d800045
:1031ec0018c0b3000001be000400be0022f60700a8
:1031fc000000e000010035000044eb000804e00092
:10320c000f003200c88d8000d98d8000ea8d8000bf
:10321c00fb8d800032d0bf000080fb00cf80de0031
:10322c0055f607000001be000a00be0064f5070059
:10323c000801be006a000700e08d8800f18d88004f
:10324c00e48d8000f58d8000c08d8000d18d8000d4
:10325c0018c0b3000001be000400be0008f6070051
:10326c000000e00001003c000044eb000804e0001a
:10327c000f003200c88d8000d98d8000ea8d80004f
:10328c00fb8d800032d0bf000080fb00cf80de00c1
:10329c0039f607000001be000a00be0047f5070022
:1032ac000801be0036000700e08d8800f18d880013
:1032bc00e08d8000f18d800018c0b3006011b80063
:1032cc00eff507000000e00001003c000044eb00bb
:1032dc000804e0000400320023eca90015cea8007d
:1032ec0023cca8000300370023cca90015eea800be
:1032fc0023eca800e08d8000f18d80000a0007000f
:10330c00020020000322240073f60700fff50700db
:10331c0000007800306188004f05be004f04be00ed
:10332c000080fa00000006000400fa00881f7800f4
:10333c00008fbe0018c0b3006011b8001e007800ea
:10334c009e009000cef507000000e00001003d005b
:10335c000044eb000804e000030032001e0078007b
:10336c009e009000030037001e0078009e00900025
:10337c0001f0a2004f0478000080fa000000060063
:10338c000800fa00881f7800008fbe002207980002
:10339c003307980018c0b3002e019000be019000b6
:1033ac001e0078009e009000b5f507000000e000bc
:1033bc0001003c000044eb000804e0000300320074
:1033cc001e0078009e009000020037002e00900036
:1033dc00be0090004f0478000080fa000000060048
:1033ec000800fa00881f7800008fbe0022079800a2
:1033fc003307980018c0b3002e019000be01900056
:10340c001e0078009e0090009bf507000000e00075
:10341c00010035000044eb000804e000030032001a
:10342c001e0078009e009000020037002e009000d5
:10343c00be0090004f0478000080fa0000000600e7
:10344c000c00fa00881f7800008fbe00220798003d
:10345c0033079800440798005507980018c0b3002c
:10346c004e019000de0190001e0078009e0090003e
:10347c0083f507000000e00001003c000044eb0075
:10348c000804e000040032004e019000de019000c0
:10349c00028fbe000e00370018c0b3002e01900042
:1034ac00be0190001e0078009e00900072f507008f
:1034bc000000e000010035000044eb000804e000cf
:1034cc00030032002e019000be019000028fbe005e
:1034dc001e0078009e0090004f0478000080fa00d7
:1034ec00000006000400fa00008fbe00b2fd2000b0
:1034fc00930424001e0078009e0090000df5070038
:10350c000200200043332400f3f507000080fa008a
:10351c00000006000400fa00008fbe00b2fd20007f
:10352c00930424001e0078009e009000eaf507002a
:10353c000200200043332400fef407000080fa0050
:10354c00000006000600fa001007980021079800fa
:10355c000040eb00004f780054000700ae009000d4
:10356c00810f5000110034000040eb00004f780038
:10357c00060037001e80fb009e009000008040007b
:10358c00104078000b0007001e4fe8009e80fb00e7
:10359c002e009000808f5000f6ff35002e000700a3
:1035ac000004e00001003a00220007000080fa004d
:1035bc00000006000200fa00004f780040818000f5
:1035cc0061032100008040001e487800408180008b
:1035dc000000e8004081880041818000f007200055
:1035ec00808f5000010034002830ef000080fa007a
:1035fc00000006000200fa005081800061032100e7
:10360c0000804000104f7800508180000000e800de
:10361c005081880051818000f0072000808f50007d
:10362c00010034002a30ef001e4078000080fa00c0
:10363c00000006000200fa0010c0b3002cf0b70026
:10364c00ecff0700004f78001e80fb002011880063
:10365c000080fa00000006000000fa002cd0bf0029
:10366c000080fa00000006000200fa004181800090
:10367c0050818000808f5000040035004181800013
:10368c0050818000008f5000050037004181800080
:10369c00508180000080500001082000010f400084
:1036ac001e0078000080fa00000006000200fa00fc
:1036bc00edff070001082000008f50001e0078006d
:1036cc000080fa00000006000000fa0021e3a900c7
:1036dc002143a80001198000f0cf2f00008060006a
:1036ec00001988002043a90001198000000e200059
:1036fc00010070000019880011198000f0ff2100f2
:10370c0000806000101988002343a8001119800064
:10371c00f0cf2f0000806000101988001119800074
:10372c0030f82f00008060000040a00010198800c5
:10373c002203a9002223a90025e3a900f0c0b300ad
:10374c0024e3b70021198000f00f2e008080600068
:10375c0000f0200001007000201988003303a9003c
:10376c002e0ea8002f6ea8006f2ea8001e2ea800eb
:10377c004feea80030c3a8003163a8002e03a800a8
:10378c003063a80031e3a8004119800000fc2f0031
:10379c00008060004019880028e3a90001a8a90056
:1037ac0021a8a80021e3a8000080fa000000060070
:1037bc000000fa002023a8000080fa000000060098
:1037cc000000fa00c01d21000080fa000000060075
:1037dc000000fa0035d0bf000080fa00000006009f
:1037ec000000fa003570ef000080fa0000000600bf
:1037fc000200fa00004f78002a0007000000e000e9
:10380c000c00340070818000610b210000804000ae
:10381c001e487800708180000000e80070818800ec
:10382c0071818000f0072000808f5000010034006f
:10383c002e30ef000080fa00000006000200fa00b3
:10384c0080818000610b210000804000104f7800c7
:10385c00808180000000e8008081880081818000e8
:10386c00f0072000808f5000010034003030ef0052
:10387c001e4078000080fa00000006000000fa00ec
:10388c007181800080818000808f500002003200a6
:10389c0010c0b300010037000040eb000080fa00bc
:1038ac00000006000200fa000500070001082000d5
:1038bc00008f50001e0078000080fa000000060007
:1038cc000200fa007181800080818000808f50009e
:1038dc00040035007181800080818000008f5000d1
:1038ec0005003700718180008081800000805000cd
:1038fc0001082000010f40001e0078000080fa0033
:10390c00000006000000fa002002a900011180004e
:10391c0090ff2f00008060000011880020a2a900f9
:10392c002062a800500520004011880023a2a900a5
:10393c0023e2a9000188a9002188a80011118000a8
:10394c00f0f32f0000806000101188000168a900be
:10395c002168a80021e2a8002342a8000080fa00f8
:10396c00000006000600fa001007980021079800d6
:10397c000040eb00004f78000040eb00004f780057
:10398c000e00370000000000111180000020200004
:10399c00008060000000e000fbff3a001e00900079
:1039ac00104078000080fb00201188001e00900061
:1039bc000000e800100798001e4fe8009e80fb00f6
:1039cc002e009000808f5000eeff35000080fa0032
:0439dc0000000600e1
:020000040000fa
:1039e0000e1000000a00000080000000001000001f
:1039f0000e000000820000000100e8000323000028
:103a0000190005000019000001000000221000004c
:103a10000600000080000000b61100002600000033
:103a20008000000032100000020000008200000050
:103a300001000000dc1100000a000000800000000e
:103a4000341000000200000080000000361000006a
:103a50008000000080000000281000000600000028
:103a600080000000b6100000800000008000000010
:103a70002e1000000400000080000000361100003d
:103a80008000000080000000181000000a00000004
:083a90008000000000000000ae
:020000040000fa
:103a98000000fa00f0032000303a8800213a800044
:103aa800f0f32f0000806000203a8800213a80005f
:103ab80000fe2f00008060000000a000203a88006f
:103ac8001200200080072000a10920003374200084
:103ad800804978008149780082497800103a80004e
:103ae800000178000200a000600420007105200099
:103af8002374200080497800814978008249780041
:103b080000000000113a800000002700808060005b
:103b180000002100808f5000faff3a0000000000ea
:103b2800113a800000022000008060000000e000e0
:103b3800fbff32000080fa00000006000000fa00d7
:103b48000e2eef001e2eef002e2eef003e2eef0061
:103b58004e2eef005e2eef006e2eef00214ea900d4
:103b680060cea90060eea90011cea90011eea9004f
:103b780020cea90020eea9002136800000f82f00f1
:103b8800008060008001b300203688001134800076
:103b980000fc2f00008060000000a00010348800a6
:083ba8000080fa000000060095
:020000040000fa
:02000004000af0
:04afe000cfff00009f
:020000040000fa
:02000004000af0
:04afe400ffff00006b
:020000040000fa
:02000004000af0
:04afe8007fff0000e7
:020000040000fa
:02000004000af0
:04afec005fff000003
:020000040000fa
:02000004000af0
:04aff00038ff000026
:020000040000fa
:02000004000af0
:04aff400ffff00005b
:00000001FF
