:020000040000fa
:080000000002040000000000f2
:020000040000fa
:04000800e003000011
:020000040000fa
:04000c00e00300000d
:020000040000fa
:04001000e003000009
:020000040000fa
:04001400e003000005
:020000040000fa
:04001800e003000001
:020000040000fa
:04001c00e0030000fd
:020000040000fa
:04002000e0030000f9
:020000040000fa
:04002400e0030000f5
:020000040000fa
:04002800e0030000f1
:020000040000fa
:04002c00e0030000ed
:020000040000fa
:04003000e0030000e9
:020000040000fa
:0400340002030000c3
:020000040000fa
:04003800e0030000e1
:020000040000fa
:04003c00e0030000dd
:020000040000fa
:04004000e0030000d9
:020000040000fa
:04004400e0030000d5
:020000040000fa
:04004800fa020000b8
:020000040000fa
:04004c00e0030000cd
:020000040000fa
:04005000e0030000c9
:020000040000fa
:040054009c03000009
:020000040000fa
:04005800720300002f
:020000040000fa
:04005c004e0300004f
:020000040000fa
:04006000e0030000b9
:020000040000fa
:04006400e0030000b5
:020000040000fa
:04006800e0030000b1
:020000040000fa
:04006c00e0030000ad
:020000040000fa
:04007000e0030000a9
:020000040000fa
:04007400e0030000a5
:020000040000fa
:04007800e0030000a1
:020000040000fa
:04007c00e00300009d
:020000040000fa
:04008000e003000099
:020000040000fa
:04008400e003000095
:020000040000fa
:04008800e003000091
:020000040000fa
:04008c00e00300008d
:020000040000fa
:04009000e003000089
:020000040000fa
:040094002403000041
:020000040000fa
:04009800e003000081
:020000040000fa
:04009c00e00300007d
:020000040000fa
:0400a000e003000079
:020000040000fa
:0400a400e003000075
:020000040000fa
:0400a800e003000071
:020000040000fa
:0400ac00e00300006d
:020000040000fa
:0400b000e003000069
:020000040000fa
:0400b400e003000065
:020000040000fa
:0400b800e003000061
:020000040000fa
:0400bc00e00300005d
:020000040000fa
:0400c000e003000059
:020000040000fa
:0400c400e003000055
:020000040000fa
:0400c800e003000051
:020000040000fa
:0400cc00e00300004d
:020000040000fa
:0400d000e003000049
:020000040000fa
:0400d400e003000045
:020000040000fa
:0400d800e003000041
:020000040000fa
:0400dc00e00300003d
:020000040000fa
:0400e000e003000039
:020000040000fa
:0400e400e003000035
:020000040000fa
:0400e800e003000031
:020000040000fa
:0400ec00e00300002d
:020000040000fa
:0400f000e003000029
:020000040000fa
:0400f400e003000025
:020000040000fa
:0400f800e003000021
:020000040000fa
:0400fc00e00300001d
:020000040000fa
:04010000e003000018
:020000040000fa
:04010400e003000014
:020000040000fa
:04010800e003000010
:020000040000fa
:04010c00e00300000c
:020000040000fa
:04011000e003000008
:020000040000fa
:04011400e003000004
:020000040000fa
:04011800e003000000
:020000040000fa
:04011c00e0030000fc
:020000040000fa
:04012000e0030000f8
:020000040000fa
:04012400e0030000f4
:020000040000fa
:04012800e0030000f0
:020000040000fa
:04012c00e0030000ec
:020000040000fa
:04013000e0030000e8
:020000040000fa
:04013400e0030000e4
:020000040000fa
:04013800e0030000e0
:020000040000fa
:04013c00e0030000dc
:020000040000fa
:04014000e0030000d8
:020000040000fa
:04014400e0030000d4
:020000040000fa
:04014800e0030000d0
:020000040000fa
:04014c00e0030000cc
:020000040000fa
:04015000e0030000c8
:020000040000fa
:04015400e0030000c4
:020000040000fa
:04015800e0030000c0
:020000040000fa
:04015c00e0030000bc
:020000040000fa
:04016000e0030000b8
:020000040000fa
:04016400e0030000b4
:020000040000fa
:04016800e0030000b0
:020000040000fa
:04016c00e0030000ac
:020000040000fa
:04017000e0030000a8
:020000040000fa
:04017400e0030000a4
:020000040000fa
:04017800e0030000a0
:020000040000fa
:04017c00e00300009c
:020000040000fa
:04018000e003000098
:020000040000fa
:04018400e003000094
:020000040000fa
:04018800e003000090
:020000040000fa
:04018c00e00300008c
:020000040000fa
:04019000e003000088
:020000040000fa
:04019400e003000084
:020000040000fa
:04019800e003000080
:020000040000fa
:04019c00e00300007c
:020000040000fa
:0401a000e003000078
:020000040000fa
:0401a400e003000074
:020000040000fa
:0401a800e003000070
:020000040000fa
:0401ac00e00300006c
:020000040000fa
:0401b000e003000068
:020000040000fa
:0401b400e003000064
:020000040000fa
:0401b800e003000060
:020000040000fa
:0401bc00e00300005c
:020000040000fa
:0401c000e003000058
:020000040000fa
:0401c400e003000054
:020000040000fa
:0401c800e003000050
:020000040000fa
:0401cc00e00300004c
:020000040000fa
:0401d000e003000048
:020000040000fa
:0401d400e003000044
:020000040000fa
:0401d800e003000040
:020000040000fa
:0401dc00e00300003c
:020000040000fa
:0401e000e003000038
:020000040000fa
:0401e400e003000034
:020000040000fa
:0401e800e003000030
:020000040000fa
:0401ec00e00300002c
:020000040000fa
:0401f000e003000028
:020000040000fa
:0401f400e003000024
:020000040000fa
:0401f800e003000020
:020000040000fa
:0401fc00e00300001c
:020000040000fa
:04020000e003000017
:020000040000fa
:04020400e003000013
:020000040000fa
:04020800e00300000f
:020000040000fa
:04020c00e00300000b
:020000040000fa
:04021000e003000007
:020000040000fa
:04021400e003000003
:020000040000fa
:04021800e0030000ff
:020000040000fa
:04021c00e0030000fb
:020000040000fa
:04022000e0030000f7
:020000040000fa
:04022400e0030000f3
:020000040000fa
:04022800e0030000ef
:020000040000fa
:04022c00e0030000eb
:020000040000fa
:04023000e0030000e7
:020000040000fa
:04023400e0030000e3
:020000040000fa
:04023800e0030000df
:020000040000fa
:04023c00e0030000db
:020000040000fa
:04024000e0030000d7
:020000040000fa
:04024400e0030000d3
:020000040000fa
:04024800e0030000cf
:020000040000fa
:04024c00e0030000cb
:020000040000fa
:04025000e0030000c7
:020000040000fa
:04025400e0030000c3
:020000040000fa
:04025800e0030000bf
:020000040000fa
:04025c00e0030000bb
:020000040000fa
:04026000e0030000b7
:020000040000fa
:04026400e0030000b3
:020000040000fa
:04026800e0030000af
:020000040000fa
:04026c00e0030000ab
:020000040000fa
:04027000e0030000a7
:020000040000fa
:04027400e0030000a3
:020000040000fa
:04027800e00300009f
:020000040000fa
:04027c00e00300009b
:020000040000fa
:04028000e003000097
:020000040000fa
:100400002f2321000eff2c000e01880000000000a9
:10041000000020000000e000020032000001200087
:100420002002880014000700e70007000000e00039
:1004300003003a00a00e2200010020000200370055
:100440000000200001002000810f70000100320038
:100450000f000700000020000000e0000200320052
:1004600000000200000000002c0902000000000053
:100470000040da000000fe00200020000000e00044
:1004800002003200100020009001880000000600e9
:10049000a1028800800478000000eb001f003700f4
:1004a000e284440054a0b4009905ba00e2844400f8
:1004b00054a0b4009906ba00e284440054a0b400e9
:1004c0000006eb00476fde00fd07b200ae018800ba
:1004d000636ce10003003a000ad801000000eb0061
:1004e0000e003700606ce10008003a00004deb00a0
:1004f0000a05e800020039003420ec000af0a000f0
:100500008b05e900f9ff3e00040037006168e10057
:10051000010032000086eb000b00070019c7ba008b
:100520000e04e0001905ba0003003a000a00e000da
:10053000dbff3a0000000600fe07b200ae028800b2
:100540008a047800f5ff37000cd0a300e20f4d00bd
:100550001c00390089027800354dba000a05e80010
:10056000020039003420ec000af0a0008b05e900fd
:100570000f003200254dba000a05e80002003900dc
:100580003420ec000af0a0008b05e90008003200de
:100590000c00e0000600320015cdba000a05e800a4
:1005a000020039003420ec000af0a0008b05e900bd
:1005b0008984e80054a0b4000b00e000e2ff3a0098
:1005c000000006009902ba00055d78008b05e9007d
:1005d000f7ff3200c82ade00055d78008b05e900d0
:1005e000f3ff32000c00e000f1ff320019ddba0029
:1005f000eeff37000000fa000108a9000080fa00b1
:10060000004006003600f800809fbe00829fbe00ba
:10061000849fbe00869fbe000000fa000068a9000b
:10062000960c0700620e0700840b07000080fa009a
:100630004f03be004f02be004f01be004f00be0080
:100640003600f900004006003600f800809fbe002a
:10065000829fbe00849fbe00869fbe000000fa00fd
:100660000368a90020828000318280006100400080
:10067000e08048002082880031828800d203070091
:100680000080fa004f03be004f02be004f01be00c3
:100690004f00be003600f90000400600801f7800c1
:1006a0000000fa0001a8a90000188000409188000d
:1006b00010188000509188002018800060918800f8
:1006c0003018800070918800401880008091880068
:1006d00010c0b30057f0b7000080fa004f00780058
:1006e000004006003600f800809fbe00829fbe00da
:1006f000849fbe00869fbe000000fa000188a9000a
:100700006182800050828000808f500002003200a1
:10071000c80d0700010037004e70ef000080fa009e
:100720004f03be004f02be004f01be004f00be008f
:100730003600f900004006003600f800809fbe0039
:10074000829fbe00849fbe00869fbe000000fa000c
:100750000168a90010118000640060000000e00042
:10076000010032002242a9001011800062006000e6
:100770000000e000060032002222a9000500370038
:100780003011800000407800190e0700010037008a
:100790000000000010118000610060000000e00017
:1007a000f7ff3a000080fa004f03be004f02be0080
:1007b0004f01be004f00be003600f90000400600a9
:1007c0000040da000000fe000000050003f0a20077
:1007d000889fbe008a9fbe008c1f78002c010700f6
:1007e000330133006450e1004f0032006420e10027
:1007f0005200320003826c0007003b000905d00064
:100800000306d000820f54000c065d000200390080
:1008100002003200890178000306780085825500c5
:1008200004003d000003fd008103fd008502ea0095
:100830008b854200840f720002003b0060001000b4
:10084000e08018006011b8000005eb007a28e10094
:100850000a00390006007800c75ddd00f707b20026
:10086000878075002d003700828171000a017800b1
:10087000610560008180d1000080d3008502e9001d
:10088000f9ff3b00060440008784480002003b005b
:1008900060041400e0841c000988a30007003200f3
:1008a0008a81710082817100610164008904d10034
:1008b0000884d3008b05e800170037000978a300ef
:1008c00013003a000b00e000130034008b05e90030
:1008d0000804440089844c000a4474000978a30089
:1008e0000d003a000b00e000070034008b05e90022
:1008f0000804440089844c0001003a000b002000e9
:100900000978a300f7ff32000001eb000200370076
:10091000828171000a017800a20007000cf0a70094
:1009200001f0a000eb0037006420e10002003a0073
:10093000838f6c00eb0033000801be000200be0094
:10094000e40037000081eb001d013700889fbe00e6
:100950008a9fbe008c1f7800cd000700d4003300b2
:1009600003866c006450e1002e0032006420e10038
:10097000330032006150e1002f0032006120e100bd
:100980003100320085855500eb07b00009002000da
:1009900008042000050037000804440089844c0046
:1009a0000a0031000603430087834b000001530017
:1009b00081815b00f8ff33000203be000800a00045
:1009c0000804440089844c00f6ff3900c639dd0074
:1009d0008301730001003200130020008904d1005c
:1009e0000884d3000998a300050032000800a7007e
:1009f0000300a0008904d1000884d3008b05e8001f
:100a00008904d1000884d3000001eb000281d200e8
:100a10006400070001f0a1000cf0a70001f0a000a5
:100a2000ac0037006420e100ae0032000801be00d7
:100a30000200be00f7ff37006120e100a90032008c
:100a40006000b800f3ff37000000200001f8270025
:100a5000f0ff3700839f68000100e00002003d00c6
:100a600060001000e08018000300e00002003d007c
:100a700060011100e08119003c0107004f00e00017
:100a800002003b0060001000e0801800000006003b
:100a90001400200045013700f4ff2f004301370008
:100aa0000001be00650007000470a70003f0a1006c
:100ab0006509b100160032000d0035006828e1001c
:100ac00006003500f0ff2f00f1ff27000300e000d3
:100ad00013003b000100280000000500000040005a
:100ae000818048008502e900fcff3a0008003700d9
:100af000f88f420002003c008000eb00000005007f
:100b00008100d1000080d3008502e800fcff3a009c
:100b10000300e00002003b0060001000e0801800cd
:100b2000000006000001be00440007000470a7009a
:100b300003f0a10003f8a30013003a006509b10017
:100b400010003200090035006928e100020035007c
:100b500001002800000005000000400081804800de
:100b60008502e900fcff3a0000000600f88f420011
:100b7000050035008100d1000080d3008502e80027
:100b8000fcff3a00000006008000eb0000000500ba
:100b90004f89de00820178001f0137006011b80024
:100ba0002d01370081002000618055000b003d00c1
:100bb0000b00200061fe2f000100e1001d00340049
:100bc00082817100610164008904d1000884d3002e
:100bd0000000e800faff3a007100200061006400a4
:100be000030070000200600009003200610444004c
:100bf000e0844c000988a500050032008b05e80060
:100c00006808e10002003a008904d1000884d3009a
:100c1000f20f20000258e10005003d00c75ddd0035
:100c2000f907b2008980750008007800000006000e
:100c30000bf827008b00780000000500c70ade00d3
:100c4000f107b200f50fb20008003200e1cf420018
:100c5000020032000170a00024000500810f700026
:100c6000010032000408050044000500810f7000f7
:100c700002003a00140005008502e900000040006f
:100c800081c04800fcff3b000170a000240005006b
:100c90000004be00e9ff07000003be000405be001b
:100ca0000200be00e5ff0700844f7500000006004b
:100cb0000200be006450e100050036006420e1003f
:100cc000020036000968a30001003a000800be00d7
:100cd0000160a0004f0678004f05be004f04be0023
:100ce00000000600f0ff2f00f1ff2700f9ff37009a
:100cf000889fbe008a9fbe008c1f7800e4ff07001b
:100d0000ebff330003866c006450e10024003200e6
:100d10006420e100270032006150e100220032002f
:100d20006120e100210032008b854200eb07b10019
:100d30000134b800003ab8000804420089844a002f
:100d4000013ab8000030b8008880400009014a002c
:100d50000400330000004000818048000201490087
:100d60008b05e900c909dd00830170000100320034
:100d700013002000c814de004814dd004709de001f
:100d80001200b200c808de000884700085ff07006a
:100d900001f0a1000cf0a70001f0a000cdff37008a
:100da0006120e100cfff32000801be000200be005a
:100db000f7ff37006150e100fcff3a00c9ff370040
:100dc000889fbe008a9fbe008c9fbe00820578006f
:100dd0000004be0099ff07000800be006420e10087
:100de0000700390002003a00f1ff2700f0ff2f0052
:100df0000160a00012022000c28288005500370066
:100e00006120e10003003a000b00a70001f8230075
:100e10005000370001f0a10002002100936424007b
:100e20001bff07000800be0004003500b2fd2000d3
:100e3000930c2400b70007000004be000005eb007f
:100e40000b00a6004f0dde0001f0a1000004be0063
:100e500032982f0023ea2300a5ff07000001eb00d2
:100e600003f023000b00a70003f8230058fe07003f
:100e70000bff07000000a7000a00a20044ff0700c4
:100e80000b00e000030032000200200003f023000a
:100e90004efe070001f0a2000006be000200200086
:100ea0009304240092ff07000801be0048fe0700db
:100eb000809fbe000c00be0022a22a00d3a7230000
:100ec0008bff07004f01be0041fe07000004be007b
:100ed00001f0a1000200200003982300ecfe0700af
:100ee0000800be00190035000001be0080ff0700a9
:100ef0000006be00b2c52900e36223007cff0700a4
:100f000022222b00f3942b0031fe07000c01be00bf
:100f100077ff0700e273280083c023002cfe070040
:100f20000c01be0072ff070042aa2a00a3e22b00b8
:100f300027fe07000c01be006dff07000801be0080
:100f40006bff07000801be0021fe07000a00a70092
:100f500001f0a2004f06be004f05be004f04be00c8
:100f6000000006000001eb0095ff37006022b8008a
:100f7000060220000000d0008180d2000482d2004e
:100f80008582d2000000a0000202520083825a0033
:100f9000030031000202420083824a000000a100e7
:100fa0000603e900f3ff3a0000000600889fbe0038
:100fb0008a9fbe00841f780035ff07004f0078002d
:100fc00011003300f0ff2f00838f6c0006003b0000
:100fd000040565000a00a7000800370009f0a60014
:100fe0001000200008003700820f5400838f5c003f
:100ff000030039001000200001003e000000200026
:1010000009f0a7000000ea004f05be004f04be0033
:101010000000e00000000600881f7800030478004c
:101020000300e00007003d0060001000e0801800b1
:1010300060011900e081190002003b0001f02d0061
:10104000030037000400070008f0a70001f0a0002b
:101050004f04780000000600889fbe008a9fbe00f3
:1010600000827000040271000482710026003200c8
:101070000004be000200be006011b8006b09200031
:10108000950220000182cf000a0039000541b1001d
:101090000082cf00070039000541b1000982cf006e
:1010a000040039000541b1000882cf000100390079
:1010b0000541b10005425200120032000a003b0017
:1010c00082817100610164008100d1000080d30041
:1010d0008984d3000884d3008b05e8000442e8002b
:1010e000f7ff3a00070037000804440089844c00e9
:1010f00000004800818048008b05e9000442e900b7
:10110000f9ff3a00a7fe07004f05be004f04be00de
:10111000000006000400200000003700889fbe0089
:101120008a9fbe008c1f78004f26dd00d8fe070086
:10113000dffe33006120e100430032006250e10035
:1011400041003e003e0039006420e1003c003200d6
:10115000058255000f003b000402e80038003a0009
:10116000800f5300818f5b00350034000800be0003
:1011700003f0a10001f0a60003f0a0000cf0a7000e
:1011800093fd0700d3fe37000603430087834b001f
:101190000c4646000005530081855b0002003300c9
:1011a0000a03be000c00a0000402e900f6ff3b00a9
:1011b000850578000602430087824b0004003a0050
:1011c0006000b80009f0a70001f0a000c1fe3700e0
:1011d0000002520081825a000704e000040033003c
:1011e0000603430087834b008b05e900faff3700b5
:1011f000090578000604be000203be006011b800b5
:1012000068fe0700e00f5200e08f5a00070035002b
:1012100002003c000c08a300040032000601be00de
:1012200003f0a0000cf0a70069fd07000a85680024
:1012300001f0a1000af0a70001f0a000a5fe370010
:101240000800be00a3fe3700100220000cf0a6002c
:08125000c0828800a3fe3700f4
:020000040000fa
:101258001400fa00889fbe00430c07000f0c07001b
:1012680031070700d707070052090700140b0700ca
:1012780053080700a10b07005c0807006408070073
:101288004d0b0700100798004f0b0700e14f500067
:10129800b0003a00500b0700470b070020079800e2
:1012a8002e00900068004000100078008000eb00dd
:1012b80038fe070032332300330524008afe070076
:1012c80002002000035824009efd0700d2cc2c0009
:1012d800c304240084fe07003007980041079800e3
:1012e8003e019000ce0190000000200081202400e3
:1012f80094fd070002002000030a240031fd0700c6
:10130800608f8800718f88002e0090006600400072
:10131800100078008000eb001efe07003233230027
:101328003305240070fe0700020020000358240043
:1013380084fd0700d2cc2c00c30424006afe0700f9
:1013480030079800410798003e019000ce019000b8
:1013580000002000812024007afd07000200200000
:10136800030a240017fd0700c08f8800d18f88006a
:101378002e00900064004000100078008000eb0010
:1013880004fe0700323323003305240056fe07000d
:1013980002002000035824006afd0700d2cc2c006c
:1013a800c304240050fe0700300798004107980046
:1013b8003e019000ce019000000020008120240012
:1013c80060fd070002002000030a2400fdfc07005e
:1013d800808f8800918f88002e0090000080e800a0
:1013e800100078008000eb00eafd0700323323008c
:1013f800330524003cfe07000200200003582400a7
:1014080050fd0700d2cc2c00c304240036fe070090
:1014180030079800410798003e019000ce019000e7
:10142800000020008120240046fd07000200200063
:10143800030a2400e3fc0700a08f8800b18f88000e
:101448002e009000100078008000eb00d1fd07000e
:10145800323323003305240023fe07000200200056
:101468000358240037fd0700d2cc2c00c304240005
:101478001dfe070030079800410798003e019000c4
:10148800ce01900000002000812024002dfd0700df
:1014980002002000030a2400cafc0700e08f88002d
:1014a800f18f8800608f8000718f80007afd0700bf
:1014b8000040780080447800808f8000918f800001
:1014c80075fd07000040780000447800a08f800078
:1014d800b18f800070fd070000407800794f9800b8
:1014e80008579800105798004000200050079800af
:1014f8006f00470000017800de0090000003200024
:1015080005050700208f8000318f800084090700bf
:1015180061fd07000040780000447800e08e8000fc
:10152800f18e80007e0907005bfd0700004078000f
:10153800285798003057980030002000600798001e
:101548007200470000017800ee00900000042000bf
:10155800f1040700c70a07000004e0000b0032008e
:101568000000eb00000f780005003700b10a070003
:10157800604f98006e489000470507001e0fe8006e
:10158800cd0a07009e0f5000f8ff3c0071818000d3
:10159800a000200000017800110009008200d80096
:1015a8008000fd000000e00001003a002e30ef004e
:1015b800708180000000e8007081880030ff3700eb
:1015c8000000fa0032d0bf000080fb00cf80de00b0
:1015d8007201200003002000820f5000838f580002
:1015e800fb003e000006010017003700200037000e
:1015f80029003700370037003e0037004700370022
:101608004e003700570037005e003700680037008b
:101618006f00370079003700de003700ec00370034
:10162800eb003700ea0037007c00370086003700ff
:101638008d003700970037009e003700aa0037005a
:10164800c5003700b70037004430ef004630ef00e0
:101658000041eb006000b8007208070012c0b30038
:101668006000b8006f08070010c0b30032f0b70080
:101678002282800033828000803e2000010020000a
:10168800800f5100818f5900d400360020c0b3006c
:1016980032f0b700da003700a08180000000ea00cd
:1016a800cf80de0038fd07000041eb005d08070031
:1016b800a08180000000ea00cf80de0032fd070034
:1016c80012c0b3005708070030c0b30032f0b700ab
:1016d800cb00370000818000e10f500002003a0083
:1016e800c9000700c6003700c0c0b30032f0b70019
:1016f800c30037000041eb006000b800490807004c
:1017080012c0b3000000200001152400450807009e
:1017180050c0b30032f0b700b90037000081800034
:10172800e10f500002003a00b7000700b40037008c
:10173800c0c0b30032f0b700b10037000041eb0081
:1017480000002000011524003608070012c0b3006d
:101758006000b8003308070070c0b30032f0b7006b
:10176800a700370000818000e10f500002003a0016
:10177800a5000700a2003700c0c0b30032f0b700d0
:101788009f0037000041eb000000200001152c00ed
:101798002408070012c0b30000002000011524002f
:1017a8002008070090c0b30032f0b700940037005b
:1017b80000818000e10f500002003a00920007000b
:1017c8008f003700c0c0b30032f0b7008c0037007c
:1017d8000041eb000000200001152400110807005b
:1017e80012c0b3000000200001152c000d080700ee
:1017f800b0c0b30032f0b70081003700008180002c
:10180800e10f500002003a007f0007007c0037001b
:10181800c0c0b30032f0b700790037000041eb00d8
:1018280000002000010a2c00fe07070012c0b300c8
:101838000000200001152400fa07070010c1b300ba
:1018480032f0b7006e00370000818000e10f5000d1
:1018580002003a006c00070069003700c0c0b300fe
:1018680032f0b700660037000041eb0000002000ae
:1018780001152400eb07070012c0b3000000200088
:10188800010a2c00e707070030c1b30032f0b700a7
:101898005b00370000818000e10f500002003a0031
:1018a8005900070056003700c0c0b30032f0b70037
:1018b800530037004430ef004630ef000041eb00a2
:1018c80000002000011a2400d607070012c0b30048
:1018d80000002000011a2c00d207070050c1b300f5
:1018e80032f0b70046003700108180006101b9006e
:1018f8002082800031828000800f5100818f590042
:101908003800310000818000e10f500002003a00e9
:101918003d0007003a003700c0c0b30032f0b700fe
:10192800370037004430ef004630ef000041eb004d
:1019380000002000011a2400ba07070012c0b300f3
:1019480000002000011a2c00b607070060c1b30090
:1019580032f0b7002a003700108180006101b90019
:101968002082800031828000800f5100818f5900d1
:101978001e00310000818000e10f500002003a0093
:10198800210007001e003700c0c0b30032f0b700c6
:101998001b003700008180000000e00015003a00bd
:1019a800808180000000e00014003a000041eb0054
:1019b8006000b8009b07070012c0b3006000b800c1
:1019c8009807070010002000808188000c0037006d
:1019d8003270ef000000000009003700000000002e
:1019e8000700370000000000050037000000000075
:1019f800030037000000000001003700000000006d
:101a08000080fa00000006000a00fa00889fbe0065
:101a18008a1f78000040eb00004f78003030ef005c
:101a2800e88f8000f98f800050818000cf80de0031
:101a380055fc07001ac0b3000001be000800be0034
:101a480011fc07000000e000010035000045eb0034
:101a58000a04e00003003200b0c0b300004f780071
:101a680082023700c88f8000d98f800050818000a3
:101a7800cf80de0044fc07001ac0b3000001be009e
:101a88000800be0000fc07000000e000010035006f
:101a98000045eb000a04e00003003200a0c0b300d8
:101aa800004f780071023700e88f8000f98f8000be
:101ab80040818000cf80de0033fc07001ac0b300ed
:101ac8000001be000800be00effb07000000e000b8
:101ad800010035000045eb000a04e0003b0032003d
:101ae800688f8000798f800020818000cf80de00a1
:101af80025fc07001ac0b3000001be000800be00a4
:101b0800e3fb07000000e00001003c000045eb009b
:101b18000a04e0002d003200888f8000998f800031
:101b280030818000cf80de0017fc07001ac0b300a8
:101b38000001be000800be00d5fb07000000e00061
:101b480001003c000045eb000a04e0001f003200e1
:101b5800a88f8000b98f800020818000cf80de00b0
:101b680009fc07001ac0b3000001be000800be004f
:101b7800c7fb07000000e00001003c000045eb0047
:101b88000a04e00011003200c88f8000d98f80005d
:101b980040818000cf80de00fbfb07001ac0b30045
:101ba8000001be000800be00b9fb07000000e0000d
:101bb80001003c000045eb000a04e000030032008d
:101bc800b0c0b300004f780028023700e88f8000cb
:101bd800f98f800040818000cf80de00eafb07009b
:101be8001ac0b3000001be000800be00a8fb070031
:101bf8000000e00001003c000045eb000a04e000a2
:101c08003b003200688f8000798f8000208180003f
:101c1800cf80de00dcfb07001ac0b3000001be0065
:101c28000800be009afb07000000e00001003c002d
:101c38000045eb000a04e0002d003200888f800088
:101c4800998f800030818000cf80de00cefb0700b6
:101c58001ac0b3000001be000800be008cfb0700dc
:101c68000000e00001003c000045eb000a04e00031
:101c78001f003200a88f8000b98f8000208180006b
:101c8800cf80de00c0fb07001ac0b3000001be0011
:101c98000800be007efb07000000e00001003c00d9
:101ca8000045eb000a04e00011003200c88f8000f4
:101cb800d98f800040818000cf80de00b2fb070012
:101cc8001ac0b3000001be000800be006efb07008a
:101cd8000000e000010035000045eb000a04e000c8
:101ce80003003200a0c0b300004f7800df013700c6
:101cf800c88f8000d98f800040818000cf80de00af
:101d0800a1fb07001ac0b3000001be000800be0016
:101d18005dfb07000000e000010035000045eb0016
:101d28000a04e0003b003200e88f8000f98f800051
:101d380040818000cf80de0093fb07001ac0b3000b
:101d48000001be000800be0051fb07000000e000d3
:101d580001003c000045eb000a04e0002d003200c1
:101d6800688f8000798f800020818000cf80de001e
:101d780085fb07001ac0b3000001be000800be00c2
:101d880043fb07000000e00001003c000045eb00b9
:101d98000a04e0001f003200888f8000998f8000bd
:101da80030818000cf80de0077fb07001ac0b300c7
:101db8000001be000800be0035fb07000000e0007f
:101dc80001003c000045eb000a04e000110032006d
:101dd800a88f8000b98f800020818000cf80de002e
:101de80069fb07001ac0b3000001be000800be006e
:101df80027fb07000000e00001003c000045eb0065
:101e08000a04e00003003200a0c0b300004f7800cd
:101e180096013700c88f8000d98f800040818000ec
:101e2800cf80de0058fb07001ac0b3000001be00d7
:101e38000800be0016fb07000000e00001003c009f
:101e48000045eb000a04e0003b003200e88f800008
:101e5800f98f800040818000cf80de004afb0700b8
:101e68001ac0b3000001be000800be0006fb070050
:101e78000000e000010035000045eb000a04e00026
:101e88002d003200688f8000798f800020818000cb
:101e9800cf80de003cfb07001ac0b3000001be0083
:101ea8000800be00fafa07000000e00001003c004c
:101eb8000045eb000a04e0001f003200888f800014
:101ec800998f800030818000cf80de002efb0700d4
:101ed8001ac0b3000001be000800be00ecfa0700fb
:101ee8000000e00001003c000045eb000a04e000af
:101ef80011003200a88f8000b98f800020818000f7
:101f0800cf80de0020fb07001ac0b3000001be002e
:101f18000800be00defa07000000e00001003c00f7
:101f28000045eb000a04e00003003200b0c0b30033
:101f3800004f78004d013700688f8000798f80004e
:101f480020818000cf80de000ffb07001ac0b3009d
:101f58000001be000800be00cbfa07000000e00048
:101f6800010035000045eb000a04e0001f003200c4
:101f7800888f8000998f800030818000cf80de00bc
:101f880001fb07001ac0b3000001be000800be0034
:101f9800bdfa07000000e000010035000045eb0035
:101fa8000a04e00011003200a88f8000b98f800079
:101fb80020818000cf80de00f3fa07001ac0b3004a
:101fc8000001be000800be00affa07000000e000f4
:101fd800010035000045eb000a04e0000300320070
:101fe80070c0b300004f780020013700688f800070
:101ff800798f800020818000cf80de00e2fa070020
:102008001ac0b3000001be000800be009efa070017
:102018000000e000010035000045eb000a04e00084
:102028001f003200888f8000998f800030818000e7
:10203800cf80de00d4fa07001ac0b3000001be004a
:102048000800be0092fa07000000e00001003c0012
:102058000045eb000a04e00011003200a88f800060
:10206800b98f800020818000cf80de00c6fa07008b
:102078001ac0b3000001be000800be0082fa0700c3
:102088000000e000010035000045eb000a04e00014
:102098000300320040c0b300004f7800f30037005f
:1020a800688f8000798f800020818000cf80de00db
:1020b800b5fa07001ac0b3000001be000800be0050
:1020c80071fa07000000e000010035000045eb0050
:1020d8000a04e0001f003200888f8000998f80007a
:1020e80030818000cf80de00a7fa07001ac0b30055
:1020f8000001be000800be0063fa07000000e0000f
:10210800010035000045eb000a04e0001100320030
:10211800a88f8000b98f800020818000cf80de00ea
:1021280099fa07001ac0b3000001be000800be00fb
:1021380057fa07000000e00001003c000045eb00f2
:102148000a04e0000300320060c0b300004f7800ca
:10215800c6003700688f8000798f8000208180005a
:10216800cf80de0088fa07001ac0b3000001be0065
:102178000800be0046fa07000000e00001003c002d
:102188000045eb000a04e0001f003200888f800041
:10219800998f800030818000cf80de007afa0700b6
:1021a8001ac0b3000001be000800be0036fa0700de
:1021b8000000e000010035000045eb000a04e000e3
:1021c80011003200a88f8000b98f80002081800024
:1021d800cf80de006cfa07001ac0b3000001be0011
:1021e8000800be0028fa07000000e00001003500e2
:1021f8000045eb000a04e0000300320050c0b300c1
:10220800004f780099003700688f8000798f800030
:1022180020818000cf80de005bfa07001ac0b3007f
:102228000001be000800be0017fa07000000e00029
:10223800010035000045eb000a04e0001f003200f1
:10224800888f8000998f800030818000cf80de00e9
:102258004dfa07001ac0b3000001be000800be0016
:102268000bfa07000000e00001003c000045eb000d
:102278000a04e00011003200a88f8000b98f8000a6
:1022880020818000cf80de003ffa07001ac0b3002b
:102298000001be000800be00fdf907000000e000d4
:1022a80001003c000045eb000a04e0000300320096
:1022b80020c0b300004f78006c003700688f8000a2
:1022c800798f800020818000cf80de002efa070001
:1022d8001ac0b3000001be000800be00ecf90700f8
:1022e8000000e00001003c000045eb000a04e000ab
:1022f8001f003200888f8000998f80003081800015
:10230800cf80de0020fa07001ac0b3000001be002b
:102318000800be00def907000000e00001003c00f4
:102328000045eb000a04e00011003200a88f80008d
:10233800b98f800020818000cf80de0012fa07006c
:102348001ac0b3000001be000800be00cef90700a5
:102358000000e000010035000045eb000a04e00041
:102368000300320010c0b300004f78003f00370070
:10237800888f8000998f800030818000cf80de00b8
:1023880001fa07001ac0b3000001be000800be0031
:10239800bdf907000000e000010035000045eb0032
:1023a8000a04e0000300320030c0b300004f780098
:1023b8002e003700688f8000798f80002081800090
:1023c800cf80de00f0f907001ac0b3000001be009c
:1023d8000800be00aef907000000e00001003c0064
:1023e8000045eb000a04e00020003200888f8000de
:1023f800998f800030818000cf80de00e2f90700ed
:102408001ac0b3000001be000800be00a0f9070012
:102418000000e00001003c000045eb000a04e00079
:1024280012003200a88f8000b98f800020818000c0
:10243800cf80de00d4f907001ac0b3000001be0047
:102448000800be0092f907000000e00001003c000f
:102458000045eb000a04e000040032000040eb00f5
:10246800004f7800100020006081880060818000a3
:102478000000e00002003a003430ef0003003700ab
:1024880030022000a08188002c30ef001e40780028
:102498000004e00003003a0020c0b30036f0b700a3
:1024a800650037001e407800e24f500004003a00f3
:1024b80040c0b30036f0b7003830ef005e00370098
:1024c8001e407800e14f500005003a0060c0b3009c
:1024d80036f0b70010002000c08188005600370091
:1024e8001e407800e34f500009003a00c081800088
:1024f8000000e00003003a0080c0b30036f0b700e7
:102508004d003700a0c0b30036f0b7004a003700ce
:102518001e407800e64f500004003a0080c0b30027
:1025280036f0b7003830ef00430037001e4078001f
:10253800e54f500005003a00a0c0b30036f0b700e0
:1025480010002000c08188003b0037001e40780042
:10255800e44f500003003a0080c0b30036f0b700e3
:10256800350037001e407800e74f500009003a0058
:10257800c08180000000e00003003a0080c0b30082
:1025880036f0b7002c003700a0c0b30036f0b70013
:10259800290037001e407800e84f500003003a0039
:1025a80080c0b30036f0b700230037001e40780023
:1025b800ea4f500003003a0000c1b30036f0b700fc
:1025c8001d0037001e407800eb4f500003003a0012
:1025d80020c1b30036f0b700170037001e4078005e
:1025e800ed4f500009003a00c08180000000e00073
:1025f80003003a0000c1b30036f0b7000e00370000
:1026080020c1b30036f0b7000b0037001e40780039
:10261800ec4f500008003a00c08180000000e00044
:1026280003003a0070c1b30036f0b700020037006b
:1026380040c1b30036f0b70036d0bf008080fb0041
:1026480032d0bf000080fb000000e900808f5000fe
:102658003e00320036d0bf0032f0b7000000eb0079
:102668001007980021032100914078001e00900077
:1026780064004000017778001e0090000000e80028
:102688001007980020828000318280004808de0010
:10269800804078001e0090006400400001777800b8
:1026a8001e0090000000e8001007980020828000bb
:1026b800318280004008de00804078001e009000d3
:1026c80064004000017778001e0090000000e800d8
:1026d8001007980020828000318280004809dd00c0
:1026e8004800de0000007100c808de008040780065
:1026f8001e00900064004000017778001e009000e2
:102708000000e800100798002082800031828000d5
:10271800804078001e009000640040000177780037
:102728001e0090000000e800100798001e009000ae
:102738000000e800100798006400470000017800d6
:102748009e00900000052000730007004f057800e8
:102758004f04be000080fa00000006000200fa00e4
:10276800000f78001e007800e40f50001e003200b1
:10277800e40f500007003c00e20f50001200320046
:10278800e20f500014003c00e10f50000a00320034
:1027980029003700e60f50001b003200e60f5000fa
:1027a80015003500e70f50001b003200e80f5000fd
:1027b8001d0032002000370064cea90064eea90095
:1027c800254ea8002000370064cea80064eea900ba
:1027d800254ea9001c00370064cea90064eea800ad
:1027e800254ea9001800370064cea80064eea800a2
:1027f800254ea9001400370064cea90064eea80095
:10280800254ea8001000370064cea80064eea90089
:10281800254ea8000c00370064cea80064eea8007e
:10282800254ea8000800370064cea90064eea90070
:10283800254ea9000400370064cea90064eea90063
:10284800254ea900000000000080fa0000000600e4
:102858000a00fa00200798003107980042079800fc
:102868000040eb00004f7800e0cfb3001e4f680037
:102878002e0090004880de00804078001e407800de
:1028880000c06800004f78002e009000804078005b
:102898001e40780000c06800004f78003e0090009d
:1028a8004880de00804078001e40780000c0680044
:1028b800004f78003e009000804078001e4078006d
:1028c80000c06800004f78000000eb001007980077
:1028d8000000eb0010079800080037001e00900069
:1028e800ce00900000804000104078001e4f680025
:1028f8001e0090000000e800100798009e0090005d
:102908003e009000808f5000f4ff35001e40780094
:102918000080fa00000006001000fa00889fbe0040
:102928005007980061079800720798000f04780014
:102938000f007800800478000040eb0040479800c2
:102948006e009000660040008000e90031079800a2
:102958000000e8000000e8000000d100800040000e
:102968000f007800818747000000e8000000d100d0
:1029780000004000400798000000eb00000f7800be
:102988004e0090001e004000e1cfb30001487800df
:102998001e0fe8005e0090004880de00804078004e
:1029a8004e0090001e004000014878001e0fe8000d
:1029b8005e009000804078004e0090001e004000ad
:1029c800014878001e0fe8006e0090004880de0085
:1029d800804078004e0090001e00400001487800ba
:1029e8001e0fe8006e009000804078004e009000b6
:1029f8001e004000014878001e0fe8000000eb00b0
:102a0800100798000000eb00100798000b00370033
:102a18001e009000fe00900000804000904078006a
:102a28004e0090001e004000014878001e0fe8008c
:102a38001e0090000000e800100798009e0090001b
:102a48006e009000808f5000f1ff35007e019000ed
:102a5800ee0090005e0090007dff07004047980060
:102a68004e0090001e004000ce40900001487800c3
:102a78001e0fe8006e009000e60040004e00900037
:102a8800ae04070089077800880778004f04be0065
:102a98000080fa00000006000200fa00004f7800eb
:102aa80000828000e30f500026003200e30f500040
:102ab80007003c00e10f500015003200e10f500004
:102ac80019003c000000e000080032004b0037000d
:102ad800e50f50002d003200e50f50001f003500b3
:102ae800e60f500037003200440037001e407800df
:102af800e24f400044003a001000200000828800a5
:102b08003c30ef003a30ef003e30ef004100370034
:102b18001e80fb004800dd00d081880020002000d6
:102b2800008288003b0037009e80fb00d081800037
:102b380000804000d081880030002000008288009a
:102b4800340037001e80fb004800dd00e08188006b
:102b580040002000008288002e0037009e80fb0085
:102b6800e081800000804000e0818800e1818000f1
:102b7800c05d2000808f5000010034004030ef001d
:102b8800500020000082880022003700f081800079
:102b9800a1152100008040001e487800f0818000c7
:102ba8000000e800f0818800f1818000e081800069
:102bb800808f500016003a006000200000828800d4
:102bc800140037001e417800210421008248780053
:102bd80042d0bf009e4f500006003a00e0818000be
:102be80080407800d081800000407800a215210044
:102bf8000a0007004030ef00060037004030ef00c1
:102c0800000000000300370000000000010037004a
:102c1800000000000080fa00000006000400fa002e
:102c2800004f780011479800120798001e80fb009b
:102c380011052000810f50000e0032001105200000
:102c4800810f500004003c0001022000810f500059
:102c5800170032006200370021052000810f500064
:102c68000800320001082000810f500009003200de
:102c78005b0037001e009000104078005a000700e3
:102c8800570037001e0090001040780066000700cb
:102c9800530037001e4090000080fb001e0190008a
:102ca80080007800000820001bff07004c00370058
:102cb8001e0090009040780090c4b30080cf500070
:102cc80007003a001e0090000000e80090407800dd
:102cd80010c3b30080cf500001003a00254ea80071
:102ce8001e00900090407800f0c4b30080cf5000e0
:102cf80007003a001e0090000000e80090407800ad
:102d080010c3b30080cf500001003a00254ea9003f
:102d18001e0090009040780090c4b30080cf50000f
:102d280007003a001e0090000000e800904078007c
:102d380020c3b30080cf500001003a0064cea80041
:102d48001e00900090407800f0c4b30080cf50007f
:102d580007003a001e0090000000e800904078004c
:102d680020c3b30080cf500001003a0064cea90010
:102d78001e0090009040780090c4b30080cf5000af
:102d880007003a001e0090000000e800904078001c
:102d980030c3b30080cf500001003a0064eea800b1
:102da8001e00900090407800f0c4b30080cf50001f
:102db80008003a001e0090000000e80090407800eb
:102dc80030c3b30080cf500004003a0064eea9007d
:102dd8000300370000000000010037000000000079
:102de8000080fa00000006000200fa00004f780098
:102df80000c3b3009e40780080cf500003003a0023
:102e080064eea8002030ef000500370064eea9004a
:102e1800100020000081880020c0b30032f0b70005
:102e28000080fa00000006000200fa00004f780057
:102e38001e80fb00ea0f500016003200ea0f500017
:102e480005003c00e20f50001c003200e80f500063
:102e58000600320032003700ec0f5000200032002c
:102e6800ee0f5000250032002d003700254ea80037
:102e78000041eb000000200001172c006902070048
:102e880012c0b300000020000117240065020700eb
:102e980023003700254ea9000041eb000000200068
:102ea800011724005f02070012c0b30000002000d1
:102eb80001172c005b020700190037000041eb00e6
:102ec80000002000012a2c005602070012c0b3009f
:102ed80000002000012a2c005202070010003700d1
:102ee8000041eb006000b8004e02070012c0b300ba
:102ef8006000b8004b020700090037000041eb00f2
:102f080000002000812424004602070012c0b300fc
:102f18000000200081242400420207000000000075
:102f28000080fa00000006000400fa0013e1a9007e
:102f380011e1a9001061a8001021a90081088000f2
:102f4800f0fc2f0000806000800888000a21ef0054
:102f58000621ef00404c20007008880000402b003c
:102f680060088800800880004400de00634060003c
:102f78000081fb008001eb00700880008000eb00fe
:102f8800c002dd0004002000600880008000eb0023
:102f98000400400085804800809ab900828bb900ff
:102fa80086027800050242000010b80001024200c3
:102fb800840078000001be0000a025002126200022
:102fc800a2f60700f0f60700008fbe00214280003d
:102fd80080ff2f00008060000000a00020428800d1
:102fe8000108a9002108a80011e1a8000080fa0042
:102ff800000006000400fa00881f7800008fbe0059
:1030080021088000f0fc2f00008060002008880064
:103018001e0178009e0190000068290081c12400eb
:1030280048f6070018c0b30002f02f00f377240019
:1030380097f607000000e00001003c000044eb00a8
:103048000804e0005400320021088000f0fc2f0042
:10305800008060000040a000200888001e01780061
:103068009e0190000068290081c1240035f6070000
:10307800020020000310240032f6070018c0b30035
:1030880002f02f00f377240081f607000000e0002b
:1030980001003c000044eb000804e000320032006c
:1030a80021088000f0fc2f00008060000050a00084
:1030b800200888001e0178009e0190000068290001
:1030c80081c124001ff60700020020000328240005
:1030d8001cf6070018c0b30002f02f00f377240095
:1030e8006bf607000000e00001003c000044eb0024
:1030f8000804e000100032002108800000032000ce
:1031080001007000200888001e0178009e019000d0
:103118000068290081c124000af607000200200087
:103128000338240007f607005bf607000000780064
:1031380010088800200037001e0178009e019000ca
:103148000068290081c12400fef507000200200064
:1031580003282400fbf507004ff60700000078005d
:1031680010088800140037001e0178009e019000a6
:103178000068290081c12400f2f507000200200040
:1031880003102400eff5070043f60700000078005d
:1031980010088800080037001e0178009e01900082
:1031a8000068290081c12400e6f507003af6070007
:1031b80000007800100888004f0478000080fa00aa
:1031c800000006000000fa0005e1a9000421a9009a
:1031d800000020008124240086ff07000068a90061
:1031e8002068a80005e1a8000080fa000000060099
:1031f8000400fa00881f7800008fbe00f1088000e4
:10320800f0fc2f0000806000f00888001e017800a4
:103218009e0190000068290081c12400c9f50700bb
:1032280018c0b30002f02f00f377240018f6070047
:103238000000e00001003c000044eb000804e0004e
:1032480054003200f1088000f0fc2f00008060007c
:103258000040a000f00888001e0178009e01900040
:103268000068290081c12400b6f50700020020008b
:1032780003102400b3f5070018c0b30002f02f00b4
:10328800f377240002f607000000e00001003c008c
:103298000044eb000804e00032003200f10880002e
:1032a800f0fc2f00008060000050a000f0088800ab
:1032b8001e0178009e0190000068290081c1240049
:1032c800a0f5070002002000032824009df5070050
:1032d80018c0b30002f02f00f3772400ecf50700c4
:1032e8000000e00001003c000044eb000804e0009e
:1032f80010003200f1088000000320000100700077
:10330800f00888001e0178009e01900000682900de
:1033180081c124008bf50700020020000338240037
:1033280088f50700dcf5070000007800d008880061
:10333800200037001e0178009e01900000682900d7
:1033480081c124007ff50700020020000328240023
:103358007cf50700d0f5070000007800d008880049
:10336800140037001e0178009e01900000682900b3
:1033780081c1240073f50700020020000310240017
:1033880070f50700c4f5070000007800d008880031
:10339800080037001e0178009e019000006829008f
:1033a80081c1240067f50700bbf50700000078001d
:1033b800d00888004f0478000080fa00000006005a
:1033c8000000fa001fe1a9001e21a900000020004a
:1033d800a147240086ff07000368a9002368a80006
:1033e8001fe1a8000080fa00000006000000fa00b3
:1033f800c301a8000080eb00e00e88000080eb000d
:10340800f00e8800c1e1a8000080fa000000060064
:103418000000fa00c305a8000080eb00e02e880039
:103428000080eb00f02e8800c1e5a8000080fa00bb
:10343800000006000800fa00889fbe008a9fbe00b0
:103448002080800031808000008088001180880002
:1034580060808000718080004080880051808800f2
:10346800300e80008000eb00008fbe00500e800000
:103478008000eb00c000dd00000020001e0f4000af
:103488005e974800302e80008000eb0020079800ef
:1034980031079800502e80008000eb00c000dd004e
:1034a800000020002e019000be01900002004000a4
:1034b8008380480020079800310798001e00780094
:1034c8009e009000b0f50700d25d2b0043c8230092
:1034d80005f6070020808800318088002e009000c3
:1034e800be009000a8f50700d25d2b0043c82b0052
:1034f800fdf50700608088007180880024808000c6
:103508003580800000808000118080000001be00ae
:103518000400be00f4f507008080880091808800d0
:103528006480800075808000408080005180800029
:103538000001be000400be00ebf50700a080880073
:10354800b18088008480800095808000a080800001
:10355800b18080000001be000400be0099f407009d
:1035680022972f00f3e82300f6f40700c0808800b4
:10357800d18088008480800095808000a0808000b1
:10358800b18080000001be000400be008ef4070078
:103598000200200003002400eaf40700e08088000d
:1035a800f1808800808080009180800002002000e7
:1035b800a3372400ccf507000090880011908800fc
:1035c800a0808000b180800002002000a337240082
:1035d800c5f507002090880031908800049080008d
:1035e8001590800020908000319080000001be007e
:1035f8000400be0074f40700020020000300240049
:10360800d0f407004090880051908800c080800066
:10361800d180800002002000a3372400b2f5070003
:103628006090880071908800c0908000d1908000e0
:103638008090880091908800e0908000f190800050
:10364800a0908800b190880020918000319180007e
:1036580000918800119188008890800099908000de
:10366800409080005190800002002000a337240081
:10367800b4f407000005be0020918000319180005d
:10368800aef407000001be000a00be0096f5070070
:103698000001be000800be004bf40700c09088007f
:1036a800d1908800a8908000b99080004090800058
:1036b8005190800002002000a3372400a1f40700e5
:1036c8000005be00209180003191800023f607009c
:1036d8000001be000a00be0083f507000001be001d
:1036e8000800be0038f40700e0908800f1908800d8
:1036f8002491800035918000c0808000d1808000b6
:103708000001be000400be002ff4070020918800cd
:1037180031918800209180003191800018c0b30059
:10372800b2fd200093042400d9f407000000e00053
:1037380001003c000044eb000804e00007003200f0
:103748002091800031918000b2fd2000930c24006c
:103758001cf4070020918800319188002091800096
:103768003191800018c0b300b2fd200093042c00f2
:10377800c5f407000000e000010035000044eb003c
:103788000804e00007003200209180003191800099
:10379800b2fd2000930c24000bf407002091880050
:1037a800319188004f05be004f04be000080fa002a
:1037b800000006000000fa001160800080ff2f0062
:1037c800008060001060880000fa200020608800f7
:1037d80023aca800238ca80011618000f03f2f00c3
:1037e8000080600000a0a000106188003000200068
:1037f80020618800c3aca800c38ca80011668000b3
:10380800f03f2f000080600000a0a0001066880034
:10381800300020002066880001eca8000080fa0033
:10382800000006000600fa00008fbe00424798001c
:103838004e4090000004e00005003a001e017800a8
:103848009e019000228f8800338f88000700370080
:103858004e409000e14f500004003a001e017800ed
:103868009e019000e28e8800f38e88000080fa00a6
:10387800000006000000fa00889fbe008a9fbe0074
:10388800448f8000558f8000208f8000318f80000a
:1038980018c0b3000001be000400be007af407009f
:1038a8000000e000010035000044eb000804e000df
:1038b8000f003200288f8000398f80004a8f8000e7
:1038c8005b8f800054d0bf000080fb00cf80de00fb
:1038d800adf407000001be000a00be00baf30700fd
:1038e8000801be00bc000700408f8800518f880087
:1038f800448f8000558f8000208f8000318f80009a
:1039080018c0b3000001be000400be0060f4070048
:103918000000e00001003c000044eb000804e00067
:103928000f003200288f8000398f80004a8f800076
:103938005b8f800054d0bf000080fb00cf80de008a
:1039480091f407000001be000a00be009df30700c5
:103958000801be0088000700408f8800518f88004a
:10396800408f8000518f800018c0b3006011b800ec
:1039780047f407000000e00001003c000044eb00b1
:103988000804e00004003200c3cca90024eea8001b
:10399800c3eca80003003700c3eca90024cea8009c
:1039a800c3cca800408f8000518f80005c000700c6
:1039b8000200200003222400cbf4070057f407007c
:1039c8000000780030668800048f8000158f800022
:1039d800e08e8000f18e800018c0b3000001be00a8
:1039e8000400be0028f407000000e00001003500d4
:1039f8000044eb000804e0000f003200e88e80006d
:103a0800f98e80000a8f80001b8f800054d0bf0081
:103a18000080fb00cf80de005bf407000001be00e1
:103a28000a00be0068f307000801be006a0007002c
:103a3800008f8800118f8800048f8000158f800008
:103a4800e08e8000f18e800018c0b3000001be0037
:103a58000400be000ef407000000e00001003c0076
:103a68000044eb000804e0000f003200e88e8000fc
:103a7800f98e80000a8f80001b8f800054d0bf0011
:103a88000080fb00cf80de003ff407000001be008d
:103a98000a00be004bf307000801be00360007000d
:103aa800008f8800118f8800008f8000118f8000a0
:103ab80018c0b3006011b800f5f307000000e0007b
:103ac80001003c000044eb000804e0000400320060
:103ad80023eca90015cea80023cca80003003700ca
:103ae80023cca90015eea80023eca800008f8000c5
:103af800118f80000a000700020020000322240022
:103b080079f4070005f407000000780030618800a8
:103b18004f05be004f04be000080fa0000000600fa
:103b28000400fa00881f7800008fbe0018c0b30098
:103b38006011b8001e0078009e009000d4f30700c2
:103b48000000e00001003d000044eb000804e00034
:103b5800030032001e0078009e009000030037002a
:103b68001e0078009e00900001f0a2004f0478002b
:103b78000080fa00000006000800fa00881f78009c
:103b8800008fbe00220798003307980018c0b300c2
:103b98002e019000be0190001e0078009e0090004b
:103ba800bbf307000000e00001003c000044eb000c
:103bb8000804e000030032001e0078009e00900018
:103bc800020037002e009000be0090004f047800dd
:103bd8000080fa00000006000800fa00881f78003c
:103be800008fbe00220798003307980018c0b30062
:103bf8002e019000be0190001e0078009e009000eb
:103c0800a1f307000000e000010035000044eb00cc
:103c18000804e000030032001e0078009e009000b7
:103c2800020037002e009000be0090004f0478007c
:103c38000080fa00000006000c00fa00881f7800d7
:103c4800008fbe00220798003307980044079800a9
:103c58005507980018c0b3004e019000de0190008f
:103c68001e0078009e00900089f307000000e00025
:103c780001003c000044eb000804e00004003200ae
:103c88004e019000de019000028fbe000e0037004a
:103c980018c0b3002e019000be0190001e007800ed
:103ca8009e00900078f307000000e0000100350056
:103cb8000044eb000804e000030032002e019000ed
:103cc800be019000028fbe001e0078009e0090008a
:103cd8004f0478000080fa00000006000400fa0093
:103ce800008fbe00b2fd2000930424001e0078005f
:103cf8009e00900013f307000200200043332400c5
:103d0800f9f307000080fa00000006000400fa003a
:103d1800008fbe00b2fd2000930424001e0078002e
:103d28009e009000f0f307000200200043332400b7
:103d380004f307000080fa00000006000600fa00fd
:103d480010079800210798000040eb00004f78000a
:103d580054000700ae009000810f5000110034009d
:103d68000040eb00004f7800060037001e80fb0083
:103d78009e00900000804000104078000b00070073
:103d88001e4fe8009e80fb002e009000808f5000a0
:103d9800f6ff35002e0007000004e00001003a009d
:103da800220007000080fa00000006000200fa0066
:103db800004f780050828000a1052100008040005b
:103dc8001e487800508280000000e8005082880079
:103dd80051828000f0072000808f500001003400dd
:103de8004a30ef000080fa00000006000200fa00e6
:103df80060828000a105210000804000104f7800fb
:103e0800608280000000e800608288006182800093
:103e1800f0072000808f5000010034004c30ef0084
:103e28001e4078000080fa00000006000200fa0038
:103e380010c0b3004ef0b700ecff0700004f780049
:103e48001e80fb00201188000080fa000000060098
:103e58000000fa004ed0bf000080fa000000060003
:103e68000200fa005182800060828000808f50003a
:103e7800040035005182800060828000008f50006d
:103e88000500370051828000608280000080500069
:103e980001082000010f40001e0078000080fa0091
:103ea800000006000200fa00edff070001082000ec
:103eb800008f50001e0078000080fa000000060005
:103ec8000000fa0021e3a9002143a800011980009d
:103ed800f0cf2f0000806000001988002043a9005f
:103ee80001198000000e20000100700000198800f0
:103ef80011198000f0ff210000806000101988006f
:103f08002343a80011198000f0cf2f000080600023
:103f1800101988001119800030f82f000080600007
:103f28000040a000101988002203a9002223a9003c
:103f380025e3a900f0c0b30024e3b70021198000ed
:103f4800f00f2e008080600000f02000010070005b
:103f5800201988003303a9002e0ea8002f6ea80090
:103f68006f2ea8001e2ea8004feea80030c3a80090
:103f78003163a8002e03a8003063a80031e3a8002d
:103f88004119800000fc2f00008060004019880063
:103f980028e3a90001a8a90021a8a80021e3a800f6
:103fa8000080fa00000006000000fa002023a800a4
:103fb8000080fa00000006000000fa0080222100bc
:103fc8000080fa00000006000000fa0057d0bf0089
:103fd8000080fa00000006000000fa005770ef00a9
:103fe8000080fa00000006000200fa00004f780086
:103ff8002a0007000000e0000c00340080828000e6
:10400800a10d2100008040001e48780080828000b9
:104018000000e8008082880081828000f00720008c
:10402800808f5000010034005030ef000080fa000b
:10403800000006000200fa0090828000a10d210015
:1040480000804000104f7800908280000000e80057
:104058009082880091828000f0072000808f5000b5
:10406800010034005230ef001e4078000080fa0052
:10407800000006000000fa00818280009082800023
:10408800808f50000200320010c0b30001003700da
:104098000040eb000080fa00000006000200fa0071
:1040a8000500070001082000008f50001e0078005e
:1040b8000080fa00000006000200fa0081828000f9
:1040c80090828000808f500004003500818280003b
:1040d80090828000008f50000500370081828000a8
:1040e800908280000080500001082000010f4000ed
:1040f8001e0078000080fa00000006000000fa00a8
:104108002002a9000111800090ff2f0000806000ac
:104118000011880020a2a9002062a80050052000f4
:104128004011880023a2a90023e2a9000188a90060
:104138002188a80011118000f0f32f000080600092
:10414800101188000168a9002168a80021e2a800d0
:104158002342a8000080fa00000006000600fa00ca
:1041680010079800210798000040eb00004f7800e6
:104178000040eb00004f78000e0037000000000000
:104188001111800000202000008060000000e00085
:10419800fbff3a001e009000104078000080fb00f2
:1041a800201188001e0090000000e8001007980009
:1041b8001e4fe8009e80fb002e009000808f50006c
:0c41c800eeff35000080fa000000060049
:020000040000fa
:1041d4002e1000000c0000008000000020100000e1
:1041e4000e000000820000000100e800032300002c
:1041f400190005000019000001000000441000002f
:104204000600000080000000da1100004e000000eb
:104214008000000054100000020000008200000032
:1042240001000000281200000a00000080000000c5
:104234005610000002000000800000005a10000028
:1042440080000000800000004a100000060000000a
:1042540080000000da1000008000000080000000f0
:104264005010000004000000800000005a110000fb
:1042740080000000800000003a1000000a000000e6
:1042840080000000001000002000000080000000fa
:104294005810000002000000800000000000000030
:020000040000fa
:1042a4000000fa000e2eef001e2eef002e2eef005f
:1042b4003e2eef004e2eef005e2eef006e2eef002e
:1042c400214ea90060cea90060eea90011cea9007c
:1042d40011eea90020cea90020eea900213680000d
:1042e40000f82f00008060008001b30020368800b1
:1042f4001134800000fc2f00008060000000a0004a
:10430400103488000136800000f82f00808060009f
:10431400100620000100700000368800013680007d
:10432400f00f28008080600000002600010070006b
:1043340000368800e135800000f82f00808060009e
:104344006004200001007000e0358800e135800041
:10435400f00f2800808060000050240001007000ed
:10436400e03588000080fa00000006000000fa0032
:10437400f0032000303a8800213a8000f0f32f0047
:1043840000806000203a8800213a800000fe2f005f
:10439400008060000000a000203a88001200200085
:1043a40080072000a1092000337420008049780090
:1043b4008149780082497800103a80000001780031
:1043c4000200a00060042000710520002374200076
:1043d4008049780081497800824978000000000013
:1043e400113a800000002700808060000000210056
:1043f400808f5000faff3a0000000000113a80005c
:1044040000022000008060000000e000fbff32009a
:084414000080fa000000060020
:020000040000fa
:02000004000af0
:04afe000cfff00009f
:020000040000fa
:02000004000af0
:04afe400ffff00006b
:020000040000fa
:02000004000af0
:04afe8007fff0000e7
:020000040000fa
:02000004000af0
:04afec005fff000003
:020000040000fa
:02000004000af0
:04aff00038ff000026
:020000040000fa
:02000004000af0
:04aff400ffff00005b
:00000001FF
